:020000040800F2
:10000000A8C60020D9010008E1010008E3010008AA
:10001000E5010008E7010008E90100080000000010
:10002000000000080000000000000000450100087A
:10003000ED010008000000008101000849F90008F6
:10004000F3010008F3010008F3010008F3010008C0
:10005000F3010008F3010008F3010008F3010008B0
:10006000F3010008F3010008F3010008F3010008A0
:10007000F3010008F3010008F3010008F301000890
:10008000F3010008F3010008F3010008F301000880
:10009000F3010008F3010008F3010008F301000870
:1000A000F3010008F3010008F3010008F301000860
:1000B000F3010008456A0008F3010008F301000895
:1000C000F3010008F3010008F3010008F301000840
:1000D000F301000851700008E5700008A9720008DB
:1000E000F3010008F3010008F3010008F301000820
:1000F000F3010008F3010008F3010008F301000810
:10010000F3010008454E0008F3010008F301000860
:10011000F3010008F3010008F3010008F3010008EF
:10012000F3010008F3010008F3010008F3010008DF
:10013000DFF80CD000F0F0FC00480047F9E20008BE
:10014000A8C600201C4B19680868B0E8F00F80F3BF
:1001500009884FF0000080F311884EF00D0E7047B3
:100160000000000005480068006880F308884FF030
:10017000000080F3118862B600DF00BF08ED00E0E8
:10018000EFF309800C4B1A6820E9F00F106008B5F6
:100190004FF0BF0080F311880FF064FB4FF00000B8
:1001A00080F31188BDE8084019680868B0E8F00FCE
:1001B00080F30988704700BF14000020EFF311801E
:1001C0004FF0BF0181F31188704780F311887047A9
:1001D000EFF3058070470000064880470648004757
:1001E000FEE7FEE7FEE7FEE7FEE7FEE7FEE7FEE7E7
:1001F000FEE7FEE7916900083101000840EA0103CB
:100200009B0703D009E008C9121F08C0042AFAD2CC
:1002100003E011F8013B00F8013B521EF9D2704790
:10022000D2B201E000F8012B491EFBD27047002238
:10023000F6E710B513460A4604461946FFF7F0FFE5
:10024000204610BD0146002000E0401C0A5C002A48
:10025000FBD17047034611F8012B00F8012B002A4F
:10026000F9D11846704730B505460020034600E036
:100270005B1C934205D2EC5CC85C201A01D1002CB7
:10028000F6D130BD2DE9F0410546002090460E46DE
:10029000044600E0641C44450BD2285D00F0B9FA26
:1002A0000746305D00F0B5FA381A02D1295D002901
:1002B000F0D1BDE8F08100000FB400B58DB010A9F9
:1002C00009900B9000914FF0FF300A9000200C90A5
:1002D00005480690054807906A4609A80F9900F05E
:1002E000A5FA0DB05DF814FB49080008670800087E
:1002F0002DE9FF5FD2E901A74FF000089169994607
:100300001446DDF838B0464601988847054659EA54
:100310000B0005D009E0A169761C019888470546C5
:10032000216A284688470028F5D1681C03D05FEA77
:10033000CA7005D015E04FF0FF3004B0BDE8F09F63
:100340002068011D2160D0F800800AE05FEACA70D1
:1003500001D108F8015B7F1EA169761C01988847CE
:100360000546002F1ADD681C18D0B9F1000F0DD01A
:10037000E81705EBD060421120F01F0059F8221059
:100380002A1A012090400142E0D107E0BBF1000FA2
:10039000DCD1216A284688470028D7D0E169019836
:1003A00088470AF0010050EA0B0002D1002188F8CA
:1003B0000010A068B84203DDBBF1000F03D017B1F5
:1003C0006FF00100B9E73046B7E72DE9F0479146F5
:1003D0000F4680460446002614F8015B2DB100F05C
:1003E0000BFA0068405DC007F6D12B2D02D02D2DF1
:1003F00018D0641E4A463946204600F045FA27B117
:100400003968A14201D1C7F8008071054FF002049C
:100410000BD54042002803DD0AF002F80460A00773
:10042000BDE8F08746F48066E4E70028F8DA09F0D2
:10043000F7FF04606FF00040F2E770B5064609F080
:10044000EFFF046805460A2200213046FFF7BDFF92
:100450002C6070BD2DE9FE4F804681EA0300C00F7D
:100460000C46009021F0004123F00045B8EB02005B
:10047000A94105D24046214690461C460B460246FD
:1004800023F00040104304D14046214603B0BDE8AC
:10049000F08F270DC7F30A00C3F30A510290401AE8
:1004A0000190402866DAC3F3130040F4801B0098E3
:1004B000924620B10023D2EB030A63EB0B0B0198A9
:1004C0005946C0F14002504600F064F906460D4618
:1004D00050465946019A00F07CF910EB0800614142
:1004E000002487EA115284EAE7731A433BD0009A4A
:1004F0003AB3019A012A4FEA075210DC001B61EB64
:1005000002014FF0004202EA0752CDE90042001C0E
:1005100041F5801132462B4600F012FAB6E7001B77
:1005200061EB0201001C41F5801300185B412018AB
:10053000A2F5001747EB030140EAD570B6196D41EB
:1005400011E06D084FEA360645EAC0754FEA0752DA
:10055000001B61EB0201001C41F5801149084FEAC4
:1005600030000019514132462B4603B0BDE8F04F30
:1005700000F0D9B90098012240000023D0EB02021C
:1005800063EBE073009821464FEAE074B8EB00009B
:1005900061EB0401E9E783F000435BE781F0004190
:1005A00058E72DE9FE4F81EA030404F0004421F0EE
:1005B000004100944FF0000B23F0004350EA010487
:1005C00002D052EA030404D10020014603B0BDE882
:1005D000F08FC3F30A54C1F30A552C44A4F2F33448
:1005E0000194A0FB0254C1F3130141F48011C3F341
:1005F000130343F4801301FB024400FB034E840AFF
:10060000970A44EA815447EA8357A4FB0768029596
:100610008D0A05FB07854FEA932C04FB0C54270534
:10062000029D4FEA065847EA1637B5EB08056EEB10
:10063000070C870E920E47EA811742EA8312A7FB46
:100640000201B6EB0B0164EB00042B0D43EA0C3303
:100650005E1844EB1C50DA465146E7FB0201C5F335
:1006600013044FEA0B3343EA14534FEA0432019C5C
:1006700043EA0603A4F10C040294009CCDE900B403
:1006800000F05EF9A2E70EB5C10F80EAE070084401
:10069000CA07002140F233438DE80E000A460B469C
:1006A00000F04EF903B000BD0EB540F233410291A7
:1006B0000021CDE900110A460B4600F041F903B0D4
:1006C00000BD70B5C1F30A5201F000450024C1F32A
:1006D000130140F2FF3341F480119A4201DA002005
:1006E00070BD40F233439A42A2F2334203DC5242DD
:1006F00000F05FF800E090402C43F1D0404270BD24
:10070000C1F30A5210B5C1F3130140F2FF3341F4B3
:1007100080119A4201DA002010BD40F233439A4220
:10072000A2F2334203DC524200F043F810BD904085
:1007300010BD2DE9F05F0546002092469B46884695
:100740000646814640241BE028464146474622464D
:1007500000F02FF853465A46C01A914110D3114663
:100760001846224600F016F82D1A67EB01084F468E
:1007700022460120002100F00DF817EB00094E4140
:10078000201EA4F10104DFDC484631462A464346D8
:10079000BDE8F09F202A04DB203A00FA02F1002095
:1007A00070479140C2F1200320FA03F319439040AF
:1007B0007047202A04DB203A21FA02F0002170471A
:1007C00021FA02F3D040C2F12002914008431946B9
:1007D0007047202A06DBCB17203A41FA02F043EAA1
:1007E000E07306E041FA02F3D040C2F120029140EA
:1007F0000843194670470000004870470CA40108E0
:1008000010B50446FFF7F8FF0068005D00F0010036
:1008100010BDA0F14101192900D820307047000017
:10082000026811441378016018467047D16004498A
:1008300051610449116200211161114600F08CB927
:100840002108000801080008426842B1016811F857
:10085000013B23B1521EC0E9001218467047012126
:10086000C160881E704742685AB1C368016843B9C5
:1008700083688B4205D0491E521CC0E9001200203B
:1008800070474FF0FF3070472DE9F05F82460078E7
:10089000002715468B460AF10104B946302801D0DD
:1008A0009DB113E014F8010B0127782803D05828D4
:1008B00001D045B10AE00DB1102D07D10027102558
:1008C00014F8010B02E0082500E00A250026B046D6
:1008D0000EE005FB080005FB06F1012701EB1046C1
:1008E0001FFA80F8B6F5803F00D3B94614F8010B23
:1008F000294600F023F90028EBDABBF1000F05D000
:100900000FB1641E00E05446CBF80040B9F1000F6F
:1009100006D009F085FD02210160C81EBDE8F09FE8
:1009200048EA0640FAE710B5002B08DA401C41F10E
:10093000000192185B411A4301D120F0010010BD63
:100940002DE9F04D92469B4611B1B1FA81F202E0D9
:10095000B0FA80F220329046FFF71CFF04460F46A3
:1009600040EA0A0041EA0B0153465A46084303D1C4
:1009700020463946BDE8F08D114653EA010015D0F6
:10098000C8F140025046FFF714FF05460E46504698
:1009900059464246FFF7FEFE084301D0012000E021
:1009A0000020054346EAE0762C4337430A984FEA95
:1009B0004453A0EB08004FEAD4240A304FF0000261
:1009C00044EA47544FEAD72502D500200146D1E733
:1009D000010510196941DDE9084500196941BDE8C3
:1009E000F04DA0E72DE9F04D81EA030404F0004B3F
:1009F00021F0004514464FF0000A23F0004150EA70
:100A0000050220D054EA01021DD0C5F30A57024660
:100A1000C5F31303C1F31300C1F30A5640F4801564
:100A200043F48013A7EB0608101BD64608F2FD38E6
:100A300073EB050002D308F1010801E092185B4155
:100A4000B8F1000F03DA00200146BDE8F08D002068
:100A50004FF48011064684460EE0171B73EB050722
:100A600005D3121B63EB050306434CEA010C49084E
:100A70004FEA300092185B4150EA0107EDD152EA8B
:100A8000030012D082EA040083EA0501084303D17F
:100A900000224FF0004308E0101BAB4102D20122BC
:100AA000002302E06FF0010253101AEB06004CEB3A
:100AB000085110EB0A0041EB0B01BDE8F04DFFF7C8
:100AC00032BF70B521F0004303430CD0C1F30A5587
:100AD0000024D5EB040564EB0403D617AD1AB3412B
:100AE00002DB0020014670BD201841EB025170BDB1
:100AF00030B5002904DB4FF00044404264EB0101B3
:100B0000002B04DB4FF00044524264EB0303994294
:100B100008BF904230BD0000064C074D06E0E0687B
:100B200040F0010394E8070098471034AC42F6D334
:100B3000FFF702FB34A4010854A401083A2800D2AC
:100B4000303820F02002412A01D3A2F13700884238
:100B500001D34FF0FF3070472DE9F34F8BB04FF0CA
:100B6000000801F10C000C464FF0010B46460DF158
:100B7000080A0190626901210198904705002DD073
:100B8000252D2CD0216A8847C0B1626901210198C6
:100B90009047216A88470028F7D1411E6269019871
:100BA000904700E0761CA1690B988847216A884726
:100BB0000028F7D1E1690B988847DBE7A1690B981A
:100BC00088470746A84201D1761CD3E7E1690B9814
:100BD00088477F1C02D1B8F1000F6FD045E1002794
:100BE00062693D463946019890472A2804D16269D6
:100BF0000121019890470125DFF884926269012163
:100C000001989047A0F130010A290AD24F45E5DC4E
:100C100007EB870100EB4107303FDFD445F01005BB
:100C2000ECE7E90601D46FF000476C280AD04C28A5
:100C300014D0682815D06A280DD074281CD07A28C2
:100C40001AD01DE062690121019890476C2802D0FA
:100C500045F0040514E045F002050DE045F02005DF
:100C60000AE06269012101989047682802D045F0A6
:100C7000080505E045F40065626901210198904787
:100C8000C4E9015765283DD019DC582879D00CDC1F
:100C9000452837D004DC252826D0412831D131E041
:100CA00046282FD047282CD12CE05B287FD0612804
:100CB00028D063287BD0642823D159E0CFE06F2867
:100CC00047D008DC66281DD067281BD0692821D0B2
:100CD0006E2816D127E0702844D0732867D0752875
:100CE00046D078280DD14CE0A1690B98884705467D
:100CF00025283FF469AFE1690B9888476D1C3FF4E4
:100D00006AAFB2E023466A466FF001000B99AFF379
:100D100000809DE045F040006060A80723464FF04A
:100D2000000235D43DE0206800F104012160006834
:100D3000290501D506701DE7290701D5068019E7A9
:100D4000A90704D54FEAE671C0E9006112E7066021
:100D500010E745F040006060A80723464FF0080206
:100D600016D41EE040F60E0125EA0100606016E090
:100D700045F040006060A80723464FF00A0207D400
:100D80000FE045F040006060A80708D52346102218
:100D90006FF001000B99AFF3008059E007E02346A4
:100DA00010226FF001000B99AFF3008050E04FF07C
:100DB00000094F464B46632802D05B2806D040E02E
:100DC000E80601D40120A06001273AE06269012110
:100DD000019890475E2805D14FF0010962694946A4
:100DE00001989047216939B900210B46524642F8D3
:100DF0002130491C0829FADBB0B3216969B9C11750
:100E000000EBD1614B110AEB830221F01F01411A63
:100E1000012013688840034313606269012101982F
:100E200090475D28E8D1B9F1000F09D00020514664
:100E300051F82020D24341F82020401C0828F7DB3D
:100E400002AB224600976FF001000B99FFF750FAB2
:100E500000280CDA401C08D1BBF1000F05D04FF080
:100E6000FF300DB0BDE8F08FFFE74046F9E7E90736
:100E700001D108F1010806444FF0000B7AE60000AA
:100E8000CCCCCC0C2DE9F04D00231A461B1A8A411C
:100E900003DB00200146BDE8F08DC1F30A52C1F327
:100EA000130141F480154FF0000BD10702D1001857
:100EB0006D41521E0027044640F2FF11384601EBF7
:100EC000620A3E468046024600204FF48011FFF73A
:100ED00070FCC2197141BB1846EB0100B4EB030C66
:100EE00075EB000C04D3E41A65EB000517460E46BB
:100EF000241908F101006D4180463428E3DDF91919
:100F000046EB0600091BA84103D24FF0FF321346FF
:100F100001E0002213461BEB070046EB0A51BDE837
:100F2000F04DFFF700BD70B501EB020410F8015B56
:100F300015F0070301D110F8013B2A1106D110F872
:100F4000012B03E010F8016B01F8016B5B1EF9D176
:100F50002B0705D40023521E0FD401F8013BFAE7FA
:100F600010F8013B02F10202A1EB030303E013F8C6
:100F7000015B01F8015B521EF9D5A142D6D30020D6
:100F800070BD000010B58AB039480078012818D12A
:100F9000384908703848006830B1374837A10268CE
:100FA000684606F0FBFA03E039A1684606F0F6FA57
:100FB0006846FFF747F9441C2146684602F09EFB4D
:100FC00053E02B480078022818D12A49087033488A
:100FD000006830B1314832A10268684606F0DEFA96
:100FE00003E034A1684606F0D9FA6846FFF72AF90B
:100FF000441C2146684602F081FB36E01C4800781C
:10100000032818D11B4908702D48006830B12C48BE
:101010002CA10268684606F0C1FA03E02EA16846DA
:1010200006F0BCFA6846FFF70DF9441C21466846F5
:1010300002F064FB19E00E480078042815D10D4930
:1010400008702848007820B127A1684606F0A6FA63
:1010500003E02BA1684606F0A1FA6846FFF7F2F814
:10106000441C2146684602F049FB0AB010BD00004E
:101070009201002070010020A801002020BBD8C2EE
:10108000B7D1A1D4F13A2020252D38580000000016
:1010900020BBD8C2B7D1A1D4F13A0000AC010020E6
:1010A00020D6F7B5C0D1A1D4F13A2020252D38584B
:1010B0000000000020D6F7B5C0D1A1D4F13A00005D
:1010C000B001002020B8A8B5C0D1A1D4F13A2020A9
:1010D000252D38580000000020B8A8B5C0D1A1D4F3
:1010E000F13A0000B401002020CDB6B9E2D1A1D47C
:1010F000F13A2020A1F6CAC7202020A1F5B7F100BF
:1011000020CDB6B9E2D1A1D4F13A2020A1F5CAC7C9
:10111000202020A1F6B7F10010B547F6FF700CF0C3
:1011200096FC10BD0A280ED200EB8001490001EBAD
:101130008101490001EB8101490001EB8101490076
:1011400001EB8101480064280BD200EB80014900CB
:1011500001EB8101490001EB8101490001EB8101B3
:101160004800B0F57A7F08D200EB8001490001EB1E
:101170008101490001EB8101480042F2107188426F
:1011800005D200EB8001490001EB810148000349D1
:10119000884202D200EB800148007047A08601001F
:1011A00038B502F0C9FB6448007812280CD16348B6
:1011B0000078401E6149087008460078012802DA6C
:1011C0005F48007808709AE05B48007813280ED1D9
:1011D0005A480078401C5949087008460078584918
:1011E00009788842EFDD01205449087087E05248B1
:1011F0000078142831D153480078082808D0514885
:1012000000780C2804D04F4800780F2800D038BD53
:101210004D480078012808DD4B480078401E4A49B7
:1012200008700120454908700AE04848007846499E
:10123000087046480078012802D001203F49087014
:10124000404800788DF800003B4800788DF8010098
:101250000221684603F0FAFED9E7374800781528DE
:1012600032D138480078082808D0364800780C2851
:1012700004D0344800780F2800D0C8E732480078FE
:1012800032490978884208DA01202C4908702E4832
:101290000078401C2C49087009E001202A49087098
:1012A0002A480078012802D00120244908702548E6
:1012B00000788DF80000204800788DF801000221A8
:1012C000684603F0C3FEA2E71B480078162816D133
:1012D0001A4801781B48007800F046FC70B11948A4
:1012E00000788DF80000154800788DF80100022183
:1012F000684603F0ABFE01201549087087E70F48E8
:1013000000788DF8000000208DF801000D48047869
:10131000072C0FD00A2C0DD00B2C0BD00E2C09D083
:10132000132C07D06846FEF78DFF05462946684610
:1013300002F0C8F900BF6AE78D0100209201002089
:10134000950100208E0100209301002094010020CF
:101350009601002070B52A2544F6206400E0641E42
:1013600024B1802003F046FD0028F8D014B90325ED
:10137000284670BD40F2FF5003F0F4FC2846F8E721
:101380002DE9F04106462A274748456B01E04648CB
:10139000456B15F0450FFAD015F0040F06D0032762
:1013A000042003F0DFFC3846BDE8F08115F0010FA2
:1013B00005D00127012003F0D5FC3846F4E703F0FF
:1013C00013FDB04202D010273846EDE740F2FF503F
:1013D00003F0C8FC002003F02DFD0446334804420E
:1013E00001D13846E0E714F0004F01D01C20DBE7C4
:1013F00014F0804F01D00920D6E714F0005F01D02F
:101400000A20D1E714F0805F01D00B20CCE714F064
:10141000006F01D00C20C7E714F0806F01D00D20C1
:10142000C2E714F0807F01D00E20BDE714F4000F56
:1014300001D00F20B8E714F4800F01D01020B3E7DB
:1014400014F4001F01D01120AEE714F4801F01D066
:101450001220A9E714F4002F01D01320A4E714F4FC
:10146000802F01D014209FE714F4003F01D01520F5
:101470009AE714F4803F01D0162095E714F4004F4A
:1014800001D0172090E714F4804F01D018208BE78B
:1014900014F4005F01D0192086E714F0080F01D082
:1014A0001A2081E738467FE70080014008E0FFFD11
:1014B00070B52A250F48446B01E00E48446B14F0C8
:1014C000450FFAD014F0040F05D00325042003F0D3
:1014D00049FC284670BD14F0010F05D001250120FC
:1014E00003F040FC2846F5E740F2FF5003F03AFCD9
:1014F0002846EFE70080014070B52A250B48446B71
:1015000001E00A48446B14F0450FFAD014F0040FC0
:1015100005D00325042003F025FC284670BD40F2C9
:10152000FF5003F01FFC2846F8E700000080014050
:101530002DE9F04106460F464FF02A082248456B38
:1015400001E02148456B15F0450FFAD015F0040F66
:1015500007D04FF00308042003F004FC4046BDE828
:10156000F08115F0010F06D04FF00108012003F0C3
:10157000F9FB4046F3E703F037FCB04203D04FF0ED
:1015800010084046EBE740F2FF5003F0EBFB002071
:1015900003F050FC044614F4604F03D1200C388053
:1015A0004046DCE714F4005F01D01320D7E714F4C1
:1015B000804F01D01020D2E714F4004F01D00F204B
:1015C000CDE74046CBE700000080014070B52A26F9
:1015D00044F620650F48446B02E06D1E0D48446BD5
:1015E00014F0450F01D1002DF7D115B114F0040FFF
:1015F00005D00326042003F0B5FB304670BD14F07F
:10160000400F05D02A26402003F0ACFB3046F5E71A
:101610003046F3E7008001400E480078092803D1E6
:1016200001200D49087012E00A4800780A2803D109
:101630000220094908700AE0064800780B2803D107
:1016400003200549087002E00020034908700248A1
:10165000007870478E010020B90100201FB506F008
:1016600009F802F055FE4FF4165006F02FF800224C
:1016700004210A200EF078F90749086000200323AE
:10168000CDE90030029003464FF4A07203A103900D
:1016900003480EF013FB1FBD8C000020434F4D008C
:1016A00029A4000838B504460D462A4621460120E3
:1016B00006F02CF80090002340F6C4126946064854
:1016C00000680EF029FA012804D0009806F032F8DC
:1016D000012038BD0020FCE78C00002010B5044636
:1016E0002146074805F029FF2146064805F025FF59
:1016F00000BF8021034805F052FE0028F9D010BD3C
:10170000003801400044004070B504460D460026F4
:1017100005E014F8010BFFF7E1FF701CC6B2AE4202
:10172000F7DB70BD10B5044603E014F8010BFFF7BA
:10173000D5FF20780028F8D110BD000038B5044648
:101740000D46EAB22146022005F0E0FF009000239A
:1017500040F6C4126946064800680EF0DDF901281B
:1017600004D0009805F0E6FF012038BD0020FCE71A
:101770008C00002010B504462146054805F0DDFE2A
:1017800000BF8021024805F00AFE0028F9D010BDF4
:101790000048004010B5044603E014F8010BFFF7C1
:1017A000E9FF20780028F8D110BD00001FB505F032
:1017B000E1FF02F0E7FD4FF4164006F007F80022C3
:1017C00004210F200EF0D0F8074908600020022302
:1017D000CDE90030029003464FF4A07203A10390BC
:1017E00004480EF06BFA1FBDB8000020434F4E4670
:1017F000494700000D78000838B504460D46EAB2A6
:101800002146012005F09CFF0090002340F6C41201
:101810006946064800680EF07FF9012804D0009858
:1018200005F0A2FF012038BD0020FCE7B800002031
:1018300010F0805F02D00349086001E0024948606F
:1018400070470000040402400000024021B1026819
:1018500042F00102026004E002684FF6FE731A4093
:101860000260704701460020002211F0805F02D024
:10187000054B1A6801E0054B1A680A4201D00120A5
:1018800000E0002070470000000402400000024019
:1018900010B50022026847F6F0739A430C6A8B6811
:1018A00023430C6923434C6923438C692343CC694C
:1018B00023434C6A23438C6A23431A430260CB6858
:1018C00043600B6883604B68C36010BD30B58BB05C
:1018D00005460C461348FFF7ABFF00211248FFF7FF
:1018E000B5FF12480090019500200290A0080390D7
:1018F00000200490802005908000069080000790D2
:10190000002008904FF40050099000200A9069468A
:101910000548FFF7BDFF01210348FFF797FF0BB014
:1019200030BD000000F000104404024080800140FF
:1019300030B58BB005460C461348FFF779FF002100
:101940001248FFF783FF1248009001951020029083
:10195000A00803900020049080200590800006904D
:1019600080000790002008904FF40050099000205C
:101970000A9069460548FFF78BFF01210348FFF7EE
:1019800065FF0BB030BD000000F0001044040240C1
:10199000808001402DE9FF4F87B00E4690464FF002
:1019A0000009142242A16846FEF728FCB8F1000F96
:1019B00001D1002002E04046FEF744FC00F0FF0A9F
:1019C0000AF10E00C1B20A9801700A990978481C00
:1019D0000DF0A6FC044604223AA13046FEF743FC73
:1019E00018B9FF20207060701DE03848007880B181
:1019F00005AA37A13046FEF75FFC1022002105A89A
:101A0000FEF7E3FC81464FEA1920207084F801902C
:101A100009E03178707861F31F102070B178F078A8
:101A200061F31F106070A71C022038703146781CCB
:101A3000FEF710FC07980078787107984178B97123
:101A4000684600EB1A100078F8710AF00F001DF8D4
:101A500000103972B8F1000F04D0414604F10B00B8
:101A6000FEF7F8FBA51C4FF00009CB4607E015F880
:101A7000010B80EA09090BF1010000F0FF0B0AF1EC
:101A800009008345F3DBC9F303111DF8010005F8D4
:101A9000010B09F00F001DF8000005F8010B0320F1
:101AA00005F8010B0020287020460BB0BDE8F08F30
:101AB0003031323334353637383941424344454684
:101AC000000000004646464600000000BE0100201F
:101AD0002534730070B5054629460EA005F04EFD6D
:101AE000114C0EE02068FEF7ADFB06463246294653
:101AF0002068FEF7B8FB18B928466168884770BDB2
:101B0000083420680028EDD108A005F037FD00BF9B
:101B1000F5E70000446562756748616E646C657244
:101B20003A2025730A0000004400010844656275EC
:101B30006748616E646C65723A2043616E206E6F17
:101B4000742068616E646C65720A0000014606E0EC
:101B5000002000E0401C42F210729042FAD30A00CA
:101B6000A1F10101F4D1704770B58CB005460C4667
:101B700001F0C0FC06463246C2A102A805F00EFDE7
:101B8000A81E182870D2DFE800F00C0F1146A4EE52
:101B9000EDEC6FEBEAE9E8E7E6E5E4E3E2E1E0DF5C
:101BA0006FDE01200CB070BD0120FBE7062C30D2A7
:101BB000DFE804F02F030A171E2DB348007808B998
:101BC0000020EFE70120EDE79DF8080008B90020AC
:101BD000E8E7AE480078022801DA0020E2E70120B9
:101BE000E0E7AB48007808B90020DBE70120D9E73F
:101BF0000A22A8A1002006F07BF8019000230A2207
:101C000001A9A74800680DF087FF0120CAE701205D
:101C1000C8E70020C6E70A2C59D2DFE804F05805CF
:101C20000C1920285834404C9748007808B90020F7
:101C3000B8E70120B6E79DF8080008B90020B1E731
:101C400092480078022801DA0020ABE70120A9E7DA
:101C50008F48007808B90020A4E70120A2E78C484B
:101C6000007810B900209DE709E101209AE7884833
:101C7000007808B9002095E78A48007808B9002064
:101C800090E701208EE78848006808B9002089E7BE
:101C90008648007808B9002084E7012082E782485E
:101CA000006808B900207DE78048007808B9002066
:101CB00078E7012076E77C48006808B9002071E7E2
:101CC0007A48007808B900206CE701206AE7002014
:101CD00068E70021764805F056FB0121754805F0BC
:101CE00052FB0A2C5CD2DFE804F05B050C192027BC
:101CF0003F464D546448007808B9002052E701205F
:101D000050E79DF8080008B900204BE75F480078CD
:101D1000022801DA002045E7012043E75C4800780B
:101D200008B900203EE701203CE75E48007808B98A
:101D3000002037E7012035E75548007808B9002032
:101D400030E701202EE78EE08BE083E07BE073E05C
:101D50006BE063E05BE053E04BE043E03BE033E00B
:101D600030E028E020E01DE04948007808B9002074
:101D700018E7012016E74648007808B9002011E767
:101D800001200FE74248007808B900200AE7012047
:101D900008E73F48007808B9002003E7012001E781
:101DA0000020FFE60120FDE63748007808B9002052
:101DB000F8E60120F6E69DF8080008B90020F1E6F3
:101DC0000120EFE60120EDE62F48007808B9002059
:101DD000E8E60120E6E69DF8080008B90020E1E603
:101DE0000120DFE69DF8080008B90020DAE60120AE
:101DF000D8E62548007808B90020D3E60120D1E6CE
:101E00009DF8080008B90020CCE60120CAE69DF83C
:101E1000080008B90020C5E60120C3E69DF80800C7
:101E200008B90020BEE60120BCE69DF8080008B90C
:101E30000020B7E60120B5E69DF8080008B90020AB
:101E4000B0E60120AEE69DF8080008B90020A9E63A
:101E50000120A7E69DF8080008B90020A2E60120AD
:101E6000A0E601209EE6012C02D0022C04D101E064
:101E7000012097E6012095E600BF00BF00BF0020CB
:101E800090E6000025730000970100203501002036
:101E9000990100205348554E434F4D0D0A00000054
:101EA000CC010020B60100209C0100208B00002006
:101EB000004800400044004030B599B030480078F8
:101EC00020B130A102A805F069FB03E02FA102A810
:101ED00005F064FB2F48006840B92F48006828B916
:101EE0002E48006810B92648007898B102202C4985
:101EF000087001202B49086002A828490968CDE92B
:101F0000001025480368234827A1026805A805F0AA
:101F100045FB01E019B030BD1E48006850B90024EF
:101F200006E0202104F10A0005AA1154601CC4B285
:101F3000082CF6DB1848006850B9002406E0202180
:101F400004F11E0005AA1154601CC4B2082CF6DB73
:101F50001248006850B9002406E0202104F1320044
:101F600005AA1154601CC4B2082CF6DB05A8FEF7C4
:101F700069F9451C294605A801F034FB00BFC9E7F3
:101F8000B4010020D2D1D1A1D4F10000CEB4D1A1AE
:101F9000D4F10000A8010020AC010020B001002015
:101FA000A10100209C010020BBD8C2B7D1A1D4F16F
:101FB0003A20252D38582020D6F7B5C0D1A1D4F12C
:101FC0003A20252D38582020B8A8B5C0D1A1D4F189
:101FD0003A20252D38582020CDB6B9E2B5C62020AC
:101FE0003A2025730000000030B5A9B00020089009
:101FF00009900A90142103A8FEF719F96C4800789B
:1020000008B929B030BD6B48007801280CD16A4866
:102010000078012808D1694803786948027869A1E5
:102020000BA805F0BBFA27E062480078012808D128
:10203000624803786248027869A10BA805F0AEFAFD
:102040001AE05C480078022808D16C4803786C4894
:1020500002786CA10BA805F0A1FA0DE055480078B4
:1020600038B955480078012803D000208DF82C009D
:1020700002E000208DF82C009DF82C0078B1684813
:10208000007830B1674868A1026808A805F086FAB0
:1020900005E0644867A1026808A805F07FFA444893
:1020A0000078012805D166A268A103A805F076FA98
:1020B00062E03F480078022805D165A263A103A829
:1020C00005F06CFA58E03A480078032805D165A27B
:1020D0005EA103A805F062FA4EE0354800780428B6
:1020E00005D164A259A103A805F058FA44E030488C
:1020F0000078052805D162A254A103A805F04EFA84
:102100003AE02B480078062805D160A24FA103A829
:1021100005F044FA30E026480078072805D15EA291
:102120004AA103A805F03AFA26E0214800780828D9
:1021300005D15CA245A103A805F030FA1CE01C48BB
:102140000078092805D15AA240A103A805F026FA73
:1021500012E0174800780A2805D158A23BA103A82D
:1021600005F01CFA08E0124800780B2804D156A2AA
:1021700036A103A805F012FA01F0F8FD044601F0BB
:10218000B9F9054608A80BA92B4603AACDE9010415
:10219000009150A115A805F001FA15A8FEF752F814
:1021A000441C214615A801F001FA00BF29E70000F0
:1021B00097010020990100203501002037010020FF
:1021C000360100202FCEA8D2BBC6B5B5E33A2530E4
:1021D00032582FCDF8C2E749443A253032582F0003
:1021E0002FB5DAD2BBC6B5B5E33A253032582FCD7C
:1021F000F8C2E749443A253032582F00390100200F
:10220000380100202FB5DAB6FEC6B5B5E33A253061
:1022100032582FCDF8C2E749443A253032582F00C2
:10222000BE0100209C010020B5D8D6B73A25303435
:10223000582F0000B5D8D6B73A253034642F0000A7
:10224000BACFB7CA2FB1F5BAFE2F00002573000030
:10225000BACFB7CA2FCAF1C9BDB2FAD2B5D4B02F1E
:1022600000000000BACFB7CA2FB4F3C3F7BDDAC479
:10227000DC2F0000BACFB7CA2FD1FEBAA32F0000BF
:10228000BACFB7CA2FBEADBFAA2F0000BACFB7CA08
:102290002FD0C2D5BE2F0000BACFB7CA2FD5FECEE1
:1022A000F12F0000BACFB7CA2FB8DFD0C22F00007D
:1022B000BACFB7CA2FB0FCBAD32F0000BACFB7CA73
:1022C0002FC2AED1F42F0000B0B2BBD52FC1F9B0F0
:1022D000B22F000025732573257325732573000025
:1022E00010B58AB00C48007840B10C4803780C480F
:1022F00002780CA1684605F051F903E013A1684685
:1023000005F04CF96846FDF79DFF441C21466846E0
:1023100001F084F90AB010BDB6010020B801002018
:10232000B7010020D2D1C5E4D6C3B5C4D6D0D0C43D
:10233000BDDAB5E3C6B5B5E33A253032582020CD35
:10234000F8C2E749443A253032580000C7EBD1A122
:10235000D4F1C5E4D6C3D6D0D0C4BDDAB5E3B5C494
:10236000CDF8B9D82E2E2E202E2E2E0010B586B0E8
:10237000142101A8FDF75BFF3D48007808B906B0BD
:1023800010BD3B480078012805D13AA23CA101A824
:1023900005F004F962E036480078022805D139A238
:1023A00037A101A805F0FAF858E031480078032871
:1023B00005D139A232A101A805F0F0F84EE02C4871
:1023C0000078042805D138A22DA101A805F0E6F86F
:1023D00044E027480078052805D136A228A101A8A5
:1023E00005F0DCF83AE022480078062805D134A24E
:1023F00023A101A805F0D2F830E01D480078072895
:1024000005D132A21EA101A805F0C8F826E018489F
:102410000078082805D130A219A101A805F0BEF85E
:102420001CE013480078092805D12EA214A101A8A8
:1024300005F0B4F812E00E4800780A2805D12CA265
:102440000FA101A805F0AAF808E0094800780B28B8
:1024500004D12AA20AA101A805F0A0F801A8FDF75D
:10246000F1FE441C214601A801F0A0F800BF86E758
:1024700097010020BACFB7CA2FB1F5BAFE2F0000DE
:1024800025730000BACFB7CA2FCAF1C9BDB2FAD2BC
:10249000B5D4B02F00000000BACFB7CA2FB4F3C331
:1024A000F7BDDAC4DC2F0000BACFB7CA2FD1FEBA0D
:1024B000A32F0000BACFB7CA2FBEADBFAA2F00000E
:1024C000BACFB7CA2FD0C2D5BE2F0000BACFB7CA75
:1024D0002FD5FECEF12F0000BACFB7CA2FB8DFD06C
:1024E000C22F0000BACFB7CA2FB0FCBAD32F00005A
:1024F000BACFB7CA2FC2AED1F42F0000B0B2BBD54D
:102500002FC1F9B0B22F000038B504460D460120A6
:10251000A9B20090A0B24FF4FC63022200F032FE98
:1025200038BD000008B54FF48050ADF8000004201D
:102530008DF8030003208DF802006946014800F081
:102540008BFD08BD000C014010B505480AF0B3FC36
:10255000002204A104480AF0A7FD00F045FC10BDCC
:10256000C8B90020303A0000ECBB002005490968DA
:1025700021F01001034A11601146096801431160FE
:10258000704700000020024001460020034A106806
:1025900000F038000843106070470000002002403F
:1025A00051B14FF0204252F8202042F001024FF08A
:1025B000204343F8202009E04FF0204252F8202029
:1025C000034B1A404FF0204343F82020704700008F
:1025D000FEFF0F00D0E901121143C26811430269E6
:1025E00011434269114382691143C2691143026A6E
:1025F0001143426A1143826A1143C26A1143026B5A
:1026000011434FF02043026843F8221081680829E3
:1026100008D11A46016852F8211041F040010268C1
:1026200043F82210416B0968426B526841EA02117B
:10263000426B926841EA0221426B928941EA02416F
:10264000426B128A41EA0251426B127D41EA0261F9
:10265000426B926911430268521C4FF0204343F8C9
:102660002210C16AB1F5804F1AD1816B0968826B63
:10267000526841EA0211826B926841EA0221826B40
:10268000128A41EA0251826B127D41EA0261826B39
:1026900092691143026803EB8202C2F8041108E058
:1026A0006FF070414FF02043026803EB8202C2F8E2
:1026B0000411704700B599B001214FF4F07002F099
:1026C00079F94CF20370ADF8080018208DF80B0072
:1026D00003208DF80A0002A93D4800F0BDFC4FF62A
:1026E0008070ADF8080002A93A4800F0B5FC4FF23E
:1026F0003F00ADF8080002A9374800F0ADFC3F20CC
:10270000ADF8080002A9354800F0A6FC4FF460506F
:10271000ADF8080002A92E4800F09EFC3820ADF864
:10272000080002A92B4800F097FC3020ADF8080003
:1027300002A9274800F090FC4FF40070ADF80800A3
:1027400002A9264800F088FC052003900020049090
:102750000720059000200690079008904FF08050C9
:10276000099002200A9000200B9008200C90102065
:102770000D9000200E901090119012904FF4805008
:102780001390002014901590169003A8179018909D
:102790000AA8FFF71FFF01210220FFF701FF68468B
:1027A00000F022F8BDF900100DA004F0E7FEBDF91D
:1027B00002100BA004F0E2FEBDF9041008A004F022
:1027C000DDFEBDF9061006A004F0D8FE19B000BD6C
:1027D0000014014000180140001C0140002001408D
:1027E00025780D0A0000000000B50246AA200F4916
:1027F000088055200E49088090200C4908804FF031
:10280000C840008800B210804FF0C840408800B235
:1028100050804FF0C840808B00B290804FF0C8408D
:10282000C08B00B2D08000F005F800BDAA0A006499
:1028300054050064F0204FF0C84108800020704724
:1028400030B595B00446CA480078CA49097888422C
:102850000CD000208DF80000C7490870C7490870E7
:10286000C7490870C3480078C1490870C14800785A
:10287000012805D1C3A2C5A1684604F08FFE62E01D
:10288000BC480078022805D1C1A2C0A1684604F066
:1028900085FE58E0B7480078032805D1BEA2BBA149
:1028A000684604F07BFE4EE0B2480078042805D16B
:1028B000BBA2B6A1684604F071FE44E0AD480078C2
:1028C000052805D1B8A2B1A1684604F067FE3AE038
:1028D000A8480078062805D1B5A2ACA1684604F046
:1028E0005DFE30E0A3480078072805D1B2A2A7A179
:1028F000684604F053FE26E09E480078082805D17B
:10290000AFA2A2A1684604F049FE1CE099480078F5
:10291000092805D1ACA29DA1684604F03FFE12E053
:10292000944800780A2805D1A9A298A1684604F025
:1029300035FE08E08F4800780B2804D1A6A293A1A9
:10294000684604F02BFE6078962805D1A4A2A6A1C3
:102950000DA804F023FEE2E0207802282AD1607856
:10296000062822D2DFE800F02103090F151BA2A2DE
:102970009DA10DA804F012FE1BE0A1A29AA10DA832
:1029800004F00CFE15E0A0A297A10DA804F006FE2D
:102990000FE09FA294A10DA804F000FE09E09EA202
:1029A00091A10DA804F0FAFD03E000208DF8340099
:1029B00000BFB4E02078042828D16078012804D032
:1029C000022808D004281CD113E06A4686A10DA86D
:1029D00004F0E4FD19E068480078012805DD90A2C4
:1029E00081A10DA804F0DAFD02E000208DF834008A
:1029F0000BE002218CA000F0A1FD00208DF8340036
:102A000003E000208DF8340000BF88E0207805281E
:102A100030D16078012806D002280AD0042816D0C8
:102A2000052822D11BE06A466FA10DA804F0B6FD6F
:102A30001FE051480078012805DD79A26AA10DA8A0
:102A400004F0ACFD02E000208DF8340011E002211A
:102A500075A000F073FD00208DF8340009E073A22A
:102A600061A10DA804F09AFD03E000208DF8340068
:102A700000BF54E0207806281ED16078012804D0D9
:102A8000022808D0062812D10BE06A4656A10DA8EC
:102A900004F084FD0FE062A253A10DA804F07EFDB6
:102AA00009E064A250A10DA804F078FD03E0002025
:102AB0008DF8340000BF32E02078082805D0207857
:102AC0000C2802D020780F2816D16078142802D064
:102AD00015280CD105E06A4643A10DA804F05EFD5F
:102AE00009E06A4640A10DA804F058FD03E000206B
:102AF0008DF8340000BF12E02078142805D020782B
:102B0000152802D02078162806D160781C49087054
:102B100000208DF8340002E000208DF834000DA86C
:102B200001F00AFC454908700846007810B10DA86C
:102B300015B030BD00250EE0414A322168460AF04A
:102B4000CAF96846FDF77EFB042802D23D480570AD
:102B500003E0681CC5B2FF2DEEDB00BF38480AF069
:102B6000AAF9002238A139480AF09EFA0DA8DFE739
:102B70003B0100209701002035010020E0B8002033
:102B800099010020B1F5BAFE000000002573000095
:102B9000B2FAD2B5D4B00000B4F3C3F7000000001D
:102BA000D1FEBAA300000000BEADBFAA0000000025
:102BB000D0C2D5BE00000000D5FECEF1000000005E
:102BC000B8DFD0C200000000B0FCBAD300000000A3
:102BD000C2AED1F400000000C1F9B0B200000000A4
:102BE000BDE7C3E600000000303ABDE7C3E62F258D
:102BF000732E747874000000CFEEC4BF0000000094
:102C0000C5E4D6C300000000CEACD0DE000000005A
:102C1000B2E2CAD400000000BCF2BDE9000000002E
:102C2000C6B5B5E30000000043000000B5C6B8CB50
:102C300000000000B5F7B9E2000000005C010020D0
:102C4000C8B900203A010020303A0000ECBB002057
:102C50002DE9FC4107460D4600262A24002000905D
:102C6000019008205B49086010204860402088607F
:102C70000020C8604FF480600861084602F014F933
:102C80001020FEF77DFB04462A2C02D02046BDE82A
:102C9000FC815148008800044E4908603720486094
:102CA000402088600020C8604FF4806008610846BA
:102CB00002F0FAF83720FEF763FB04462A2C01D015
:102CC0002046E4E74548464908600820486030202F
:102CD00088600220C8600020086101204861084621
:102CE00002F058F800203B4908603320486040203B
:102CF00088600020C8604FF480600861084602F0D8
:102D0000D3F83320FEF73CFB04462A2C01D02046A2
:102D1000BDE709E04FF4001002F06CF820B102F0BA
:102D2000BDF84DF82600761C2E48406B40F22A6113
:102D30000842EFD0082002F05DF828B1082002F028
:102D400011F804242046A2E7022002F053F828B12B
:102D5000022002F007F80224204698E7202002F023
:102D600049F828B1202001F0FDFF062420468EE717
:102D70004FF4007002F03EF830B14FF4007001F0F3
:102D8000F1FF0724204682E740F2FF5001F0EAFFFE
:102D900000980006009901F47F4140EA0120009963
:102DA00001F47F0140EA1120009940EA1160686057
:102DB00001980006019901F47F4140EA0120019940
:102DC00001F47F0140EA1120019940EA1160286076
:102DD00020465CE79CB9002018010020FFFF0F008F
:102DE000B0B900200080014038B50AA0006800900A
:102DF00009480478072C0BD00A2C09D00B2C07D0DB
:102E00000E2C05D0132C03D00121684600F05AFC8B
:102E100038BD0000010000008E0100202DE9F041C6
:102E200004460E46A6F12000C0EB0010174900EB47
:102E3000010828F0010808222146404601F048FA1E
:102E400000250BE014F815706800401C205C04F8A5
:102E500015006800401C2754681CC5B2082DF1DB22
:102E6000304606EBD0714910B6EB41010AD0277805
:102E7000002504E0681C205C6055681CC5B20F2D5D
:102E8000F8DBE7731020BDE8F081000080BB0D0087
:102E90002DE9F04104460E46A6F120004FF47021C2
:102EA00001EB801820222146404601F011FA00254E
:102EB0000BE014F815706800401C205C04F8150045
:102EC0006800401C2754681CC5B2202DF1DB40204F
:102ED000BDE8F0812DE9F04104460E46F0B2A1387C
:102EE000A121C1EB2621C1EB011202EB411100EB44
:102EF0004107C7EB07104FF4803101EB40070F2269
:102F00002146384601F0E4F900250CE014F815805C
:102F10006800401C205C04F815006800401C04F8A0
:102F20000080681CC5B2102DF0DB0020A077E07790
:102F30002020BDE8F0812DE9F04104460E46F0B2B4
:102F4000A138A121C1EB2621C1EB011202EB4111F5
:102F500000EB41074FF4722101EBC71740222146D5
:102F6000384601F0B5F900250CE014F8158068002A
:102F7000401C205C04F815006800401C04F8008028
:102F8000681CC5B2402DF0DB8020BDE8F081000058
:102F900070B505460C46A4F50840A53805D1202299
:102FA0000D492846FDF72AF914E0A4F51E40FA3829
:102FB00005D1202209492846FDF720F90AE0A4F5A9
:102FC000104046010648064410222946304601F0CA
:102FD0007FF900BF202070BDC8000020E80000205D
:102FE00000770E0070B504460E46A6F51040C501E8
:102FF0000448054440222146284601F069F9802012
:1030000070BD00005050200008B54FF4F850ADF8E6
:10301000000003208DF8020018208DF80300694697
:103020000A4800F019F80420ADF800006946084885
:1030300000F012F84FF40060ADF8000048208DF861
:1030400003006946034800F007F808BD001001407E
:1030500000140140001C01402DE9F041024600250A
:103060000026002000230024002791F803C00CF064
:103070000F0591F803C01CF0100F03D091F802C0A7
:103080004CEA050591F800C0BCF1000F31D014687E
:1030900000202BE04FF0010C0CFA00F3B1F800C057
:1030A0000CEA03069E4220D183004FF00F0C0CFA6D
:1030B00003F7BC4305FA03FC4CEA040491F803C08F
:1030C000BCF1280F06D14FF0010C0CFA00FCC2F83D
:1030D00014C00AE091F803C0BCF1480F05D14FF0CD
:1030E000010C0CFA00FCC2F810C0401C0828D1D317
:1030F0001460B1F800C0BCF1FF0F34DD546800204B
:103100002EE000F1080C4FF0010808FA0CF3B1F8BA
:1031100000C00CEA03069E4221D183004FF00F0C41
:103120000CFA03F7BC4305FA03FC4CEA040491F8DB
:1031300003C0BCF1280F05D100F1080C08FA0CF807
:10314000C2F8148091F803C0BCF1480F07D100F118
:10315000080C4FF0010808FA0CF8C2F81080401C67
:103160000828CED35460BDE8F08102460020936861
:103170000B4201D0012000E0002070474161704700
:10318000016170472DE9F84F06460F469146984673
:1031900000244D460320A0EB49000FFA80FAA6E078
:1031A0000A98E0B307EB050C1FFA8CF3A6EB040CAE
:1031B0001FFA8CF207EB050C1FFA8CF106EB040CDE
:1031C0001FFA8CF0CDF8008000F096F8A7EB050C04
:1031D0001FFA8CF3A6EB040C1FFA8CF2A7EB050C7C
:1031E0001FFA8CF106EB040C1FFA8CF0CDF800806E
:1031F00000F082F807EB040C1FFA8CF3A6EB050C29
:103200001FFA8CF207EB040C1FFA8CF106EB050C8D
:103210001FFA8CF0CDF8008000F06EF800E014E0AA
:10322000A7EB040C1FFA8CF3A6EB050C1FFA8CF22B
:10323000A7EB040C1FFA8CF106EB050C1FFA8CF0BF
:10324000CDF8008000F058F837E07A1991B23219C1
:1032500090B242460AF095FE7A1991B2321B90B2B2
:1032600042460AF08EFE7A1B91B2321990B2424663
:103270000AF087FE7A1B91B2321B90B242460AF0E6
:1032800080FE3A1991B2721990B242460AF079FE64
:103290003A1991B2721B90B242460AF072FE3A1B82
:1032A00091B2721990B242460AF06BFE3A1B91B28B
:1032B000721B90B242460AF064FE601C84B2BAF1FE
:1032C000000F0EDB681E85B2A0000FFA80FBABEB8F
:1032D00085000FFA80FB0BF10A0050440FFA80FAC8
:1032E00005E0062000EB840050440FFA80FAA54266
:1032F0003FF756AFBDE8F88F2DE9FE4F82468B466B
:1033000091469846C34511D1CA4501DC544601E0B7
:103310004C46D14606E0594620460C9A0AF031FE4A
:10332000601C84B24C45F6DDBDE8FE8FC34503DD6D
:10333000ABEB080087B202E0A8EB0B0087B2CA45EE
:1033400010D1C34501DC5D4601E04546D84606E0A4
:10335000294650460C9A0AF014FE681C85B2454571
:10336000F6DDE1E7CA4507DDAAEB090086B24C4667
:10337000D1464546D84604E0A9EB0A0086B2544639
:103380005D46BE4211D10DE0601C84B2454502DDB0
:10339000681E85B201E0681C85B2294620460C9A59
:1033A0000AF0EFFD4C45EFDDA2E0294620460C9ADD
:1033B0000AF0E7FD45454DDABE4225DDC6EB470084
:1033C00000B20290780000B20190B81B400000B239
:1033D000009016E0601C84B20298002805DADDE94E
:1033E0000110084400B2029006E0681C85B2009902
:1033F0000298084400B20290294620460C9A0AF02E
:10340000C0FD4C45E6DB73E0C7EB460000B202901E
:10341000700000B20190F01B400000B2009016E076
:10342000681C85B20298002805DADDE9011008441D
:1034300000B2029006E0601C84B200990298084431
:1034400000B20290294620460C9A0AF09AFD4545A2
:10345000E6DB4DE0BE4225DDC6EB470000B2029040
:10346000780000B20190B81B400000B2009016E056
:10347000601C84B20298002805DADDE901100844D6
:1034800000B2029006E0681E85B2009902980844D6
:1034900000B20290294620460C9A0AF072FD4C4573
:1034A000E6DB25E0C7EB460000B20290700000B2F8
:1034B0000190F01B400000B2009016E0681E85B23B
:1034C0000298002805DADDE90110084400B20290F4
:1034D00006E0601C84B200990298084400B2029091
:1034E000294620460C9A0AF04CFDA845E6DB00BFB1
:1034F00000BF19E700487047E0B800201FB50AF088
:10350000D5FA0022042132200CF02EFA0749086077
:1035100000200523CDE90030029003464FF4886275
:1035200003A1039004480CF0C9FB1FBD84010020D7
:10353000494C493933323000797C000838B50446AB
:103540000D462A462146092004F07AFB009000230C
:1035500040F6C4126946064800680CF0DDFA0128FE
:1035600004D000980CF0C6F8012038BD0020FCE71C
:103570008401002038B504460D462A462146042021
:1035800004F05EFB0090002340F6C4126946064832
:1035900000680CF0C1FA012804D000980CF0AAF8D9
:1035A000012038BD0020FCE78401002038B5044626
:1035B0000D462A462146052004F042FB00900023D8
:1035C00040F6C4126946064800680CF0A5FA0128C6
:1035D00004D000980CF08EF8012038BD0020FCE7E4
:1035E0008401002038B504460D462A4621460020B5
:1035F00004F026FB0090002340F6C41269460648FA
:1036000000680CF089FA012804D000980CF072F8D8
:10361000012038BD0020FCE78401002038B50446B5
:103620000D462A462146012004F00AFB00900023A3
:1036300040F6C4126946064800680CF06DFA01288D
:1036400004D000980CF056F8012038BD0020FCE7AB
:103650008401002038B504460D462A46214607203D
:1036600004F0EEFA0090002340F6C41269460648C2
:1036700000680CF051FA012804D000980CF03AF8D8
:10368000012038BD0020FCE78401002038B5044645
:103690000D462A462146022004F0D2FA009000236B
:1036A00040F6C4126946064800680CF035FA012855
:1036B00004D000980CF01EF8012038BD0020FCE773
:1036C0008401002038B504460D462A4621460320D1
:1036D00004F0B6FA0090002340F6C412694606488A
:1036E00000680CF019FA012804D000980CF002F8D8
:1036F000012038BD0020FCE78401002038B50446D5
:103700000D462A462146082004F09AFA009000232C
:1037100040F6C4126946064800680CF0FDF901281D
:1037200004D000980BF0E6FF012038BD0020FCE734
:103730008401002038B504460D462A4621460A2059
:1037400004F07EFA0090002340F6C4126946064851
:1037500000680CF0E1F9012804D000980BF0CAFFD2
:10376000012038BD0020FCE7840100201CB5124870
:10377000007820B911A16846FCF76CFD03E010A1A8
:103780006846FCF767FD0F48007858B90E48007886
:10379000092803D00C4800780D2803D10BA16846F6
:1037A000FCF758FD6846FCF74DFD441C2146684671
:1037B000FFF750FF1CBD00008C01002031323300A8
:1037C00041424300BE0100208E0100202020200045
:1037D0002DE9F04106462A2700240025524800889A
:1037E0000004524908600D20486040208860002095
:1037F000C8604FF480600861084601F055FB4C48F2
:10380000456B01E04A48456B15F0450FFAD015F0BD
:10381000040F06D00327042001F0A4FA3846BDE8BF
:10382000F08115F0010F05D00127012001F09AFA6F
:103830003846F4E701F0D8FA05460D2D02D01027DE
:103840003846ECE740F2FF5001F08CFA002001F01E
:10385000F1FA0446C4F3432030703648044201D1E3
:103860003846DCE714F0004F01D01C20D7E714F0F5
:10387000804F01D00920D2E714F0005F01D00A2068
:10388000CDE714F0805F01D00B20C8E714F0006F83
:1038900001D00C20C3E714F0806F01D00D20BEE7EB
:1038A00014F0807F01D00E20B9E714F4000F01D08E
:1038B0000F20B4E714F4800F01D01020AFE714F408
:1038C000001F01D01120AAE714F4801F01D012209C
:1038D000A5E714F4002F01D01320A0E714F4802FE3
:1038E00001D014209BE714F4003F01D0152096E787
:1038F00014F4803F01D0162091E714F4004F01D05A
:1039000017208CE714F4804F01D0182087E714F4B7
:10391000005F01D0192082E714F0080F01D01A20AF
:103920007DE738467BE70000180100209CB90020A5
:103930000080014008E0FFFD10B50E4800780E49F8
:103940000978884203DD0F200C49087008E000F078
:10395000D3FC0F2190FBF1F201FB12000749087024
:1039600007480078132802D104200449087003484E
:10397000007810BD940100209301002095010020E3
:103980008E0100201FB50AF047FB03F0B3FA0022B6
:10399000042105200BF0E8FF0749086000200423FC
:1039A000CDE90030029003464FF4107203A103905A
:1039B00003480CF083F91FBDCC0100204B45590092
:1039C000197D000808B54CF23370ADF800000320F3
:1039D0008DF8020018208DF8030069461948FFF79A
:1039E0003BFB4FF68070ADF8000069461648FFF7C4
:1039F00033FB0120ADF8000069461448FFF72CFBAB
:103A00004FF48050ADF8000069461148FFF724FBE1
:103A10006020ADF8000069460B48FFF71DFB8020D1
:103A2000ADF8000003208DF8020010208DF803008F
:103A300069460848FFF710FB80210648FFF7A0FB06
:103A400008BD00000014014000180140001C0140A6
:103A500000200140001001402DE9F05F0746884634
:103A600091469A46002400250026A34607F0FF0B46
:103A7000594640460AF0BEF900BF24E000F04AF97A
:103A8000002615E0002510E0022000FB046019F874
:103A9000000080212941084203D10A9800F028F94A
:103AA00002E0504600F024F96D1C082DECD3761C82
:103AB000022EE7D30BF1010000F0FF0B5946404600
:103AC0000AF098F9641C102CD8D3BDE8F09F2DE9BA
:103AD000F05F06460F4690469946DDF828B0002470
:103AE0000025A24606F0FF0A514638460AF082F940
:103AF00000BF1CE000F00EF900250DE018F80400EE
:103B000080212941084203D1584600F0F1F802E033
:103B1000484600F0EDF86D1C082DEFD30AF10100C6
:103B200000F0FF0A514638460AF064F9641C102C74
:103B3000E0D3BDE8F09F2DE9F05F07468846914647
:103B40009A46002400250026A34607F0FF0B59469D
:103B500040460AF04FF900BF24E000F0DBF80026F1
:103B600015E0002510E0022000FB046019F80000B9
:103B700080212941084203D10A9800F0B9F802E0F7
:103B8000504600F0B5F86D1C082DECD3761C022EC3
:103B9000E7D30BF1010000F0FF0B594640460AF055
:103BA00029F9641C202CD8D3BDE8F09F2DE9F05FE3
:103BB0000746884691469A46002400250026A346DB
:103BC00007F0FF0B594640460AF014F900BF24E005
:103BD00000F0A0F8002615E0002510E0042000FB0E
:103BE000046019F8000080212941084203D10A9895
:103BF00000F07EF802E0504600F07AF86D1C082DC7
:103C0000ECD3761C042EE7D30BF1010000F0FF0B80
:103C1000594640460AF0EEF8641C202CD8D3BDE883
:103C2000F09F00B59DB00620079000200890062068
:103C3000099000200A900B900C900D9002200090AB
:103C40000020019002200290002003900490059033
:103C5000069006200E9000200F90109010201190DA
:103C60000020129013901490159016904FF48050ED
:103C700017900020189019901A9007A81B90CDF863
:103C800070D00EA8FEF7A6FC01210620FEF788FCE6
:103C90001DB000BD70B54FF480510A48FFF76EFAB1
:103CA00022204FF0D841088008464588681C85B21C
:103CB000084644884FF480510248FFF761FA2046D5
:103CC00070BD00000020014070B505464FF48051E2
:103CD0000648FFF753FA4FF0D84044884FF480511C
:103CE0000248FFF74DFA204670BD00000020014059
:103CF00010B504464FF480510548FFF73FFA4FF0E6
:103D0000D84044804FF480510148FFF739FA10BD84
:103D10000020014010B54FF480510648FFF72EFAFD
:103D200022204FF0D84108804FF480510148FFF71E
:103D300027FA10BD0020014070B505460C464FF42F
:103D400080510648FFF71AFA4FF0D84005804480AA
:103D50004FF480510148FFF713FA70BD0020014075
:103D600010B5FFF72FFEFFF75CFF10BD004870474E
:103D700008B900207CB504460D46164647F6FF708C
:103D80004FF61F0110233246CDE900102946204688
:103D900000F044F87CBD7CB504460D46164647F657
:103DA000FF704FF4784110233246CDE900102946C8
:103DB000204600F033F87CBD7CB504460D4616461F
:103DC00047F6FF704FF6074110233246CDE9001049
:103DD0002946204600F022F87CBD7CB504460D46FD
:103DE000164647F6FF701F2110233246CDE900101A
:103DF0002946204600F012F87CBD7CB504460D46ED
:103E000047F6FF700021CDE90010601E010110236C
:103E10002A46002000F002F87CBD00002DE9F84F92
:103E200006460D4614461F46DDE90A8914B90020EE
:103E3000BDE8F88F00BF4FF47A7000F02DFA08B992
:103E40002046F5E7D1E020787F2801DC012100E061
:103E5000002100294AD020780D2801D1641CC4E03B
:103E600020780A280AD114F8010C0D2806D1103543
:103E7000641C0026E62D00DDBCE0B6E0E62D00DD8A
:103E8000B8E0102F17D1B6F59C7F04DD1035002661
:103E9000E62D00DDAEE021785B48FEF7BFFF1FFA9C
:103EA00089F01FFA88F3B1B20090A8B2564AFFF722
:103EB0000EFE083618E0202F16D1B6F5987F04DDE7
:103EC00020350026E62D00DD94E021784E48FEF7EF
:103ED000DFFF1FFA89F01FFA88F3B1B20090A8B291
:103EE000494AFFF728FE1036641C7DE020780AF06E
:103EF0005DF8002841D014F8011B4FEA012A207810
:103F00000AF054F800B975E014F8011B8A44102F28
:103F100018D1B6F5987F04DD10350026E62D00DDBA
:103F200068E01FFA8AF13848FEF7D4FF1FFA89F0DB
:103F30001FFA88F3B1B20090A8B2334AFFF78CFDA4
:103F4000103619E0202F17D1B6F5907F04DD20350B
:103F50000026E62D00DD4DE01FFA8AF12A48FEF723
:103F6000EAFF1FFA89F01FFA88F3B1B20090A8B2F5
:103F7000254AFFF71BFE203636E02078802803DB39
:103F8000A12801DA012100E0002161B314F8011B2E
:103F90004FEA012A14F8011B8A44102F10D11FFA8E
:103FA0008AF11948FEF7F4FF1FFA89F01FFA88F327
:103FB000B1B20090A8B2144AFFF74EFD103611E0DE
:103FC000202F0FD11FFA8AF10F48FFF70BF81FFAC5
:103FD00089F01FFA88F3B1B20090A8B20A4AFFF73D
:103FE000E5FD203600E0641C00BF207800287FF447
:103FF0002AAF00BF00BF00F05FF900BF207808B112
:10400000204615E7002013E71CBE002038B5044603
:104010000D460120A9B20090A0B24FF4FC6301222A
:10402000FFF7B0F838BD000010B58AB02B48006823
:1040300030B12A482AA10268684603F0AFFA03E0CB
:104040002CA1684603F0AAFA6846FCF7FBF8441C6A
:1040500021466846FFF752FB2948006830B12848DE
:1040600028A10268684603F099FA03E02AA168468D
:1040700003F094FA6846FCF7E5F8441C21466846CC
:10408000FFF73CFB2748006830B1264826A10268AC
:10409000684603F083FA03E028A1684603F07EFA3D
:1040A0006846FCF7CFF8441C21466846FFF726FB1C
:1040B0002548007820B125A1684603F06FFA03E097
:1040C00028A1684603F06AFA6846FCF7BBF8441C6E
:1040D00021466846FFF712FB0AB010BDA801002078
:1040E00020BBD8C2B7D1A1D4F13A2020252D385811
:1040F0000000000020BBD8C2B7D1A1D4F13A000023
:10410000AC01002020D6F7B5C0D1A1D4F13A2020CF
:10411000252D38580000000020D6F7B5C0D1A1D415
:10412000F13A0000B001002020B8A8B5C0D1A1D458
:10413000F13A2020252D38580000000020B8A8B5FD
:10414000C0D1A1D4F13A0000B401002020CDB6B90D
:10415000E2D1A1D4F13A2020A1F6CAC7202020A1A3
:10416000F5B7F10020CDB6B9E2D1A1D4F13A2020C3
:10417000A1F5CAC7202020A1F6B7F10008B54FF479
:10418000C06000F05BF831208DF8000000208DF851
:10419000010001208DF802008DF80300684600F050
:1041A00013F84FF4C06000F049F83B208DF8000090
:1041B00000208DF801008DF8020001208DF8030029
:1041C000684600F001F808BD70B5002100230F22F9
:1041D000C4780CB3164C246804F4E064C4F5E064BD
:1041E000210AC1F10403CA40447804FA03F1847837
:1041F0001440214309010F4C0678A155047804F0BE
:104200001F050124AC4005786D114FF0E02606EB48
:104210008505C5F8004109E0047804F01F05012474
:10422000AC40054D0678761145F8264070BD00007B
:104230000CED00E000E400E080E100E00249014311
:10424000024A1160704700000000FA050CED00E022
:10425000024A0A400243024B1A60704780FFFF1F68
:1042600008ED00E010B50B48006890B9FEF722FA9F
:104270000322002101200BF077FB06490860084665
:10428000006830B100231A461946024800680BF056
:1042900043FC10BD0801002010B50446002322464F
:1042A0001946044800680BF083FB012800D110BDBB
:1042B0000020FCE70801002010B500231A4619462B
:1042C000024800680BF028FC10BD00000801002027
:1042D00070B503460C461546204619462A4607E0A7
:1042E0004FF0C846765A36B220F8026B891C521E2F
:1042F000002AF5D100BF70BD01480078704700006A
:104300003A01002001480078704700004C0100206D
:1043100008B54FF4E060FFF791FF26208DF800000C
:1043200000208DF801008DF8020001208DF80300B7
:104330006846FFF749FF08BD10B5044601220DA1EC
:104340000D4808F0B1FE0D490870012221460C48C5
:1043500008F0D8FE094908700846007838B10848C6
:1043600008F0A9FD002203A1034808F09DFE0348C0
:10437000007810BD303A0000ECBB00205C0100204A
:10438000C8B9002008B54FF4C060FFF757FF2720D9
:104390008DF8000000208DF8010003208DF8020048
:1043A00001208DF803006846FFF70EFF08BD0000EE
:1043B0002DE9F04190B0074677A30FCB0CAC0FC4AA
:1043C00004AC79480078022870D17848007818B198
:1043D000382004F8010B02E0392004F8010B002515
:1043E00000260AE0A90072480068C84010F00F0FCC
:1043F00001D0701CC6B2681CC5B2082DF2DB0CA837
:10440000805D04F8010B002500260AE0A900694838
:104410000068C84010F00F0F01D0701CC6B2681CB5
:10442000C5B2082DF2DB0CA8805D04F8010B002555
:1044300000260AE0A90060480068C84010F00F0F8D
:1044400001D0701CC6B2681CC5B2082DF2DB0CA8E6
:10445000805D04F8010B5948007812281AD1584899
:10446000007800EB8000282101EB40000CA901EB53
:104470002010007804F8010B5148007800EB800010
:10448000282101EB400000F00F000CA9085C04F8A3
:10449000010B13E04948007806280FD148480078FE
:1044A000072804D1302004F8010B07E012E044484B
:1044B0000078082802D1312004F8010B3E4800683A
:1044C00000903C4803683A483EA10268204603F049
:1044D00065F84FE03448007801284BD13B4800781C
:1044E00030B13B483BA1026802A803F057F805E051
:1044F00037483AA1026802A803F050F839A12046D3
:1045000003F04CF8241D2D48007812281AD12C48AD
:10451000007800EB8000282101EB40000CA901EBA2
:104520002010007804F8010B2548007800EB80008B
:10453000282101EB400000F00F000CA9085C04F8F2
:10454000010B12E01D48007806280ED11C480078A7
:10455000072803D1302004F8010B06E01848007842
:10456000082802D1312004F8010B02AA1FA120461D
:1045700003F014F801AB04AA1DA13846FDF70AFAAE
:1045800080469DF804104046FDF78CF840460BF03D
:10459000B1F810B0BDE8F081303132333435363700
:1045A0003839414243444546A1010020B40100206E
:1045B000A8010020AC010020B00100208E010020E5
:1045C000920100202558255825580000BE010020E2
:1045D0009C01002025303458000000002530346450
:1045E0000000000042303030000000002573000061
:1045F00046464646000000002DE9F14FADF5007D2E
:104600008098FFF799FEAA4908700846007818B10B
:104610000DF5017DBDE8F08FA64B36226946A64810
:1046200008F01FFEA24908700021084602F0F9F9BF
:104630009DF80000422869D19DF801004D28FAD16B
:104640009DF812009DF8131000EB01209DF8141046
:1046500000EB01409DF8151000EB016087B29DF85A
:1046600016009DF8171000EB01209DF8181000EBC4
:1046700001409DF8191000EB0168B7F5A07F7DD1CE
:10468000B8F1F00FFBD19DF81C009DF81D1000EB58
:10469000012087B2202F3AD19DF802009DF8031027
:1046A00000EB01209DF8041000EB01409DF805107F
:1046B00000EB0166242528E07E4B4FF4007269462A
:1046C0007D4808F0CEFD7A49087005F50075B542C1
:1046D00000D31BE0002416E0022101EB84011DF849
:1046E0000110C910C902012202EB84021DF8022048
:1046F000921041EA42111DF8242041EAE200FFF73E
:10470000F7FA601C84B2802CE6DBD5E7C6E0182FF0
:1047100051D19DF802009DF8031000EB01209DF897
:10472000041000EB01409DF8051000EB0166242504
:104730003FE0604B4FF4C07269465F4808F091FD5E
:104740005B49087005F5C075B54200D332E000241E
:104750002DE004EB4401891C1DF801104FEA411BB8
:104760004FEAEB710BEB11610912CA0204EB440131
:10477000491C1DF801104FEA811A00E04DE04FEA94
:10478000EA710AEB1161091242EA411104EB440299
:104790001DF802204FEA42194FEAE97209EB126252
:1047A00041EA222188B2FFF7A3FA601C84B2802C70
:1047B000CFDBBEE772E0102F70D19DF802009DF8AC
:1047C000031000EB01209DF8041000EB01409DF860
:1047D000051000EB016624251DE0364BFE226946DC
:1047E000354808F03EFD32490870FE35B54200D329
:1047F00012E000240DE01DF81410012202EB440227
:104800001DF8022041EA422188B2FFF771FA601CCC
:1048100084B2802CEFDBE0E740E0FCF77DFC002178
:10482000084602F0FEF89DF802009DF8031000EB28
:1048300001209DF8041000EB01409DF8051000EBED
:104840000166242528E01B4B4FF4C07269461A48C4
:1048500008F007FD1649087005F50075B54200D34C
:104860001BE0002416E0022101EB84011DF8011079
:10487000C910C902012202EB84021DF80220921025
:1048800041EA42111DF8242041EAE200FFF730FA24
:10489000601C84B2802CE6DBD5E700BF064808F038
:1048A0000AFB002205A1064808F0FEFB00BFAFE6A8
:1048B0005C01002060010020C8B90020303A0000EF
:1048C000ECBB002010B500F085F84FF4803000F00C
:1048D00043F900F09FF90446012C24D11020FDF784
:1048E00045FE0220FDF750FE002000F029F90020CF
:1048F00000F064F9A00200F055F94FF4E011200433
:1049000000F06EF9012000F065F900BF392000F0D9
:10491000F1F80028FAD0022000F070F900BF00F092
:1049200007F90828FBD10121080200F023F8012132
:1049300045F2FD1000F03EF80121044800F02AF88D
:1049400000210348FFF784FC10BD000002000E1890
:104950000000000810B5FFF7CFFC0F2190FBF1F02D
:10496000401C024908700248007810BD94010020E4
:104970009301002029B1064A52690243044B5A614F
:1049800004E0034A52698243014B5A6170470000B8
:104990000010024029B1064AD2690243044BDA6191
:1049A00004E0034AD2698243014BDA617047000098
:1049B0000010024029B1064A92690243044B9A61F1
:1049C00004E0034A92698243014B9A6170470000F8
:1049D000001002400F48006840F001000D490860D7
:1049E000084640680C4908400A4948600846006883
:1049F0000A490840074908600846006820F48020FA
:104A000008600846406820F4FE0048604FF41F002C
:104A100088607047001002400000FFF8FFFFF6FEBC
:104A200030B500210022002400232D4D6D6805F0D3
:104A30000C0121B1042905D0082923D105E0294D15
:104A4000056022E0274D05601FE0254D6D6805F4E7
:104A50007012234D6D6805F48034022505EB9242F7
:104A60001CB9214D554305600BE01D4D6D6815F4D3
:104A7000003F03D01C4D5543056002E0194D5543DE
:104A8000056002E0174D056000BF00BF144D6D6862
:104A900005F0F0010909154D6B5C0568DD404560C6
:104AA0000F4D6D6805F4E061090A104D6B5C4568B7
:104AB000DD4085600A4D6D6805F46051C90A0B4DF3
:104AC0006B5C4568DD40C560054D6D6805F440418F
:104AD000890B074D6B5CC568B5FBF3F5056130BD0F
:104AE0000010024000127A0000093D000000002082
:104AF0001000002010B501460022002300204A11BA
:104B0000012A02D1094C236806E0022A02D1074C8F
:104B1000236A01E0054C636A01F01F0201249440FE
:104B20001C4201D0012000E0002010BD0010024016
:104B30000248406800F00C0070470000001002407E
:104B400001460020034A506820F0F00008435060FE
:104B500070470000001002401149096821F48031BB
:104B60000F4A11601146096821F480211160B0F5E7
:104B7000803F03D0B0F5802F0ED106E008490968C8
:104B800041F48031064A116007E00549096841F4A3
:104B9000A021034A116000E000BF00BF7047000081
:104BA0000010024001460020034A506820F4E060F3
:104BB000084350607047000000100240014600208A
:104BC000034A506820F4605040EAC10050607047CA
:104BD0000010024001490866704700000000424290
:104BE00002460020044B586820F47C1042EA01037E
:104BF0001843014B586070470010024001460020E6
:104C0000034A506820F003000843506070470000DA
:104C10000010024070B500240025002600BF31209E
:104C2000FFF768FF0646641CB4F5A06F01D0002EA4
:104C3000F5D03120FFF75EFF08B1012500E0002527
:104C4000284670BD7CB505462A24002000900190BE
:104C500000F0F0F810F0007F02D00E2420467CBD5A
:104C60003E49098888B26946FDF7F2FF04462A2CBE
:104C700001D02046F3E7012D37D1019810F4802FA1
:104C800030D0364800880004354908603720486035
:104C9000402088600020C860A8020861084600F033
:104CA00003F93720FCF76CFB04462A2C01D0204680
:104CB000D5E702202A490860062048604020886025
:104CC0000020C8604FF480600861084600F0ECF8EE
:104CD0000620FCF755FB04462A2C01D02046BEE7EF
:104CE0002046BCE725242046B9E7019810F4803F10
:104CF00031D01A48008800041949086037204860FC
:104D0000402088600020C8604FF480600861084639
:104D100000F0CAF83720FCF733FB04462A2C01D0F8
:104D200020469CE700200E4908600620486040208D
:104D300088600020C8604FF480600861084600F079
:104D4000B3F80620FCF71CFB04462A2C01D02046B1
:104D500085E7204683E72524204680E718010020C8
:104D60009CB9002001498863704700000080014021
:104D700001498863704700000080014001490860D4
:104D800070470000A00030420149086070470000F1
:104D90008C05304200210A4B02685A6242689A62CE
:104DA0001A46D16A21F0F701D0E902231A430369B8
:104DB0001A4343691A431143014AD1627047000004
:104DC0000080014000200649086048608860C86093
:104DD00048628862C862034888630020C8637047DD
:104DE00000800140FF07C00001480069C0B2704761
:104DF0000080014001460020034A526B0A4201D064
:104E0000012000E0002070470080014001460020A2
:104E1000034A526B0A4201D0012000E00020704793
:104E2000008001400248006800F003007047000065
:104E3000008001400146002201480A1810687047AE
:104E40001480014010B500F023FD10BD29B1064AC1
:104E5000D26B0243044BDA6304E0034AD26B824311
:104E6000014BDA63704700000080014000210A4ACC
:104E7000516847F6FF629143027D83681A43436895
:104E80001A43C3681A4303681A4303691A43114358
:104E9000014A5160704700000080014001480068ED
:104EA00070470000808001400021094B02689A6031
:104EB0001A46D1686FF30A01D0E901231A43C36887
:104EC0001A4303691A431143014AD1607047000035
:104ED000008001400549096821F00301034A11607F
:104EE00011460968014311607047000000800140CD
:104EF0000149086070470000808001401FB5FFF73E
:104F00003DF900F013FB04462A2C03D10FA002F058
:104F100035FB02E014A002F031FB1AA0FFF76CFB96
:104F2000002204210A200AF01FFD1A49086000200F
:104F30000123CDE90030029003464FF4A86216A188
:104F4000039017480AF0BAFE1FBD0000200D0A208A
:104F500053445F496E697420B3F5CABCBBAFB3C993
:104F6000B9A6200D0A2000000D0A2053445F496EA7
:104F7000697420B3F5CABCBBAFCAA7B0DC200D0A68
:104F800000000000303ABDE7C3E62F6C6F676F2E5C
:104F9000626D70005001002053444843000000003F
:104FA000B180000838B504460D46EAB22146092012
:104FB00003F058F80090002340F6C41269460648F2
:104FC00000680AF0A9FD012804D000980AF092FBBD
:104FD000012038BD0020FCE75001002038B5044610
:104FE0000D46EAB22146002003F03CF80090002371
:104FF00040F6C4126946064800680AF08DFD012893
:1050000004D000980AF076FB012038BD0020FCE7B0
:105010005001002038B504460D46EAB2214604206E
:1050200003F020F80090002340F6C41269460648B9
:1050300000680AF071FD012804D000980AF05AFBBC
:10504000012038BD0020FCE75001002038B504469F
:105050000D46EAB22146082003F004F80090002330
:1050600040F6C4126946064800680AF055FD01285A
:1050700004D000980AF03EFB012038BD0020FCE778
:105080005001002038B504460D46EAB22146022000
:1050900002F0E8FF0090002340F6C412694606487B
:1050A00000680AF039FD012804D000980AF022FBBC
:1050B000012038BD0020FCE75001002038B504462F
:1050C0000D46EAB22146012002F0CCFF00900023F9
:1050D00040F6C4126946064800680AF01DFD012822
:1050E00004D000980AF006FB012038BD0020FCE740
:1050F0005001002038B504460D46EAB2214603208F
:1051000002F0B0FF0090002340F6C4126946064842
:1051100000680AF001FD012804D000980AF0EAFABC
:10512000012038BD0020FCE75001002038B50446BE
:105130000D46EAB22146052002F094FF00900023BC
:1051400040F6C4126946064800680AF0E5FC0128EA
:1051500004D000980AF0CEFA012038BD0020FCE708
:105160005001002038B504460D46EAB2214607201A
:1051700002F078FF0090002340F6C412694606480A
:1051800000680AF0C9FC012804D000980AF0B2FABD
:10519000012038BD0020FCE75001002070B5044616
:1051A0002A2522480068032802D12725284670BDF9
:1051B0001E48006838B11D480068012803D01B480C
:1051C0000068022830D1B4F5805F02D12725284637
:1051D000EDE7B4F5006F15D10120FFF733FD05466B
:1051E0002A2D21D10320124908750020086048604B
:1051F00088604FF40060C860002008610846FFF72F
:1052000035FE11E00020FFF71DFD05462A2D0BD1CC
:105210000320074908750020086048608860C8605E
:1052200008610846FFF722FE2846C0E71401002067
:1052300084B9002030B501462A200022B74B1B78E4
:1052400081F84E30B64B1B88A1F84C30B54B1B682B
:105250001A0E93090B70C2F383034B7002F0030321
:105260008B70B04B1B68C3F30742CA70AD4B1B88F1
:10527000C3F307220A71AB4B1A784A715B681A0EA6
:105280001301CB80A74B5B68C3F30742CB8843EA8B
:105290001213CB8002F00F030B72A24B9B88C3F357
:1052A0000722D3094B72C2F380138B72C2F34013EF
:1052B000CB72C2F300130B7300234B73974B1B6825
:1052C0001BB1964B1B68012B3CD193071B0D0B6147
:1052D000944B1A790B6943EA82030B61914B9B68EB
:1052E0001A0E0B6943EA92130B61C2F3C2030B75EA
:1052F00002F007034B758B4B9B68C3F307425309BE
:105300008B75C2F38203CB7593075B0F0B76854BCE
:105310001B89C3F307220B7E43EAD2130B760B697A
:105320005B1C4B640C7E4B6CA41C0125A5406B439D
:105330004B640C7A0123A3408B64D1E9113463439D
:105340004B6421E0754B1B68022B1DD1754B1A79FC
:1053500093069B0A0B61734B9B681A0E0B6943EA19
:1053600002230B616F4B9B68C3F307420B69134326
:105370000B616C4B1B89C3F307220B695B1CDB04BD
:105380004B644FF400738B64C2F3801301F8193F30
:1053900093065B0E4B70634B1A7A4B7843EAD21339
:1053A0004B7002F07F038B705E4BDB681A0ED309E3
:1053B000CB70C2F341130B71C2F382034B7193079D
:1053C0001B0F8B71574BDB68C3F307428B7943EAA2
:1053D00092138B71C2F34013CB7100230B7202F056
:1053E00001034B724F4B9B89C3F30722D3098B7286
:1053F000C2F38013CB72C2F340130B73C2F30013DA
:105400004B73C2F381038B7302F00303CB73454BE1
:105410001A7B53080B7401234B74434B1B681A0E01
:10542000CA74A1F11901404B1B68C3F307424FEA4C
:105430000224CC853C4B1B88C3F30722CB8D43EA67
:105440000203CB85384B1A784FEA02640C635B6821
:105450004FEA13620B6B43EA02440C63324B5B6806
:10546000C3F307420B6B43EA02240C632E4B9B8869
:10547000C3F307220B6B43EA02030B632A4B1A792F
:105480004FF034035A54284B9B684FEA13624FF095
:1054900035035A54244B9B68C3F307424FEA026416
:1054A0008C63214B1B89C3F307228B6B43EA0244B5
:1054B0008C631D4B1A7A8B6B43EA02248C631A4B64
:1054C000DB684FEA13628B6B43EA02038B63164B74
:1054D000DB68C3F307424FF03C035B5C43EA121402
:1054E0004FF03C035C544FEA02734FEA1354CC87ED
:1054F0000D4B9B89C3F30722CB8F43EA0203CB8773
:10550000094B1A7B4FEA52044FF040035C544FF0B2
:1055100001044FF041035C5430BD00001401002031
:105520001801002064B9002074B9002010B52A24A5
:10553000FDF76AFD01218802FFF71CFA0121022014
:10554000FFF718FAFFF73EFC00F0DAF804462A2CC1
:1055500001D0204610BD00F033F804462A2C01D0BB
:105560002046F7E7062014490875002008604860C7
:105570008860C86008610846FFF778FC2A2C03D1D0
:105580000E48FFF757FE04462A2C06D10B49B1F806
:105590004C10080400F052FD04462A2C04D14FF4AC
:1055A0000060FFF7FBFD04462A2C03D1002000F029
:1055B0005FFD04462046CDE784B9002014B90020E1
:1055C00038B52A2401200090FFF72CFC10B92524BF
:1055D000204638BD45480068042829D000204449A9
:1055E000086002204860C02088600020C8604FF436
:1055F000806008610846FFF757FCFBF759FF044637
:105600002A2C01D02046E4E70020FFF713FC39499B
:1056100008600420FFF70EFC364948600820FFF7B9
:1056200009FC344988600C20FFF704FC3149C8604C
:105630002E48006858B12D480068012807D02B4833
:105640000068062803D029480068022817D10020E6
:105650002749086003204860402088600020C86017
:105660004FF4806008610846FFF71EFC694603207E
:10567000FBF75EFF04462A2C01D02046A9E71B4811
:10568000006804282FD0BDF800001B490860BDF851
:10569000000000041649086009204860C0208860A6
:1056A0000020C8604FF4806008610846FFF7FCFBEB
:1056B000FBF7FEFE04462A2C01D0204689E7002095
:1056C000FFF7B8FB0D4908600420FFF7B3FB0B4957
:1056D00048600820FFF7AEFB084988600C20FFF700
:1056E000A9FB0649C8602A24204672E7140100205D
:1056F0009CB9002074B900201801002064B9002072
:105700002DE9F0412A240026002500274FF000084B
:10571000B2205B4908750020086048608860C86056
:1057200008610846FFF7A2FB0320FFF7D3FB012027
:10573000FFF724FB00205349086048608860C86078
:105740004FF4806008610846FFF7AEFBFBF702FEEE
:1057500004462A2C02D02046BDE8F0814FF4D570D3
:105760004849086008204860402088600020C860E0
:105770004FF4806008610846FFF796FBFBF726FFB1
:1057800004462A2C05D101203F4908604FF080488B
:1057900012E000203B4908603720486040208860C4
:1057A0000020C8604FF4806008610846FFF77CFB6A
:1057B0003720FBF7E5FD044600203249086037201A
:1057C0004860402088600020C8604FF48060086115
:1057D0000846FFF769FB3720FBF7D2FD04462A2C69
:1057E0004CD138E00020274908603720486040202D
:1057F00088600020C8604FF4806008610846FFF7A9
:1058000053FB3720FBF7BCFD04462A2C01D0204671
:10581000A2E71E4848EA00001A49086029204860AB
:10582000402088600020C8604FF48060086108460E
:10583000FFF73AFBFBF760FE04462A2C01D0204616
:105840008AE70020FFF7F6FA0646012080EAD670C4
:1058500080F001076D1C1FB94FF6FF708542C1D360
:105860004FF6FF70854202D31B24204674E706F0F2
:105870008040060002D002200349086020466BE702
:1058800084B900209CB90020140100200000108081
:1058900070B50024002588480068012867D1C0033E
:1058A000FFF7B4FAA8B100BF06E0FFF7F7FA8349A3
:1058B000096841F82400641C082CF6D37F4800686E
:1058C00020307E4908607E48006820307C490860AE
:1058D0004DE04FF48040FFF799FA002847D079480F
:1058E000006877490968401A20282BD2754800784B
:1058F00073490968401A10F0030F06D17148006817
:105900006F490968401A800806E06E4800686C49D3
:105910000968401A8008401C054600240FE06A49C7
:1059200009680868FFF7E4FA641C67480068001D0E
:105930006549086062480068001D61490860AC4222
:10594000EDD314E0002406E05F49096851F8240013
:10595000FFF7CEFA641C082CF6D35B4800682030B1
:1059600059490860564800682030554908604FF48E
:105970008070FFF74BFAD8B34F480068D0B10EE003
:10598000FFF78CFA4D49096808604C480068001D13
:105990004A4908604A480068001D494908604FF4B8
:1059A0000010FFF727FA28B1454800684549096803
:1059B0008842E5D345480068012804D100F066FB21
:1059C0004349087002E02A20414908704FF4807072
:1059D000FFF7CEF900214CF23A30FFF737FA0120F9
:1059E0003C4908600020364908603948007870BD9D
:1059F000FFE70220FFF70AFA70B10220FFF7B8F9BB
:105A000000214CF23A30FFF721FA00202C490860BF
:105A100002202F490870EAE70820FFF7F7F970B174
:105A20000820FFF7A5F900214CF23A30FFF70EFAF3
:105A3000002023490860042025490870D7E720206A
:105A4000FFF7E4F970B12020FFF792F900214CF242
:105A50003A30FFF7FBF900201949086006201C497D
:105A60000870C4E71020FFF7D1F970B11020FFF7DC
:105A70007FF900214CF23A30FFF7E8F90020104995
:105A80000860052012490870B1E74FF40070FFF775
:105A9000BDF978B14FF40070FFF76AF900214CF2BC
:105AA0003A30FFF7D3F9002005490860072008497C
:105AB00008709CE72A209AE71C010020580100206A
:105AC000300100202001002054010020240100208A
:105AD000280100202C0100202DE9F04707460D4643
