:020000040800F2
:10000000089C01203D030008C1310008DD2D0008D7
:10001000A5310008C31200080D4F000800000000C1
:100020000000000000000000000000008502000841
:100030009916000800000000D90200086184000839
:100040005703000857030008570300085703000828
:100050005703000857030008570300085703000818
:100060005703000857030008570300085703000808
:10007000570300085703000865130008B113000870
:1000800057030008570300085703000857030008E8
:1000900057030008570300085703000857030008D8
:1000A00057030008570300085703000857030008C8
:1000B00057030008570300085703000857030008B8
:1000C00057030008570300085703000857030008A8
:1000D0005703000809470008570300089D47000818
:1000E0005703000857030008570300085703000888
:1000F0005703000857030008570300085703000878
:100100005703000857030008570300085703000867
:1001100075460008570300085703000857030008F6
:100120005703000857030008570300085703000847
:100130005703000857030008570300085703000837
:100140005703000857030008570300085703000827
:100150005703000857030008D9130008FD4800089A
:100160005703000857030008570300085703000807
:1001700057030008570300085703000857030008F7
:10018000570300085703000800F002F800F06AF86F
:100190000AA090E8000C82448344AAF10107DA45E2
:1001A00001D100F05FF8AFF2090EBAE80F0013F0CA
:1001B000010F18BFFB1A43F001031847DC9A000037
:1001C000FC9A00000A444FF0000C10F8013B13F0B9
:1001D000070408BF10F8014B1D1108BF10F8015BA0
:1001E000641E05D010F8016B641E01F8016BF9D193
:1001F00013F0080F1EBF10F8014BAD1C0C1B09D1EA
:100200006D1E58BF01F801CBFAD505E014F8016B5B
:1002100001F8016B6D1EF9D59142D6D370470000ED
:100220000023002400250026103A28BF78C1FBD8FF
:10023000520728BF30C148BF0B607047732900F0D8
:100240006084002070471FB509F07EFB00F0EAFED5
:1002500004000020002108F08FFD401C60601FBDDD
:1002600010B510BD00F0AAFE1146FFF7ECFF06F036
:10027000F5FA00F0D1FE03B4FFF7F2FF03BC05F07E
:10028000A2FE00002A4B19680868B0E8F04F80F31E
:100290000988BFF36F8F4FF0000080F3118870471B
:1002A0000000000006480068006880F3088862B615
:1002B00061B6BFF34F8FBFF36F8F00DF00BF00BF8A
:1002C00008ED00E0DFF80C00016841F47001016006
:1002D000704700BF88ED00E0EFF30980BFF36F8F38
:1002E000134B1A681EF0100F08BF20ED108A20E98A
:1002F000F04F106008B44FF0BF0080F31188BFF3D7
:100300004F8FBFF36F8F08F015F84FF0000080F3A8
:10031000118808BC19680868B0E8F04F1EF0100F8B
:1003200008BFB0EC108A80F30988BFF36F8F704765
:10033000EC000020EFF3058070470000094880477B
:1003400009480047FEE7FEE7FEE7FEE7FEE7FEE7B7
:10035000FEE7FEE7FEE7FEE704480549054A064BCF
:10036000704700003D4300088901000808960120FD
:10037000089C01200898012008980120704700007F
:100380000FB4044910B503AA029800F0BFFB10BCDB
:100390005DF814FB300100200FB41CB5074B06AA12
:1003A0007B4469460090059800F081FB0020694677
:1003B00000F090FB1CBC5DF814FB0000310700004E
:1003C00070B50C460546012A05D02878800600D570
:1003D000EA69002302E0012305E05B1C934202D29C
:1003E000E05C0028F9D1A869E618C01AA861286A5B
:1003F000184428622846AFF3008004E0D5E90121C3
:1004000014F8010B9047B442F8D32846AFF30080AC
:1004100070BD2DE9F0474FF0000A89460446C0F848
:1004200020A02046E1688847002876D0252806D0FD
:10043000D4E901219047206A401C2062F1E7E1687D
:10044000204600258847C4F81CA006460027C4F8AB
:1004500018A02A2E09D0304605F0AEFD38B304EBC3
:100460008708303EC8F8186019E059F8041B204688
:1004700004EB87029161E1688847012F064618D195
:10048000E069002820DA25F020051DE0D8F81800E2
:1004900000EB800006EB40003038C8F8180020461A
:1004A000E1688847064605F087FD0028EED1012F58
:1004B0000AD02E2E08D12046E16888477F1C0646C8
:1004C000022F45F02005C4DBA069002803DA404272
:1004D00045F00105A061E80701D025F01005B6B18F
:1004E000A6F14100192802D8203645F400654A4695
:1004F0003146204625604D46FFF7A0FE58B1012841
:1005000006D0ED1D25F0070000F1080989E704E099
:1005100005F1040985E730468AE7206ABDE8F087DF
:100520000FB400B58DB010A9099000910B904FF059
:10053000FF300A9000200C90064878440690064848
:1005400078446A4607900F9909A800F005FB0DB0A2
:100550005DF814FB3B060000530600002DE9FF5F29
:100560001D464FF0FF3B91464FF000085F46D5E92E
:100570000146A96901987F1C8847296A82468847F5
:100580000028F6D1BAF1FF3F0CD0002E24F4C0644D
:1005900019DD600614D5BAF12B0F09D0BAF12D0F71
:1005A0000ED103E0584604B0BDE8F09F44F48064E7
:1005B000A96901987F1C8847761E8246002E02DDBD
:1005C000BAF1300F03D0B9F1000F26D032E0A9699B
:1005D000761E01987F1C44F400748847002E8246E2
:1005E00005DDBAF1780F06D0BAF1580F03D0B9F192
:1005F000000F10D01EE0B9F1000F02D0B9F1100FBA
:1006000018D1A969761E01987F1C24F400748847CC
:100610008246102002E0082000E00A20814609E01E
:10062000A96908FB0908761E01987F1C44F4007430
:1006300088478246002E05DD4946504600F078FA8C
:100640000028EDDAE96901988847A00502D46FF027
:100650000100A8E7E00725D1600613D5600502D5A3
:10066000C8F1000000E0404629680A1D2A600968B8
:10067000220501D5087015E0220701D5088011E098
:1006800008600FE02868011D29600068210502D577
:1006900080F8008006E0210702D5A0F8008001E084
:1006A000C0F8008038467EE72DE9FF5F4FF0000874
:1006B0009946144646469169D2E901A7DDF838B05B
:1006C00001988847054659EA0B0005D009E0A16961
:1006D0000198761C88470546216A284688470028E5
:1006E000F5D1681C03D05FEACA7005D015E04FF061
:1006F000FF3004B0BDE8F09F2068011D2160D0F8F4
:1007000000800AE05FEACA7001D108F8015BA169C4
:10071000761C01987F1E88470546002F1ADD681C4D
:1007200018D0B9F1000F0DD0E81705EBD0604211D9
:1007300020F01F0059F822102A1A0120904001428F
:10074000E0D107E0BBF1000FDCD12846216A8847E1
:100750000028D7D0E16901988847BBF1000F07D185
:10076000002E05DD5FEACA7002D1002188F8001072
:10077000A068B84203DDBBF1000F03D017B16FF0E2
:100780000100B6E73046B4E730B505460B462A46C9
:1007900013F8014B12F8010B08B1A042F8D01CB1BC
:1007A000002802D06D1CF1E7284630BD10B5431C6F
:1007B00002E010F8011B71B18107FAD14FF001324C
:1007C00002C88C1A8C4314EAC211F9D0C01A0A0666
:1007D00003D0C01E10BDC01A10BD0A0401D0801E77
:1007E00010BD0902FCD0401E10BD40EA010370B5E7
:1007F0009B072ED14FF00136042A2AD308C810C90E
:100800009D1B9D43121F15EAC61517D0D8B2E1B241
:10081000401A50EA056110D198B2A1B2401A50EACC
:1008200005410AD123F07F4024F07F41401A50EA6D
:10083000052102D1180EA0EB146070BDA342DBD0DD
:1008400018BA21BA884201D9012070BD4FF0FF309B
:1008500070BD0AB9002070BD10F8013B11F8014BC2
:1008600063B1A3420AD1521E08D010F8013B11F81F
:10087000014B1BB1A34201D1521EEDD1181B70BD1B
:10088000032A40F2308010F0030C00F0158011F8BC
:10089000013BBCF1020F624498BF11F801CB00F894
:1008A000013B38BF11F8013BA2F1040298BF00F8E8
:1008B00001CB38BF00F8013B11F0030300F07C814D
:1008C000083AC0F0088051F8043B083A51F804CBCC
:1008D000A0E80810F5E7121D5CBF51F8043B40F892
:1008E000043BAFF30080D20724BF11F8013B11F89D
:1008F00001CB48BF11F8012B24BF00F8013B00F8E1
:1009000001CB48BF00F8012B704702F0FF0343EA18
:10091000032242EA024200F002B84FF0000204292A
:10092000C0F0128010F0030C00F01B80CCF1040C1E
:10093000BCF1020F18BF00F8012BA8BF20F8022B52
:10094000A1EB0C0100F00DB85FEAC17C24BF00F8F8
:10095000012B00F8012B48BF00F8012B70474FF026
:10096000000200B5134694469646203922BFA0E8FF
:100970000C50A0E80C50B1F12001BFF4F7AF09070B
:1009800028BFA0E80C5048BF0CC05DF804EB8900FC
:1009900028BF40F8042B08BF704748BF20F8022B3F
:1009A00011F0804F18BF00F8012B704710B50446B6
:1009B00010F0030F08BF11F0030F40F015804FF047
:1009C000013E121FC0F20E8051F8043BA3EB0E0C47
:1009D0002CEA030C1CEACE1C08BF40F8043BF0D004
:1009E000A1F1040102F10402521E08DB11F8013BDF
:1009F000002B00F8013BF7D11146FFF78EFF204690
:100A000010BD00004FF0013C50F8042B51F8043B9E
:100A10009A4221D1A2EB0C03934313EACC1317D1D2
:100A200050F8042B51F8043B9A4215D1A2EB0C0369
:100A3000934313EACC130BD150F8042B51F8043B29
:100A40009A4209D1A2EB0C03934313EACC13DBD0F7
:100A50004FF00000704700BFD01A01BAB1FA81F11F
:100A600001F0180122FA01F0CB40C1F12001DBB204
:100A7000C0B2C01A2CFA01F3D11A914311EAC31182
:100A8000E6D17047704770477047704710B500F067
:100A9000C5F8006810BD10B5044600F0BFF804604A
:100AA00010BD000001694A1C02610878704700B55A
:100AB0008FB0CDE901310021059105497944CDE997
:100AC000031011466846FFF7A4FC0FB000BD0000FC
:100AD000E5FFFFFF0A6802F8010B0A60704710B5D6
:100AE000436913B1AFF3008001E0FFF769FC012017
:100AF00010BD127800F124010A7000224A70012210
:100B0000EDE711684FF0FF32E9E70000074B70B5E1
:100B10000D467B44FFF7CBFF0446284600F046FA1B
:100B200010B14FF0FF3070BD204670BDB75A0000C5
:100B30003A2800D2303820F02002412A01D3A2F115
:100B40003700884201D34FF0FF30704702681144EC
:100B50001378016018467047D160054979445161A6
:100B600004497944116200211161114600F064B812
:100B7000EDFFFFFFBF000000426842B1016811F8BD
:100B8000013B23B1521EC0E90012184670470121F3
:100B9000C160881E704742685AB1C368016843B992
:100BA00083688B4205D0491E521CC0E90012002008
:100BB00070474FF0FF30704710B5203AC0F00B80FF
:100BC000B1E81850203AA0E81850B1E81850A0E851
:100BD0001850BFF4F5AF5FEA027C24BFB1E81850AB
:100BE000A0E8185044BF18C918C0BDE810405FEA1B
:100BF000827C24BF51F8043B40F8043B08BF704797
:100C0000D20728BF31F8023B48BF11F8012B28BF9B
:100C100020F8023B48BF00F8012B7047004870479E
:100C2000A895012010B5044600F0EEF90068005DBB
:100C300000F0010010BD00002DE9F34F4FF0000A55
:100C40000C4656468DB001200C9001F10C000B9023
:100C500062690B980121904705002DD0252D2CD0DD
:100C6000216A8847C0B162690B9801219047216AC7
:100C700088470028F7D16269411E0B98904700E031
:100C8000761CA1690D988847216A88470028F7D10A
:100C9000E1690D988847DBE7A1690D988847A8426C
:100CA000074601D1761CD3E7E1690D9888477F1C80
:100CB00002D1BAF1000F6FD06BE162690B98002787
:100CC0003D46394690472A2804D162690B98012194
:100CD00090470125DFF8D08262690B980121904787
:100CE000A0F130010A290AD24745E5DC07EB87016C
:100CF00000EB4107303FDFD445F01005ECE7E90693
:100D000001D46FF000476C280AD04C2814D0682812
:100D100015D06A280DD074281CD07A281AD01DE06E
:100D200062690B98012190476C2802D045F00405B8
:100D300014E045F002050DE045F020050AE0626987
:100D40000B9801219047682802D045F0080505E07E
:100D500045F4006562690B9801219047C4E9015789
:100D600065283DD019DC58287AD00CDC452837D0CE
:100D700004DC252826D041289ED131E046282FD0FA
:100D8000472899D12CE05B2877D0612828D06328A8
:100D90007CD0642823D15AE0F6E06F2848D008DCE4
:100DA00066281DD067281BD0692821D06E2816D14F
:100DB00027E0702845D0732868D0752847D0782858
:100DC0000DD14DE0A1690D988847252805463FF4CF
:100DD00069AFE1690D9888476D1C3FF46AAFD8E0B0
:100DE0000D9923466A466FF00100AFF30080C5E01D
:100DF00045F0400023464FF000026060A80736D45B
:100E00003EE0E8077FF447AF2068011D21600068DD
:100E1000290501D506701BE7290701D5068017E7CC
:100E2000A90703D5F117C0E9006111E706600FE7D4
:100E300045F0400023464FF008026060A80716D432
:100E40001EE040F60E0125EA0100606016E045F064
:100E5000400023464FF00A026060A80707D40FE065
:100E600045F040006060A80708D5234610220D9980
:100E70006FF00100AFF3008080E007E0102223460E
:100E80000D996FF00100FFF769FB77E04FF0000963
:100E900063284F46C8464B46CB4602D05B2806D057
:100EA00038E0E80601D40120A060012732E0626941
:100EB000D4F80CB00B98012190475E2807D14FF071
:100EC000010949466269D4F80CB00B989047216932
:100ED00039B900210A4603AB43F82120491C0829EF
:100EE000FADBD8B3216949B308F1010862690B98AC
:100EF000012190475D28F4D1B9F1000F09D00020FD
:100F000003A951F82020D24341F82020401C082892
:100F1000F7DB03AB2069002820794FEA40701ED030
:100F20005B462246CDF80080CDE901970D99002857
:100F30006FF0010020DAAFF300801FE0C11703AAB1
:100F400000EBD1614B1121F01F0102EB8302411A2A
:100F500013680120884003431360C7E719E00D9927
:100F6000224600286FF00100009702DAAFF30080FC
:100F700004E0FFF799FB01E0AFF3008000280ADAF4
:100F8000401C06D10C9820B14FF0FF300FB0BDE8E7
:100F9000F08F5046FAE7E90701D10AF1010A064449
:100FA00000200C9054E60000CCCCCC0C007B00F070
:100FB0008000704700487047A89501207546FFF7EC
:100FC000F9FFAE4605006946534620F00700854606
:100FD00018B020B5FFF7C0F9BDE820404FF000067B
:100FE0004FF000074FF000084FF0000B21F0070111
:100FF000AC46ACE8C009ACE8C009ACE8C009ACE854
:10100000C0098D467047000010B500F00BF8001DB8
:1010100010BD00BF657D00000446AFF30080204690
:10102000FFF729F900487047C895012010B503491A
:10103000002002F021FE06F0C7FB10BD8C950120B8
:1010400010B507F023F84CF250310748FFF765FC64
:1010500041F270710548FFF760FC02F009F801F0F9
:10106000EDFF07F025F810BD0000001050C3001080
:1010700010B502461078002305E0541C224624785F
:1010800060405C1CE3B24C1E9C42F6DC10BD10B507
:1010900000F062F800F0B8F810BD000010B50020B4
:1010A00008490870487064210648801CFFF735FC29
:1010B000002005490870487064210348801CFFF730
:1010C0002CFC10BD340100209A0100201FB5FFF751
:1010D000DEFFFFF7E3FF03220021012007F0FEF906
:1010E000104908600846006830B100231A461946C6
:1010F0000C48006807F0F6FA002264211E2007F071
:10110000EDF90949086000200323CDE90030029081
:1011100003464FF4086205A10390094807F00EFC4E
:101120001FBD0000100000201400002042616C6C04
:10113000617374436F6D6D315461736B0000000017
:10114000ED7E000810B504466421A01CFFF7E5FB06
:1011500000202070607010BD00B587B00121042010
:1011600002F02EFA0121C80402F04AFA08220A21EC
:10117000234800F0ABFF08220B21214800F0A6FF16
:101180004FF44060059002208DF818008DF819008A
:1011900000208DF81A0001208DF81B0005A91848C1
:1011A00000F04CFF4FF4164001900020ADF808000D
:1011B000ADF80A00ADF80C00ADF810000C20ADF849
:1011C0000E0001A90F4803F059FC01210D4803F05E
:1011D000F1FB012240F225510A4803F02AFC342099
:1011E0008DF800000F208DF8010000208DF802001E
:1011F00001208DF80300684601F0E4FF07B000BD50
:1012000000080240004C004000B591B001214805A3
:1012100002F0D6F9224800F01BF900BF204800F088
:10122000C3F90028FAD14FF0006002901D480390E6
:101230001D480490402005900020069007904FF430
:1012400080600890002009900A900B904FF4803045
:101250000C9000200D9003200E9000200F90109015
:1012600002A90F4800F0EAF9012210210C4800F011
:10127000C7F9012280210B48001F03F0A7FB0F20B4
:101280008DF804008DF8050000208DF8060001207F
:101290008DF8070001A801F095FF11B000BD000016
:1012A00070600240044C004036010020014600BF3F
:1012B000080900EB8000420001F00F001044C0B2AA
:1012C000704700BFFEE70146002204E0501CC2B296
:1012D000A1F10A00C1B20A29F8DA100741EA106048
:1012E0007047F0B503461446012901D0022901D107
:1012F0000C315B1E4D1C05EB4505052695FBF6F5EF
:10130000022606FB014635441D441846DE1703EB52
:10131000967605EBA605642693FBF6F6AD1B4FF417
:10132000C87693FBF6F63544072695FBF6F706FBE1
:101330001752072A13D2DFE802F00406080A0C0E3F
:1013400010000120F0BD0220FCE70320FAE7042092
:10135000F8E70520F6E70620F4E70720F2E700208B
:10136000F0E7000008B5002000904FF0C0510D4894
:1013700000F024F9012813D14FF0C051094800F0C2
:1013800041F869460848006807F073FA009838B1D8
:101390004FF0805005490860BFF34F8FBFF36F8F48
:1013A00008BD0000586002402000002004ED00E06D
:1013B00010B50649064800F025F800231A461946DC
:1013C0000448006807F08EF910BD000020000020DE
:1013D000706002401000002010B54FF02051074807
:1013E00000F010F80021054800F026F800231A4606
:1013F00019460348006807F075F910BDB86402404B
:10140000180000200246094B9A4201D2084801E028
:101410000648103801F000531BB1064B0B40C36067
:1014200002E0044B0B4083607047000010640240F0
:10143000006002407D0F7D0F21B1026842F0010281
:10144000026003E0026822F00102026070470000BF
:10145000016821F0010101600021016041608160AB
:10146000C1600161212141614A49884204D13D2185
:10147000484A103A91608CE046491831884205D1BB
:101480004FF47461434A103A916082E0414930312F
:10149000884205D14FF474113E4A103A916078E0C9
:1014A0003C494831884205D14FF07461394A103ABD
:1014B00091606EE037496031884204D13649354A3F
:1014C000103AD16065E033497831884204D133491C
:1014D000304A103AD1605CE02E499031884204D104
:1014E0002F492C4A103AD16053E02A49A83188424A
:1014F00005D14FF03D51274A103AD16049E02949C2
:10150000884204D13D21274A083A116041E025492B
:101510001831884205D14FF47461224A083A1160AB
:1015200037E020493031884205D14FF474111D4A0B
:10153000083A11602DE01B494831884205D14FF02F
:101540007461184A083A116023E0164960318842F4
:1015500004D11149134A121F11601AE01149783160
:10156000884204D10D490F4A121F116011E00D4944
:101570009031884204D10A490A4A121F116008E0DA
:101580000849A831884204D14FF03D51054A121F45
:1015900011607047106002403D000020400F0020A5
:1015A00000003D2010640240014600200A6802F05D
:1015B00001020AB1012000E00020704730B5034667
:1015C0000A46002000240B4DAB4201D20A4901E03B
:1015D0000849103902F000550DB14C6800E00C6864
:1015E000064D2C4004EA02050DB1012000E0002068
:1015F00030BD000010640240006002407D0F7D0F8E
:1016000010B501F080034BB122B1436943F0800370
:10161000436103E0436923F08003436180290BD0D9
:101620002AB1036801F01E042343036004E0036849
:1016300001F01E04A343036010BD000010B500229A
:101640000268134B1A40CC680B6823434C69234350
:101650008C692343CC6923430C6A23434C6A23439C
:101660008C6A23434C6B23438C6B23431A430260E5
:10167000426922F00702D1E90B3423431A43426145
:101680000B6943604B6883608B68C36010BD0000CA
:101690003F801CF0416070477047000010B500208B
:1016A00004490870487032210248801CFFF735F960
:1016B00010BD00008004002010B50020084908700B
:1016C000487064210648801CFFF727F9002005496F
:1016D0000870487064210348801CFFF71EF910BD94
:1016E00066020020000200201FB500F0E9F8FFF7B5
:1016F000E3FF03220021012006F0F0FE10490860FC
:101700000846006830B100231A4619460C480068A4
:1017100006F0E8FF00226621082006F0DFFE0949F6
:10172000086000200223CDE90030029003464FF408
:10173000906205A10390074807F000F91FBD000063
:10174000180000201C000020456C65637454617310
:101750006B000000417F000810B504466421A01C06
:10176000FFF7DBF800202070607010BD00B587B077
:101770000121022001F024FF0121102001F050FF7F
:1017800007220621234800F0A1FC07221146214828
:1017900000F09CFCC020059002208DF818008DF808
:1017A000190000208DF81A0001208DF81B0005A9F2
:1017B000184800F043FC4FF4165001900020ADF89B
:1017C0000800ADF80A00ADF80C00ADF810000C20D0
:1017D000ADF80E0001A9104803F050F901210E48A0
:1017E00003F0E8F8012240F225510B4803F021F9FB
:1017F00025208DF800000F208DF8010000208DF8C5
:10180000020001208DF80300684601F0DBFC07B000
:1018100000BD0000000402400010014000B591B07E
:101820000121880501F0CCFE2248FFF711FE00BF20
:101830002048FFF7B9FE0028FAD14FF0006002906F
:101840001D4803901D4804904020059000200690FC
:1018500007904FF480600890002009900A900B9048
:101860004FF480300C9000200D9003200E9000204B
:101870000F90109002A90F48FFF7E0FE01221021FF
:101880000C48FFF7BDFE012280210B48001F03F02A
:101890009DF846208DF804000F208DF805000020EB
:1018A0008DF8060001208DF8070001A801F08AFCE0
:1018B00011B000BDB86402400410014002020020D3
:1018C00010B5FFF753FFFFF7A9FF10BD51B182001C
:1018D000A2F1C042126842F001038200A2F1C042AC
:1018E000136009E08200A2F1C0421268034B1A4063
:1018F0008300A3F1C0431A6070470000FEFF0F0091
:1019000030B50021002200230468A400A4F1C044E3
:101910002168444C2140D0E901452C43C5682C4343
:1019200005692C4345692C4385692C43C5692C43C3
:10193000056A2C43456A2C43856A2C43C56A2C43AF
:10194000056B2C4321430468A400A4F1C04421602A
:101950008468082C0BD10468A400A4F1C044246856
:1019600044F040050468A400A4F1C0442560046864
:10197000641CA400A4F1C044226802F04042446BFD
:101980002468456B6D6844EA0514456BAD6844EA0C
:101990000524456BAD8944EA0544456B2D8A44EA2C
:1019A0000554456B2D7D44EA0564456BAD692C43B8
:1019B00022430468641CA400A4F1C0442260C46AE9
:1019C000B4F5804F24D10468A400A4F1C044D4F835
:1019D000043103F04043846B2468856B6D6844EAEE
:1019E0000514856BAD6844EA0524856B2D8A44EAAD
:1019F0000554856B2D7D44EA0564856BAD692C43E8
:101A000023430468A400A4F1C044C4F8043107E0EF
:101A10006FF070450468A400A4F1C044C4F80451F8
:101A200030BD00008000F7FF10B50446AA200A4927
:101A30000880552009490880802007490880AA208D
:101A4000088055200549088030214FF0C8400153D7
:101A5000801100F021F810BDAA0A0064540500644A
:101A600010B50446AA200A49088055200949088073
:101A7000802007490880AA20088055200549088051
:101A800050214FF0C8400153801100F005F810BDFF
:101A9000AA0A00645405006430B501460022002300
:101AA000012418E0491E4FF0C8400288038802F064
:101AB000400003F04005A84201D1002030BD4FF0A6
:101AC000C8400288038802F0400003F04005A842A5
:101AD00001D10020F2E709B1002CE3D101B90324C0
:101AE0002046EBE700B599B00121782001F068FDB0
:101AF0000121084601F074FD4CF20370179002209A
:101B00008DF8600000208DF8620003208DF86100E0
:101B100001208DF8630017A9954800F08FFA4FF661
:101B20008070179017A9934800F088FA4FF23F0091
:101B3000179017A9904800F081FA3F20179017A935
:101B40008E4800F07BFA4FF46050179017A9884830
:101B500000F074FA3820179017A9864800F06EFA42
:101B60003020179017A9824800F068FA4FF40070EF
:101B7000179017A9814800F061FA0C2200217C48D7
:101B800000F0A4FA0C220121794800F09FFA0C22FF
:101B90000421774800F09AFA0C220521744800F0DD
:101BA00095FA0C220821724800F090FA0C220921C3
:101BB0006F4800F08BFA0C220A216D4800F086FA7B
:101BC0000C220B216A4800F081FA0C221146684869
:101BD00000F07CFA0C220D21654800F077FA0C2207
:101BE0000E21634800F072FA0C220F21604800F0C9
:101BF0006DFA0C2203215F4800F068FA0C220421E0
:101C00005C4800F063FA0C2205215A4800F05EFAA5
:101C10000C220721574800F059FA0C220821554898
:101C200000F054FA0C220921524800F04FFA0C221D
:101C30000A21504800F04AFA0C220B214D4800F0CE
:101C400045FA0C2211464B4800F040FA0C220D21B7
:101C5000484800F03BFA0C220E21464800F036FAC4
:101C60000C220F21434800F031FA0C220021424897
:101C700000F02CFA0C2201213F4800F027FA0C2238
:101C800002213D4800F022FA0C2203213A4800F0DC
:101C90001DFA0C220421384800F018FA0C22052104
:101CA000354800F013FA0C221146334800F00EFAC2
:101CB0000C220D21304800F009FA0C220E212E488A
:101CC00000F004FA0C220F212B4800F0FFF90C223F
:101CD00000212A4800F0FAF90C220121274800F0DF
:101CE000F5F90C220221254800F0F0F90C2203211D
:101CF000224800F0EBF90C220421204800F0E6F91C
:101D00000C2205211D4800F0E1F90C2209211B4895
:101D100000F0DCF90B2001900020029012200390CB
:101D200000200490059006904FF08050079002200C
:101D300008900020099008200A9010200B900020A5
:101D40000C900E900F9010904FF480501190002046
:101D500012901390149001A81590169008A8FFF700
:101D6000CFFD01210220FFF7B1FD19B000BD000039
:101D7000000C024000100240001402400018024013
:101D800010B5AA23094C23805523094C2380F02445
:101D90004FF0C8435C5206E04FF0C8435B5A20F84E
:101DA000023B891C521E002AF6D110BDAAAA00646B
:101DB00054550064F0B504460D461646012700BF91
:101DC00034F8021B284600F009F80746AD1C761EC1
:101DD0000FB9002EF4D13846F0BD000030B50546ED
:101DE0000C46AA2007490880552007490880A020F2
:101DF000044908804FF0C84044534014FFF74CFE9C
:101E000030BD0000AA0A00645405006400B52DED41
:101E1000108B8DB0B0EE40AAF0EE60AAB0EE418A11
:101E2000F0EE618AB0EE429AF0EE629A53EC192B12
:101E30009FED720B51EC100B07F090FA41EC1E0B6A
:101E40009FED700B53EC102B07F088FA41EC1D0B43
:101E50009FED6E0B53EC102B07F064F841EC1C0B5C
:101E6000B0EE4C0AF0EE6C0A03F02EFCB0EE40BA75
:101E7000F0EE60BA9FED670B53EC102B51EC1B0B8F
:101E800007F06CFA53EC192B9FED640BCDE90A01B6
:101E900051EC100B07F062FA41EC1E0B9FED590B51
:101EA00053EC102B07F05AFA41EC1D0B9FED570B2A
:101EB00053EC102B07F036F841EC1C0BB0EE4C0A3B
:101EC000F0EE6C0A03F000FCB0EE40BAF0EE60BA3F
:101ED0009FED540B53EC102B51EC1B0B07F03EFA0B
:101EE00053EC182B9FED4D0BCDE9060151EC100B77
:101EF00007F034FA41EC1E0B9FED420B53EC102B14
:101F000007F02CFA41EC1D0B9FED400B53EC102B0E
:101F100007F008F841EC1C0BB0EE4C0AF0EE6C0A2E
:101F200003F0D2FBB0EE40BAF0EE60BA9FED3F0B8B
:101F300053EC102B51EC1B0B07F010FA9FED310BFB
:101F400053EC102BCDE9020151EC180B07F006FA07
:101F500041EC1F0B9FED2D0B53EC102B06F0E2FF15
:101F600041EC1E0BB0EE4E0AF0EE6E0A03F0ACFB35
:101F7000B0EE40DAF0EE60DA9FED2E0B53EC102B52
:101F800051EC1D0B07F0EAF941EC1B0B9FED1F0B09
:101F900053EC102B51EC1A0B07F0ECFB41EC1C0B33
:101FA00053EC1B2B07F0E6FBCDE900019DED020B86
:101FB00053EC102B9DED000B51EC100B07F0DAFBEE
:101FC000CDE904019DED060B53EC102B9DED040BA8
:101FD00051EC100B06F0F2FECDE908019DED0A0B65
:101FE00053EC102B9DED080B51EC100B07F0C2FBCE
:101FF00041EC100B0DB0BDEC108B00BD00000000DB
:10200000000010404AD8124DFB210940000000009A
:1020100000806640894160E5D022AB3F00000000AF
:1020200000000040EE7C3F355EBA03407B14AE47B3
:10203000E17A943FA4703D0AD7A3FE3FF0B50A466B
:1020400000210023002400BF3DE0012505FA01F333
:10205000156805EA03049C4234D105684F00032645
:10206000BE40B543056015794E00B540066835435E
:1020700005601579012D02D01579022D16D18568DC
:102080004F000326BE40B543856055794E00B540EC
:10209000866835438560456801268E40B5434560B6
:1020A000456896798E40B6B235434560C5684F00A5
:1020B0000326BE40B543C560D5794E00B540C6681D
:1020C0003543C560491C1029BFD3F0BDF0B50023CE
:1020D00000244D07ED0E02FA05F3CE1000F12005A5
:1020E00055F826504E07F70E0F26BE40B543CF10C9
:1020F00000F1200646F82750CE1000F1200555F8D3
:10210000265045EA0304CE1000F1200545F826408C
:10211000F0BD418370470183704700001FB500F098
:102120002FF800F057FA012006F0B4F90E490860C4
:102130000022C8210A2006F0D1F90C4908600022CB
:10214000C821012006F0CAF90949086000200423CB
:10215000CDE90030029003464FF4086205A10390D8
:10216000064806F0EBFB1FBD2000002024000020E5
:102170002800002047534D5461736B00957F000881
:1021800010B500F0BBF800F003F800F065F810BDE2
:102190001CB501210A48FFF7BCFF012000908DF813
:1021A000040002208DF8050000208DF806000120B3
:1021B0008DF8070069460248FFF740FF1CBD00008C
:1021C0000008024010B532E001211A48FFF7A1FFD4
:1021D00040F2771005F0A6FF01211648FFF79BFF9C
:1021E00040F6C41214A1002001F024FE00B91EE044
:1021F000FA2005F097FF01210E48FFF78AFFFA2029
:1022000005F090FF01210B48FFF785FF40F27710A2
:1022100005F088FF01210748FFF77BFF41F64C528C
:102220000AA1002001F006FE00B101E000BFCBE7EB
:1022300000BF10BD000802404E4F524D414C20508F
:102240004F57455220444F574E000000534D5320E6
:10225000526561647900000000B591B00121480524
:1022600001F0AEF92248FFF7F3F800BF2048FFF76E
:102270009BF90028FAD14FF0006002901D480390AE
:102280001D480490402005900020069007904FF4D0
:1022900080600890002009900A900B904FF48030E5
:1022A0000C9000200D9003200E9000200F901090B5
:1022B00002A90F48FFF7C2F9012210210C48FFF7CD
:1022C0009FF9012280210B48001F02F07FFB0E20A6
:1022D0008DF804000F208DF8050000208DF8060011
:1022E00001208DF8070001A800F06CFF11B000BDBF
:1022F0005860024004480040EE02002000B587B05C
:102300000121022001F05CF90121880401F078F933
:1023100007220A212448FFF7D9FE07220B21224871
:10232000FFF7D4FE4FF44060059002208DF81800AE
:102330008DF8190000208DF81A0001208DF81B007F
:1023400005A91948FFF77AFE4FF46140019000207B
:10235000ADF80800ADF80A00ADF80C004FF440707D
:10236000ADF810000C20ADF80E0001A90F4802F0E6
:1023700085FB01210D4802F01DFB012240F2255191
:102380000A4802F056FB27208DF800000F208DF838
:10239000010000208DF8020001208DF8030068463E
:1023A00000F010FF07B000BD0004024000480040EC
:1023B00010B52DED048BB0EE408AF0EE608A9FEDF3
:1023C0000A0B53EC102B51EC180B06F0C7FF41EC35
:1023D000190B9FED070B53EC102B06F0EFFC41ECB3
:1023E000100BBDEC048B10BD9A999999E193E140D3
:1023F0009CC420B07258764010B588B004461421B1
:1024000003A8FEF7ACFA0EA207CA8DE807000A225D
:1024100003A94FF4805000F0D7FF0A2203A92046F9
:10242000FEF7E3F910B9012008B010BD0A22694691
:102430002046FEF7DAF908B90120F5E70020F3E7B6
:102440003939393939393939393900008EB02AE00A
:1024500015A004F0DBFA1A4804F0D8FA194804F081
:10246000D5FA194804F0D2FA18A004F0CFFA0023E4
:102470005A1E01A91F48006806F054F8012812D11D
:102480001DA101A8FEF7BEFA10B901F06DFE0AE029
:102490001AA101A8FEF7B6FA10B901F01BFD02E07F
:1024A00017A004F0B3FAD3E70D0A0D0AC7EBD1A1C8
:1024B000D4F1C9E8D6C3B2CECAFDA3BA0000000069
:1024C000389C0008789B0008D89B00080D0A202043
:1024D000202020205220CDF8B9D8B8B4CEBBD0C52A
:1024E000CFA2202020204520CDCBB3F60D0A3E20E0
:1024F0000000000030000020320D0000340D00000C
:102500000D0A20CAE4C8EBB8F1CABDB2BBD5FDC8FC
:10251000B7A3ACC7EBD6D8D0C2CAE4C8EBA3A10D11
:102520000A00000030B5B3B005460C46002340F267
:10253000E24219461748006805F0F4FF012827D148
:102540004FF0C0511448FEF75DFF2246294613485C
:10255000FEF796F91148801E447000210E48FEF7E0
:102560006BFF00BF0C48FFF71FF80028FAD10B489B
:10257000801E41780848FFF78DF800231A4601A90C
:102580000748006805F0CEFF01210348FEF754FF1D
:1025900033B030BD2000002058600240EE02002021
:1025A0002800002010B50446002020706070C8216B
:1025B000A01CFEF7B2F910BD4278C82A08DA0378E9
:1025C000821CD1540278521C02704278521C427014
:1025D0007047000010B50020084908704870C821F5
:1025E0000648801CFEF799F90020054908704870DC
:1025F000C8210348801CFEF790F910BDB6030020E7
:10260000EC02002000B58DB0FFF7DCFDFA2258A1E6
:1026100058A001F00FFC28B958A004F0F7F90020E9
:102620000DB000BDFA2252A15BA001F003FC20B95D
:102630005DA004F0EBF90020F2E7FA224CA161A0C2
:1026400001F0F8FB20B961A004F0E0F90020E7E711
:10265000FA2247A163A001F0EDFB20B965A004F0C8
:10266000D5F90020DCE7FA2268A16AA001F0E2FBBC
:1026700020B96EA004F0CAF90020D1E7FA223CA1EB
:1026800071A001F0D7FB20B972A004F0BFF90020BF
:10269000C6E74FF47A7275A178A001F0CBFB20B9A0
:1026A00079A004F0B3F90020BAE7FA2005F03AFD6A
:1026B000FA227BA17DA001F0BDFB20B97EA004F031
:1026C000A5F90020ACE74FF47A7229A180A001F0AF
:1026D000B1FB20B981A0FDF753FE0020A0E740F236
:1026E000E24005F01FFD40F6A66221A180A001F0A6
:1026F000A1FB20B982A004F089F9002090E70B2209
:1027000085494FF4005000F05FFE834B1033824A3E
:1027100082A16846FDF740FE41F2883214A1684666
:1027200001F088FB20B985A004F070F9002077E75C
:1027300041F64C5286A1002001F07CFB20B987A015
:1027400004F064F900206BE7FA2005F0EBFC01F0DF
:10275000AFFDFA2288A18AA001F06CFB20B98BA002
:10276000FDF70EFE00205BE701F0C6FD012057E7F4
:102770004F4B000041540D0A000000000D0A475362
:102780004DB4AEBFDACDA8D0C5BDD3BFDAD2ECB35D
:10279000A3A3A10D0A00000041542B4950523D351E
:1027A000373630300D0A00000D0A47534DCDA8D002
:1027B000C5B2A8CCD8C2CAC9E8D6C3D2ECB3A3A3C9
:1027C000A10D0A00415445300D0A00000D0ABBD886
:1027D000CFD4C4A3CABDB9D8B1D5D2ECB3A3A3A1F9
:1027E0000D0A000041542B4349504D4F44453D31A3
:1027F0000D0A00000D0ACDB8C3F7B4ABCAE4C5E4B6
:10280000D6C3D2ECB3A3A3A10D0A00000D0A4F4B0F
:102810000D0A000041542B434950434346473D3580
:102820002C322C313032342C310D0A000D0A475332
:102830004DB4ABCAE4B2CECAFDC5E4D6C3D2ECB344
:10284000A3A3A10D0A00000041542B434C54533D57
:10285000310D0A000D0A47534DBBF1C8A1CAB1BCE6
:10286000E4D2ECB3A3A3A10D0A0000002B4350490E
:102870004E3A2052454144590000000041542B4338
:1028800050494E3F0D0A00000D0A53494DBFA85252
:1028900045414459D2ECB3A3A3A10D0A00000000A6
:1028A0002B435245473A20302C31000041542B43F2
:1028B0005245473F0D0A00000D0ACDF8C2E7D7A2E6
:1028C000B2E1D0C5CFA2D2ECB3A3A3A10D0A000000
:1028D00041542B43474154543D300D000D0A47509D
:1028E0005253B7D6C0EBD2ECB3A30D0A00000000E0
:1028F00041542B43474154543D310D0A0000000020
:102900000D0A47505253B8BDD7C5D7B4CCACD2ECA2
:10291000B3A3A3A10D0A0000CC02002041542B4315
:10292000495053544152543D22544350222C2225A5
:1029300073222C222573220D0A0000000D0A544335
:1029400050B8F1CABDB2BBD5FDC8B70D0A00000032
:102950000D0A434F4E4E4543540D0A000D0ACEDE7C
:10296000B7A8C1ACBDD3B7FECEF1C6F74950B6CBC0
:10297000BFDA0D0A000000002B43434C4B3A200005
:1029800041542B43434C4B3F0D0A0000BBF1C8A1FF
:10299000CDF8C2E7CAB1BCE4CAA7B0DC0D0A00009A
:1029A00010B5E6B00446002065904FF4C87101A848
:1029B000FDF7D5FF601CFFF71FFD08B966B010BD1D
:1029C00065A9204600F072FD00B9F7E701AA9DF85D
:1029D000941104F10F0000F0E7FBE07B30280BD1ED
:1029E0009DF8942101A94FF4804000F00BFD04F004
:1029F000EBFE06F0BFF91CE0E07B312807D19DF823
:102A0000942101A94FF4A04000F0FCFC11E0E07B10
:102A1000322807D19DF8942101A94FF4C04000F05D
:102A2000F1FC06E0012204F10F01C12000F065FD78
:102A3000C4E7012204F10F01812000F05EFD00BF18
:102A4000BCE77047704700002DE9F043CDB0054664
:102A500000204C90642133A8FDF781FF00203290C4
:102A60008146681CFFF7C8FC10B94DB0BDE8F08383
:102A70004CA9284600F01AFD00B9F6E79DF8300190
:102A8000401E112190FBF1F201FB120038B99DF8B4
:102A90003001401E90FBF1F000F0FF0800E0E4E799
:102AA000E87B31286AD1002465E004EB041105F1CC
:102AB0001000405CADF8CC0005F11000112101FBC5
:102AC00004004078ADF8CE0005F1100001FB0400D1
:102AD0008078ADF8D00005F1100001FB0400C0784B
:102AE000ADF8D200BDF8CC10C8B203F089FB0601E6
:102AF000BDF8CE10C8B203F083FB30444FF6FF712F
:102B000001EA0016BDF8D010C8B203F079FB3044DA
:102B10004FF6FF7101EA0016BDF8D210C8B203F0FB
:102B20006FFB304486B232A9304605F07BF900B91C
:102B30009BE7B6F57A7F00DD97E735A800F0F6FF52
:102B400000270CE005F11400112101FB0400C15D18
:102B500007F1100033AA22F81010781CC7B20D2F0D
:102B6000F0DBBDF8C8104F4A02EB01301D2233A93B
:102B700000F048FC641C444597DB6FE0E87B32289A
:102B800054D100244FE004EB041105F11000405C27
:102B9000ADF8CC0005F11000112101FB04004078D4
:102BA000ADF8CE0005F1100001FB04008078ADF80F
:102BB000D00005F1100001FB0400C078ADF8D20090
:102BC000BDF8CC10C8B203F01BFB0601BDF8CE1057
:102BD000C8B203F015FB30444FF6FF7101EA00164E
:102BE000BDF8D010C8B203F00BFB30444FF6FF71B4
:102BF00001EA0016BDF8D210C8B203F001FB304460
:102C000086B232A9304605F00DF900B92DE7B6F5C8
:102C10007A7F00DD29E7BDF8C810224A02EB0130B7
:102C200000F092FB641C4445ADDB17E0E87B3328E1
:102C300014D0E87B34280BD1002406E04FF4801137
:102C400001EB044000F04EFB641C3F2CF6DB05E07A
:102C500005226946C22000F050FC06E7002412E07D
:102C600000270DE005F11000112101FB0400C05DFB
:102C70000DF8090009F1010000F0FF09781CC7B246
:102C8000042FEFDB641C4445EADBE87B0DF82800E9
:102C90004FEA8800401CC2B26946822000F02DFC39
:102CA00000BFE2E60010100030B5E9B00446002095
:102CB00068904FF4C87104A8FDF751FE601CFFF73F
:102CC0009BFB08B969B030BD68A9204600F0EEFB57
:102CD00000B9F7E7E07B41283CD1207C302839D18E
:102CE000607C302836D1A07C302833D10DF14A00E9
:102CF00000F01CFF9DF8A001083881B20DF16202BE
:102D000004F1170000F050FA00251FE005EB450123
:102D1000174A02EB4101888803A905F083F8BDF842
:102D20000C10144A02EB01301D2204A900F04CFBE8
:102D30009DF8A01101F12102BDF80C100D4B03EB21
:102D4000013004A900F05EFB681C85B20A480088C7
:102D50008542DBDB0A2204F10F016846FDF726FEFF
:102D60000A226946832000F0C8FB00BFAAE70000E2
:102D700050C30010001010004200002010B58CB0AD
:102D8000044600200B90282101A8FDF7E8FD601CF7
:102D9000FFF732FB08B90CB010BD0BA9204600F0BC
:102DA00085FB00B9F7E701AA9DF82C1004F10F008C
:102DB00000F0FAF901A801F025FC9DF82C2001A9EA
:102DC0004FF4E04000F01EFB00221146A22000F06C
:102DD00094FB00BFDFE770477047704700BFFEE716
:102DE00010B586B001AC052209494FF4805000F0BF
:102DF000EBFA022020700A220549601CFDF7D6FD7F
:102E00000321E1720C2101A801F016FA06B010BDF1
:102E1000E20200201FB500F01FF80022322103203B
:102E200005F05CFB0749086000200223CDE9003073
:102E3000029003464FF4906203A10390054805F009
:102E40007DFD1FBD44000020456C656374546173B3
:102E50006B000000D92E00081CB5012000908DF8F1
:102E6000040002208DF8050000208DF806000120E6
:102E70008DF8070069461548FFF7E0F842F20D00AB
:102E8000009001208DF8040002208DF8050000203C
:102E90008DF8060001208DF8070069460C48FFF701
:102EA000CDF84FF4F860009001208DF80400022066
:102EB0008DF8050000208DF8060001208DF8070030
:102EC00069460448FFF7BAF81CBD00000000024044
:102ED00000080240001402408EB000BF00231922F7
:102EE00001A90248006805F01DFBF7E74400002037
:102EF00010B52DED048BB0EE408AF0EE608A9FEDA8
:102F00000A0B53EC102B51EC180B06F027FA41EC8E
:102F1000190B9FED070B53EC102B05F04FFF41EC05
:102F2000100BBDEC048B10BD3D0AD7A31894E140F3
:102F30008FC2F5285C8771402DE9F04300240025FD
:102F400000273C4909884A1EE019002103F0EAF8ED
:102F500000BF00BF00BF2AE004EB4400364911F86F
:102F60001080781987B2002532480088844200DB3F
:102F70001EE0002612E0601C84B2681C85B22D4859
:102F80000088844200DB0CE004EB44002A4911F87D
:102F90001000404500D004E0701C86B2B6F57A7F80
:102FA000E9DB00BF6A1E0021384604F009FED3E7C2
:102FB00000BF00240025002737E004EB44001E4931
:102FC00011F8108004EB440001EB400090F80190F0
:102FD000781987B2002517480088844200DB25E075
:102FE000002619E0601C84B2681C85B21148008874
:102FF000844200DB13E004EB44000F4911F8100099
:10300000404506D104EB440001EB400040784845C0
:1030100000D004E0701C86B2B6F57A7FE2DB00BF18
:103020006A1E0021384603F043FCC6E700BFBDE836
:10303000F08300004200002050C30010002011E087
:1030400001210A4A02F8201002EB8002517000218F
:10305000064A02EB80029170044A02EB8002D170B2
:10306000411C88B2B0F57A7FEADB7047C0DA001005
:103070002DE9F04391B04FF00009002483E0464968
:1030800001EB04301D2202A900F09EF9BDF80800F2
:103090004FF6FF71884200D173E0BDF80810C8B246
:1030A00003F0AEF80601BDF80A10C8B203F0A8F8A4
:1030B00030444FF6FF7101EA0016BDF80C10C8B29B
:1030C00003F09EF830444FF6FF7101EA0016BDF898
:1030D0000E10C8B203F094F8304486B2BDF8301038
:1030E000C8B203F08DF80746BDF83210C8B203F03D
:1030F00087F80501BDF83410C8B203F081F8284400
:103100004FF6FF7101EA0015BDF83610C8B203F0A2
:1031100077F828444FF6FF7101EA0015BDF8381022
:10312000C8B203F06DF8284485B2BDF83E10C8B2AD
:1031300003F066F800074FEA1068BDF84010C8B207
:1031400003F05EF8404400F0FF088DF800708DF841
:103150000180ADF80250ADF804604846411C1FFAEA
:1031600081F900EB40000D4901EB4000009901603E
:10317000BDF8041081800A480088401C0849088076
:1031800000BF601C84B2B4F57A7FFFF678AFFFF71A
:10319000D3FE11B0BDE8F0830010100050C3001042
:1031A0004200002000BFFEE710B50346002004E007
:1031B0001C5C22F81040441CE0B28842F8DB10BDD1
:1031C0007047000070B5002100230F22C4781CB3A3
:1031D000174C246804F4E064C4F5E064C4F30721E8
:1031E000C1F10404E3B20A4144789C40E1B284781E
:1031F000144021430C07210E0E4C057861550478CC
:1032000004F01F050124AC4005786D11AD0005F1F7
:10321000E025C5F8004109E0047804F01F05012409
:10322000AC40054D0678761145F8264070BD00008B
:103230000CED00E000E400E080E100E00249014321
:10324000024A1160704700000000FA050CED00E032
:10325000F0B591B00546002409AA19A12846FDF74A
:103260005FF90DF11A0006A9021F05ABCDE9003286
:10327000CDE902108B1F04AA13A109A8FDF750F98C
:1032800006281BD19DF8250002F0BAFF07469DF8DD
:10329000240002F0B5FF47EA0010C6B23046FEF740
:1032A00005F80446012000F065FBA04206D001208D
:1032B00000F0F6F82146012000F0D0FC11B0F0BD7E
:1032C000252A7325730000002568642C2568642C6A
:1032D0002568642C2568642C2568642C2568642C7A
:1032E0000000000070B504460125002340F2E242D0
:1032F00019460B48006805F015F901280ED1204643
:10330000FEF792FB054615B106A003F07FFB0023F4
:103310001A4619460248006805F0E4F970BD00003D
:103320002C0100200D0A4E4F525F464C415348205D
:10333000457261736520426C6F636B204572726FDA
:10334000722121210000000070B5044601250023F0
:1033500040F2E24219460B48006805F0E3F8012804
:103360000ED12046FEF77CFB054615B106A003F002
:103370004DFB00231A4619460248006805F0B2F9D1
:1033800070BD00002C0100200D0A4E4F525F464CCC
:1033900041534820457261736520536563746F72B1
:1033A000204572726F7221212100000010B505487E
:1033B000006830B9FEF796FB012005F06BF8014973
:1033C000086010BD2C01002070B504460D4616465D
:1033D000002340F2E24219460948006805F0A2F8CD
:1033E00001280BD1324621462846FEF7C9FC0023AE
:1033F0001A4619460248006805F074F970BD0000CD
:103400002C0100202DE9F04104460D461746012607
:10341000002340F2E24219461048006805F082F8A5
:10342000012818D12046FEF71BFB064616B10CA05A
:1034300003F0ECFA3A4621462846FEF7BBFC064666
:1034400016B110A003F0E2FA00231A461946034809
:10345000006805F047F9BDE8F08100002C0100206C
:103460000D0A4E4F525F464C4153482045726173DE
:1034700065536563746F72204572726F72212121EA
:10348000000000000D0A4E4F525F464C4153482049
:103490005772697465204572726F72212121000094
:1034A000014908627047000000000E422DE9F04714
:1034B00004460D460027B846A07B02F0A1FE8146D7
:1034C000607B02F09DFE49EA00102870002608E0AB
:1034D000781CC7B214F8011B032900D103E0701C4B
:1034E000C6B2FF2EF4DB00BF28781230B84201D1FB
:1034F0004FF001084046BDE8F0872DE9F041C4B027
:1035000006460F461446FC2105A8FDF728FA1421AB
:103510006846FDF724FA0A2269464FF48050FFF707
:1035200053FF02208DF814000A2269460DF11500A0
:10353000FDF73CFA300903F067F98DF81F0006F03B
:103540000F0003F061F98DF82000200903F05CF909
:103550008DF8210004F00F0003F056F98DF82200D9
:103560005CB157B1002506E0795D05AA05F10F00B1
:103570001154681CC5B2A542F6DB04F10F00C1B2BC
:1035800005A8FDF775FD80464FEA181003F03CF9D9
:1035900005AA04F10F01505408F00F0003F034F9AC
:1035A00005AA04F110015054032104F11100115433
:1035B000401CC1B205A800F03FFE44B0BDE8F08158
:1035C00029B1064A12680243044B1A6004E0034A18
:1035D00012688243014B1A60704700003038024085
:1035E00029B1064A12680243044B1A6004E0034AF8
:1035F00012688243014B1A6070470000383802405D
:1036000029B1064A12680243044B1A6004E0034AD7
:1036100012688243014B1A60704700004038024034
:1036200029B1064A12680243044B1A6004E0034AB7
:1036300012688243014B1A60704700004438024010
:10364000F0B5002100220024022500260223324F7B
:103650003F6807F00C0121B1042905D0082937D1B2
:1036600005E02E4F076036E02D4F076033E02A4F0C
:103670003F1F3F68C7F38056274F3F1F3F6807F043
:103680003F036EB1264FB7FBF3F7DFF88CC0ACF108
:10369000040CDCF800C0CCF3881C07FB0CF40CE035
:1036A0001E4FB7FBF3F7DFF870C0ACF1040CDCF889
:1036B00000C0CCF3881C07FB0CF4174F3F1F3F687A
:1036C000C7F301477F1C7D00B4FBF5F7076002E0FC
:1036D000124F076000BF00BF0F4F3F6807F0F001B7
:1036E0000909104F7A5C0768D74047600A4F3F6866
:1036F00007F4E051890A0B4F7A5C4768D74087602E
:10370000054F3F6807F46041490B064F7A5C4768F4
:10371000D740C760F0BD0000083802400024F40024
:10372000001BB7000000002010B501460022002356
:1037300000204A11012A02D10A4C236808E0022A1B
:1037400003D1084C7034236802E0064C74342368BB
:1037500001F01F02012494401C400CB1012000E044
:10376000002010BD003802400021094A117011707C
:10377000012802D0042808D103E00121044A117075
:1037800004E00521024A117000E000BF00BF70474D
:103790007038024001490860704700003C0E474203
:1037A000002100F44072B2F5407F08D1094A116847
:1037B00021F4F811084A02401143064A1160054AF3
:1037C00068321268C0F30B031A43024B68331A6065
:1037D0007047000008380240FFFCFF0F014600BFA1
:1037E000080900EB8000420001F00F001044C0B255
:1037F00070470146002204E0501CC2B2A1F10A0049
:10380000C1B20A29F8DA100741EA106070470000D7
:1038100008B50022009200200021104A126802F030
:103820004002CAB9421E0D4B1A6000BF0B4A126813
:1038300002F04001009A521C0092009AB2F5803FBB
:1038400001D00029F2D0054A126802F040020AB104
:10385000012002E0002000E0012008BD0C2800400B
:103860000348006820F080000149086070470000AC
:103870000C28004070B506460C4600250E4800682E
:103880000E4900EA0105280CE070C5F304206070C1
:1038900005F03F00A070C5F3423020705EB9E078BB
:1038A000FFF79CFFE0706078FFF798FF6070A078EA
:1038B000FFF794FFA07070BD042800403FFFFF0099
:1038C00070B506460C4600250F4800680F4900EA0F
:1038D0000105C5F305402070C5F30620607005F0B2
:1038E0007F00A07005F48000000CE0705EB92078C5
:1038F000FFF774FF20706078FFF770FF6070A078AA
:10390000FFF76CFFA07070BD002800407F7F7F0034
:1039100030B504460025CA201549086053200860C8
:10392000FFF776FF00B91DE011481C38006820F051
:1039300040000F491C3908600846006821680843A8
:103940000B491C3908600A491439A0680860084608
:103950000068A18840EA0140054914390860FFF772
:103960007FFF0125FF2002490860284630BD000086
:103970002428004008B5014600200090044800902B
:10398000009800EB810000900098006808BD0000DE
:10399000502800402DE9F04105460C46002600273E
:1039A0004DB9607800F01000102804D1607820F044
:1039B00010000A30607005B908E06078FFF70EFF6C
:1039C0000646A078FFF70AFF064600BF55B1E0782B
:1039D0000004617840EA0120A1780843217840EA98
:1039E000413611E0E078FFF704FF4FEA00486078C5
:1039F000FFF7FFFE48EA0028A078FFF7FAFE48EA42
:103A00000008207848EA4036CA201249086053204E
:103A10000860FFF7FDFE08B9002714E00E483040AB
:103A20000C4920390860FFF71BFF0A481C38006862
:103A300000F0200030B900F0E1F808B9002702E0FA
:103A4000012700E00127FF20024908603846BDE851
:103A5000F0810000242800403FFFFF002DE9F041E5
:103A600005460C46002600274DB92E48006800F098
:103A7000400000B102E00020E07000BF0DE02948E6
:103A8000006800F0400020B12078FFF7A7FE06464E
:103A900002E00020E07000BF00BF55B120780004B4
:103AA000617840EA0120A1780843E17840EA0146C4
:103AB00011E02078FFF79DFE4FEA00486078FFF79D
:103AC00098FE48EA0028A078FFF793FE48EA00082D
:103AD000E07848EA0046CA2012491C3108605320A9
:103AE0000860FFF795FE08B9002713E00E48304044
:103AF0000C4908390860FFF7B3FE0A48006800F077
:103B0000200030B900F07AF808B9002702E0012758
:103B100000E00127FF2003491C3108603846BDE85A
:103B2000F0810000082800407F7F7F0010B5044628
:103B30003149012000F0A0F82F49097DC1F303109D
:103B400002F062FE24F8020B2B49097D01F00F0000
:103B500002F05AFE24F8020B2749097CC1F3031036
:103B600002F052FE24F8020B2349097C01F00F00F9
:103B700002F04AFE24F8020B1F49097BC1F303102F
:103B800002F042FE24F8020B1B49097B01F00F00F2
:103B900002F03AFE24F8020B1749097AC1F3031028
:103BA00002F032FE24F8020B1349097A01F00F00EB
:103BB00002F02AFE24F8020B0F490979C1F3031021
:103BC00002F022FE24F8020B0B49097901F00F00E4
:103BD00002F01AFE24F8020B07490978C1F303101A
:103BE00002F012FE24F8020B0349097801F00F00DD
:103BF00002F00AFE208010BD8C95012008B500223D
:103C0000009200200021CA22134B1A6053221A602E
:103C1000114A183A126822F0A0020F4B183B1A60A2
:103C200000BF0D4A183A126802F02001009A521C97
:103C30000092009AB2F5003F01D00029F1D0064A67
:103C4000183A126802F020020AB1012000E00020B8
:103C5000FF22014B1A6008BD2428004008B500224D
:103C60000092044A0092009A02EB80020092009AAD
:103C7000116008BD502800407CB505460C46002365
:103C800040F2E24219462248006804F04BFC012849
:103C90003CD101A92846FFF7EDFD69462846FFF70C
:103CA0000FFE9DF8020020609DF8010060609DF805
:103CB0000000A0609DF80600E0609DF8050020610E
:103CC00065B90120FFF756FE00EBC00101EB0010C3
:103CD0009DF8071001EB800060610DE0012D0BD114
:103CE0000120FFF747FEC6B23046FDF7ECFA9DF81B
:103CF000071001EB002060619DF80400A061002323
:103D00001A4619460248006804F0ECFC7CBD00002D
:103D10002401002000B58DB00B2213494FF4005050
:103D2000FFF752FB104B10330F4A10A16846FCF707
:103D300033FB40F6C41215A1684600F07BF828B9A1
:103D400013A002F063FE00200DB000BD41F28832E6
:103D500016A1002000F06EF820B90DA002F056FE6A
:103D60000020F1E70120EFE7CC02002041542B4373
:103D7000495053544152543D22544350222C222541
:103D800073222C222573220D0A0000004F4B0000E5
:103D90000D0ACEDEB7A8C1ACBDD3B7FECEF1C6F7D3
:103DA0004950B6CBBFDA0D0A000000000D0A434FA0
:103DB0004E4E4543540D0A000EB5012004F06AFB37
:103DC0001B49086001210807FFF71AFC0120FFF7D3
:103DD00067FB0020FFF7CEFD4AF2A551884225D0AF
:103DE0000120FFF7C1FC00BF4120FFF79DFC002828
:103DF000FAD04FF48070FFF7D3FC0120FFF7CAFC24
:103E00007F200190FF200290002000906846FFF77D
:103E10007FFD4AF2A5510020FFF720FF1421012069
:103E2000FFF71CFF20210220FFF718FF01200EBD25
:103E3000240100202DE9F043B3B006460C46154698
:103E40000027B84604F004FE80462CE046B1304618
:103E5000FCF7ACFC00F0FF0949463046FEF762FB78
:103E60000CB9012725E06A08002301A9134800685E
:103E700004F058FB012816D1214601A8FCF784FC68
:103E800048B10FA12046FCF7BDFD10B901A800F014
:103E90005BFF01270DE00CA101A8FCF775FC10B138
:103EA00001A8FFF7D5F904F0D3FDA0EB0800A84264
:103EB000CCD300BF384633B0BDE8F08328000020E3
:103EC0002B43434C4B3A20002A50535554545A3AF2
:103ED0002000000000B5A3B0202108A8FCF73FFD9A
:103EE0000020079005900690049074E03CA002F03A
:103EF0008DFD49A002F08AFD4AA002F087FD002353
:103F00005A1E10A94848006804F00CFB012862D131
:103F100046A110A8FCF776FD00B95DE007AA04AB46
:103F2000901E06A9CDE90232CDE90010031F05AAB3
:103F30003FA110A8FCF7F4FA062849D1BDF91400F6
:103F4000002841DBBDF91400FF283DDCBDF9160057
:103F5000002839DBBDF91600FF2835DCBDF9180053
:103F6000002831DBBDF91800FF282DDCBDF91A004F
:103F7000002829DBBDF91A00FF2825DC0498002859
:103F800022DB0498B0F5803F1EDA9DF81C003B2828
:103F90001AD11DAA2CA110A8FCF7C2FA21AA2CA1A3
:103FA00010A8FCF7BDFA10221DA908A8FCF7FEFC1A
:103FB000062221A90CA8FCF7F9FC0F2208A94FF44E
:103FC0000050FFF71FFA06E025A002F01FFD02E0F7
:103FD00023A002F01BFD89E700BF23B000BD000055
:103FE0000D0AC7EBCAE4C8EBB7FECEF1C6F74950DD
:103FF000B5D8D6B7BCB0B6CBBFDABAC528C0FDC8F5
:10400000E736312E3139302E33382E34362C3330DA
:104010003030303B29A3BA000D0A452ECDCBB3F684
:10402000000000000D0A3E0030000020450D000099
:104030002568642E2568642E2568642E2568642C06
:104040002564256300000000255B5E2C5D000000F8
:10405000252A5B5E2C5D2C255B5E3B5D000000002D
:104060000D0AC7EBCAE4C8EBBACFB7A8B5C449502C
:10407000B5D8D6B7BBF2B6CBBFDA21000CB500205D
:10408000019000903448006840F480303249086064
:1040900000BF3148006800F4003000900198401CD7
:1040A0000190009818B90198B0F5A04FF1D12A48B5
:1040B000006800F4003010B10120009001E0002001
:1040C00000900098012846D123484030006840F015
:1040D00080502149403108602048006840F4404049
:1040E0001E4908601C48083000681B4908310860F8
:1040F0000846006840F4004008600846006840F444
:10410000A05008601648091F0860081F006840F0AA
:104110008070091F086000BF0F48006800F0007041
:104120000028F9D040F205700E4908600A480830AE
:10413000006820F00300084908310860084600685C
:1041400040F00200086000BF03480830006800F03B
:104150000C000828F8D10CBD003802400070004067
:104160000C544007003C024030B58DB03CE020A02C
:1041700002F04CFC23A002F049FC25A002F046FC12
:1041800000235A1E69462348006804F0CBF9012831
:104190002AD121A16846FCF735FC00B925E0684624
:1041A000FCF704FB0B281CD100240CE01DF80400D4
:1041B000302805DB1DF80400392801DC012500E06A
:1041C0000025601CC4B20A2CF0DB012D05D10522AC
:1041D00069462803FFF716F906E010A002F016FC66
:1041E00002E00EA002F012FCC1E700BF0DB030BD2E
:1041F0000D0AC7EBCAE4C8EBCDF8B9D8B5D8D6B725
:10420000A3BA00000D0A452ECDCBB3F60000000086
:104210000D0A3E0030000020450D00000D0AC7EBDE
:10422000CAE4C8EBBACFB7A8B5C4CDF8B9D8B5D8E9
:10423000D6B7A3A10000000030B5B3B004460D46C8
:1042400000231A4601A91448006804F06BF90128FC
:104250001BD112A101A8FCF7D5FBB0B9FFF75AFD9D
:1042600098B9FEF7CFF980B900BFBFF34F8F0E4862
:10427000006800F4E0600D490843001D0A49086029
:10428000BFF34F8F00BF00BFFEE729462046FEF771
:1042900049F933B030BD0000280000200D0A434C1E
:1042A0004F5345440D0A00000CED00E00000FA05F4
:1042B00010B5FA2003F036FF4FF4FA6207A108A008
:1042C000FFF7B8FD20B907A002F0A0FB002010BD49
:1042D000FA2003F027FF0120F9E700004F4B000010
:1042E0002B2B2B00C3FCC1EEC4A3CABDC7D0BBBBE4
:1042F000CAA7B0DC0D00000010B540F2E24206A1F2
:1043000007A0FFF797FD20B907A002F07FFB002070
:1043100010BD0120FCE70000434F4E4E45435400C2
:1043200041544F0D0A000000CAFDBEDDC4A3CABD42
:10433000C7D0BBBBCAA7B0DC0D00000010B5154844
:10434000006840F47000134908601348006840F0AA
:1043500001001149086000200F49083108600E482B
:1043600000680E4908400C4908600D48091D0860A6
:10437000081F006820F48020091F086000200649FB
:104380000C310860FFF77AFE4FF000600149803978
:10439000086010BD88ED00E000380240FFFFF6FE27
:1043A00010300024704700008EB023A002F02EFBD6
:1043B0002DA002F02BFB32A002F028FB36A002F069
:1043C00025FB3BA002F022FB3FA002F01FFB44A014
:1043D00002F01CFB48A002F019FB4DA002F016FBF6
:1043E00029E05AA002F012FB5DA002F00FFB63A0CF
:1043F00002F00CFB66A002F009FB68A002F006FBCD
:1044000000235A1E01A96648006804F08BF80128B1
:1044100011D164A101A8FCF7F5FA08B9FEF716F866
:1044200061A101A8FCF7EEFA10B9FFF7BBFF02E0AB
:104430005EA002F0EBFAD4E70D0A0D0AB5F7CAD474
:10444000C4A3CABD0D0ABACFB7CAB4F3C3F7BDDA65
:10445000C4DCBFC6BCBCB9C9B7DDD3D0CFDEB9ABF5
:10446000CBBEA3BA000000000D0ACDF8B9D8C8ED44
:10447000BCFEB0E6B1BEBAC52020A3BA560000000B
:104480000D0ACDF8B9D8B5D8D6B7202020202020E5
:104490002020A3BA000000000D0ACDF8B9D8B5B1AC
:1044A000C7B0CAB1BCE420202020A3BA000000009D
:1044B0000D0A4750532DBEADB6C820202020202025
:1044C0002020A3BA000000000D0A4750532DCEB3A0
:1044D000B6C82020202020202020A3BA0000000001
:1044E0000D0AC4BFB1EAB7FECEF1C6F74950B5D840
:1044F000D6B7A3BA000000000D0AC4BFB1EAB7FEE8
:10450000CEF1C6F7B6CBBFDABAC5A3BA0000000039
:104510000D0A2A2A2A2A2A2A2A2A2A2A2A2A2A2A38
:104520002A2A2A2A2A2A2A2A2A2A2A2A2A2A2A2AEB
:104530002A2A2A2A2A2A2A2A2A2A2A2A2A2A2A2ADB
:104540002A2A2A2A2A2A2A2A2A2A00000D0AC7EBFE
:10455000D1A1D4F1B5F7CAD4C4A3CABDA3BA00008F
:104560000D0A312ECDF8B9D8B2CECAFDC9E8D6C3EE
:10457000BCB0B2E9BFB4C4A3CABD00000D0A322E5C
:10458000C8CECEF1B4F2D3A1C4A3CABD00000000CE
:104590000D0A452ECDCBB3F6000000000D0A3E00FB
:1045A00030000020310D0000320D00000D0A20CA3D
:1045B000E4C8EBB8F1CABDB2BBD5FDC8B7A3ACC760
:1045C000EBD6D8D0C2CAE4C8EBA3A10D0A00000004
:1045D0001FB500200423CDE90030029003464FF4BC
:1045E000906203A10390064804F0A8F91FBD0000E3
:1045F00054696D65506C616E5461736B000000000E
:10460000CD8300082DE9F0470446A07801F0F8FDBD
:104610008246207801F0F4FD4AEA0010C6B2002577
:1046200023E006F00100E8B1681CC7B2207B01F06E
:10463000E7FD8046A07B01F0E3FD81464B46424604
:104640000021384601F024FD207C01F0D9FD804690
:10465000A07C01F0D5FD81464B46424610213846EC
:1046600001F016FD7610681CC5B2082DD9DBBDE837
:10467000F087000038B50020009040F225511E4818
:1046800000F0ADF9002836D01B4800F061FAC4B242
:10469000022C02D11948FCF755FD184821464278F2
:1046A000642A08DA0378821CD1540278521C027002
:1046B0004278521C427000BF032C1CD10F48407836
:1046C000C01EC1B20D48801CFCF7D2FC00236A4614
:1046D0000A49891C0A48006804F08CF8009838B12F
:1046E0004FF0805007490860BFF34F8FBFF36F8FC3
:1046F0000248FCF727FD38BD004C00403401002083
:104700001400002004ED00E038B50020009040F2D5
:1047100025511E4800F063F9002836D01B4800F0F0
:1047200017FAC4B2022C02D11948FDF715F818483F
:1047300021464278642A08DA0378821CD154027830
:10474000521C02704278521C427000BF032C1CD1D4
:104750000F484078C01EC1B20D48801CFCF788FC91
:1047600000236A460A49891C0A48006804F042F896
:10477000009838B14FF0805007490860BFF34F8F61
:10478000BFF36F8F0248FCF7E7FF38BD0010014010
:10479000660200201C00002004ED00E01CB5002093
:1047A000009040F225514F4800F019F9002866D0DA
:1047B0004C4800F0CDF9C0B20190012101A802F0EF
:1047C000E7F89DF804004849497871B9022803D1F7
:1047D0000021464A117008E00D2803D10121434A07
:1047E000117002E00221414A117000BF3F48007879
:1047F000002845D19DF80400022802D13A48FDF76F
:10480000D1FE9DF804103848FDF7D6FE9DF804004F
:10481000032866D134484078C01EC1B23248801C9B
:10482000FCF726FC0446201101F0EEFF2E49097822
:10483000C91E2D4A921C515C88421DD104F00F0004
:1048400001F0E2FF28490978891E274A921C515C31
:10485000884211D100236A462349891C24480068F4
:1048600003F0C8FF009838B14FF08050214908602C
:10487000BFF34F8FBFF36F8F1B48FDF793FE30E000
:104880001A48007801282CD117484078012806DC06
:104890009DF804000D2802D11348FDF783FE9DF812
:1048A00004101148FDF788FE0F484078042818DDF1
:1048B0009DF804000A2814D100236A460A49891C7D
:1048C0000D48006803F096FF009838B14FF0805013
:1048D00008490860BFF34F8FBFF36F8F0248FDF7A1
:1048E00061FE1CBD00480040B60300202D000020E2
:1048F0002400002004ED00E0280000201CB500206A
:10490000009040F22551264800F069F8002845D073
:10491000234800F01DF9C0B201909DF804000A2858
:1049200000D11CBD1F480078012807D19DF8040064
:104930000A2803D0012101A802F02AF81A489DF89C
:1049400004104278322A08DA0378821CD1540278A3
:10495000521C02704278521C427000BF9DF8040045
:104960000D281BD100236A460F49891C0F48006897
:1049700003F040FF009838B14FF080500C490860B8
:10498000BFF34F8FBFF36F8F074C3221A01CFBF793
:10499000C4FF00202070607000BF00BF00BFC0E7F0
:1049A000001401404000002080040020300000205E
:1049B00004ED00E021B1828942F40052828104E0DA
:1049C00082894DF6FF731A40828170471AB1838A3B
:1049D0000B43838202E0838A8B438382704770B5E6
:1049E0000246002400230025002040F66A16B1424A
:1049F00000D100BFC1F3421501F01F03012606FAE2
:104A000003F3012D02D19689334006E0022D02D135
:104A1000168A334001E0968A33400C12012606FACA
:104A200004F41688344013B10CB1012000E00020DA
:104A300070BDF0B50346002400260025002040F696
:104A40006A17B94200D100BF1846C1F3421401F001
:104A50001F06012707FA06F5012C01D10C3004E0EE
:104A6000022C01D1103000E014301AB107682F4336
:104A7000076002E00768AF430760F0BD2DE9FF471C
:104A800005460E460024A14600BFA046B08900B1ED
:104A900000BF2C8A24F44054F08804432C82AC8953
:104AA00041F20C608443B08831890843718908431E
:104AB0000443AC81AC8A24F44074B0890443AC82D2
:104AC0006846FEF7BDFD2048854202D01F4885425A
:104AD00002D1DDF80C9001E0DDF80890A88900F41F
:104AE000004040B109EBC90000EB091031684900F2
:104AF000B0FBF1F707E009EBC90000EB09103168E2
:104B00008900B0FBF1F76420B7FBF0F00401200945
:104B1000642101FB1078A88900F4004040B13220E4
:104B200000EBC800B0FBF1F000F00700044308E020
:104B3000322000EB08106421B0FBF1F000F00F0010
:104B400004432C81BDE8FF870010014000140140A0
:104B500001468888C0F30800704710B52DED0C8B16
:104B6000B0EE408AF0EE608AB0EE419AF0EE619AC3
:104B7000B0EE42AAF0EE62AAB0EE43BAF0EE63BA2B
:104B800053EC1A2B51EC190B04F018F941EC1D0BE6
:104B900053EC1B2B04F012F941EC1C0B53EC182BBB
:104BA00004F010FD41EC100BBDEC0C8B10BD10B5EA
:104BB0002DED0C8BB0EE408AF0EE608AB0EE419A9B
:104BC000F0EE619AB0EE42AAF0EE62AAB0EE43BAFD
:104BD000F0EE63BA53EC1A2B51EC190B04F0EEF81B
:104BE00041EC1D0B53EC1B2B04F0C4FD41EC1C0BE2
:104BF00053EC182B04F0E6FC41EC100BBDEC0C8BD5
:104C000010BD00001FB5012003F044FC0B490860F3
:104C1000002232210A2003F061FC094908600020CB
:104C20000123CDE90030029003464FF4906205A1C4
:104C30000390084803F082FE1FBD000034000020EE
:104C40003000002055617274446562756754617369
:104C50006B000000D983000800B587B00121042053
:104C6000FEF7AEFC01212020FEF7DAFC0822062127
:104C70002F48FDF72BFA082207212D48FDF726FAC9
:104C80004FF480712A48FDF744FA4FF48070059084
:104C900001208DF8180002208DF8190000208DF8F1
:104CA0001A0001208DF81B0005A92148FDF7C6F95F
:104CB000C020059002208DF818008DF81900002002
:104CC0008DF81A0001208DF81B0005A91848FDF782
:104CD000B5F94FF4E13001900020ADF80800ADF8CF
:104CE0000A00ADF80C00ADF810000C20ADF80E0075
:104CF00001A91048FFF7C2FE01210E48FFF75AFE36
:104D0000012240F225510B48FFF793FE47208DF812
:104D100000000E208DF8010000208DF80200012017
:104D20008DF803006846FEF74DFA07B000BD00009D
:104D3000000802400014014010B5FFF78DFFFCF79A
:104D4000ADFCFFF75FFF10BDF0B595B00546002440
:104D50000BAA63A12846FBF7E3FB09A8811E08AA5A
:104D6000831FCDE90132CDE9031007A8831E06AAEF
:104D70005DA100900BA8FBF7D3FB072801D015B06D
:104D8000F0BDBDF924400220FEF7F4FDA04206D09C
:104D90000120FEF785FB21460220FEF75FFF9DF80C
:104DA0002E0001F02DFA07469DF82D0001F028FA9B
:104DB00047EA0010C6B23046FCF778FA8DF8530087
:104DC0009DF8310001F01CFA07469DF8300001F013
:104DD00017FA47EA0010C6B23046FCF767FA8DF8BA
:104DE00051009DF8340001F00BFA07469DF833009E
:104DF00001F006FA47EA0010C6B23046FCF756FA50
:104E00008DF852009DF8370001F0FAF907469DF839
:104E1000360001F0F5F947EA0010C6B23046FCF75B
:104E200045FA8DF84C009DF83A0001F0E9F9074683
:104E30009DF8390001F0E4F947EA0010C6B23046A7
:104E4000FCF734FA8DF84D009DF83D0001F0D8F9DB
:104E500007469DF83C0001F0D3F947EA0010C6B2BE
:104E60003046FCF723FA8DF84E000120FEF782FD54
:104E700000EBC00101EB00109DF8531001EB800620
:104E80009DF852209DF851103046FCF72AFA8DF813
:104E900050009DF85300102800DA70E79DF850008C
:104EA00000B96CE7002340F2E24219461648006858
:104EB00003F038FB012811D113A90020FEF7CEFD25
:104EC00014A90020FEF766FD012003F02BF9002352
:104ED0001A4619460C48006803F004FC00BF4EE770
:104EE000252A732573000000222568642F25686435
:104EF0002F2568642C2568643A2568643A2568641F
:104F00002B256864220000002401002000BFFEE77A
:104F10000820704703B401984100009850EAC1206E
:104F200018BF04204A0D18BF40F0010040F2FF7284
:104F3000B2EB515F08BF40F00200012808BF052016
:104F400002B070470000000010B5B94A2DED020B09
:104F50002DED0C8B82B00F9921F000409FEDB6CB68
:104F600090422CDBA0F140530E9AA3F17F631A43C9
:104F70000FD0B349884202DC16D10E98A0B19DED46
:104F80000E0B02B0BDEC0C8B02B0BDE8104000F07F
:104F9000E7BF0029C1BF9FEDAC0B02B0BDEC0C8B8D
:104FA00002B0C8BF10BD16E00120FBF774FD02B0CF
:104FB000BDEC0C8B02B0BDE8104000F0DDBFA44A90
:104FC0009FEDA59B9FEDA6AB90425EDAA6499FEDB3
:104FD000A8CB814208DBB0EE4C0AF0EE6C0A02B0BE
:104FE000BDEC0C8B02B010BD9DED0E0B53EC102BE5
:104FF00051EC100B04F0B2F941EC180B9E4806215D
:10500000B0EE480AF0EE680A784400F095FE53ECE2
:10501000182B51EC100B04F0A1F941EC1B0B974835
:10502000B0EE480AF0EE680A0421784400F084FEED
:1050300053EC182B51EC100B04F090F953EC192B96
:1050400003F0BCFE41EC100B51EC1B0B53EC102B8E
:1050500003F068FF41EC100B53EC102B9DED0E0B91
:1050600051EC100B04F07AF953EC1A2B04F0AAFA65
:105070009DED0E1B53EC112B04F0A4FA53EC1C2BEA
:1050800004F0A0FA41EC100BA9E79FED7D8B9FED9A
:105090007EBB9DED0E0B002953EC192B51EC100B30
:1050A00052DA03F08BFE53EC182B04F057F941EC65
:1050B000180B77480621B0EE480AF0EE680A7844EB
:1050C00000F03AFE53EC182B51EC100B04F046F9AB
:1050D00041EC1D0B6F48B0EE480AF0EE680A04215F
:1050E000784400F029FE53EC182B51EC100B04F01F
:1050F00035F953EC192B03F061FE41EC190B51EC1F
:10510000180B02F0CDFD41EC180B53EC192B51ECB0
:105110001D0B03F007FF53EC182B04F01FF953ECA1
:105120001A2B04F027FB41EC100B51EC180B53EC3D
:10513000102B03F043FE53EC1B2B04F00FF953EC40
:105140001C2B04F03FFA6DE004F03CFA53EC182BF2
:1051500004F004F941EC180B02F0A2FD41EC1A0B2B
:1051600000208DED00AB00909DED000B51EC1A0B73
:1051700053EC102B03F022FE9DED000B41EC1C0BB9
:1051800053EC102B51EC100B04F0E8F853EC182BF7
:1051900004F018FA53EC1C2B03F0C4FE41EC1C0B7A
:1051A0003D48B0EE480AF0EE680A0621784400F067
:1051B000C3FD53EC182B51EC100B04F0CFF841EC6D
:1051C0001D0B3648B0EE480AF0EE680A0421784418
:1051D00000F0B2FD53EC182B51EC100B04F0BEF8AC
:1051E00053EC192B03F0EAFD41EC100B51EC1D0BB5
:1051F00053EC102B03F096FE53EC1A2B04F0AEF890
:1052000053EC1C2B03F0DAFD41EC100B53EC102B8C
:105210009DED000B51EC100B03F0D0FD53EC1B2B5C
:1052200004F09CF841EC100BD9E6000000000000EF
:105230000000F03F00000000182D4454FB210940FD
:105240000000F07F000000000000000000000000EF
:105250000000E03F00000000000000000000F03F00
:10526000075C143326A6913C0000603C000000005F
:10527000182D4454FB21F93F9C490000AA49000025
:10528000000000000000E03F0000000000000040BF
:10529000E6480000F4480000F84700000648000017
:1052A00070B5C1482DED020B2DED0E8B82B0119D16
:1052B00025F000449FEDBEDB9FEDBFEB84423EDB5B
:1052C000A4F140511098A1F17F6108430FD0BC4870
:1052D000844202DC28D1109830B39DED100B02B04F
:1052E000BDEC0E8B02B0BDE8704000F039BE9DED04
:1052F000100B53EC1D2B51EC100B04F02FF89DED0F
:10530000100B41EC180B53EC1E2B51EC100B04F05E
:1053100025F853EC182B03F051FD41EC100B02B0B3
:10532000BDEC0E8B02B070BD0120FBF7B4FB02B0E8
:10533000BDEC0E8B02B0BDE8704000F01DBEA14870
:105340009FEDA18B844256DA9DED100BB4F1795F8D
:105350000ADA51EC100BFFF7DDFD042808BF00F05E
:105360001BFE9DED100BDAE753EC102B51EC100BEC
:1053700003F0F4FF41EC190B95480621B0EE490A01
:10538000F0EE690A784400F0D7FC53EC192B51EC8D
:10539000100B03F0E3FF41EC1A0B8E48B0EE490A04
:1053A000F0EE690A0421784400F0C6FC53EC192B96
:1053B00051EC100B03F0D2FF53EC182B03F0FEFC62
:1053C00041EC100B51EC1A0B53EC102B03F0AAFD1F
:1053D000CDE900019DED000B53EC102B9DED100B62
:1053E00051EC100B03F0BAFF9DED101B53EC112B89
:1053F00003F0E4FCD2E09DED100B51EC100B01F03A
:10540000D9F853EC182B04F0DDF89FED730BCDE9C0
:10541000000153EC102B9DED000B51EC100B03F031
:105420009DFF41EC190B6E480621B0EE490AF0EEE3
:10543000690A784400F080FC53EC192B51EC100BF6
:1054400003F08CFF41EC1B0B6648B0EE490AF0EE0E
:10545000690A0421784400F06FFC53EC192B51ECDD
:10546000100B03F07BFF53EC182B03F0A7FC41EC6F
:105470001C0B51EC190B02F013FC41EC180B5A48B1
:105480009FED5BABA04222DC53EC1C2B51EC1B0BC1
:1054900003F048FDCDE900019DED000B51EC180B28
:1054A00053EC102B03F05AFF53EC182B03F086FC3F
:1054B00053EC1A2B03F052FF53EC1D2B04F05AF956
:1054C00053EC1E2B04F07EF841EC100B5FE08DEDE9
:1054D000008B002000909DED000B51EC180B53EC5D
:1054E000102B03F06BFC9DED000B41EC1E0B53ECFD
:1054F000102B51EC100B03F031FF53EC192B04F07F
:1055000061F853EC1E2B03F00DFD41EC190B53EC2D
:105510001C2B51EC1B0B03F005FD41EC1B0B53EC5A
:105520001A2B51EC190B03F019FF53EC1D2B04F04F
:1055300049F841EC190B53EC1A2B51EC180B03F002
:105540000DFF53EC1B2B03F009FF53EC192B04F058
:1055500011F99DED000B41EC180B53EC1A2B51EC9B
:10556000100B03F0FBFE9FED249B53EC192B04F072
:1055700029F841EC100B51EC180B53EC102B04F0F4
:10558000F9F853EC192B04F01DF841EC100B002D29
:105590003FF7C5AE51EC100B03F004FC41EC100BCF
:1055A000BDE60000000000000000F03F0000000029
:1055B000075C143326A6913C182D4454FB21F93F77
:1055C0000000F07F0000E03F000000000000F03F1E
:1055D000704600007E460000000000000000E03F32
:1055E000C2450000D04500003333EF3F000000000B
:1055F0000000000000000040182D4454FB21E93F4A
:1056000010B52F499FED2C1B2DED020B84B0059892
:1056100020F000408842D8BF9DED040B2DDD2949C4
:10562000884209D1049840B94FF00100FBF733FAE2
:1056300000F0A2FC06B010BD05DB9DED040B00F0F0
:105640008FFC06B010BD68469DED040B00F0A0F87D
:1056500010F0030004BF9DED021B9DED000B0CD06C
:1056600001280ED09DED021B9DED000B022817D0E6
:10567000012000F0DDFB06B010BD00F0A5FA06B079
:1056800010BD9DED021B9DED000B012000F0D0FB35
:1056900051EC100B03F086FB06B041EC100B10BD73
:1056A00000F092FA51EC100B03F07CFB06B041ECD9
:1056B000100B10BD00000000000000000000000002
:1056C000FB21E93F0000F07F10B52F499FED2C1B17
:1056D0002DED020B84B0059820F000408842DCBF1D
:1056E00000209DED040B32DD2849884209D1049841
:1056F00040B94FF00100FBF7CEF900F03DFC06B0D9
:1057000010BD05DB9DED040B00F02AFC06B010BDBA
:1057100068469DED040B00F03BF810F0030011D03B
:10572000012818D09DED021B9DED000B02281AD018
:1057300000F04AFA51EC100B03F034FB06B041ECD8
:10574000100B10BD9DED021B9DED000B012000F024
:105750006FFB06B010BD9DED021B9DED000B00F030
:1057600033FA06B010BD012000F062FB51EC100BC3
:1057700003F018FB06B041EC100B10BD0000000058
:105780000000000000000000FB21E93F0000F07F66
:105790002DE9F14F04462DED020B2DED088B8AB05B
:1057A0009FEDE70B80ED020B139EE74826F00045C6
:1057B00085420ADC9DED120B002084ED000B0AB03F
:1057C000BDEC088B03B0BDE8F08FE0489FEDE0AB87
:1057D0009FEDE1BBA84247DDE14F9FEDE39B9FEDCD
:1057E000E48B9DED120B53EC1A2B51EC100B002E99
:1057F0001CDD03F0BFFF41EC100BBD4208D053ECA1
:105800001B2B51EC100B03F0B5FFC4E900010BE0BA
:1058100053EC192B51EC100B03F0ACFF53EC182B8D
:1058200003F0A8FFC4E900010120C8E703F0C6FAAD
:1058300041EC100BBD4208D053EC1B2B51EC100B6C
:1058400003F0BCFAC4E900010BE053EC192B51EC56
:10585000100B03F0B3FA53EC182B03F0AFFAC4E9C2
:1058600000014FF0FF30AAE7C348A84279DB9DED65
:10587000120B51EC100B00F09DFE41EC180B9FED4C
:10588000C00B53EC102B03F069FD9FEDBF1B53ECD5
:10589000112B03F093FA03F09DFC074603F0F7FC8D
:1058A00041EC190B53EC1A2B03F058FD53EC182B59
:1058B00003F088FE41EC180B53EC1B2B51EC190B39
:1058C00003F04CFDDFF8C8A241EC100B4FEA15586D
:1058D0000125FA4453EC102B51EC180B03F04AFF4E
:1058E000032DC4E900013DD0C1F30A5005EB451179
:1058F000A8EB00001139814234DA0AEB051BB0EE47
:1059000048AA9BED000BF0EE68AA53EC102B51EC6B
:10591000190B03F023FD41EC1B0B51EC1A0B53EC5C
:105920001B2B03F027FF41EC180B51EC1A0B53EC27
:10593000182B03F01FFF53EC1B2B03F01BFF9BEDF9
:10594000020B41EC1A0B53EC102B51EC190B03F02A
:1059500005FD53EC1A2B03F00DFF41EC100B6D1CF1
:10596000B8E70EE0002EA8BF3846BFF628AF94ED8A
:10597000000B51EC100B03F015FAC4E9000178425A
:105980001DE7C6F3130040F4801EC6F30A50A0F2D0
:10599000F530471100F01F05C5F12000DDF848B0D3
:1059A00008900020069007900520EC467949002DCC
:1059B00007EB0002794408BF51F8221009D051F8D2
:1059C000223001EB8201AB404A68089922FA01F1CA
:1059D0001943A1FB0E26A1FB0B131A449A4234BFB4
:1059E0000123002303EB06080CEB8003D3E901A697
:1059F0000E448E4234BF0121002192448A4411B1E9
:105A0000924502D903E0924501D2012100E0002134
:105A1000C3E901A641444CF82010011EA0F1010089
:105A2000C4DC029800F10050850F0298DDE903679D
:105A30008000DDF8148003F02AFC41EC1A0B30469C
:105A400003F03CFC9FED541B53EC112B03F086FC40
:105A500041EC1B0B384603F031FC9FED511B53EC1E
:105A6000112B03F07BFC41EC180B404603F026FCA5
:105A70009FED4D1B53EC112B03F070FC41EC190B07
:105A800051EC180B53EC192B03F098F953EC1B2B2A
:105A900003F094F953EC1A2B03F090F9CDE90801C7
:105AA000002008909DED080B53EC1A2B51EC100BC5
:105AB00003F060FE53EC1B2B03F05CFE53EC182B41
:105AC00003F058FE53EC192B03F07CFD9FED381BBF
:105AD00053EC112B03F042FC9FED370B41EC180BFC
