:020000040800F2
:10000000209D012059030008BF600008B555000875
:10001000A360000887250008218400080000000074
:10002000000000000000000000000000A102000825
:10003000E12A000800000000F502000851CE000887
:1000400073030008730300087303000873030008B8
:1000500073030008730300087303000873030008A8
:100060007303000873030008730300087303000898
:100070007303000873030008A1270008F92700088C
:100080007303000873030008730300087303000878
:100090007303000873030008730300087303000868
:1000A0007303000873030008730300087303000858
:1000B0007303000873030008730300087303000848
:1000C0007303000873030008730300087303000838
:1000D00073030008117B000873030008A57B000868
:1000E0007303000873030008730300087303000818
:1000F0007303000873030008730300087303000808
:1001000073030008730300087303000873030008F7
:100110007D7A000873030008730300087303000866
:1001200073030008730300087303000873030008D7
:1001300073030008730300087303000873030008C7
:1001400073030008730300087303000873030008B7
:10015000730300087303000821280008E97C0008E5
:100160007303000873030008730300087303000897
:100170007303000873030008730300087303000887
:10018000730300087303000800F002F800F078F829
:100190000AA090E8000C82448344AAF10107DA45E2
:1001A00001D100F06DF8AFF2090EBAE80F0013F0BC
:1001B000010F18BFFB1A43F00103184720E70000A6
:1001C00040E700000A444FF0000C10F8013B13F028
:1001D000070408BF10F8014B1D1108BF10F8015BA0
:1001E000641E05D010F8016B641E01F8016BF9D193
:1001F00013F0080F1EBF10F8014BAD1C0C1B09D1EA
:100200006D1E58BF01F801CBFAD505E014F8016B5B
:1002100001F8016B6D1EF9D59142D6D370470000ED
:100220000023002400250026103A28BF78C1FBD8FF
:10023000520728BF30C148BF0B60704766290EF0D7
:10024000A780642900F01A81782900F0538173296E
:1002500001F01580002070471FB50EF094F801F0F2
:10026000BDF80400002000210DF01EFA401C606063
:10027000002000210DF02EFAE0601FBD10B510BD6A
:1002800001F06AFB1146FFF7E7FF0AF02DFA01F0D3
:1002900088FB03B4FFF7F2FF03BC09F028FD000060
:1002A0002A4B19680868B0E8F04F80F30988BFF35B
:1002B0006F8F4FF0000080F311887047000000003E
:1002C00006480068006880F3088862B661B6BFF32C
:1002D0004F8FBFF36F8F00DF00BF00BF08ED00E05E
:1002E000DFF80C00016841F470010160704700BF45
:1002F00088ED00E0EFF30980BFF36F8F134B1A68AE
:100300001EF0100F08BF20ED108A20E9F04F10609A
:1003100008B44FF0BF0080F31188BFF34F8FBFF3D5
:100320006F8F0CF057FC4FF0000080F3118808BC71
:1003300019680868B0E8F04F1EF0100F08BFB0EC65
:10034000108A80F30988BFF36F8F70473401002053
:10035000EFF30580704700000948804709480047CF
:10036000FEE7FEE7FEE7FEE7FEE7FEE7FEE7FEE765
:10037000FEE7FEE704480549054A064B70470000C2
:10038000C97800088901000820970120209D0120DC
:100390002099012020990120704700000FB40449E2
:1003A00010B503AA029800F06FFF10BC5DF814FBB3
:1003B000780100200FB41CB5074B06AA7B446946A0
:1003C0000090059800F031FF0020694600F040FFE2
:1003D0001CBC5DF814FB0000910E000070B50446D3
:1003E00085690068C10601D5302600E02026C007D7
:1003F00007D070BDD4E9012130469047206A401CE7
:1004000020626D1EF6D570BD70B504468569007812
:10041000C00707D170BDD4E9012120209047206A90
:10042000401C20626D1EF6D570BD70B50C460546A9
:10043000012A05D02878800600D5EA69002302E069
:10044000012305E05B1C934202D2E05C0028F9D155
:10045000A869E618C01AA861286A184428622846C4
:10046000FFF7BCFF04E0D5E9012114F8010B904728
:10047000B442F8D32846FFF7C7FF70BD2DE9F0411D
:100480000646002410687529314616A510D0AFF332
:100490000080002802DA404213A507E031688A078D
:1004A00001D512A502E0490704D511A5012401E0F8
:1004B000AFF3008000210A2206F1240709E0B0FB17
:1004C000F2FCB0FBF2F302FB1C003030785418460B
:1004D000491C0028F3D123462A463046BDE8F041A6
:1004E00000F037BC000000002D0000002B000000D1
:1004F0002000000070B504460D4621461068AFF399
:1005000000802188090502D50F4A7A4402E00E4A8C
:100510007A440E32002104F1240305E000F00F06B6
:100520000009965D5E54491C0028F7D1207800230D
:10053000000704D5702D02D009B1022311322046E4
:10054000BDE8704000F005BCE8DF00002DE9F05F79
:10055000894604464FF0000ADFF824B1FB44C0F896
:1005600020A02046E168884700287DD0252806D0B5
:10057000D4E901219047206A401C2062F1E7002560
:100580005F462046E16888472028064607DB312E73
:1005900005D2B81910F8200C08B10543F1E7A807F7
:1005A00001D525F00405C4F81CA00027C4F818A044
:1005B0002A2E09D0304609F093FB38B304EB8708A4
:1005C000303EC8F8186019E059F8041B204604EBC7
:1005D00087029161E1688847012F064618D1E069DA
:1005E000002820DA25F020051DE0D8F8180000EBDF
:1005F000800006EB40003038C8F818002046E1685B
:100600008847064609F06CFB0028EED1012F0AD07E
:100610002E2E08D12046E16888477F1C0646022F0F
:1006200045F02005C4DBA069002803DA404245F00C
:100630000105A061E80701D025F01005A6B1A6F1DB
:100640004100192802D8203645F400654A46314653
:10065000204625604D46FFF7F1FD60B1012807D027
:10066000ED1D25F0070000E007E000F1080978E73C
:1006700005F1040975E730467AE7206ABDE8F09F86
:10068000BEDF00000FB400B58DB010A90990009135
:100690000B904FF0FF300A9000200C9006487844F1
:1006A0000690064878446A4607900F9909A800F01A
:1006B00011FE0DB05DF814FB530C00006B0C000034
:1006C0002DE9FF5F1D464FF0FF3B91464FF00008BC
:1006D0005F46D5E90146A96901987F1C8847296AC8
:1006E000824688470028F6D1BAF1FF3F0CD0002E91
:1006F00024F4C06419DD600614D5BAF12B0F09D0BB
:10070000BAF12D0F0ED103E0584604B0BDE8F09FBA
:1007100044F48064A96901987F1C8847761E82464C
:10072000002E02DDBAF1300F03D0B9F1000F26D050
:1007300032E0A969761E01987F1C44F40074884752
:10074000002E824605DDBAF1780F06D0BAF1580FB7
:1007500003D0B9F1000F10D01EE0B9F1000F02D0A4
:10076000B9F1100F18D1A969761E01987F1C24F4E5
:10077000007488478246102002E0082000E00A202A
:10078000814609E0A96908FB0908761E01987F1CCB
:1007900044F4007488478246002E05DD49465046E1
:1007A00000F084FD0028EDDAE96901988847A0058A
:1007B00002D46FF00100A8E7E00725D1600613D549
:1007C000600502D5C8F1000000E0404629680A1D16
:1007D0002A600968220501D5087015E0220701D5B5
:1007E000088011E008600FE02868011D296000689A
:1007F000210502D580F8008006E0210702D5A0F887
:10080000008001E0C0F8008038467EE72DE9FF5FF8
:100810004FF000089946144646469169D2E901A76F
:10082000DDF838B001988847054659EA0B0005D035
:1008300009E0A1690198761C88470546216A284687
:1008400088470028F5D1681C03D05FEACA7005D03C
:1008500015E04FF0FF3004B0BDE8F09F2068011DA7
:100860002160D0F800800AE05FEACA7001D108F880
:10087000015BA169761C01987F1E88470546002F01
:100880001ADD681C18D0B9F1000F0DD0E81705EB80
:10089000D060421120F01F0059F822102A1A0120BE
:1008A00090400142E0D107E0BBF1000FDCD12846C7
:1008B000216A88470028D7D0E16901988847BBF1B1
:1008C000000F07D1002E05DD5FEACA7002D10021BA
:1008D00088F80010A068B84203DDBBF1000F03D018
:1008E00017B16FF00100B6E73046B4E770B50646C1
:1008F00000F020FA0468054630460A22002100F084
:1009000002F82C6070BD2DE9F04791460F468046F5
:100910000446002614F8015B2DB100F003FA0068CC
:10092000405DC007F6D12B2D02D02D2D18D0641EAE
:100930004A463946204600F0FDFC27B13968A142FD
:1009400001D1C7F800804FF0020471050BD5404279
:10095000002803DD00F0EEF90460A007BDE8F08791
:1009600046F48066E4E70028F8DA00F0E3F9046072
:100970006FF00040F2E730B505460B462A4613F803
:10098000014B12F8010B08B1A042F8D01CB10028AD
:1009900002D06D1CF1E7284630BD40EA0103024653
:1009A00030B59B0710D14FF0013400E008C208C9F0
:1009B0001D1B9D4315EAC41FF8D013F0FF0102F878
:1009C000011B0DD01B0AF8E711F8013B002B02F8C0
:1009D000013B05D011F8013B002B02F8013BF3D19C
:1009E00030BD10B5431C02E010F8011B71B1810746
:1009F000FAD14FF0013202C88C1A8C4314EAC211AA
:100A0000F9D0C01A0A0603D0C01E10BDC01A10BD0E
:100A10000A0401D0801E10BD0902FCD0401E10BD8A
:100A200040EA010370B59B072ED14FF00136042A2E
:100A30002AD308C810C99D1B9D43121F15EAC6156D
:100A400017D0D8B2E1B2401A50EA056110D198B27D
:100A5000A1B2401A50EA05410AD123F07F4024F0A8
:100A60007F41401A50EA052102D1180EA0EB146014
:100A700070BDA342DBD018BA21BA884201D9012047
:100A800070BD4FF0FF3070BD0AB9002070BD10F886
:100A9000013B11F8014B63B1A3420AD1521E08D0A9
:100AA00010F8013B11F8014B1BB1A34201D1521EBA
:100AB000EDD1181B70BD032A40F2308010F0030CFA
:100AC00000F0158011F8013BBCF1020F624498BFA1
:100AD00011F801CB00F8013B38BF11F8013BA2F13E
:100AE000040298BF00F801CB38BF00F8013B11F0B9
:100AF000030300F02580083AC0F0088051F8043B59
:100B0000083A51F804CBA0E80810F5E7121D5CBFC5
:100B100051F8043B40F8043BAFF30080D20724BFF8
:100B200011F8013B11F801CB48BF11F8012B24BF8C
:100B300000F8013B00F801CB48BF00F8012B7047DB
:100B400010B5203AC0F00B80B1E81850203AA0E868
:100B50001850B1E81850A0E81850BFF4F5AF5FEA9C
:100B6000027C24BFB1E81850A0E8185044BF18C94F
:100B700018C0BDE810405FEA827C24BF51F8043BF6
:100B800040F8043B08BF7047D20728BF31F8023B4A
:100B900048BF11F8012B28BF20F8023B48BF00F8DE
:100BA000012B704702F0FF0343EA032242EA0242AC
:100BB00000F002B84FF000020429C0F0128010F0DB
:100BC000030C00F01B80CCF1040CBCF1020F18BF29
:100BD00000F8012BA8BF20F8022BA1EB0C0100F0BC
:100BE0000DB85FEAC17C24BF00F8012B00F8012B8F
:100BF00048BF00F8012B70474FF0000200B51346C4
:100C000094469646203922BFA0E80C50A0E80C502C
:100C1000B1F12001BFF4F7AF090728BFA0E80C50DD
:100C200048BF0CC05DF804EB890028BF40F8042BD6
:100C300008BF704748BF20F8022B11F0804F18BF43
:100C400000F8012B704710B5044610F0030F08BFE1
:100C500011F0030F40F015804FF0013E121FC0F25B
:100C60000E8051F8043BA3EB0E0C2CEA030C1CEA9B
:100C7000CE1C08BF40F8043BF0D0A1F1040102F102
:100C80000402521E08DB11F8013B002B00F8013B67
:100C9000F7D11146FFF78EFF204610BD4FF0013C03
:100CA00050F8042B51F8043B9A4221D1A2EB0C03DB
:100CB000934313EACC1317D150F8042B51F8043B9B
:100CC0009A4215D1A2EB0C03934313EACC130BD138
:100CD00050F8042B51F8043B9A4209D1A2EB0C03C3
:100CE000934313EACC13DBD04FF00000704700BFF2
:100CF000D01A01BAB1FA81F101F0180122FA01F01B
:100D0000CB40C1F12001DBB2C0B2C01A2CFA01F312
:100D1000D11A914311EAC311E6D170477047704769
:100D20007047704710B500F059FB001D10BD00BFA3
:100D300079C9000000487047C096012010B5FFF740
:100D4000F9FF006810BD10B50446FFF7F3FF04601B
:100D500010BD2DE9F0470D4699469246044600F134
:100D600024080168880604D5E06921F0100121609B
:100D700000E00120A84201DD471B00E00027A16937
:100D80007A1902EB0900081AA0612078C00602D483
:100D90002046FFF723FB002608E0D4E901211AF8DA
:100DA00006009047206A401C761C20624E45F4DB0A
:100DB0002078C0060AD52046FFF710FB06E0D4E9EC
:100DC000012130209047206A401C2062381EA7F184
:100DD0000107F4DC07E0D4E9012118F80500904789
:100DE000206A401C2062281EA5F10105F3DC204684
:100DF000FFF70AFB2078000602D50220BDE8F08745
:100E00000120FBE770472DE9FF4F0C461E464FF0CF
:100E1000FF378BB0D2E90001DDF860800A908A4686
:100E2000C1F30A5505B93D46002108464FF00000C0
:100E3000BAF1000F00F4400005DA00EB80004FF437
:100E4000400101EA50004FEA9059B9F1010F00DD6D
:100E5000B9460A9850EA4A000ED044F61050A5F25E
:100E6000FF3545432F14B8F1000F1ED07542291EDF
:100E70001EDDC9F100021CE0B8F1010F4FF00000C7
:100E800001D0302103E0F24305E02154401CB04280
:100E9000FBDB30460022002121540B99C1F8088069
:100EA000C1E900200FB0BDE8F08FBD1B6D1CDEE76F
:100EB0004A4600DA694206A800F0DCFC06AB93E87B
:100EC000070003AB83E8070050460A9900F06FFD66
:100ED0008DE80700A0F500501F3800900398002D02
:100EE00009DD42F21F014A46084403A903906846FF
:100EF00000F0CEFF08E0A0F500504A461F3803A9D5
:100F00000390684600F0D8FF8DE807000004000C4D
:100F100003D04FF0FF30410800E01046B8F1000F59
:100F200003D00022009215461EE0751E05D400F085
:100F300059FA303262556D1EF9D5B3460122084385
:100F400002D000227F1C04E02078302801D100224A
:100F50007F1E002A099786D01DE0112D07DA00F0C8
:100F600041FA303262556D1C50EA0102F5D1084356
:100F700002D00098C8B10EE00021681E05E0235C95
:100F8000625C63542254401E491C8142F7DBAB462D
:100F9000A81B401E0990002004F80B000B98099A2A
:100FA000C0F80880C0E9002B7CE711264FF000084C
:100FB00059E72DE9F04F88460446D21D22F007017B
:100FC00091B0D1E90001CDE90A0107F037FE0246F0
:100FD0000B98C00F01D02D2007E02068810701D5B4
:100FE0002B2002E0202101EAC000032A099001D051
:100FF000072A05DB03464146204600F041FA0BE193
:101000002078800601D5E06900E00620B8F1650F80
:10101000814606D0B8F1660F18D0B8F1670F70D1CD
:1010200031E00020B9F1110F009001DB112301E044
:1010300009F101030AAA01A90CA8FFF7E4FEDDE902
:101040000C70002609F10105834647E001204B465C
:1010500000904FF000470AAA01A90CA8FFF7D3FEA1
:10106000DDE90DB00C995D46002610B909F10100CB
:101070000D18B9EB050003D4C0F1FF3609F10105E5
:10108000A5EB09002BE0B9F1010F01DA4FF00109DE
:101090000020B9F1110F0090484601DD112300E056
:1010A00003460AAA01A90CA8FFF7ADFEDDE90C7002
:1010B0004D4600268346207800070AD4AB4500DA67
:1010C0005D4601A8012D04DD411911F8011C3029EC
:1010D00007D04F4502DA17F1040F04DA01208246E7
:1010E0000FE06D1EEEE7002F02DCED1B3E4403E037
:1010F000781CA84200DD7D1CB81B00F1010A4FF0EE
:1011000000472078000703D4AA4501DB4FF0FF3ADF
:101110000021B7F1004F0DF143088DF8431024D0A2
:1011200002202B23002F01DA7F422D230A21021EE9
:10113000A0F1010000DC5FB197FBF1FC97FBF1F23D
:1011400001FB1C7C17460CF1300C08F801CDEEE7D2
:10115000A8F1010003702188090501D5452100E0AF
:101160006521A0F1010800F8011C09980FA9A1EB65
:101170000807FF1D00B10120411901EBEA70A169C8
:101180003844081A401EA0612078C00602D42046C8
:10119000FFF724F9099828B1D4E901219047206A82
:1011A000401C20622078C00622D52046FFF716F9A1
:1011B0001EE0002E04DBB34502DD01A8805D00E0E7
:1011C0003020D4E901219047206A401C2062761C1F
:1011D000AAF101005FEA000A0AD100F0FFF8C06836
:1011E0000168405CD4E901219047206A401C2062DC
:1011F000281EA5F10105DCDC07E0D4E9012118F87F
:10120000010B9047206A401C2062381EA7F101079D
:10121000F3DC2046FFF7F8F8032011B043E60000A6
:1012200001694A1C02610878704700B58FB0CDE9AA
:1012300001310021059105497944CDE9031011469A
:101240006846FFF783F90FB000BD0000E5FFFFFF20
:101250000A6802F8010B0A60704710B5436913B1C0
:10126000AFF3008001E0FFF7E0F8012010BD127835
:1012700000F124010A7000224A700122EDE7116892
:101280004FF0FF32E9E70000074B70B50D467B4495
:10129000FFF7CBFF0446284600F05AFB10B14FF091
:1012A000FF3070BD204670BDC79100003A2800D2C3
:1012B000303820F02002412A01D3A2F137008842C1
:1012C00001D34FF0FF30704702681144137801607A
:1012D00018467047D1600549794451610449794401
:1012E000116200211161114600F00AB9EDFFFFFF04
:1012F0008D010000426842B1016811F8013B23B141
:10130000521EC0E90012184670470121C160881EB4
:10131000704742685AB1C368016843B983688B4219
:1013200005D0491E521CC0E90012002070474FF042
:10133000FF3070472DE9F05F824615468B46002747
:101340000AF10104B9460078302801D09DB113E0BC
:1013500014F8010B0127782803D0582801D045B193
:101360000AE00DB1102D07D1002714F8010B10254C
:1013700002E0082500E00A250026B0460EE005FB45
:10138000080005FB06F101271FFA80F801EB104663
:10139000B6F5803F00D3B94614F8010B2946FFF794
:1013A00085FF0028EBDABBF1000F05D00FB1641EFA
:1013B00000E05446CBF80040B9F1000F06D0FFF72B
:1013C000B9FC02210160C81EBDE8F09F48EA064052
:1013D000FAE7000000487047C096012000487047B7
:1013E000E096012030B5B0F10A024FEA900E71F19B
:1013F00000034EEA817EB0EB0E0061EB91014FEAF3
:10140000101E4EEA017E10EB0E0041EB11114FEA67
:10141000102E4EEA016E10EB0E0041EB11214FEA47
:10142000104E4EEA014E10EB0E0041EB11414018F8
:1014300041F100014FEAD00040EA41704FEAD1018A
:1014400010EB80054FEA810444EA907444EB0104F8
:101450006D1944EB0404521BA3414FF0000348BF35
:101460000A3200D530BD401C41F1000130BD10B53D
:101470000446FFF757FC0068005D00F0010010BD56
:101480002DE9F0411F46044603260168072A01F4AE
:10149000006004DB08B116A505E016A503E008B15D
:1014A00015A500E015A521F010002060A069C01E60
:1014B000A0610FB1401EA0612046FEF78FFF4FB123
:1014C000D4E9012138469047206A401C2062C01CA4
:1014D000206206E0206AFAE7D4E9012115F8010B41
:1014E0009047761EF8D22046FEF78EFFBDE8F081C9
:1014F0004E414E006E616E00494E4600696E6600B8
:101500002DE9F34F4FF0000A0C4656468DB00120EE
:101510000C9001F10C000B9062690B98012190472F
:1015200005002DD0252D2CD0216A8847C0B16269D5
:101530000B9801219047216A88470028F7D16269FA
:10154000411E0B98904700E0761CA1690D988847D2
:10155000216A88470028F7D1E1690D988847DBE7C1
:10156000A1690D988847A842074601D1761CD3E7A8
:10157000E1690D9888477F1C02D1BAF1000F6FD046
:101580006BE162690B9800273D46394690472A284F
:1015900004D162690B98012190470125DFF8D082C0
:1015A00062690B9801219047A0F130010A290AD203
:1015B0004745E5DC07EB870100EB4107303FDFD40F
:1015C00045F01005ECE7E90601D46FF000476C2800
:1015D0000AD04C2814D0682815D06A280DD0742859
:1015E0001CD07A281AD01DE062690B98012190471F
:1015F0006C2802D045F0040514E045F002050DE02A
:1016000045F020050AE062690B980121904768289F
:1016100002D045F0080505E045F4006562690B98C5
:1016200001219047C4E9015765283DD019DC5828AD
:101630007AD00CDC452837D004DC252826D0412878
:101640009ED131E046282FD0472899D12CE05B2845
:1016500077D0612828D063287CD0642823D15AE031
:10166000F6E06F2848D008DC66281DD067281BD01C
:10167000692821D06E2816D127E0702845D073281C
:1016800068D0752847D078280DD14DE0A1690D9814
:101690008847252805463FF469AFE1690D988847DA
:1016A0006D1C3FF46AAFD8E00D9923466A466FF08F
:1016B0000100AFF30080C5E045F0400023464FF045
:1016C00000026060A80736D43EE0E8077FF447AF29
:1016D0002068011D21600068290501D506701BE7FF
:1016E000290701D5068017E7A90703D5F117C0E937
:1016F000006111E706600FE745F0400023464FF018
:1017000008026060A80716D41EE040F60E0125EA24
:101710000100606016E045F0400023464FF00A02E9
:101720006060A80707D40FE045F040006060A8079C
:1017300008D5234610220D996FF00100AFF3008009
:1017400080E007E0102223460D996FF00100FEF7BC
:10175000B7FF77E04FF0000963284F46C8464B4675
:10176000CB4602D05B2806D038E0E80601D4012041
:10177000A060012732E06269D4F80CB00B98012117
:1017800090475E2807D14FF0010949466269D4F8B5
:101790000CB00B989047216939B900210A4603AB78
:1017A00043F82120491C0829FADBD8B3216949B341
:1017B00008F1010862690B98012190475D28F4D176
:1017C000B9F1000F09D0002003A951F82020D2431D
:1017D00041F82020401C0828F7DB03AB20690028D3
:1017E00020794FEA40701ED05B462246CDF800803B
:1017F000CDE901970D9900286FF0010020DAAFF3D1
:1018000000801FE0C11703AA00EBD1614B1121F04A
:101810001F0102EB8302411A136801208840034331
:101820001360C7E719E00D99224600286FF0010008
:10183000009702DAAFF3008004E0FEF7E7FF01E073
:10184000AFF3008000280ADA401C06D10C9820B1C2
:101850004FF0FF300FB0BDE8F08F5046FAE7E907D0
:1018600001D10AF1010A064400200C9054E6000060
:10187000CCCCCC0C2DE9F047814616468AB03348D3
:1018800078440DC88DE80D0030487844801C03ACC6
:101890000DC884E80D0041F69B300844372190FBC9
:1018A000F1F290FBF1F5A5F1800501FB12041B3C60
:1018B00002D56442012000E00020DFF890A08046BD
:1018C0000027FA44AAF1BE0A0DE0E00709D032462B
:1018D000684607EB47010AEB810100F0EDFA8DE85D
:1018E000070064107F1C002CEFD1184F7F44AC3FE1
:1018F00018E0E80714D007EB04100DF1180A90E87F
:101900000E008AE80E00C068F04201D198190890D4
:10191000324606A903A800F0CFFA03AB83E807001C
:101920006D10641C002DE4D132466946B8F1000FF9
:1019300003A802D000F0ACFA01E000F0BDFAC9E95A
:101940000001C9F808200AB0BDE8F087E8CE000021
:10195000007B00F0800070477546FFF73BFDAE4608
:1019600005006946534620F00700854618B020B5AB
:10197000FEF700FDBDE820404FF000064FF00007E5
:101980004FF000084FF0000B21F00701AC46ACE827
:10199000C009ACE8C009ACE8C009ACE8C0098D4694
:1019A00070470446AFF300802046FEF772FC5FEA02
:1019B000400C08BF91F0000F4FEA8C234FEAC12280
:1019C00043EA51514FEA1C5018BF00F5F0404FEA6E
:1019D000300018BF41F000415FEA6C5C00F02980E4
:1019E000BCF1FF3F08BF40F080407047130C06BFBA
:1019F00012044FF0100C4FF0000C130E04BF120233
:101A00000CF1080C130F04BF12010CF1040C930F1E
:101A100004BF92000CF1020CD30F04BF52000CF172
:101A2000010C11464FF00002A0F11F00A0EB0C00CA
:101A3000704711F0004F08BF704731F000413FF48C
:101A4000D5AF0B0C06BF09044FF0100C4FF0000C83
:101A50000B0E04BF09020CF1080C0B0F04BF0901A7
:101A60000CF1040C8B0F04BF89000CF1020CCB0F9E
:101A700004BF49000CF1010CCCF12003A0EB0C00D9
:101A800022FA03F302FA0CF241EA030100F1010029
:101A9000704720F07F4C80EA030023F07F47ACEBD7
:101AA000070303F57C5300F0004003F1FF032DE929
:101AB00080494FEA154B09B44FEA144325EA0B4E0F
:101AC00024EA03480FF2042606EB132749083E7860
:101AD0005FEA320203FB0667C7F5000707FB06F65D
:101AE0004FEA54374FEAD64606F1020607FB066C6A
:101AF000CCF1005C4FEA1C472CEA074C07FB06F4CC
:101B00000CFB06F504EB15464FEA961634BF002091
:101B10004FF000404FEAD13706FB07FC4FEA1C4C60
:101B20000CFB0BF7D21B03FB0CF761EB07010CFB63
:101B30000EF7B0EB074072EB17420CFB08F734BF0F
:101B4000A2EB0742B2EB074261EB17414FEA0C44AC
:101B50004FEA910706FB07FC4FEA1C4C0CFB0BF706
:101B6000B0EBC74072EB573203FB0CF734BFA2EB6C
:101B7000C742B2EBC74261EB57310CFB0EF7B0EB3B
:101B8000C70072EB57720CFB08F734BFA2EBC70219
:101B9000B2EBC70261EB5771039F4FEA816141EAE3
:101BA000921104EBCC044FEAD1374FEA826206FB74
:101BB00007FC42EA90124FEA80604FEA1C4C0CFB93
:101BC0000BF7D21B03FB0CF761EB07010CFB0EF7C5
:101BD000B0EB074072EB17420CFB08F734BFA2EBE7
:101BE0000742B2EB074261EB17414FEA8C554FEACF
:101BF000910704EB9C2406FB07FC4FEA1C4C0CFBF2
:101C00000BF7B0EBC74072EB573203FB0CF734BF56
:101C1000A2EBC742B2EBC74261EB57310CFB0EF7A8
:101C2000B0EBC70072EB57720CFB08F734BFA2EBA6
:101C3000C702B2EBC70261EB577115EB4C254FEAB7
:101C4000816141EA92114FEA82624FEAD13742EA5A
:101C5000901206FB07FC44F100044FEA80604FEA53
:101C60001C4C0CFB0BF7D21B03FB0CF761EB0701C1
:101C70000CFB0EF7B0EB074072EB17420CFB08F7BA
:101C800034BFA2EB0742B2EB074261EB174115EB01
:101C90001C154FEA813141EA92414FEA823242EA11
:101CA00090424FEA80304FEA0C7644F1000448EA53
:101CB00003434EEA0B484FF0000EB2EB080C71EBF9
:101CC000030724BF624639464EEB0E0E4FF0000B61
:101CD0000018524149414BEB0B0BB2EB080C71EB76
:101CE00003077BF1000B24BF624639464EEB0E0E14
:101CF0004FF0000B0018524149414BEB0B0BB2EB7C
:101D0000080C71EB03077BF1000B24BF62463946D8
:101D10004EEB0E0E51EA020718BF46F0010616EB15
:101D20000E7655F1000254F1000103D5BDE889019A
:101D3000BDE80088BDE88901BDE80048B6195241F8
:101D400041EB0101A3F10103704780807F7E7D7C20
:101D50007B7A7978777676757473727171706F6E3D
:101D60006E6D6C6C6B6A6A696868676666656464E8
:101D7000636362616160605F5F5E5E5D5D5C5C5B72
:101D80005B5A5A59595858575756565555555454E1
:101D9000535352525251515050504F4F4F4E4E4D3F
:101DA0004D4D4C4C4C4B4B4B4A4A4A49494948488B
:101DB00048474747474646464545454444444443CB
:101DC00043434342424242414141002B26D47700E3
:101DD00021D01CB54FEA370703B44FF010004FF085
:101DE00010014FF000000FBCBDE810400BF1010BDB
:101DF000BBF1010F08BF5FEA170722BF12F1010212
:101E000011F101014FF0004143F1000300F00040E7
:101E100043EA00007047F9D35708DAE746EA064676
:101E200013F1400F4FEA16461FDD13F1200FDFBFFD
:101E300016430A46002120335B42C8D0C3F1200775
:101E400046EA064602FA07F74FEA164646EA07064A
:101E5000C3F1200722FA03F201FA07F721FA03F18E
:101E60004FF0000342EA0702B1E746EA020646EAFB
:101E700006464FEA164646EA0106BCBF46EA064653
:101E8000360C4FF000034FF000024FF000019EE7C8
:101E90002DE9C048934630B491E8380007C831EACC
:101EA000400C48BF34EA430C03D5FFF7F2FDFFF7BF
:101EB0008CFFF0BCBDE800882DE9C048934630B4E3
:101EC00091E8380007C810F0804F08BF13F0804F2A
:101ED00003D100F005F8FFF778FFF0BCBDE80088FB
:101EE00020F07F4780EA030023F07F4C07EB0C03D0
:101EF000A3F57C5300F00040A3F1FE0392F0000F25
:101F000000F0B38095F0000F00F077802DE90149D3
:101F10004FEA11404FEA144621EA004800FB06FC54
:101F200024EA064708FB06F607FB08F800FB07F75C
:101F300018EB06484CEB164C4FEA124B18EB0748CF
:101F40004FEA15464CEB174022EA0B4E0BFB06FC02
:101F500025EA06470EFB06F607FB0EFE0BFB07F70E
:101F60001EEB064E4CEB164C4FF000061EEB074ED8
:101F70004CEB174B18EB0B0840F1000018EB0E0B65
:101F800058EB000840F100008F1A4FF000013CBFF1
:101F9000C943661B14BFB5EB040C00213CBFC94309
:101FA000F61B4FEA17444EEA8E0E27EA04454FEA25
:101FB0001C4704FB07622CEA074C05FB07F70CFBE8
:101FC00005F604FB0CFC16EB074642EB174216EB3A
:101FD0000C4642EB1C421BEB060658EB0202414149
:101FE00046EA9E0601D5BDE80189B619524141EB8A
:101FF0000101A3F10103BDE801894FEA14454FEA4D
:10200000114724EA054621EA074C05FB07F406FBC5
:1020100007F70CFB06F105FB0CFC11EB074144EB49
:1020200017444FEA124711EB0C4144EB1C4422EADF
:10203000074C05FB07F206FB07F70CFB06F605FB52
:102040000CFC16EB074642EB174216EB0C4642EB34
:102050001C456A1854F1000148BF7047B619524137
:1020600041EB0101A3F10103704795F0000F37D058
:102070004FEA11424FEA144721EA024624EA074C8C
:1020800002FB07F106FB07F70CFB06F402FB0CFC56
:1020900014EB074441EB17414FEA154714EB0C448E
:1020A00041EB1C4125EA074C02FB07F506FB07F74D
:1020B0000CFB06F602FB0CFC16EB074645EB17453E
:1020C00016EB0C4645EB1C42121951F1000148BFBA
:1020D0007047B619524141EB0101A3F1010370476A
:1020E0004FEA14454FEA114724EA054621EA074C16
:1020F00005FB07F106FB07F70CFB06F24FF00006A5
:1021000005FB0CFC12EB074241EB174112EB0C42B2
:1021100051EB1C4148BF7047921841EB0101A3F1FC
:102120000103704700B5A1B000200090019002901B
:102130003C2203A94FF4004004F03EFA3C2103A8DE
:1021400004F0A6FAC0B94FF440505D4908804880B9
:1021500088804FF48050C880088148814000888181
:10216000C881088248824FF4A0408882C8820883D0
:10217000488303200877A0E06A4604210DF10E0091
:1021800000F08CFA6846FEF7B1FB4D4908806A46BC
:1021900004210DF1160000F081FA6846FEF7A6FB57
:1021A000474948806A4604210DF11E0000F076FA86
:1021B0006846FEF79BFB424988806A4604210DF180
:1021C000260000F06BFA6846FEF790FB3C49C88099
:1021D0006A4604210DF12E0000F060FA6846FEF711
:1021E00085FB374908816A4604210DF1360000F06D
:1021F00055FA6846FEF77AFB314948816A46042160
:102200000DF13E0000F04AFA6846FEF76FFB2C49DC
:1022100088816A4604210DF1460000F03FFA6846C5
:10222000FEF764FB2649C8816A4604210DF14E0081
:1022300000F034FA6846FEF759FB214908826A46E5
:1022400004210DF1560000F029FA6846FEF74EFB16
:102250001B4948826A4604210DF15E0000F01EFA17
:102260006846FEF743FB164988826A4604210DF151
:10227000660000F013FA6846FEF738FB1049C88282
:102280006A4604210DF16E0000F008FA6846FEF778
:102290002DFB0B4908836A4604210DF1760000F0FE
:1022A000FDF96846FEF722FB05494883BDF87E101C
:1022B000C8B207F051FE0249087721B000BD000006
:1022C000C805002010B509F0E7F9FFF72BFF10BD96
:1022D00010B5002202214FF47A700AF0F7FD0F4981
:1022E0000860002202214FF47A700AF0EFFD0C49D9
:1022F00008604CF250310B48FEF75CFC41F2707103
:102300000948FEF757FC002008494880088003F080
:102310008FFC03F071FC05F09BFB10BD78000020E2
:102320007C0000200000001050C30010800000203E
:1023300010B502461078002305E0541C224624788C
:1023400060405C1CE3B24C1E9C42F6DC10BD10B534
:1023500000F064F800F0BAF810BD000010B50020DD
:1023600008490870487064210648801CFEF722FC6A
:10237000002005490870487064210348801CFEF75E
:1023800019FC10BD7C010020E20100201FB5FFF701
:10239000DEFFFFF7E3FF0322002101200AF096FD94
:1023A000104908600846006830B100231A461946F3
:1023B0000C4800680AF070FE002264211E200AF01A
:1023C00085FD094908600020084A0223CDE9012063
:1023D0000093039003464FF4086205A109480AF0F0
:1023E00077FF1FBD10000020140000201C000020FB
:1023F00042616C6C617374436F6D6D315461736BCA
:1024000000000000C9C1000810B504466421A01CEA
:10241000FEF7D0FB00202070607010BD00B587B0C3
:102420000121042004F008FA0121C80404F024FA70
:1024300008220A21234801F02FFA08220B21214803
:1024400001F02AFA4FF44060059002208DF8180040
:102450008DF8190000208DF81A0001208DF81B005E
:1024600005A9184801F0D0F94FF41640019000205A
:10247000ADF80800ADF80A00ADF80C00ADF810009A
:102480000C20ADF80E0001A90F4805F0DBFC01217E
:102490000D4805F073FC012240F225510A4805F071
:1024A000ACFC34208DF800000F208DF801000020D6
:1024B0008DF8020001208DF80300684603F000FE4D
:1024C00007B000BD00080240004C004000B591B0CC
:1024D0000121480504F0B0F9224800F0DDF900BF01
:1024E000204800F085FA0028FAD14FF000600290F1
:1024F0001D4803901D480490402005900020069040
:1025000007904FF480600890002009900A900B908B
:102510004FF480300C9000200D9003200E9000208E
:102520000F90109002A90F4800F0ACFA0122102180
:102530000C4800F089FA012280210B48001F05F0A9
:1025400029FC0F208DF804008DF8050000208DF87F
:10255000060001208DF8070001A803F0B1FD11B0BD
:1025600000BD000070600240044C0040E401002007
:10257000014600BF080900EB8000420001F00F0097
:102580001044C0B2704700BFFEE70146002204E0DD
:10259000501CC2B2A1F10A00C1B20A29F8DA100730
:1025A00041EA1060704700001FB5044605F066F967
:1025B00020B901F071FD08B903F0F0FD02AB03AAE8
:1025C00012A12046FEF75EF80398C0F3031008F04E
:1025D00061F88DF80000039901F00F0008F05AF837
:1025E0008DF801000298C0F3031008F053F88DF83D
:1025F0000200029901F00F0008F04CF88DF803007A
:1026000004226946972001F006FA1FBD252A5B5E69
:102610003A5D3A25782C257800000000F0B5034695
:102620001446012901D0022901D10C315B1E4D1C39
:1026300005EB4505052695FBF6F5022606FB01464A
:1026400035441D441846DE1703EB967605EBA605C8
:10265000642693FBF6F6AD1B4FF4C87693FBF6F6B3
:102660003544072695FBF6F706FB1752072A13D2C7
:10267000DFE802F00406080A0C0E10000120F0BD8D
:102680000220FCE70320FAE70420F8E70520F6E73C
:102690000620F4E70720F2E70020F0E710B5034634
:1026A000002004E013F810401454441CE0B28842A7
:1026B000F8DB10BD10B586B00446002007F0EAFF35
:1026C0008DF804000A2007F0E5FF8DF805003020A2
:1026D0008DF8060039208DF8070042208DF808009B
:1026E00030208DF809008DF80A008DF80B00200BC2
:1026F00007F0D0FF8DF80C00C4F3032007F0CAFFE9
:102700008DF80D00C4F3031007F0C4FF8DF80E0020
:1027100004F00F0007F0BEFF8DF80F000C2101A898
:1027200000F002F806B010BD70B588B005460C4642
:10273000FF208DF800008DF8010002208DF80200C6
:1027400046208DF803008DF804008DF805008DF803
:102750000600224629460DF10700FEF774FA601DB7
:10276000C1B20DF10200FFF7E3FD0646300907F0A4
:1027700091FFE11D0DF8010006F00F0007F08AFF40
:1027800004F108010DF80100032104F109000DF81E
:102790000010401CC1B2684605F0BAFC08B070BD1C
:1027A00008B5002000904FF0C0510F4800F02AF902
:1027B000012817D14FF0C0510B4800F047F80AF03C
:1027C00005FE0A4908606946094800680AF01BFDD1
:1027D000009838B14FF0805006490860BFF34F8F22
:1027E000BFF36F8F08BD000058600240400000201A
:1027F0003000002004ED00E010B50649064800F066
:1028000025F800231A461946044800680AF044FCDB
:1028100010BD000020000020706002401000002069
:1028200010B54FF02051074800F010F8002105487E
:1028300000F026F800231A461946034800680AF0FB
:102840002BFC10BDB8640240200000200246094B5A
:102850009A4201D2084801E00648103801F00053BE
:102860001BB1064B0B40C36002E0044B0B4083607E
:102870007047000010640240006002407D0F7D0F31
:1028800021B1026842F00102026003E0026822F016
:102890000102026070470000016821F0010101603F
:1028A0000021016041608160C160016121214161BD
:1028B0004A49884204D13D21484A103A91608CE04F
:1028C00046491831884205D14FF47461434A103AA1
:1028D000916082E041493031884205D14FF4741152
:1028E0003E4A103A916078E03C494831884205D12F
:1028F0004FF07461394A103A91606EE037496031A7
:10290000884204D13649354A103AD16065E03349EE
:102910007831884204D13349304A103AD1605CE0C2
:102920002E499031884204D12F492C4A103AD16067
:1029300053E02A49A831884205D14FF03D51274A3A
:10294000103AD16049E02949884204D13D21274A03
:10295000083A116041E025491831884205D14FF409
:102960007461224A083A116037E0204930318842C8
:1029700005D14FF474111D4A083A11602DE01B492E
:102980004831884205D14FF07461184A083A116005
:1029900023E016496031884204D11149134A121FBD
:1029A00011601AE011497831884204D10D490F4A6B
:1029B000121F116011E00D499031884204D10A497B
:1029C0000A4A121F116008E00849A831884204D160
:1029D0004FF03D51054A121F1160704710600240D0
:1029E0003D000020400F002000003D201064024008
:1029F000014600200A6802F001020AB1012000E04D
:102A00000020704730B503460A46002000240B4DD5
:102A1000AB4201D20A4901E00849103902F00055E1
:102A20000DB14C6800E00C68064D2C4004EA02052C
:102A30000DB1012000E0002030BD00001064024014
:102A4000006002407D0F7D0F10B501F080034BB197
:102A500022B1436943F08003436103E0436923F0FB
:102A60008003436180290BD02AB1036801F01E0462
:102A70002343036004E0036801F01E04A3430360E2
:102A800010BD000010B500220268134B1A40CC683C
:102A90000B6823434C6923438C692343CC6923434C
:102AA0000C6A23434C6A23438C6A23434C6B2343B5
:102AB0008C6B23431A430260426922F00702D1E97A
:102AC0000B3423431A4342610B6943604B688360B4
:102AD0008B68C36010BD00003F801CF041607047F0
:102AE0007047000010B5002004490870487032217A
:102AF0000248801CFEF75EF810BD0000940500201F
:102B000070B505460C46002340F2E24219461148D2
:102B100000680AF0FFF901281BD1224629460E4819
:102B2000FDF7C9FF0C48801E447000210B48FFF7D9
:102B3000A7FE00BF0948FFF75BFF0028FAD106484F
:102B4000801E41780548FFF7C9FF01210348FFF7C0
:102B500097FE70BD2000002058020020B86402409B
:102B600010B50020084908704870C8210648801C2C
:102B7000FEF720F80020054908704870C821034876
:102B8000801CFEF717F810BD20030020560200201D
:102B9000704700002DE9F0438BB0044600200A90F6
:102BA00004F11008601C01F01DF910B90BB0BDE86C
:102BB000F0830AA9204600F007FF00B9F6E7404677
:102BC00005F04CFC05F084FF0646300B07F062FD73
:102BD0002074C6F3032007F05DFD6074C6F3031094
:102BE00007F058FDA07406F00F0007F053FDE074E5
:102BF00002F0B6FE0746380907F04CFD207507F0D5
:102C00000F0007F047FD60750622694646F2020094
:102C100003F0D2FC04F1860206216846FFF73EFD70
:102C20001A490878FFF7B1FC81461849098808124B
:102C3000FFF7ABFC09EB002085B2280B07F02AFD5B
:102C400004F88C0FC5F3032007F024FD6070C5F372
:102C5000031007F01FFDA07005F00F0007F01AFD2C
:102C6000E0708C3C684604F0C9F804F190020C2135
:102C70006846FFF713FD002340F2E2422146044874
:102C800000680AF009FA00BF90E700008000002009
:102C90003400002038B50446601C01F0A3F800B9E8
:102CA00038BD6946204600F08FFE00B9F8E70023E2
:102CB00040F2E2422146034800680AF0EDF900BF05
:102CC000EEE700003400002038B50446601C01F037
:102CD00089F800B938BD6946204600F075FE00B994
:102CE000F8E7002340F2E2422146034800680AF078
:102CF000D3F900BFEEE70000340000201FB500F05C
:102D0000E1F8FFF72DFF01200AF0BCF80C4908603C
:102D10000022C8210A200AF0D9F80A49086005F003
:102D200035FF0020084A0323CDE9012000930390DA
:102D300003464FF4906205A107480AF0C9FA1FBD87
:102D4000200000202400002028000020456C65633E
:102D5000745461736B0000009DC4000810B50446F4
:102D6000C821A01CFDF726FF00202070607010BD58
:102D700000B587B00121022003F05EFD0121102083
:102D800003F08AFD07220621234800F085FD072273
:102D90001146214800F080FDC020059002208DF8EA
:102DA00018008DF8190000208DF81A0001208DF808
:102DB0001B0005A9184800F027FD4FF4165001909C
:102DC0000020ADF80800ADF80A00ADF80C00ADF831
:102DD00010000C20ADF80E0001A9104805F032F8E3
:102DE00001210E4804F0CAFF012240F225510B4890
:102DF00005F003F825208DF800000F208DF8010064
:102E000000208DF8020001208DF80300684603F0D1
:102E100057F907B000BD0000000402400010014057
:102E200000B591B00121880503F006FD2248FFF7A7
:102E300033FD00BF2048FFF7DBFD0028FAD14FF03B
:102E4000006002901D4803901D48049040200590AA
:102E50000020069007904FF48060089000200990B1
:102E60000A900B904FF480300C9000200D900320BE
:102E70000E9000200F90109002A90F48FFF702FE5D
:102E8000012210210C48FFF7DFFD012280210B48B1
:102E9000001F04F07FFF46208DF804000F208DF8FE
:102EA000050000208DF8060001208DF8070001A81C
:102EB00003F006F911B000BDB864024004100140EF
:102EC0005802002010B5FFF753FFFFF7A9FF10BD10
:102ED00003F050F951B18200A2F1C042126842F0F1
:102EE00001038200A2F1C042136009E08200A2F156
:102EF000C0421268034B1A408300A3F1C0431A601A
:102F000070470000FEFF0F0030B5002100220023B3
:102F10000468A400A4F1C0442168444C2140D0E9D5
:102F200001452C43C5682C4305692C4345692C4356
:102F300085692C43C5692C43056A2C43456A2C439B
:102F4000856A2C43C56A2C43056B2C4321430468D6
:102F5000A400A4F1C04421608468082C0BD104684B
:102F6000A400A4F1C044246844F040050468A4000F
:102F7000A4F1C04425600468641CA400A4F1C0440A
:102F8000226802F04042446B2468456B6D6844EA55
:102F90000514456BAD6844EA0524456BAD8944EAE8
:102FA0000544456B2D8A44EA0554456B2D7D44EA62
:102FB0000564456BAD692C4322430468641CA4007E
:102FC000A4F1C0442260C46AB4F5804F24D10468DF
:102FD000A400A4F1C044D4F8043103F04043846B4E
:102FE0002468856B6D6844EA0514856BAD6844EA16
:102FF0000524856B2D8A44EA0554856B2D7D44EAB2
:103000000564856BAD692C4323430468A400A4F1D7
:10301000C044C4F8043107E06FF070450468A400B0
:10302000A4F1C044C4F8045130BD00008000F7FF93
:1030300010B50446AA200A4908805520094908808D
:10304000802007490880AA2008805520054908806B
:1030500030214FF0C8400153801100F03DF810BD01
:10306000AA0A00645405006400B5AA200A49088031
:1030700055200A490880802007490880AA20088036
:103080005520064908801020034908804FF0106041
:1030900000F022F800BD0000AA0A00645405006494
:1030A00010B50446AA200A4908805520094908801D
:1030B000802007490880AA200880552005490880FB
:1030C00050214FF0C8400153801100F005F810BDA9
:1030D000AA0A00645405006430B5014600220023AA
:1030E000012418E0491E4FF0C8400288038802F00E
:1030F000400003F04005A84201D1002030BD4FF050
:10310000C8400288038802F0400003F04005A8424E
:1031100001D10020F2E709B1002CE3D101B9032469
:103120002046EBE700B599B00121782003F084FB3D
:103130000121084603F090FB4CF203701790022027
:103140008DF8600000208DF8620003208DF861008A
:1031500001208DF8630017A9954800F055FB4FF644
:103160008070179017A9934800F04EFB4FF23F0074
:10317000179017A9904800F047FB3F20179017A918
:103180008E4800F041FB4FF46050179017A9884813
:1031900000F03AFB3820179017A9864800F034FB5E
:1031A0003020179017A9824800F02EFB4FF40070D2
:1031B000179017A9814800F027FB0C2200217C48BA
:1031C00000F06AFB0C220121794800F065FB0C221B
:1031D0000421774800F060FB0C220521744800F0C0
:1031E0005BFB0C220821724800F056FB0C220921DF
:1031F0006F4800F051FB0C220A216D4800F04CFB97
:103200000C220B216A4800F047FB0C22114668484B
:1032100000F042FB0C220D21654800F03DFB0C2222
:103220000E21634800F038FB0C220F21604800F0AB
:1032300033FB0C2203215F4800F02EFB0C220421FB
:103240005C4800F029FB0C2205215A4800F024FBC1
:103250000C220721574800F01FFB0C22082155487B
:1032600000F01AFB0C220921524800F015FB0C2239
:103270000A21504800F010FB0C220B214D4800F0B1
:103280000BFB0C2211464B4800F006FB0C220D21D3
:10329000484800F001FB0C220E21464800F0FCFAE1
:1032A0000C220F21434800F0F7FA0C22002142487B
:1032B00000F0F2FA0C2201213F4800F0EDFA0C2256
:1032C00002213D4800F0E8FA0C2203213A4800F0C0
:1032D000E3FA0C220421384800F0DEFA0C22052122
:1032E000354800F0D9FA0C221146334800F0D4FAE0
:1032F0000C220D21304800F0CFFA0C220E212E486E
:1033000000F0CAFA0C220F212B4800F0C5FA0C225B
:1033100000212A4800F0C0FA0C220121274800F0C1
:10332000BBFA0C220221254800F0B6FA0C22032138
:10333000224800F0B1FA0C220421204800F0ACFA37
:103340000C2205211D4800F0A7FA0C2209211B4878
:1033500000F0A2FA0B2001900020029012200390AE
:1033600000200490059006904FF0805007900220B6
:1033700008900020099008200A9010200B9000204F
:103380000C900E900F9010904FF4805011900020F0
:1033900012901390149001A81590169008A8FFF7AA
:1033A000B3FD01210220FFF795FD19B000BD00001B
:1033B000000C0240001002400014024000180240BD
:1033C00010B5AA23094C23805523094C2380F024EF
:1033D0004FF0C8435C5206E04FF0C8435B5A20F8F8
:1033E000023B891C521E002AF6D110BDAAAA006415
:1033F00054550064F0B504460D461646012700BF3B
:1034000034F8021B284600F009F80746AD1C761E6A
:103410000FB9002EF4D13846F0BD000030B5054696
:103420000C46AA2007490880552007490880A0209B
:10343000044908804FF0C84044534014FFF74CFE45
:1034400030BD0000AA0A00645405006400B58DB0C8
:103450002A4807F027FA2AA007F024FA0023294A6D
:1034600069462948006809F055FD012842D12748DE
:1034700001686846FDF712FC002837D124A007F048
:1034800011FA03F02BF82AA007F00CFA45F2555078
:1034900002F0E2FE20B92BA007F004FA0DB000BD47
:1034A00003F01CF82DA007F0FDF94AF6AA2002F05F
:1034B000D3FE18B923A007F0F5F9EFE703F00EF8F3
:1034C000012003F019F90021022003F023FD00215F
:1034D000032003F01FFD0021042003F01BFD24A0A6
:1034E00007F0E0F92BA007F0DDF905E030A007F0C8
:1034F000D9F9D3E702F03EFE00BFCFE790E800081D
:103500000D0A3E00D0DD06005400002064000020BB
:103510000D0A4E6F72466C617368BCECB2E9BFAACB
:10352000CABCA3ACC7EBCEF0D6D5D6B9A3A10000D8
:103530000D0A0D0A28575220307835353535292E99
:103540002E2E00000D0A4E6F72466C617368D3B266
:10355000BCFEB9CAD5CFA3A10D0A00000D0A0D0A01
:1035600028575220307841414141292E2E2E00000B
:103570000D0A4E6F72466C617368BCECB2E9B3C958
:10358000B9A6A3ACD3B2BCFED7B4CCACD5FDB3A323
:10359000A3A100000D0ACDF8B9D8D2D1BBD6B8B4DA
:1035A000B3F6B3A7C9E8D6C3A3A10D0A0000000073
:1035B0000D0AC3DCC2EBCAE4C8EBD3D0CEF3A3AC94
:1035C000CDCBB3F6BBD6B8B4B3F6B3A7C9E8D6C370
:1035D000A3A10D0A0000000000B52DED108B8DB0E9
:1035E000B0EE40AAF0EE60AAB0EE418AF0EE618A39
:1035F000B0EE429AF0EE629A53EC192B9FED720BEB
:1036000051EC100B0AF058FB41EC1E0B9FED700BB8
:1036100053EC102B0AF050FB41EC1D0B9FED6E0B91
:1036200053EC102B0AF02CF941EC1C0BB0EE4C0AB9
:10363000F0EE6C0A05F0DCFEB0EE40BAF0EE60BAD7
:103640009FED670B53EC102B51EC1B0B0AF034FB76
:1036500053EC192B9FED640BCDE90A0151EC100BD3
:103660000AF02AFB41EC1E0B9FED590B53EC102B7B
:103670000AF022FB41EC1D0B9FED570B53EC102B76
:103680000AF0FEF841EC1C0BB0EE4C0AF0EE6C0AAE
:1036900005F0AEFEB0EE40BAF0EE60BA9FED540B0E
:1036A00053EC102B51EC1B0B0AF006FB53EC182BC0
:1036B0009FED4D0BCDE9060151EC100B0AF0FCFA21
:1036C00041EC1E0B9FED420B53EC102B0AF0F4FA69
:1036D00041EC1D0B9FED400B53EC102B0AF0D0F882
:1036E00041EC1C0BB0EE4C0AF0EE6C0A05F080FECB
:1036F000B0EE40BAF0EE60BA9FED3F0B53EC102BEA
:1037000051EC1B0B0AF0D8FA9FED310B53EC102B48
:10371000CDE9020151EC180B0AF0CEFA41EC1F0B77
:103720009FED2D0B53EC102B0AF0AAF841EC1E0B69
:10373000B0EE4E0AF0EE6E0A05F05AFEB0EE40DA38
:10374000F0EE60DA9FED2E0B53EC102B51EC1D0BBD
:103750000AF0B2FA41EC1B0B9FED1F0B53EC102B40
:1037600051EC1A0B0AF0B4FC41EC1C0B53EC1B2B74
:103770000AF0AEFCCDE900019DED020B53EC102BDD
:103780009DED000B51EC100B0AF0A2FCCDE90401F9
:103790009DED060B53EC102B9DED040B51EC100B23
:1037A00009F0BAFFCDE908019DED0A0B53EC102B8F
:1037B0009DED080B51EC100B0AF08AFC41EC100B4C
:1037C0000DB0BDEC108B00BD0000000000001040EB
:1037D0004AD8124DFB2109400000000000806640DD
:1037E000894160E5D022AB3F0000000000000040AE
:1037F000EE7C3F355EBA03407B14AE47E17A943FDE
:10380000A4703D0AD7A3FE3FF0B50A46002100236D
:10381000002400BF3DE0012505FA01F3156805EA23
:1038200003049C4234D105684F000326BE40B543D3
:10383000056015794E00B540066835430560157979
:10384000012D02D01579022D16D185684F0003266F
:10385000BE40B543856055794E00B5408668354316
:103860008560456801268E40B54345604568967978
:103870008E40B6B235434560C5684F000326BE4052
:10388000B543C560D5794E00B540C6683543C560BF
:10389000491C1029BFD3F0BDF0B5002300244D070B
:1038A000ED0E02FA05F3CE1000F1200555F8265072
:1038B0004E07F70E0F26BE40B543CF1000F120068D
:1038C00046F82750CE1000F1200555F8265045EA5D
:1038D0000304CE1000F1200545F82640F0BD024655
:1038E000002053690B400BB1012000E0002070471D
:1038F00041837047018370472DE9F047C0B0074608
:1039000089461546002441222146641C01A84254E0
:1039100030222146641C42542146641C42542146F4
:10392000641C4254002643E017F81600FEF720FE00
:10393000824637F816100812FEF71AFE00EBC00197
:1039400001EB00100AEB800808F060FF08EBC802EA
:1039500002EB08121B4B03EB420101AA10191422BF
:10396000FDF771F908F064FF04F11400C4B2862D6C
:1039700015D108F04BFF08EBC80202EB0812114BFF
:1039800003EB420202F1140101AA10191822FDF7FB
:103990005AF908F04DFF04F11800C4B205E0A62D55
:1039A00000D103E040B0BDE8F08700BF701CC6B294
:1039B0004E45B9DBE8B2224601A900F02CF800BF61
:1039C000F0E70000000000102DE9F04704460D4626
:1039D0000027B846A07B06F0BFFA8146607B06F060
:1039E000BBFA49EA00102870002608E0781CC7B22C
:1039F00014F8011B032900D103E0701CC6B2FF2E8E
:103A0000F4DB00BF28781230B84201D14FF0010832
:103A10004046BDE8F0872DE9F041C4B006460F46A8
:103A20001446FC2105A8FDF7E7F814216846FDF7C8
:103A3000E3F8052269464FF4405002F0BDFD022034
:103A40008DF814000A2269460DF11500FDF7FBF808
:103A5000300906F01FFE8DF81F0006F00F0006F07B
:103A600019FE8DF82000200906F014FE8DF82100C3
:103A700004F00F0006F00EFE8DF822005CB157B185
:103A8000002506E0795D05AA05F10F001154681CB8
:103A9000C5B2A542F6DB04F10F00C1B205A8FEF7DE
:103AA00047FC80464FEA181006F0F4FD05AA04F121
:103AB0000F01505408F00F0006F0ECFD05AA04F1C8
:103AC00010015054032104F111001154401CC1B2E3
:103AD00005A803F063FE44B0BDE8F0811FB500F017
:103AE00033F800F0C1FA012009F0CCF90F49086061
:103AF0000022C8210A2009F0E9F90D4908600022D6
:103B0000C821012009F0E2F90A49086000200A4AA8
:103B10000323CDE901200093039003464FF408628C
:103B200006A1084809F0D4FB1FBD000030000020AA
:103B300034000020380000202C00002047534D5452
:103B400061736B00F1C4000810B500F0CDF800F00F
:103B500003F800F077F810BD1CB501211348FFF7FA
:103B6000C7FE012000908DF8040002208DF80500AA
:103B700000208DF8060001208DF8070069460B48EB
:103B8000FFF742FE0420009001208DF8040002207F
:103B90008DF8050000208DF8060001208DF8070043
:103BA00069460248FFF730FE1CBD000000080240D5
:103BB00010B532E001211A48FFF79AFE40F2771063
:103BC00008F070FE01211648FFF794FE40F2E24231
:103BD00014A1002003F0D8FA00B91EE0FA2008F082
:103BE00061FE01210E48FFF783FEFA2008F05AFE1D
:103BF00001210B48FFF77EFE40F2771008F052FEDD
:103C000001210748FFF774FE40F6A6620AA10020D2
:103C100003F0BAFA00B101E000BFCBE700BF10BD6E
:103C2000000802404E4F524D414C20504F574552D4
:103C300020444F574E000000534D5320526561649D
:103C40007900000000B591B00121480502F0F4FDB3
:103C50002248FEF721FE00BF2048FEF7C9FE0028DB
:103C6000FAD14FF0006002901D4803901D48049067
:103C7000402005900020069007904FF48060089047
:103C8000002009900A900B904FF480300C90002097
:103C90000D9003200E9000200F90109002A90F4865
:103CA000FEF7F0FE012210210C48FEF7CDFE0122A6
:103CB00080210B48001F04F06DF80E208DF80400E1
:103CC0000F208DF8050000208DF8060001208DF8EA
:103CD000070001A802F0F4F911B000BD58600240DD
:103CE000044800400204002000B587B001210220F2
:103CF00002F0A2FD0121880402F0BEFD07220A2184
:103D00002448FFF7C9FD07220B212248FFF7C4FD15
:103D10004FF44060059002208DF818008DF81900CE
:103D200000208DF81A0001208DF81B0005A9194804
:103D3000FFF76AFD4FF4614001900020ADF80800E4
:103D4000ADF80A00ADF80C004FF44070ADF810006B
:103D50000C20ADF80E0001A90F4804F073F8012102
:103D60000D4804F00BF8012240F225510A4804F0F6
:103D700044F827208DF800000F208DF80100002066
:103D80008DF8020001208DF80300684602F098F9D2
:103D900007B000BD000402400048004010B52DED02
:103DA000048BB0EE408AF0EE608A9FED0A0B53EC74
:103DB000102B51EC180B09F07FFF41EC190B9FED14
:103DC000070B53EC102B09F0A7FC41EC100BBDECDA
:103DD000048B10BD9A999999E193E1409CC420B05D
:103DE0007258764010B588B00446142103A8FCF739
:103DF00003FF0EA207CA8DE80700052203A94FF4AE
:103E0000405002F0D9FB0A2203A92046FCF708FE25
:103E100010B9012008B010BD0A2269462046FCF7FF
:103E2000FFFD08B90120F5E70020F3E739393939FA
:103E300039393939393900008EB05AE02DA006F0F1
:103E400031FD314806F02EFD304806F02BFD30489C
:103E500006F028FD2FA006F025FD00233B4A01A90E
:103E60003B48006809F056F8012842D19DF805004A
:103E70000D283BD19DF80400462827D00CDC3428BF
:103E80001DD004DC322814D033282AD114E0412874
:103E900018D0452825D121E0652820D004DC5228FF
:103EA00018D061281DD10EE0662810D0722818D1D4
:103EB00011E003F0C9FB18E003F038FB15E003F054
:103EC000C5F912E000BF03F0FDFC0EE000BFFFF7F4
:103ED000BDFA0AE000BF04F0F9FD06E000BFFEF7FE
:103EE000F7FF1CA006F0DEFC00BF02E01FA006F0FA
:103EF000D9FCA3E70D0AC7EBD1A1D4F1C9E8D6C319
:103F0000B2CECAFDA3BA00003CE80008ECE7000806
:103F10009CE700080D0A202020205A2E5A6967428B
:103F20006565C4A3BFE9D0C5CFA2202020522ECD05
:103F3000F8B9D8B8B4CEBBD0C5CFA2202020204538
:103F40002ECDCBB3F6200D0A3E200000D0DD0600BA
:103F5000540000200D0A20C7EBD1A1D4F1C6E4CB58
:103F6000FBB9A6C4DCA3A10D0A0000000D0ACAE437
:103F7000C8EBB8F1CABDD3D0CEF3A3ACC7EBD6D84B
:103F8000D0C2D1A1D4F1D2AAC9E8D6C3B5C4B2CEA9
:103F9000CAFDA3A10D0A000030B5B3B005460C461A
:103FA000002340F2E24219461E48006808F0B2FFC2
:103FB000012833D102E0002008F074FC09F006FA71
:103FC00019490968401A3228F5D94FF0C0511748ED
:103FD000FEF73CFC224629461548FCF76CFD1448C8
:103FE000801E447000211148FEF74AFC00BF0F48B4
:103FF000FEF7FEFC0028FAD10D48801E41780B48E0
:10400000FEF76CFD00231A4601A90A48006808F073
:1040100081FF01210548FEF733FC01E002F096F82C
:1040200033B030BD30000020400000205860024016
:10403000020400203800002010B504460020207043
:104040006070C821A01CFCF7B5FD10BD4278C82ADD
:1040500008DA0378821CD1540278521C027042782C
:10406000521C42707047000010B5002008490870CB
:104070004870C8210648801CFCF79CFD00200549BB
:1040800008704870C8210348801CFCF793FD10BDE0
:10409000CA0400200004002000B58DB0FFF788FDA1
:1040A000FA224FA14FA003F06FF828B94FA006F0F5
:1040B000F9FB00200DB000BDFA2249A152A003F087
:1040C00063F820B954A006F0EDFB0020F2E7FA22D5
:1040D00043A158A003F058F820B958A006F0E2FB1D
:1040E0000020E7E7FA223EA15AA003F04DF820B9DC
:1040F0005CA006F0D7FB0020DCE7FA225FA161A0FC
:1041000003F042F820B965A006F0CCFB0020D1E70F
:10411000FA2233A168A003F037F820B969A006F0AD
:10412000C1FB0020C6E74FF4FA726CA16FA003F048
:104130002BF820B970A006F0B5FB0020BAE7FA20F2
:1041400008F0B0FBFA2272A174A003F01DF820B9A8
:1041500075A006F0A7FB0020ACE74FF4FA7220A18F
:1041600077A003F011F820B978A0FCF717F9002028
:10417000A0E740F2EE2008F095FB40F6C41218A12B
:1041800077A003F001F820B979A006F08BFB00209E
:1041900090E70B227C494FF4804002F00DFA7A4BF5
:1041A0001033794A79A16846FCF704F940F6C41245
:1041B0000BA1684602F0E8FF20B97CA006F072FB74
:1041C000002077E740F6A6627CA1002002F0DCFF29
:1041D00020B97DA006F066FB00206BE7012069E7AF
:1041E0004F4B000041540D0A000000000D0A4753D8
:1041F0004DB4AEBFDACDA8D0C5BDD3BFDAD2ECB3D3
:10420000A3A3A10D0A00000041542B4950523D3593
:10421000373630300D0A00000D0A47534DCDA8D077
:10422000C5B2A8CCD8C2CAC9E8D6C3D2ECB3A3A33E
:10423000A10D0A00415445300D0A00000D0ABBD8FB
:10424000CFD4C4A3CABDB9D8B1D5D2ECB3A3A3A16E
:104250000D0A000041542B4349504D4F44453D3118
:104260000D0A00000D0ACDB8C3F7B4ABCAE4C5E42B
:10427000D6C3D2ECB3A3A3A10D0A00000D0A4F4B85
:104280000D0A000041542B434950434346473D35F6
:104290002C322C313032342C310D0A000D0A4753A8
:1042A0004DB4ABCAE4B2CECAFDC5E4D6C3D2ECB3BA
:1042B000A3A3A10D0A00000041542B434C54533DCD
:1042C000310D0A000D0A47534DBBF1C8A1CAB1BC5C
:1042D000E4D2ECB3A3A3A10D0A0000002B43504984
:1042E0004E3A2052454144590000000041542B43AE
:1042F00050494E3F0D0A00000D0A53494DBFA852C8
:1043000045414459D2ECB3A3A3A10D0A000000001B
:104310002B435245473A20302C31000041542B4367
:104320005245473F0D0A00000D0ACDF8C2E7D7A25B
:10433000B2E1D0C5CFA2D2ECB3A3A3A10D0A000075
:1043400041542B43474154543D300D000D0A475012
:104350005253B7D6C0EBD2ECB3A30D0A0000000055
:1043600041542B43474154543D310D0A0000000095
:104370000D0A47505253B8BDD7C5D7B4CCACD2EC18
:10438000B3A3A3A10D0A0000EA03002041542B436C
:10439000495053544152543D22544350222C22251B
:1043A00073222C222573220D0A0000000D0A5443AB
:1043B00050C1ACBDD3D2ECB3A30D0A000D0A434FDC
:1043C0004E4E4543540D0A000D0ACEDEB7A8C1ACCF
:1043D000BDD3B7FECEF1C6F74950B6CBBFDA0D0A52
:1043E00000000000FEB5044600200090601CFFF7AE
:1043F000F9FC00B9FEBD69462046FFF7E5FA00B9B1
:10440000F8E7207C05F0A8FD0646E07B05F0A4FD5A
:1044100046EA0010C5B22846FEF7AAF88DF80B0050
:10442000A07C05F099FD0646607C05F095FD46EA06
:104430000010C5B22846FEF79BF88DF80900207DD4
:1044400005F08AFD0646E07C05F086FD46EA001090
:10445000C5B22846FEF78CF88DF80A00A07D05F05D
:104460007BFD0646607D05F077FD46EA0010C5B28B
:104470002846FEF77DF88DF80400207E05F06CFDDF
:104480000646E07D05F068FD46EA0010C5B2284604
:10449000FEF76EF88DF80500A07E05F05DFD06467E
:1044A000607E05F059FD46EA0010C5B22846FEF7C9
:1044B0005FF88DF80600012002F0C4FB00EBC0019C
:1044C00001EB00109DF80B1001EB80059DF80A2010
:1044D0009DF809102846FEF7A1F88DF80800002382
:1044E00040F2E24219460D48006808F013FD012829
:1044F00011D101A9002002F019FC02A9002002F04C
:10450000B1FB012008F0CEF900231A4619460348F2
:10451000006808F0C1FD00BF6CE700006C010020DE
:1045200038B5044600200090601CFFF75BFC00B922
:1045300038BD69462046FFF747FA00B9F8E7E07B47
:10454000302808D104F10F050023FA222946034838
:10455000006808F0A1FD00BFEAE700008400002029
:1045600038B5044600200090601CFFF73BFC00B902
:1045700038BD69462046FFF727FA00B9F8E79DF8ED
:1045800000001230C1B22046FEF7BAFA00BFEFE7D2
:1045900010B586B0044600200590601CFFF722FC91
:1045A00008B906B010BD05A92046FFF70DFA00B9FD
:1045B000F7E7102204F10F016846FCF744FB1022D4
:1045C00069469120FFF727FA00BFEAE738B50446AD
:1045D00000200090601CFFF705FC00B938BD69465B
:1045E0002046FFF7F1F900B9F8E79DF80000123016
:1045F000C1B22046FEF784FA00BFEFE77047000023
:1046000010B58AB0044600200990601CFFF7EAFB51
:1046100008B90AB010BD09A92046FFF7D5F900B9BD
:10462000F7E704AA09A10C48FCF72CF80DF10A00E1
:10463000431E02AA09A1009004A8FCF723F8032254
:1046400002A98C20FFF7E7F900BFE2E7252A5B5EAD
:104650003A5D3A2573000000ACE400085625632E4D
:10466000256325630000000010B5E6B00446002075
:1046700065904FF4C87101A8FCF7BEFA601CFFF703
:10468000B1FB08B966B010BD65A92046FFF79CF9DB
:1046900000B9F7E701AA9DF8941104F10F0001F0A9
:1046A00002FDE07B30280AD19DF8942101A9400247
:1046B00001F0A0FF06F0F0FF08F0F4FF1EE0E07B41
:1046C000312807D19DF8942101A94FF4E04001F071
:1046D00091FF13E0E07B322809D19DF8942101A9D4
:1046E0004FF4004001F086FFFDF71CFD06E00122BB
:1046F00004F10F01C120FFF78EF9C3E7012204F195
:104700000F018120FFF787F900BFBBE72DE9F04FCC
:104710008DB0044600200C90601CFFF763FB10B9BD
:104720000DB0BDE8F08F0CA92046FFF74DF900B998
:10473000F6E75C48006808F0E5F9FA2008F0B2F8FE
:104740009DF83000001DC1B204F10B00FDF7ECFF35
:104750005448006808F068F9207D05F0FDFB8346A9
:10476000E07C05F0F9FB4BEA0010C6B2E07B412883
:1047700010D1207C30280DD1607C30280AD1A07C5B
:10478000302807D104230022FF210846009607F0B5
:10479000DDFA7AE0E07B392847D1207C05F0DCFBAC
:1047A0008046607C05F0D8FB8246A07C05F0D4FBF7
:1047B0000B90002736E0002514E004F11501414478
:1047C000485D05F0C9FB834604F11501C85D05F09D
:1047D000C3FB0423002259460096029007F0B6FA64
:1047E000681CC5B25545E8DB002516E004F115014B
:1047F00041445144485D05F0AFFB40F0100B04F11B
:104800001501C85D05F0A8FB042300225946009657
:10481000029007F09BFA681CC5B20B988542E5DB55
:10482000781CC7B24745C6DB2FE0E07B42282BD17E
:10483000207C302828D1607C302825D1A07C3028ED
:1048400022D1607D05F088FB4FEA0019A07D05F0BC
:1048500083FB48444FF6FF7101EA0019E07D05F043
:104860007BFB48444FF6FF7101EA0019207E05F0FA
:1048700073FB48441FFA80F904234A460021084686
:10488000009607F063FA00E04AE7062204F10F0100
:1048900003A8FCF7D8F9062203A98420FFF7BBF888
:1048A00000BF3DE71C0000202DE9F04F8DB004460D
:1048B00000200C90601CFFF795FA10B90DB0BDE810
:1048C000F08F0CA92046FFF77FF800B9F6E75848AB
:1048D000006808F017F9FA2007F0E4FF9DF83000AF
:1048E000001DC1B204F10B00FDF71EFF5048006827
:1048F00008F09AF8E67CE07B412810D1207C302833
:104900000DD1607C30280AD1A07C302807D1052346
:104910000022FF210846009607F018FA7AE0E07BB3
:10492000392847D1207C05F017FB8046607C05F0D4
:1049300013FB8246A07C05F00FFB8346002736E080
:10494000002514E004F114014144485D05F004FB26
:1049500004F114010390C85D05F0FEFA052300225E
:1049600000960290039907F0F1F9681CC5B255450D
:10497000E8DB002517E004F1140141445144485D8F
:1049800005F0EAFA40F0100004F114010390C85D4C
:1049900005F0E2FA0523002200960290039907F041
:1049A000D5F9681CC5B25D45E5DB781CC7B2474543
:1049B000C6DB2FE0E07B42282BD1207C302828D199
:1049C000607C302825D1A07C302822D1207D05F0C4
:1049D000C3FA4FEA0019607D05F0BEFA48444FF66D
:1049E000FF7101EA0019A07D05F0B6FA48444FF6C0
:1049F000FF7101EA0019E07D05F0AEFA48441FFAA4
:104A000080F905234A4600210846009607F09EF9E2
:104A100000E053E7052204F10F0104A8FCF713F9A5
:104A2000052204A98520FEF7F6FF00BF46E7000037
:104A30001C0000202DE9F043CDB0054600204C902D
:104A4000642133A8FCF7D8F8002032908146681C16
:104A5000FFF7C8F910B94DB0BDE8F0834CA928465E
:104A6000FEF7B2FF00B9F6E79DF83001401E1121B4
:104A700090FBF1F201FB120038B99DF83001401EA5
:104A800090FBF1F000F0FF0800E0E4E7E87B31285C
:104A900066D1002461E004EB041105F11000405CD4
:104AA000ADF8CC0005F11000112101FB04004078A5
:104AB000ADF8CE0005F1100001FB04008078ADF8E0
:104AC000D00005F1100001FB0400C078ADF8D20061
:104AD000BDF8CC10C8B205F03FFA0601BDF8CE1003
:104AE000C8B205F039FA30444FF6FF7101EA0016FA
:104AF000BDF8D010C8B205F02FFA30444FF6FF7160
:104B000001EA0016BDF8D210C8B205F025FA30440B
:104B100086B232A9304607F0E9F800B99BE735A81C
:104B200002F06CF900270CE005F11400112101FBE3
:104B30000400C15D07F1100033AA22F81010781CA0
:104B4000C7B20D2FF0DBBDF8C810574A02EB013099
:104B50001D2233A901F04EFD641C44459BDB6BE034
:104B6000E87B322850D100244BE004EB041105F11E
:104B70001000405CADF8CC0005F11000112101FBE4
:104B800004004078ADF8CE0005F1100001FB0400F0
:104B90008078ADF8D00005F1100001FB0400C0786A
:104BA000ADF8D200BDF8CC10C8B205F0D5F90601B9
:104BB000BDF8CE10C8B205F0CFF930444FF6FF7102
:104BC00001EA0016BDF8D010C8B205F0C5F93044AE
:104BD0004FF6FF7101EA0016BDF8D210C8B205F019
:104BE000BBF9304486B232A9304607F07FF800B9ED
:104BF00031E7BDF8C8102C4A02EB013001F09CFCF3
:104C0000641C4445B1DB17E0E87B332814D0E87B13
:104C100034280BD1002406E04FF4801101EB04404E
:104C200001F02AFC641C3F2CF6DB05E005226946F6
:104C3000C220FEF7F0FE0EE707F0E8FD00201B495A
:104C40004880088041F270711948FBF7B3FF00F00B
:104C5000EFFF00F0D1FF02F0ABFE07F0E9FD00240A
:104C600012E000270DE005F11000112101FB040006
:104C7000C05D0DF8090009F1010000F0FF09781C82
:104C8000C7B2042FEFDB641C4445EADBE87B0DF878
:104C900028004FEA8800401CC2B269468220FEF715
:104CA000BAFE00BFD7E60000001010008000002010
:104CB00050C3001030B5E9B00446002068904FF4AE
:104CC000C87104A8FBF798FF601CFFF78BF808B9C0
:104CD00069B030BD68A92046FEF776FE00B9F7E757
:104CE000E07B412837D1207C302834D1607C3028CB
:104CF00031D1A07C30282ED124A802F07FF89DF875
:104D0000A001083881B22AAA04F1170001F0CBF9FA
:104D100000251CE005EB4501154A02EB410188889E
:104D200003A906F0E3FFBDF80C10124A02EB0130B4
:104D3000402204A901F040FCBDF80C100D4A02EB22
:104D40000130C82204A901F055FC681C85B20A484C
:104D50000088A842DEDC0A2204F10F016846FBF756
:104D600072FF0A2269468320FEF755FE00BFAFE7B7
:104D700050C3001000101000800000202DE9F04FFB
:104D80008BB0044600200A90601CFFF72BF810B986
:104D90000BB0BDE8F08F0AA92046FEF715FE00B95A
:104DA000F6E7E07B412811D1207C30280ED1607CD1
:104DB00030280BD1A07C302808D1002006230246E1
:104DC000FF210090084606F0C1FF7DE0E07B392816
:104DD0004AD1207C05F0C0F80746607C05F0BCF89D
:104DE0008146A07C05F0B8F88246002639E000250F
:104DF00016E004F113013944485D05F0ADF883462F
:104E000004F11301885D05F0A7F801900020062346
:104E1000024659460090019806F098FF681CC5B2FA
:104E20004D45E6DB002518E004F1130139444944FF
:104E3000485D05F091F840F0100B04F11301885D16
:104E400005F08AF80190002006230246594600909A
:104E5000019806F07BFF681CC5B25545E4DB701C69
:104E6000C6B2BE42C3DB2FE0E07B42282BD1207CC0
:104E7000302828D1607C302825D1A07C302822D150
:104E8000E07C05F069F84FEA0018207D05F064F831
:104E900040444FF6FF7101EA0018607D05F05CF8B0
:104EA00040444FF6FF7101EA0018A07D05F054F868
:104EB00040441FFA80F80020062342460146009035
:104EC00006F044FF00E063E7042204F10F0102A8AA
:104ED000FBF7B9FE042202A98620FEF79CFD00BF65
:104EE00056E738B5044600200090601CFEF77AFFB4
:104EF00000B938BD69462046FEF766FD00B9F8E7FF
:104F0000FA2007F0CFFCE07B312801D101F046F90F
:104F1000E07B32280CD1FFF7BFF8012806D101222F
:104F200004F10F01BF20FEF776FD11E001F036F924
:104F3000E07B33280CD19DF800001230C1B220462E
:104F4000FDF7DEFD012204F10F01BF20FEF763FD36
:104F500000BFCEE7F8B50446002000906946204621
:104F6000FEF732FD00B9F8BD207B04F0F5FF0646E0
:104F7000E07A04F0F1FF46EA0010C5B29DF8002087
:104F800004F10F012846FEF746FD00BFEBE70000E5
:104F900010B5A0B0044620210AA8FBF72DFE002082
:104FA00009900790089006900590601CFEF71AFF84
:104FB00008B920B010BD05A92046FEF705FD00B9CF
:104FC000F7E79DF8142004F10F0112A8FBF73BFE50
:104FD00009AA06AB901E08A9CDE90232CDE900105E
:104FE000031F07AA2BA112A8FBF74CFB062846D1EA
:104FF000BDF91C00002841DBBDF91C00FF283DDC89
:10500000BDF91E00002839DBBDF91E00FF2835DC84
:10501000BDF92000002831DBBDF92000FF282DDC80
:10502000BDF92200002829DBBDF92200FF2825DC7C
:105030000698002822DB0698B0F5803F1EDA9DF81E
:1050400024003B281AD11AAA18A112A8FBF71AFBB0
:105050001EAA18A112A8FBF715FB10221AA90AA86C
:10506000FBF7F1FD06221EA90EA8FBF7ECFD0F22AF
:105070000AA94FF4804001F0BDFA00E099E7002250
:1050800011469420FEF7C7FCFA2007F00BFC01F054
:1050900085F800002568642E2568642E2568642E36
:1050A0002568642C2564256300000000255B5E2CC8
:1050B0005D000000252A5B5E2C5D2C255B5E3B5D60
:1050C0000000000038B50446601CFEF78BFE00B9F6
:1050D00038BD69462046FEF777FC00B9F8E702F0D4
:1050E00099FB01280BD14FF4FA7208A109A002F034
:1050F0004BF848B9FEF7D0FF30B901F04FF8FEF792
:10510000CBFF08B901F04AF800BFE1E72B43535148
:105110003A00000041542B4353510D0A0000000097
:1051200010B58CB0044600200B90282101A8FBF795
:1051300063FD601CFEF756FE08B90CB010BD0BA94C
:105140002046FEF741FC00B9F7E701AA9DF82C10B4
:1051500004F10F0000F0A7FF9DF82C2001A94FF4E7
:10516000104001F047FA02F023FC00221146A22071
:10517000FEF751FC00BFE0E70621014A11707047BD
:10518000180000202DE9F043A3B00446182110A810
:10519000FBF732FD0FA9204600F05CFF10B923B0E9
:1051A000BDE8F083607804F0D7FE0001ADF8800020
:1051B000A07804F0D1FEBDF8801008444FF6FF71CE
:1051C00001EA0010ADF88000E07804F0C5FEBDF8FB
:1051D000801008444FF6FF7101EA0010ADF880001E
:1051E000207904F0B9FEBDF88010084480B2ADF813
:1051F0008000A07A04F0B0FE8146607A04F0ACFE34
:1052000049EA0010C0B28DF88200207B04F0A4FEB1
:105210008146E07A04F0A0FE49EA0010C0B28DF8A1
:105220008300607D04F098FE0001ADF88800A07D49
:1052300004F092FEBDF8881008444FF6FF7101EAB1
:105240000010ADF88800E07D04F086FEBDF88810FF
:1052500008444FF6FF7101EA0010ADF88800207E87
:1052600004F07AFEBDF88810084480B2ADF88800DA
:10527000BDF88010C8B2FDF77BF98146BDF88010FB
:105280000812FDF775F900EBC00101EB001009EB06
:1052900080060320A84901F826009DF83C0050280C
:1052A00046DC07F0B3FA06EBC60000EB0610A34A93
:1052B00002EB400132226846FBF7C5FC06EBC60153
:1052C00001EB06119D4A02EB41000422611CFBF731
:1052D000BAFC06EBC60101EB0611984A02EB41014C
:1052E000081D222204F10901FBF7ADFC9DF83C00EA
:1052F00046280ED106EBC60101EB06118F4A02EBE0
:10530000410101F12600062204F14901FBF79BFC53
:105310000CE006EBC60101EB0611884A02EB4101E5
:1053200001F1260030220621FBF73CFC07F080FA51
:105330009DF8070004F010FE81469DF8060004F079
:105340000BFE49EA0010C0B28DF877009DF81000FE
:1053500004F002FE0001ADF87C009DF8110004F09D
:10536000FBFDBDF87C1008444FF6FF7101EA001008
:10537000ADF87C009DF8120004F0EEFDBDF87C1045
:1053800008444FF6FF7101EA0010ADF87C009DF86B
:10539000130004F0E1FDBDF87C10084480B2ADF8C4
:1053A0007C00BDF88810C8B2FDF7E2F88146BDF870
:1053B00088100812FDF7DCF800EBC00101EB0010CB
:1053C00009EB8007BDF87C10C8B2FDF7D1F8814623
:1053D000BDF87C100812FDF7CBF800EBC00101EB23
:1053E000001009EB80089DF883109DF8772091420A
:1053F0000CD1A7EB0800002801DB014600E0414288
:10540000322903DC4E490978012907D1002340F2F3
:10541000E24220A94B48006807F03EFE464B03EBF2
:1054200086039A789DF88310BDF8800006F03AFE56
:1054300016A9012001F07CFD1A99C1F3031005F0B3
:1054400029F98DF834001A9901F00F0005F022F9BE
:105450008DF835001999C1F3031005F01BF98DF88B
:105460003600199901F00F0005F014F98DF8370096
:105470001C99C1F3031005F00DF98DF838001C9943
:1054800001F00F0005F006F98DF8390000250BE05A
:105490000DA8415D04F14300405D814202D000F05F
:1054A000F9FC03E0681CC5B2062DF1DB00BF2649FC
:1054B00001EB063101F108000C2210A901F07CF883
:1054C0000C2110A801F0E4F878B300250EE010A834
:1054D00030F8151004F12B00405D814204D0BDF876
:1054E000800000F029FB5AE6681CC5B20C2DEEDBEB
:1054F000154901EB063101F180000C2210A901F0E1
:105500005BF80C2110A801F0C3F870B100250FE082
:1055100010A830F8151004F13700405D814205D025
:10552000BDF8800000F01EFC39E603E0681CC5B23F
:105530000C2DEDDB00BF32E6C0DA001000000010D9
:10554000190000207C0000200010100010B58AB067
:10555000044600200990601CFEF744FC08B90AB01C
:1055600010BD09A92046FEF72FFA00B9F7E7E07B46
:1055700041280CD1207C302809D1607C302806D10C
:10558000A07C302803D100F037FB02F011FA04228E
:1055900004F10F0101A8FBF756FB042201A98A20A0
:1055A000FEF739FA00BFDAE70621014A11707047A9
:1055B0001800002000BFFEE710B588B003AC05223C
:1055C00069464FF4405000F0F7FF0322611F204668
:1055D000FBF739FB032103A802F0E0F808B010BD87
:1055E0002DE9F04F91B014216846FBF705FB02222C
:1055F00005A946F2380000F0DFFFBDF814004FF6B1
:10560000FF71884203D0BDF81600884203D13C20C8
:10561000424908600EE0BDF81610C8B204F09CFCC8
:105620008346BDF81410C8B204F096FC0BEB0010D2
:105630003A490860052269464FF4405000F0BCFF2B
:10564000BDF80210C8B204F087FC824602A8FBF73E
:105650004DF986B2C6EBC6003C2190FBF1F0062165
:1056600090FBF1F201FB12000AEB4A0100EB41044E
:105670003C20B4FBF0F100FB1144C6EBC6003C211A
:1056800090FBF1F201FB12053C20B5FBF0F100FBB1
:1056900011550AA9002001F04BFCDDE90D210F98FE
:1056A00004F010FD00EB4000C000C0EB00108000D3
:1056B000C0EB001080000C99C1EB01118900C1EB17
:1056C000011100EB81000B99C1EB011100EB81008E
:1056D0000A9900EB0108C4EB0410A8EB8000401B02
:1056E0000E490968C1EB01118900B0FBF1F90B48C3
:1056F000006809FB00F0C0EB00108000C4EB04114F
:1057000000EB81004719012000F0F6FF3946042024
:1057100001F000FC11B0BDE8F08F00004C0000204B
:105720001FB500F023F800220321084607F0CEFB46
:10573000084908600020084A0323CDE901200093AE
:10574000039003464FF4906204A1074807F0C0FDA0
:105750001FBD00008400002088000020456C6563A8
:10576000745461736B00000025C700081CB501214B
:10577000084601F061F80121042001F05DF80121E3
:10578000102001F059F80121202001F055F80120E6
:1057900000908DF8040002208DF8050000208DF89F
:1057A000060001208DF8070069461E48FEF72CF818
:1057B00042F20800009001208DF8040002208DF8CC
:1057C000050000208DF8060001208DF807006946CD
:1057D0001548FEF719F80420009001208DF8040008
:1057E00002208DF8050000208DF8060001208DF8BC
:1057F000070069460D48FEF707F84FF4F86000907F
:1058000001208DF8040002208DF8050000208DF89D
:10581000060001208DF8070069460548FDF7F4FFF2
:105820001CBD0000000002400008024000100240C1
:105830000014024070B504460D4604213E48FEF7B0
:1058400059F8642004F07AFF012D35D1092C32D2A9
:10585000DFE804F031050A0F141A20262C00082175
:105860003648FEF747F826E040213548FEF742F873
:1058700021E080213248FEF73DF81CE04FF48071B2
:105880002F48FEF737F816E04FF400712C48FEF76A
:1058900031F810E04FF480612948FEF72BF80AE058
:1058A0004FF400512548FEF725F804E00121254872
:1058B000FEF720F800BF37E07DBB092C33D2DFE8CC
:1058C00004F032050A0F141A20262D0008211B4867
:1058D000FEF70EF827E040211948FEF709F822E00C
:1058E00080211748FEF704F81DE04FF4807114483A
:1058F000FDF7FEFF17E04FF400711148FDF7F8FFC8
:1059000011E04FF480610E48FDF7F2FF0BE04FF419
:1059100000510A48FDF7ECFF05E005E001210948C8
:10592000FDF7E6FF00BF00BF642004F007FF04217D
:105930000148FDF7DDFF70BD001002400008024085
:10594000001402400000024010B5012405E00121CE
:105950002046FFF76FFF601CC4B2082CF7DD10BDB6
:1059600010B5FF2408211E48FDF7B9FF08B904F05F
:10597000FE0440211B48FDF7B2FF08B904F0FD0406
:1059800080211848FDF7ABFF08B904F0FB044FF481
:1059900080711448FDF7A3FF08B904F0F7044FF431
:1059A00000711048FDF79BFF08B904F0EF044FF4B5
:1059B00080610C48FDF793FF08B904F0DF044FF451
:1059C00000510748FDF78BFF08B904F0BD04012121
:1059D0000548FDF784FF08B904F07F04204610BD98
:1059E00000080240001402400000024010B52DEDF6
:1059F000048BB0EE408AF0EE608A9FED0A0B53EC08
:105A0000102B51EC180B08F057F941EC190B9FEDD6
:105A1000070B53EC102B07F07FFE41EC100BBDEC95
:105A2000048B10BD3D0AD7A31894E1408FC2F5281E
:105A30005C8771402DE9F0430024002500273C4994
:105A400009884A1EE019002104F018FA00BF00BFBF
:105A500000BF2AE004EB4400364911F810807819A1
:105A600087B2002532480088A04200DC1EE00026F4
:105A700012E0601C84B2681C85B22D480088A042E8
:105A800000DC0CE004EB44002A4911F8100040450A
:105A900000D004E0701C86B2B6F57A7FE9DB00BF67
:105AA0006A1E0021384605F0EFFFD3E700BF00244F
:105AB0000025002737E004EB44001E4911F8108050
:105AC00004EB440001EB400090F80190781987B294
:105AD000002517480088A04200DC25E0002619E0D8
