:020000040800F2
:1000000008EC01203D030008892A00081129000896
:100010006D2A0008E71100082945000800000000CB
:100020000000000000000000000000008502000841
:10003000A115000800000000D90200084D76000854
:100040005703000857030008570300085703000828
:100050005703000857030008570300085703000818
:100060005703000857030008570300085703000808
:1000700057030008570300086D120008B912000862
:1000800057030008570300085703000857030008E8
:1000900057030008570300085703000857030008D8
:1000A00057030008570300085703000857030008C8
:1000B00057030008570300085703000857030008B8
:1000C00057030008570300085703000857030008A8
:1000D00057030008253D000857030008B93D0008F4
:1000E0005703000857030008570300085703000888
:1000F0005703000857030008570300085703000878
:100100005703000857030008570300085703000867
:10011000913C0008570300085703000857030008E4
:100120005703000857030008570300085703000847
:100130005703000857030008570300085703000837
:100140005703000857030008570300085703000827
:100150005703000857030008E1120008193F000880
:100160005703000857030008570300085703000807
:1001700057030008570300085703000857030008F7
:10018000570300085703000800F002F800F06AF86F
:100190000AA090E8000C82448344AAF10107DA45E2
:1001A00001D100F05FF8AFF2090EBAE80F0013F0CA
:1001B000010F18BFFB1A43F001031847AC8C000075
:1001C000CC8C00000A444FF0000C10F8013B13F0F7
:1001D000070408BF10F8014B1D1108BF10F8015BA0
:1001E000641E05D010F8016B641E01F8016BF9D193
:1001F00013F0080F1EBF10F8014BAD1C0C1B09D1EA
:100200006D1E58BF01F801CBFAD505E014F8016B5B
:1002100001F8016B6D1EF9D59142D6D370470000ED
:100220000023002400250026103A28BF78C1FBD8FF
:10023000520728BF30C148BF0B607047732900F0D8
:100240001484002070471FB508F074FC00F09EFE77
:1002500004000020002107F085FE401C60601FBDE7
:1002600010B510BD00F05EFE1146FFF7ECFF05F083
:1002700019FD00F085FE03B4FFF7F2FF03BC05F0A3
:10028000E2F900002A4B19680868B0E8F04F80F3E3
:100290000988BFF36F8F4FF0000080F3118870471B
:1002A0000000000006480068006880F3088862B615
:1002B00061B6BFF34F8FBFF36F8F00DF00BF00BF8A
:1002C00008ED00E0DFF80C00016841F47001016006
:1002D000704700BF88ED00E0EFF30980BFF36F8F38
:1002E000134B1A681EF0100F08BF20ED108A20E98A
:1002F000F04F106008B44FF0BF0080F31188BFF3D7
:100300004F8FBFF36F8F07F011F94FF0000080F3AC
:10031000118808BC19680868B0E8F04F1EF0100F8B
:1003200008BFB0EC108A80F30988BFF36F8F704765
:10033000EC000020EFF3058070470000094880477B
:1003400009480047FEE7FEE7FEE7FEE7FEE7FEE7B7
:10035000FEE7FEE7FEE7FEE704480549054A064BCF
:1003600070470000FD3900088901000808E60120F7
:1003700008EC012008E8012008E80120704700008F
:100380000FB4044910B503AA029800F073FB10BC27
:100390005DF814FB300100200FB41CB5074B06AA12
:1003A0007B4469460090059800F035FB00206946C3
:1003B00000F044FB1CBC5DF814FB00009906000033
:1003C00070B50C460546012A05D02878800600D570
:1003D000EA69002302E0012305E05B1C934202D29C
:1003E000E05C0028F9D1A869E618C01AA861286A5B
:1003F000184428622846AFF3008004E0D5E90121C3
:1004000014F8010B9047B442F8D32846AFF30080AC
:1004100070BD2DE9F0474FF0000A89460446C0F848
:1004200020A02046E1688847002876D0252806D0FD
:10043000D4E901219047206A401C2062F1E7E1687D
:10044000204600258847C4F81CA006460027C4F8AB
:1004500018A02A2E09D0304605F0EEF838B304EB88
:100460008708303EC8F8186019E059F8041B204688
:1004700004EB87029161E1688847012F064618D195
:10048000E069002820DA25F020051DE0D8F81800E2
:1004900000EB800006EB40003038C8F8180020461A
:1004A000E1688847064605F0C7F80028EED1012F1D
:1004B0000AD02E2E08D12046E16888477F1C0646C8
:1004C000022F45F02005C4DBA069002803DA404272
:1004D00045F00105A061E80701D025F01005B6B18F
:1004E000A6F14100192802D8203645F400654A4695
:1004F0003146204625604D46FFF7A0FE58B1012841
:1005000006D0ED1D25F0070000F1080989E704E099
:1005100005F1040985E730468AE7206ABDE8F087DF
:100520000FB400B58DB010A9099000910B904FF059
:10053000FF300A9000200C90064878440690064848
:1005400078446A4607900F9909A800F0B9FA0DB0EF
:100550005DF814FBA3050000BB0500002DE9FF5F5B
:100560001D464FF0FF3B91464FF000085F46D5E92E
:100570000146A96901987F1C8847296A82468847F5
:100580000028F6D1BAF1FF3F0CD0002E24F4C0644D
:1005900019DD600614D5BAF12B0F09D0BAF12D0F71
:1005A0000ED103E0584604B0BDE8F09F44F48064E7
:1005B000A96901987F1C8847761E8246002E02DDBD
:1005C000BAF1300F03D0B9F1000F26D032E0A9699B
:1005D000761E01987F1C44F400748847002E8246E2
:1005E00005DDBAF1780F06D0BAF1580F03D0B9F192
:1005F000000F10D01EE0B9F1000F02D0B9F1100FBA
:1006000018D1A969761E01987F1C24F400748847CC
:100610008246102002E0082000E00A20814609E01E
:10062000A96908FB0908761E01987F1C44F4007430
:1006300088478246002E05DD4946504600F02CFAD8
:100640000028EDDAE96901988847A00502D46FF027
:100650000100A8E7E00725D1600613D5600502D5A3
:10066000C8F1000000E0404629680A1D2A600968B8
:10067000220501D5087015E0220701D5088011E098
:1006800008600FE02868011D29600068210502D577
:1006900080F8008006E0210702D5A0F8008001E084
:1006A000C0F8008038467EE72DE9FF5F4FF0000874
:1006B0009946144646469169D2E901A7DDF838B05B
:1006C00001988847054659EA0B0005D009E0A16961
:1006D0000198761C88470546216A284688470028E5
:1006E000F5D1681C03D05FEACA7005D015E04FF061
:1006F000FF3004B0BDE8F09F2068011D2160D0F8F4
:1007000000800AE05FEACA7001D108F8015BA169C4
:10071000761C01987F1E88470546002F1ADD681C4D
:1007200018D0B9F1000F0DD0E81705EBD0604211D9
:1007300020F01F0059F822102A1A0120904001428F
:10074000E0D107E0BBF1000FDCD12846216A8847E1
:100750000028D7D0E16901988847BBF1000F07D185
:10076000002E05DD5FEACA7002D1002188F8001072
:10077000A068B84203DDBBF1000F03D017B16FF0E2
:100780000100B6E73046B4E730B505460B462A46C9
:1007900013F8014B12F8010B08B1A042F8D01CB1BC
:1007A000002802D06D1CF1E7284630BD10B5431C6F
:1007B00002E010F8011B71B18107FAD14FF001324C
:1007C00002C88C1A8C4314EAC211F9D0C01A0A0666
:1007D00003D0C01E10BDC01A10BD0A0401D0801E77
:1007E00010BD0902FCD0401E10BD032A40F230802B
:1007F00010F0030C00F0158011F8013BBCF1020F62
:10080000624498BF11F801CB00F8013B38BF11F8E2
:10081000013BA2F1040298BF00F801CB38BF00F8F9
:10082000013B11F0030300F07B81083AC0F008801F
:1008300051F8043B083A51F804CBA0E80810F5E75A
:10084000121D5CBF51F8043B40F8043BAFF300803D
:10085000D20724BF11F8013B11F801CB48BF11F8B2
:10086000012B24BF00F8013B00F801CB48BF00F882
:10087000012B704702F0FF0343EA032242EA0242DF
:1008800000F002B84FF000020429C0F0128010F00E
:10089000030C00F01B80CCF1040CBCF1020F18BF5C
:1008A00000F8012BA8BF20F8022BA1EB0C0100F0EF
:1008B0000DB85FEAC17C24BF00F8012B00F8012BC2
:1008C00048BF00F8012B70474FF0000200B51346F7
:1008D00094469646203922BFA0E80C50A0E80C5060
:1008E000B1F12001BFF4F7AF090728BFA0E80C5011
:1008F00048BF0CC05DF804EB890028BF40F8042B0A
:1009000008BF704748BF20F8022B11F0804F18BF76
:1009100000F8012B704710B5044610F0030F08BF14
:1009200011F0030F40F015804FF0013E121FC0F28E
:100930000E8051F8043BA3EB0E0C2CEA030C1CEACE
:10094000CE1C08BF40F8043BF0D0A1F1040102F135
:100950000402521E08DB11F8013B002B00F8013B9A
:10096000F7D11146FFF78EFF204610BD4FF0013C36
:1009700050F8042B51F8043B9A4221D1A2EB0C030E
:10098000934313EACC1317D150F8042B51F8043BCE
:100990009A4215D1A2EB0C03934313EACC130BD16B
:1009A00050F8042B51F8043B9A4209D1A2EB0C03F6
:1009B000934313EACC13DBD04FF00000704700BF25
:1009C000D01A01BAB1FA81F101F0180122FA01F04E
:1009D000CB40C1F12001DBB2C0B2C01A2CFA01F346
:1009E000D11A914311EAC311E6D17047704770479D
:1009F0007047704710B500F0C5F8006810BD10B51D
:100A0000044600F0BFF8046010BD000001694A1CF4
:100A100002610878704700B58FB0CDE9013100213F
:100A2000059105497944CDE9031011466846FFF761
:100A3000F0FC0FB000BD0000E5FFFFFF0A6802F800
:100A4000010B0A60704710B5436913B1AFF3008022
:100A500001E0FFF7B5FC012010BD127800F1240180
:100A60000A7000224A700122EDE711684FF0FF3250
:100A7000E9E70000074B70B50D467B44FFF7CBFF5D
:100A80000446284600F046FA10B14FF0FF3070BD22
:100A9000204670BD974F00003A2800D2303820F031
:100AA0002002412A01D3A2F13700884201D34FF03E
:100AB000FF30704702681144137801601846704790
:100AC000D16005497944516104497944116200219A
:100AD0001161114600F064B8EDFFFFFFBF00000098
:100AE000426842B1016811F8013B23B1521EC0E9CE
:100AF0000012184670470121C160881E7047426885
:100B00005AB1C368016843B983688B4205D0491E56
:100B1000521CC0E90012002070474FF0FF307047B0
:100B200010B5203AC0F00B80B1E81850203AA0E888
:100B30001850B1E81850A0E81850BFF4F5AF5FEABC
:100B4000027C24BFB1E81850A0E8185044BF18C96F
:100B500018C0BDE810405FEA827C24BF51F8043B16
:100B600040F8043B08BF7047D20728BF31F8023B6A
:100B700048BF11F8012B28BF20F8023B48BF00F8FE
:100B8000012B704700487047A8E5012010B50446C6
:100B900000F0EEF90068005D00F0010010BD0000FB
:100BA0002DE9F34F4FF0000A0C4656468DB0012058
:100BB0000C9001F10C000B9062690B980121904799
:100BC00005002DD0252D2CD0216A8847C0B162693F
:100BD0000B9801219047216A88470028F7D1626964
:100BE000411E0B98904700E0761CA1690D9888473C
:100BF000216A88470028F7D1E1690D988847DBE72B
:100C0000A1690D988847A842074601D1761CD3E711
:100C1000E1690D9888477F1C02D1BAF1000F6FD0AF
:100C20006BE162690B9800273D46394690472A28B8
:100C300004D162690B98012190470125DFF8D08229
:100C400062690B9801219047A0F130010A290AD26C
:100C50004745E5DC07EB870100EB4107303FDFD478
:100C600045F01005ECE7E90601D46FF000476C2869
:100C70000AD04C2814D0682815D06A280DD07428C2
:100C80001CD07A281AD01DE062690B980121904788
:100C90006C2802D045F0040514E045F002050DE093
:100CA00045F020050AE062690B9801219047682809
:100CB00002D045F0080505E045F4006562690B982F
:100CC00001219047C4E9015765283DD019DC582817
:100CD0007AD00CDC452837D004DC252826D04128E2
:100CE0009ED131E046282FD0472899D12CE05B28AF
:100CF00077D0612828D063287CD0642823D15AE09B
:100D0000F6E06F2848D008DC66281DD067281BD085
:100D1000692821D06E2816D127E0702845D0732885
:100D200068D0752847D078280DD14DE0A1690D987D
:100D30008847252805463FF469AFE1690D98884743
:100D40006D1C3FF46AAFD8E00D9923466A466FF0F8
:100D50000100AFF30080C5E045F0400023464FF0AE
:100D600000026060A80736D43EE0E8077FF447AF92
:100D70002068011D21600068290501D506701BE768
:100D8000290701D5068017E7A90703D5F117C0E9A0
:100D9000006111E706600FE745F0400023464FF081
:100DA00008026060A80716D41EE040F60E0125EA8E
:100DB0000100606016E045F0400023464FF00A0253
:100DC0006060A80707D40FE045F040006060A80706
:100DD00008D5234610220D996FF00100AFF3008073
:100DE00080E007E0102223460D996FF00100FFF725
:100DF000B5FB77E04FF0000963284F46C8464B46E5
:100E0000CB4602D05B2806D038E0E80601D40120AA
:100E1000A060012732E06269D4F80CB00B98012180
:100E200090475E2807D14FF0010949466269D4F81E
:100E30000CB00B989047216939B900210A4603ABE1
:100E400043F82120491C0829FADBD8B3216949B3AA
:100E500008F1010862690B98012190475D28F4D1DF
:100E6000B9F1000F09D0002003A951F82020D24386
:100E700041F82020401C0828F7DB03AB206900283C
:100E800020794FEA40701ED05B462246CDF80080A4
:100E9000CDE901970D9900286FF0010020DAAFF33A
:100EA00000801FE0C11703AA00EBD1614B1121F0B4
:100EB0001F0102EB8302411A13680120884003439B
:100EC0001360C7E719E00D99224600286FF0010072
:100ED000009702DAAFF3008004E0FFF7E5FB01E0E2
:100EE000AFF3008000280ADA401C06D10C9820B12C
:100EF0004FF0FF300FB0BDE8F08F5046FAE7E9073A
:100F000001D10AF1010A064400200C9054E60000C9
:100F1000CCCCCC0C007B00F08000704700487047C0
:100F2000A8E501207546FFF7F9FFAE4605006946C2
:100F3000534620F00700854618B020B5FFF70CFA9D
:100F4000BDE820404FF000064FF000074FF00008CA
:100F50004FF0000B21F00701AC46ACE8C009ACE84B
:100F6000C009ACE8C009ACE8C0098D467047000074
:100F700010B500F00BF8001D10BD00BFE96F0000B8
:100F80000446AFF300802046FFF775F9004870472C
:100F9000C8E50120704710B502461078002305E02F
:100FA000541C2246247860405C1CE3B24C1E9C42D8
:100FB000F6DC10BD10B500F061F800F0B7F810BD18
:100FC00010B5002008490870487064210648801C4C
:100FD000FFF758FC00200549087048706421034859
:100FE000801CFFF74FFC10BD340100209A01002047
:100FF0001FB5FFF7DFFFFFF7E3FF0322002101200A
:1010000006F062FB104908600846006830B1002312
:101010001A4619460C48006806F05AFC0022642162
:101020001E2006F051FB0949086000200623CDE987
:101030000030029003464FF4906205A103900948E6
:1010400006F072FD1FBD00001000002014000020FB
:1010500042616C6C617374436F6D6D315461736B7D
:1010600000000000E570000810B504466421A01CD3
:10107000FFF708FC00202070607010BD00B587B03D
:101080000121042001F076FE0121C80401F092FE46
:1010900008220A21234800F081FF08220B21214861
:1010A00000F07CFF4FF44060059002208DF818009E
:1010B0008DF8190000208DF81A0001208DF81B0012
:1010C00005A9184800F022FF4FF4164001900020B7
:1010D000ADF80800ADF80A00ADF80C00ADF810004E
:1010E0000C20ADF80E0001A90F4802F0D5FF012138
:1010F0000D4802F06DFF012240F225510A4802F02E
:10110000A6FF34208DF800000F208DF8010000208C
:101110008DF8020001208DF80300684601F0B6FC4E
:1011200007B000BD00080240004C004000B591B07F
:101130000121480501F01EFE224800F00DF900BF14
:10114000204800F0B5F90028FAD14FF00060029075
:101150001D4803901D4804904020059000200690F3
:1011600007904FF480600890002009900A900B903F
:101170004FF480300C9000200D9003200E90002042
:101180000F90109002A90F4800F0DCF90122102105
:101190000C4800F0B9F9012280210B48001F02F031
:1011A00023FF0F208DF804008DF8050000208DF836
:1011B000060001208DF8070001A801F067FC11B0BE
:1011C00000BD000070600240044C00403601002069
:1011D000014600BF080900EB8000420001F00F004B
:1011E0001044C0B2704700BFFEE7F0B50346144696
:1011F000012901D0022901D10C315B1E4D1C05EBE8
:101200004505052695FBF6F5022606FB0146354405
:101210001D441846DE1703EB967605EBA6056426FB
:1012200093FBF6F6AD1B4FF4C87693FBF6F6354408
:10123000072695FBF6F706FB1752072A13D2DFE8BD
:1012400002F00406080A0C0E10000120F0BD022076
:10125000FCE70320FAE70420F8E70520F6E706207C
:10126000F4E70720F2E70020F0E7000008B50020CF
:1012700000904FF0C0510D4800F024F9012813D11F
:101280004FF0C051094800F041F86946084800682D
:1012900006F0E5FB009838B14FF080500549086032
:1012A000BFF34F8FBFF36F8F08BD0000586002403F
:1012B0002000002004ED00E010B50649064800F0CB
:1012C00025F800231A4619460448006806F000FB7A
:1012D00010BD0000200000207060024010000020BF
:1012E00010B54FF02051074800F010F800210548D4
:1012F00000F026F800231A4619460348006806F055
:10130000E7FA10BDB8640240180000200246094BFD
:101310009A4201D2084801E00648103801F0005313
:101320001BB1064B0B40C36002E0044B0B408360D3
:101330007047000010640240006002407D0F7D0F86
:1013400021B1026842F00102026003E0026822F06B
:101350000102026070470000016821F00101016094
:101360000021016041608160C16001612121416112
:101370004A49884204D13D21484A103A91608CE0A4
:1013800046491831884205D14FF47461434A103AF6
:10139000916082E041493031884205D14FF47411A7
:1013A0003E4A103A916078E03C494831884205D184
:1013B0004FF07461394A103A91606EE037496031FC
:1013C000884204D13649354A103AD16065E0334944
:1013D0007831884204D13349304A103AD1605CE018
:1013E0002E499031884204D12F492C4A103AD160BD
:1013F00053E02A49A831884205D14FF03D51274A90
:10140000103AD16049E02949884204D13D21274A58
:10141000083A116041E025491831884205D14FF45E
:101420007461224A083A116037E02049303188421D
:1014300005D14FF474111D4A083A11602DE01B4983
:101440004831884205D14FF07461184A083A11605A
:1014500023E016496031884204D11149134A121F12
:1014600011601AE011497831884204D10D490F4AC0
:10147000121F116011E00D499031884204D10A49D0
:101480000A4A121F116008E00849A831884204D1B5
:101490004FF03D51054A121F116070471060024025
:1014A0003D000020400F002000003D20106402405D
:1014B000014600200A6802F001020AB1012000E0A2
:1014C0000020704730B503460A46002000240B4D2B
:1014D000AB4201D20A4901E00849103902F0005537
:1014E0000DB14C6800E00C68064D2C4004EA020582
:1014F0000DB1012000E0002030BD0000106402406A
:10150000006002407D0F7D0F10B501F080034BB1EC
:1015100022B1436943F08003436103E0436923F050
:101520008003436180290BD02AB1036801F01E04B7
:101530002343036004E0036801F01E04A343036037
:1015400010BD000010B500220268134B1A40CC6891
:101550000B6823434C6923438C692343CC692343A1
:101560000C6A23434C6A23438C6A23434C6B23430A
:101570008C6B23431A430260426922F00702D1E9CF
:101580000B3423431A4342610B6943604B68836009
:101590008B68C36010BD00003F801CF04160704745
:1015A0007047000010B500200449087048703221CF
:1015B0000248801CFFF766F910BD0000800400207F
:1015C00010B5002008490870487064210648801C46
:1015D000FFF758F900200549087048706421034856
:1015E000801CFFF74FF910BD6602002000020020AA
:1015F0001FB500F0E9F8FFF7E3FF03220021012007
:1016000006F062F8104908600846006830B100230F
:101610001A4619460C48006806F05AF9002266215D
:10162000082006F051F80949086000200423CDE99C
:101630000030029003464FF4906205A103900748E2
:1016400006F072FA1FBD0000180000201C000020E8
:10165000456C6563745461736B0000003971000858
:1016600010B504466421A01CFFF70CF9002020707F
:10167000607010BD00B587B00121022001F07AFB37
:101680000121102001F0A6FB07220621234800F0CB
:1016900085FC07221146214800F080FCC0200590FF
:1016A00002208DF818008DF8190000208DF81A001E
:1016B00001208DF81B0005A9184800F027FC4FF405
:1016C000165001900020ADF80800ADF80A00ADF802
:1016D0000C00ADF810000C20ADF80E0001A9104868
:1016E00002F0DAFC01210E4802F072FC012240F205
:1016F00025510B4802F0ABFC25208DF800000F208F
:101700008DF8010000208DF8020001208DF8030003
:10171000684601F0BBF907B000BD000000040240BC
:101720000010014000B591B00121880501F022FBB5
:101730002248FFF711FE00BF2048FFF7B9FE00283E
:10174000FAD14FF0006002901D4803901D480490AC
:10175000402005900020069007904FF4806008908C
:10176000002009900A900B904FF480300C900020DC
:101770000D9003200E9000200F90109002A90F48AA
:10178000FFF7E0FE012210210C48FFF7BDFE012209
:1017900080210B48001F02F027FC46208DF8040032
:1017A0000F208DF8050000208DF8060001208DF82F
:1017B000070001A801F06AF911B000BDB864024049
:1017C000041001400202002010B5FFF753FFFFF79D
:1017D000A9FF10BD51B18200A2F1C042126842F0CF
:1017E00001038200A2F1C042136009E08200A2F16D
:1017F000C0421268034B1A408300A3F1C0431A6031
:1018000070470000FEFF0F0030B5002100220023CA
:101810000468A400A4F1C0442168444C2140D0E9EC
:1018200001452C43C5682C4305692C4345692C436D
:1018300085692C43C5692C43056A2C43456A2C43B2
:10184000856A2C43C56A2C43056B2C4321430468ED
:10185000A400A4F1C04421608468082C0BD1046862
:10186000A400A4F1C044246844F040050468A40026
:10187000A4F1C04425600468641CA400A4F1C04421
:10188000226802F04042446B2468456B6D6844EA6C
:101890000514456BAD6844EA0524456BAD8944EAFF
:1018A0000544456B2D8A44EA0554456B2D7D44EA79
:1018B0000564456BAD692C4322430468641CA40095
:1018C000A4F1C0442260C46AB4F5804F24D10468F6
:1018D000A400A4F1C044D4F8043103F04043846B65
:1018E0002468856B6D6844EA0514856BAD6844EA2D
:1018F0000524856B2D8A44EA0554856B2D7D44EAC9
:101900000564856BAD692C4323430468A400A4F1EE
:10191000C044C4F8043107E06FF070450468A400C7
:10192000A4F1C044C4F8045130BD00008000F7FFAA
:1019300010B50446AA200A490880552009490880A4
:10194000802007490880AA20088055200549088082
:1019500050214FF0C8400153801100F005F810BD30
:10196000AA0A00645405006430B501460022002331
:10197000012418E0491E4FF0C8400288038802F095
:10198000400003F04005A84201D1002030BD4FF0D7
:10199000C8400288038802F0400003F04005A842D6
:1019A00001D10020F2E709B1002CE3D101B90324F1
:1019B0002046EBE700B599B00121782001F0DAF973
:1019C0000121084601F0E6F94CF20370179002205D
:1019D0008DF8600000208DF8620003208DF8610012
:1019E00001208DF8630017A9954800F08FFA4FF693
:1019F0008070179017A9934800F088FA4FF23F00C3
:101A0000179017A9904800F081FA3F20179017A966
:101A10008E4800F07BFA4FF46050179017A9884861
:101A200000F074FA3820179017A9864800F06EFA73
:101A30003020179017A9824800F068FA4FF4007020
:101A4000179017A9814800F061FA0C2200217C4808
:101A500000F0A4FA0C220121794800F09FFA0C2230
:101A60000421774800F09AFA0C220521744800F00E
:101A700095FA0C220821724800F090FA0C220921F4
:101A80006F4800F08BFA0C220A216D4800F086FAAC
:101A90000C220B216A4800F081FA0C22114668489A
:101AA00000F07CFA0C220D21654800F077FA0C2238
:101AB0000E21634800F072FA0C220F21604800F0FA
:101AC0006DFA0C2203215F4800F068FA0C22042111
:101AD0005C4800F063FA0C2205215A4800F05EFAD7
:101AE0000C220721574800F059FA0C2208215548CA
:101AF00000F054FA0C220921524800F04FFA0C224F
:101B00000A21504800F04AFA0C220B214D4800F0FF
:101B100045FA0C2211464B4800F040FA0C220D21E8
:101B2000484800F03BFA0C220E21464800F036FAF5
:101B30000C220F21434800F031FA0C2200214248C8
:101B400000F02CFA0C2201213F4800F027FA0C2269
:101B500002213D4800F022FA0C2203213A4800F00D
:101B60001DFA0C220421384800F018FA0C22052135
:101B7000354800F013FA0C221146334800F00EFAF3
:101B80000C220D21304800F009FA0C220E212E48BB
:101B900000F004FA0C220F212B4800F0FFF90C2270
:101BA00000212A4800F0FAF90C220121274800F010
:101BB000F5F90C220221254800F0F0F90C2203214E
:101BC000224800F0EBF90C220421204800F0E6F94D
:101BD0000C2205211D4800F0E1F90C2209211B48C7
:101BE00000F0DCF90B2001900020029012200390FD
:101BF00000200490059006904FF08050079002203E
:101C000008900020099008200A9010200B900020D6
:101C10000C900E900F9010904FF480501190002077
:101C200012901390149001A81590169008A8FFF731
:101C3000EBFD01210220FFF7CDFD19B000BD000032
:101C4000000C024000100240001402400018024044
:101C500010B5AA23094C23805523094C2380F02476
:101C60004FF0C8435C5206E04FF0C8435B5A20F87F
:101C7000023B891C521E002AF6D110BDAAAA00649C
:101C800054550064F0B504460D461646012700BFC2
:101C900034F8021B284600F009F80746AD1C761EF2
:101CA0000FB9002EF4D13846F0BD000030B505461E
:101CB0000C46AA2007490880552007490880A02023
:101CC000044908804FF0C84044534014FFF74CFECD
:101CD00030BD0000AA0A00645405006400B52DED73
:101CE000108B8DB0B0EE40AAF0EE60AAB0EE418A43
:101CF000F0EE618AB0EE429AF0EE629A53EC192B44
:101D00009FED720B51EC100B06F01EFC41EC1E0B0C
:101D10009FED700B53EC102B06F016FC41EC1D0BE5
:101D20009FED6E0B53EC102B06F0F2F941EC1C0BFF
:101D3000B0EE4C0AF0EE6C0A03F006F8B0EE40BAD2
:101D4000F0EE60BA9FED670B53EC102B51EC1B0BC0
:101D500006F0FAFB53EC192B9FED640BCDE90A0159
:101D600051EC100B06F0F0FB41EC1E0B9FED590BF4
:101D700053EC102B06F0E8FB41EC1D0B9FED570BCD
:101D800053EC102B06F0C4F941EC1C0BB0EE4C0ADE
:101D9000F0EE6C0A02F0D8FFB0EE40BAF0EE60BA96
:101DA0009FED540B53EC102B51EC1B0B06F0CCFBAE
:101DB00053EC182B9FED4D0BCDE9060151EC100BA8
:101DC00006F0C2FB41EC1E0B9FED420B53EC102BB7
:101DD00006F0BAFB41EC1D0B9FED400B53EC102BB2
:101DE00006F096F941EC1C0BB0EE4C0AF0EE6C0AD2
:101DF00002F0AAFFB0EE40BAF0EE60BA9FED3F0BE2
:101E000053EC102B51EC1B0B06F09EFB9FED310B9E
:101E100053EC102BCDE9020151EC180B06F094FBAA
:101E200041EC1F0B9FED2D0B53EC102B06F070F9BE
:101E300041EC1E0BB0EE4E0AF0EE6E0A02F084FF8B
:101E4000B0EE40DAF0EE60DA9FED2E0B53EC102B83
:101E500051EC1D0B06F078FB41EC1B0B9FED1F0BAB
:101E600053EC102B51EC1A0B06F07AFD41EC1C0BD5
:101E700053EC1B2B06F074FDCDE900019DED020B28
:101E800053EC102B9DED000B51EC100B06F068FD90
:101E9000CDE904019DED060B53EC102B9DED040BD9
:101EA00051EC100B06F080F8CDE908019DED0A0B0E
:101EB00053EC102B9DED080B51EC100B06F050FD70
:101EC00041EC100B0DB0BDEC108B00BD000000000C
:101ED000000010404AD8124DFB21094000000000CC
:101EE00000806640894160E5D022AB3F00000000E1
:101EF00000000040EE7C3F355EBA03407B14AE47E5
:101F0000E17A943FA4703D0AD7A3FE3FF0B50A469C
:101F100000210023002400BF3DE0012505FA01F364
:101F2000156805EA03049C4234D105684F00032676
:101F3000BE40B543056015794E00B540066835438F
:101F400005601579012D02D01579022D16D185680D
:101F50004F000326BE40B543856055794E00B5401D
:101F6000866835438560456801268E40B5434560E7
:101F7000456896798E40B6B235434560C5684F00D6
:101F80000326BE40B543C560D5794E00B540C6684E
:101F90003543C560491C1029BFD3F0BDF0B50023FF
:101FA00000244D07ED0E02FA05F3CE1000F12005D6
:101FB00055F826504E07F70E0F26BE40B543CF10FA
:101FC00000F1200646F82750CE1000F1200555F804
:101FD000265045EA0304CE1000F1200545F82640BE
:101FE000F0BD418370470183704700001FB500F0CA
:101FF0002FF800F02DFA012005F042FB0E49086091
:102000000022C8210A2005F05FFB0C49086000226D
:10201000C821012005F058FB094908600020082369
:10202000CDE90030029003464FF4086205A1039009
:10203000064805F079FD1FBD200000202400002087
:102040002800002047534D5461736B008D710008C8
:1020500010B500F0BBF800F003F800F065F810BD13
:102060001CB501210A48FFF7BCFF012000908DF844
:10207000040002208DF8050000208DF806000120E4
:102080008DF8070069460248FFF740FF1CBD0000BD
:102090000008024010B532E001211A48FFF7A1FF05
:1020A00040F2771005F03AF901211648FFF79BFF3F
:1020B00040F6C41214A1002001F01CFA00B91EE081
:1020C000FA2005F02BF901210E48FFF78AFFFA20CC
:1020D00005F024F901210B48FFF785FF40F2771046
:1020E00005F01CF901210748FFF77BFF41F64C5230
:1020F0000AA1002001F0FEF900B101E000BFCBE72A
:1021000000BF10BD000802404E4F524D414C2050C0
:102110004F57455220444F574E000000534D532017
:10212000526561647900000000B591B00121480555
:1021300000F020FE2248FFF70FF900BF2048FFF70C
:10214000B7F90028FAD14FF0006002901D480390C3
:102150001D480490402005900020069007904FF401
:1021600080600890002009900A900B904FF4803016
:102170000C9000200D9003200E9000200F901090E6
:1021800002A90F48FFF7DEF9012210210C48FFF7E2
:10219000BBF9012280210B48001F01F025FF0E2012
:1021A0008DF804000F208DF8050000208DF8060042
:1021B00001208DF8070001A800F068FC11B000BDF7
:1021C0005860024004480040EE02002000B587B08D
:1021D0000121022000F0CEFD0121880400F0EAFD7B
:1021E00007220A212448FFF7D9FE07220B212248A3
:1021F000FFF7D4FE4FF44060059002208DF81800E0
:102200008DF8190000208DF81A0001208DF81B00B0
:1022100005A91948FFF77AFE4FF4614001900020AC
:10222000ADF80800ADF80A00ADF80C004FF44070AE
:10223000ADF810000C20ADF80E0001A90F4801F018
:102240002BFF01210D4801F0C3FE012240F2255170
:102250000A4801F0FCFE27208DF800000F208DF8C1
:10226000010000208DF8020001208DF8030068466F
:1022700000F00CFC07B000BD000402400048004024
:1022800010B52DED048BB0EE408AF0EE608A9FED24
:102290000A0B53EC102B51EC180B06F055F941ECDE
:1022A000190B9FED070B53EC102B05F07DFE41EC55
:1022B000100BBDEC048B10BD9A999999E193E14004
:1022C0009CC420B0725876408EB02AE015A003F06E
:1022D00041FD1A4803F03EFD194803F03BFD194843
:1022E00003F038FD18A003F035FD00235A1E01A9A4
:1022F0001F48006805F00CFA012812D11DA101A8A1
:10230000FEF734FB10B901F08FFA0AE01AA101A818
:10231000FEF72CFB10B901F03DF902E017A003F025
:1023200019FDD3E70D0A0D0AC7EBD1A1D4F1C9E815
:10233000D6C3B2CECAFDA3BA00000000088E0008C2
:10234000488D0008A88D00080D0A2020202020209C
:102350005220CDF8B9D8B8B4CEBBD0C5CFA220207A
:1023600020204520CDCBB3F60D0A3E200000000012
:1023700030000020320D0000340D00000D0A20CA8C
:10238000E4C8EBB8F1CABDB2BBD5FDC8B7A3ACC7B2
:10239000EBD6D8D0C2CAE4C8EBA3A10D0A00000056
:1023A00030B5B3B005460C46002340F2E242194670
:1023B0001748006805F0ACF9012827D14FF0C0514B
:1023C0001448FEF7A3FF224629461348FEF70DFAEC
:1023D0001148801E447000210E48FEF7B1FF00BF77
:1023E0000C48FFF765F80028FAD10B48801E4178A9
:1023F0000848FFF7D3F800231A4601A907480068E8
:1024000005F086F901210348FEF79AFF33B030BD8D
:102410002000002058600240EE020020280000202A
:1024200010B50446002020706070C821A01CFEF783
:1024300029FA10BD4278C82A08DA0378821CD154E0
:102440000278521C02704278521C427070470000A1
:1024500010B50020084908704870C8210648801C43
:10246000FEF710FA0020054908704870C82103489B
:10247000801CFEF707FA10BDB6030020EC02002016
:1024800000B58DB0FFF706FEFA2258A158A001F062
:1024900031F828B958A003F05DFC00200DB000BD54
:1024A000FA2252A15BA001F025F820B95DA003F04B
:1024B00051FC0020F2E7FA224CA161A001F01AF8C9
:1024C00020B961A003F046FC0020E7E7FA2247A10B
:1024D00063A001F00FF820B965A003F03BFC0020D9
:1024E000DCE7FA2268A16AA001F004F820B96EA026
:1024F00003F030FC0020D1E7FA223CA171A000F0EB
:10250000F9FF20B972A003F025FC0020C6E74FF4C4
:102510007A7275A178A000F0EDFF20B979A003F0E0
:1025200019FC0020BAE7FA2004F0F8FEFA227BA199
:102530007DA000F0DFFF20B97EA003F00BFC00209F
:10254000ACE74FF47A7229A180A000F0D3FF20B944
:1025500081A0FDF715FF0020A0E740F2E24004F063
:10256000DDFE40F6A66221A180A000F0C3FF20B9E5
:1025700082A003F0EFFB002090E70B2285494FF487
:10258000005000F021FB834B1033824A82A1684641
:10259000FDF702FF41F2883214A1684600F0AAFF5D
:1025A00020B985A003F0D6FB002077E741F64C5216
:1025B00086A1002000F09EFF20B987A003F0CAFB8F
:1025C00000206BE7FA2004F0A9FE01F0D1F9FA220D
:1025D00088A18AA000F08EFF20B98BA0FDF7D0FE65
:1025E00000205BE701F0E8F9012057E74F4B0000BE
:1025F00041540D0A000000000D0A47534DB4AEBF10
:10260000DACDA8D0C5BDD3BFDAD2ECB3A3A3A10D58
:102610000A00000041542B4950523D3537363030C6
:102620000D0A00000D0A47534DCDA8D0C5B2A8CC65
:10263000D8C2CAC9E8D6C3D2ECB3A3A3A10D0A007D
:10264000415445300D0A00000D0ABBD8CFD4C4A3B5
:10265000CABDB9D8B1D5D2ECB3A3A3A10D0A00006D
:1026600041542B4349504D4F44453D310D0A000024
:102670000D0ACDB8C3F7B4ABCAE4C5E4D6C3D2ECF7
:10268000B3A3A3A10D0A00000D0A4F4B0D0A0000D1
:1026900041542B434950434346473D352C322C315E
:1026A0003032342C310D0A000D0A47534DB4ABCAF9
:1026B000E4B2CECAFDC5E4D6C3D2ECB3A3A3A10D48
:1026C0000A00000041542B434C54533D310D0A0085
:1026D0000D0A47534DBBF1C8A1CAB1BCE4D2ECB35B
:1026E000A3A3A10D0A0000002B4350494E3A2052EB
:1026F000454144590000000041542B4350494E3F8E
:102700000D0A00000D0A53494DBFA85245414459D6
:10271000D2ECB3A3A3A10D0A000000002B43524545
:10272000473A20302C31000041542B435245473F5B
:102730000D0A00000D0ACDF8C2E7D7A2B2E1D0C55C
:10274000CFA2D2ECB3A3A3A10D0A000041542B43A6
:10275000474154543D300D000D0A47505253B7D6EF
:10276000C0EBD2ECB3A30D0A0000000041542B4390
:10277000474154543D310D0A000000000D0A4750F6
:102780005253B8BDD7C5D7B4CCACD2ECB3A3A3A138
:102790000D0A0000CC02002041542B4349505354F1
:1027A0004152543D22544350222C222573222C2284
:1027B0002573220D0A0000000D0A544350B8F1CAD7
:1027C000BDB2BBD5FDC8B70D0A0000000D0A434FCE
:1027D0004E4E4543540D0A000D0ACEDEB7A8C1ACDB
:1027E000BDD3B7FECEF1C6F74950B6CBBFDA0D0A5E
:1027F000000000002B43434C4B3A200041542B4334
:10280000434C4B3F0D0A0000BBF1C8A1CDF8C2E715
:10281000CAB1BCE4CAA7B0DC0D0A00002DE9F04340
:10282000E5B004464FF0000800264FF4C87101A837
:10283000FEF74AF82546A87B02F007FF8146687B31
:1028400002F003FF49EA0010C6B200270AE008F1CF
:10285000010000F0FF0815F8011B032900D103E077
:10286000781CC7B2642FF2DB00BF06F112004045AE
:1028700008D004F10F020121C12000F017FA65B061
:10288000BDE8F08301AA314604F10F0000F0F0F832
:10289000E07B30280BD1324601A94FF4804000F094
:1028A000B1F904F029F9204605F05AFB1AE0E07B63
:1028B000312806D1324601A94FF4A04000F0A2F918
:1028C00010E0E07B322806D1324601A94FF4C04027
:1028D00000F098F906E004F10F020121C12000F098
:1028E000E5F9CCE704F10F020121812000F0DEF9C7
:1028F00000BFC4E770477047C17B302906D0C17B59
:10290000312903D0C17B322900D000BF7047704706
:1029100000BFFEE710B586B001AC052209494FF4AF
:10292000805000F051F9022020700A220549601CF5
:10293000FDF7F1FF0321E1720C2101A800F0DCFF9B
:1029400006B010BDE20200201FB500F01FF8002203
:102950003221032004F0B8FE074908600020042358
:10296000CDE90030029003464FF4906203A103903A
:10297000054805F0D9F81FBD44000020456C65638B
:10298000745461736B0000000D2A00081CB501200F
:1029900000908DF8040002208DF8050000208DF8CD
:1029A000060001208DF8070069461548FFF7AEFACA
:1029B00042F20D00009001208DF8040002208DF8F5
:1029C000050000208DF8060001208DF807006946FB
:1029D0000C48FFF79BFA4FF4F860009001208DF847
:1029E000040002208DF8050000208DF8060001206B
:1029F0008DF8070069460448FFF788FA1CBD0000FF
:102A00000000024000080240001402408EB000BFE7
:102A10000023192201A90248006804F079FEF7E7B3
:102A20004400002010B52DED048BB0EE408AF0EE8E
:102A3000608A9FED0A0B53EC102B51EC180B05F03C
:102A400083FD41EC190B9FED070B53EC102B05F0A8
:102A5000ABFA41EC100BBDEC048B10BD3D0AD7A3C3
:102A60001894E1408FC2F5285C87714000BFFEE7F3
:102A700010B50346002004E01C5C22F81040441C02
:102A8000E0B28842F8DB10BD7047000070B500214D
:102A900000230F22C4781CB3174C246804F4E064AC
:102AA000C4F5E064C4F30721C1F10404E3B20A41B0
:102AB00044789C40E1B28478144021430C07210EF5
:102AC0000E4C05786155047804F01F050124AC40D4
:102AD00005786D11AD0005F1E025C5F8004109E06C
:102AE000047804F01F050124AC40054D06787611EA
:102AF00045F8264070BD00000CED00E000E400E069
:102B000080E100E002490143024A11607047000081
:102B10000000FA050CED00E0F0B591B00546002488
:102B200009AA19A12846FDF7FBFC0DF11A0006A918
:102B3000021F05ABCDE90032CDE902108B1F04AABC
:102B400013A109A8FDF7ECFC06281BD19DF8250070
:102B500002F07BFD07469DF8240002F076FD47EA6F
:102B60000010C6B23046FEF733FB0446012000F0E9
:102B7000DBFAA04206D0012000F092F821460120A5
:102B800000F0DEFB11B0F0BD252A732573000000B4
:102B90002568642C2568642C2568642C2568642CC1
:102BA0002568642C2568642C0000000010B50548D9
:102BB000006830B9FEF7FEFE012004F061FD014916
:102BC000086010BD2C01002070B504460D46164665
:102BD000002340F2E24219460948006804F098FDDB
:102BE00001280BD1324621462846FFF731F8002351
:102BF0001A4619460248006804F06AFE70BD0000DB
:102C00002C0100202DE9F04104460D46174601260F
:102C1000002340F2E24219461048006804F078FDB3
:102C2000012818D12046FEF783FE064616B10CA0F7
:102C300003F090F83A4621462846FFF723F8064667
:102C400016B110A003F086F800231A46194603486F
:102C5000006804F03DFEBDE8F08100002C0100207A
:102C60000D0A4E4F525F464C4153482045726173E6
:102C700065536563746F72204572726F72212121F2
:102C8000000000000D0A4E4F525F464C4153482051
:102C90005772697465204572726F7221212100009C
:102CA000014908627047000000000E422DE9F04122
:102CB000C4B006460C461746FC2105A8FDF704FEE5
:102CC00014216846FDF700FE0A2269464FF4805041
:102CD000FFF77AFF02208DF814000A2269460DF1F1
:102CE0001500FDF718FE300902F0B2FF8DF81F0045
:102CF00006F00F0002F0ACFF8DF82000200902F072
:102D0000A7FF8DF8210004F00F0002F0A1FF8DF85D
:102D100022005CB157B1002506E0795D05AA05F1F6
:102D20000F001154681CC5B2A542F6DB04F10F0078
:102D3000C1B205A8FEF72FF980464FEA181002F03D
:102D400087FF05AA04F10F01505408F00F0002F0AC
:102D50007FFF05AA04F110015054032104F1110072
:102D60001154401CC1B205A800F0C6FD44B0BDE836
:102D7000F081000029B1064A12680243044B1A6030
:102D800004E0034A12688243014B1A607047000056
:102D90003038024029B1064A12680243044B1A60D7
:102DA00004E0034A12688243014B1A607047000036
:102DB0003838024029B1064A12680243044B1A60AF
:102DC00004E0034A12688243014B1A607047000016
:102DD0004038024029B1064A12680243044B1A6087
:102DE00004E0034A12688243014B1A6070470000F6
:102DF00044380240F0B500210022002402250026BC
:102E00000223324F3F6807F00C0121B1042905D09D
:102E1000082937D105E02E4F076036E02D4F0760B7
:102E200033E02A4F3F1F3F68C7F38056274F3F1FAD
:102E30003F6807F03F036EB1264FB7FBF3F7DFF8AB
:102E40008CC0ACF1040CDCF800C0CCF3881C07FB90
:102E50000CF40CE01E4FB7FBF3F7DFF870C0ACF1D9
:102E6000040CDCF800C0CCF3881C07FB0CF4174FF3
:102E70003F1F3F68C7F301477F1C7D00B4FBF5F798
:102E8000076002E0124F076000BF00BF0F4F3F68AE
:102E900007F0F0010909104F7A5C0768D7404760D6
:102EA0000A4F3F6807F4E051890A0B4F7A5C476884
:102EB000D7408760054F3F6807F46041490B064FD4
:102EC0007A5C4768D740C760F0BD00000838024010
:102ED0000024F400001BB7000000002010B50146DC
:102EE0000022002300204A11012A02D10A4C236843
:102EF00008E0022A03D1084C7034236802E0064C33
:102F00007434236801F01F02012494401C400CB16A
:102F1000012000E0002010BD003802400021094AD5
:102F200011701170012802D0042808D103E001219A
:102F3000044A117004E00521024A117000E000BF4C
:102F400000BF7047703802400149086070470000B8
:102F50003C0E4742002100F44072B2F5407F08D198
:102F6000094A116821F4F811084A02401143064A3F
:102F70001160054A68321268C0F30B031A43024B12
:102F800068331A607047000008380240FFFCFF0FEA
:102F9000014600BF080900EB8000420001F00F006D
:102FA0001044C0B270470146002204E0501CC2B277
:102FB000A1F10A00C1B20A29F8DA100741EA10604B
:102FC0007047000008B50022009200200021104A3E
:102FD000126802F04002CAB9421E0D4B1A6000BFCF
:102FE0000B4A126802F04001009A521C0092009AAB
:102FF000B2F5803F01D00029F2D0054A126802F0F4
:1030000040020AB1012002E0002000E0012008BDDA
:103010000C2800400348006820F080000149086047
:10302000704700000C28004070B506460C4600258D
:103030000E4800680E4900EA0105280CE070C5F34F
:103040000420607005F03F00A070C5F3423020708E
:103050005EB9E078FFF79CFFE0706078FFF798FFBB
:103060006070A078FFF794FFA07070BD0428004046
:103070003FFFFF0070B506460C4600250F4800686C
:103080000F4900EA0105C5F305402070C5F306208D
:10309000607005F07F00A07005F48000000CE07007
:1030A0005EB92078FFF774FF20706078FFF770FF3B
:1030B0006070A078FFF76CFFA07070BD0028004022
:1030C0007F7F7F0030B504460025CA20154908607F
:1030D00053200860FFF776FF00B91DE011481C3847
:1030E000006820F040000F491C390860084600685D
:1030F000216808430B491C3908600A491439A06843
:10310000086008460068A18840EA01400549143972
:103110000860FFF77FFF0125FF200249086028466D
:1031200030BD00002428004008B501460020009072
:1031300004480090009800EB81000090009800681F
:1031400008BD0000502800402DE9F04105460C461E
:10315000002600274DB9607800F01000102804D137
:10316000607820F010000A30607005B908E06078DF
:10317000FFF70EFF0646A078FFF70AFF064600BFDE
:1031800055B1E0780004617840EA0120A178084355
:10319000217840EA413611E0E078FFF704FF4FEA7A
:1031A00000486078FFF7FFFE48EA0028A078FFF7A4
:1031B000FAFE48EA0008207848EA4036CA20124958
:1031C000086053200860FFF7FDFE08B9002714E0EF
:1031D0000E4830400C4920390860FFF71BFF0A48B1
:1031E0001C38006800F0200030B900F079F808B908
:1031F000002702E0012700E00127FF2002490860C4
:103200003846BDE8F0810000242800403FFFFF0061
:103210002DE9F04105460C46002600274DB92E4801
:10322000006800F0400000B102E00020E07000BF44
:103230000DE02948006800F0400020B12078FFF739
:10324000A7FE064602E00020E07000BF00BF55B1B7
:1032500020780004617840EA0120A1780843E178F1
:1032600040EA014611E02078FFF79DFE4FEA004852
:103270006078FFF798FE48EA0028A078FFF793FEF1
:1032800048EA0008E07848EA0046CA2012491C31A2
:10329000086053200860FFF795FE08B9002713E087
:1032A0000E4830400C4908390860FFF7B3FE0A4861
:1032B000006800F0200030B900F012F808B90027CB
:1032C00002E0012700E00127FF2003491C310860CC
:1032D0003846BDE8F0810000082800407F7F7F006D
:1032E00008B50022009200200021CA22134B1A6068
:1032F00053221A60114A183A126822F0A0020F4BAA
:10330000183B1A6000BF0D4A183A126802F02001FB
:10331000009A521C0092009AB2F5003F01D0002999
:10332000F1D0064A183A126802F020020AB10120D0
:1033300000E00020FF22014B1A6008BD2428004055
:1033400008B500220092044A0092009A02EB800223
:103350000092009A116008BD502800401CB5044638
:10336000002340F2E24219461948006804F0D0F9FF
:1033700001282CD101A90020FFF756FE6946002044
:10338000FFF778FE9DF8020020609DF80100606064
:103390009DF80000A0609DF80600E0609DF8050023
:1033A00020610120FFF7C0FE00EBC00101EB00101F
:1033B0009DF8071001EB800060619DF80400A0619A
:1033C00000231A4619460248006804F081FA1CBD21
:1033D0002401002000B58DB00B2213494FF400509A
:1033E000FFF7F2FB104B10330F4A10A16846FCF7B1
:1033F000D3FF40F6C41215A1684600F07BF828B947
:1034000013A002F0A7FC00200DB000BD41F28832ED
:1034100016A1002000F06EF820B90DA002F09AFC71
:103420000020F1E70120EFE7CC02002041542B43BC
:10343000495053544152543D22544350222C22258A
:1034400073222C222573220D0A0000004F4B00002E
:103450000D0ACEDEB7A8C1ACBDD3B7FECEF1C6F71C
:103460004950B6CBBFDA0D0A000000000D0A434FE9
:103470004E4E4543540D0A000EB5012004F000F9EC
:103480001B49086001210807FFF794FC0120FFF7A2
:1034900007FC0020FFF748FE4AF2A551884225D0DC
:1034A0000120FFF73BFD00BF4120FFF717FD00287B
:1034B000FAD04FF48070FFF74DFD0120FFF744FD77
:1034C0007F200190FF200290002000906846FFF7C7
:1034D000F9FD4AF2A5510020FFF732FF1421012027
:1034E000FFF72EFF20210220FFF72AFF01200EBD4B
:1034F000240100202DE9F043B3B006460C461546E2
:103500000027B84604F09AFB80462CE046B13046CE
:10351000FDF74CF900F0FF0949463046FEF740FF41
:103520000CB9012725E06A08002301A913480068A7
:1035300004F0EEF8012816D1214601A8FDF724F980
:1035400048B10FA12046FDF711FA10B901A800F00B
:1035500009FF01270DE00CA101A8FDF715F910B135
:1035600001A8FFF7D9FA04F069FBA0EB0800A84214
:10357000CCD300BF384633B0BDE8F083280000202C
:103580002B43434C4B3A20002A50535554545A3A3B
:103590002000000000B5A3B0202108A8FDF794F991
:1035A0000020079005900690049074E03CA002F083
:1035B000D1FB49A002F0CEFB4AA002F0CBFB0023D6
:1035C0005A1E10A94848006804F0A2F8012862D1E8
:1035D00046A110A8FDF7CAF900B95DE007AA04AB3F
:1035E000901E06A9CDE90232CDE90010031F05AAFD
:1035F0003FA110A8FCF794FF062849D1BDF914009B
:10360000002841DBBDF91400FF283DDCBDF91600A0
:10361000002839DBBDF91600FF2835DCBDF918009C
:10362000002831DBBDF91800FF282DDCBDF91A0098
:10363000002829DBBDF91A00FF2825DC04980028A2
:1036400022DB0498B0F5803F1EDA9DF81C003B2871
:103650001AD11DAA2CA110A8FCF762FF21AA2CA147
:1036600010A8FCF75DFF10221DA908A8FDF753F96B
:10367000062221A90CA8FDF74EF90F2208A94FF444
:103680000050FFF7BFFA06E025A002F063FB02E05E
:1036900023A002F05FFB89E700BF23B000BD00005C
:1036A0000D0AC7EBCAE4C8EBB7FECEF1C6F7495026
:1036B000B5D8D6B7BCB0B6CBBFDABAC528C0FDC83E
:1036C000E736312E3139302E33382E34362C333024
:1036D0003030303B29A3BA000D0A452ECDCBB3F6CE
:1036E000000000000D0A3E0030000020450D0000E3
:1036F0002568642E2568642E2568642E2568642C50
:103700002564256300000000255B5E2C5D00000041
:10371000252A5B5E2C5D2C255B5E3B5D0000000076
:103720000D0AC7EBCAE4C8EBBACFB7A8B5C4495075
:10373000B5D8D6B7BBF2B6CBBFDA21000CB50020A6
:10374000019000903448006840F4803032490860AD
:1037500000BF3148006800F4003000900198401C20
:103760000190009818B90198B0F5A04FF1D12A48FE
:10377000006800F4003010B10120009001E000204A
:1037800000900098012846D123484030006840F05E
:1037900080502149403108602048006840F4404092
:1037A0001E4908601C48083000681B490831086041
:1037B0000846006840F4004008600846006840F48D
:1037C000A05008601648091F0860081F006840F0F4
:1037D0008070091F086000BF0F48006800F000708B
:1037E0000028F9D040F205700E4908600A480830F8
:1037F000006820F0030008490831086008460068A6
:1038000040F00200086000BF03480830006800F084
:103810000C000828F8D10CBD0038024000700040B0
:103820000C544007003C024030B58DB03CE020A075
:1038300002F090FA23A002F08DFA25A002F08AFA95
:1038400000235A1E69462348006803F061FF0128DF
:103850002AD121A16846FDF789F800B925E068461C
:10386000FCF7A4FF0B281CD100240CE01DF8040079
:10387000302805DB1DF80400392801DC012500E0B3
:103880000025601CC4B20A2CF0DB012D05D10522F5
:1038900069462803FFF7B6F906E010A002F05AFACD
:1038A00002E00EA002F056FAC1E700BF0DB030BD35
:1038B0000D0AC7EBCAE4C8EBCDF8B9D8B5D8D6B76E
:1038C000A3BA00000D0A452ECDCBB3F600000000D0
:1038D0000D0A3E0030000020450D00000D0AC7EB28
:1038E000CAE4C8EBBACFB7A8B5C4CDF8B9D8B5D833
:1038F000D6B7A3A10000000030B5B3B004460D4612
:1039000000231A4601A91448006803F001FF0128AA
:103910001BD112A101A8FDF729F8B0B9FFF75AFD94
:1039200098B9FEF7ADFD80B900BFBFF34F8F0E48C9
:10393000006800F4E0600D490843001D0A49086072
:10394000BFF34F8F00BF00BFFEE729462046FEF7BA
:1039500027FD33B030BD0000280000200D0A434C85
:103960004F5345440D0A00000CED00E00000FA053D
:1039700010B5FA2003F0D2FC4FF4FA6207A108A0B8
:10398000FFF7B8FD20B907A002F0E4F9002010BD50
:10399000FA2003F0C3FC0120F9E700004F4B0000C0
:1039A0002B2B2B00C3FCC1EEC4A3CABDC7D0BBBB2D
:1039B000CAA7B0DC0D00000010B540F2E24206A13B
:1039C00007A0FFF797FD20B907A002F0C3F9002078
:1039D00010BD0120FCE70000434F4E4E454354000C
:1039E00041544F0D0A000000CAFDBEDDC4A3CABD8C
:1039F000C7D0BBBBCAA7B0DC0D00000010B515488E
:103A0000006840F47000134908601348006840F0F3
:103A100001001149086000200F49083108600E4874
:103A200000680E4908400C4908600D48091D0860EF
:103A3000081F006820F48020091F08600020064944
:103A40000C310860FFF77AFE4FF0006001498039C1
:103A5000086010BD88ED00E000380240FFFFF6FE70
:103A600010300024704700008EB023A002F072F9DD
:103A70002DA002F06FF932A002F06CF936A002F02E
:103A800069F93BA002F066F93FA002F063F944A097
:103A900002F060F948A002F05DF94DA002F05AF979
:103AA00029E05AA002F056F95DA002F053F963A094
:103AB00002F050F966A002F04DF968A002F04AF950
:103AC00000235A1E01A96648006803F021FE012860
:103AD00011D164A101A8FCF749FF08B9FEF7F4FB76
:103AE00061A101A8FCF742FF10B9FFF7BBFF02E09C
:103AF0005EA002F02FF9D4E70D0A0D0AB5F7CAD47B
:103B0000C4A3CABD0D0ABACFB7CAB4F3C3F7BDDAAE
:103B1000C4DCBFC6BCBCB9C9B7DDD3D0CFDEB9AB3E
:103B2000CBBEA3BA000000000D0ACDF8B9D8C8ED8D
:103B3000BCFEB0E6B1BEBAC52020A3BA5600000054
:103B40000D0ACDF8B9D8B5D8D6B72020202020202E
:103B50002020A3BA000000000D0ACDF8B9D8B5B1F5
:103B6000C7B0CAB1BCE420202020A3BA00000000E6
:103B70000D0A4750532DBEADB6C82020202020206E
:103B80002020A3BA000000000D0A4750532DCEB3E9
:103B9000B6C82020202020202020A3BA000000004A
:103BA0000D0AC4BFB1EAB7FECEF1C6F74950B5D889
:103BB000D6B7A3BA000000000D0AC4BFB1EAB7FE31
:103BC000CEF1C6F7B6CBBFDABAC5A3BA0000000083
:103BD0000D0A2A2A2A2A2A2A2A2A2A2A2A2A2A2A82
:103BE0002A2A2A2A2A2A2A2A2A2A2A2A2A2A2A2A35
:103BF0002A2A2A2A2A2A2A2A2A2A2A2A2A2A2A2A25
:103C00002A2A2A2A2A2A2A2A2A2A00000D0AC7EB47
:103C1000D1A1D4F1B5F7CAD4C4A3CABDA3BA0000D8
:103C20000D0A312ECDF8B9D8B2CECAFDC9E8D6C337
:103C3000BCB0B2E9BFB4C4A3CABD00000D0A322EA5
:103C4000C8CECEF1B4F2D3A1C4A3CABD0000000017
:103C50000D0A452ECDCBB3F6000000000D0A3E0044
:103C600030000020310D0000320D00000D0A20CA86
:103C7000E4C8EBB8F1CABDB2BBD5FDC8B7A3ACC7A9
:103C8000EBD6D8D0C2CAE4C8EBA3A10D0A0000004D
:103C900038B50020009040F225511E4800F0ADF9E3
:103CA000002836D01B4800F061FAC4B2022C02D1C1
:103CB0001948FDF7D9F9184821464278642A08DAEC
:103CC0000378821CD1540278521C02704278521C34
:103CD000427000BF032C1CD10F484078C01EC1B2F7
:103CE0000D48801CFDF757F900236A460A49891CD4
:103CF0000A48006803F074FE009838B14FF0805015
:103D000007490860BFF34F8FBFF36F8F0248FDF77D
:103D1000ABF938BD004C00403401002014000020F5
:103D200004ED00E038B50020009040F225511E4817
:103D300000F063F9002836D01B4800F017FAC4B22F
:103D4000022C02D11948FDF78BFC18482146427815
:103D5000642A08DA0378821CD1540278521C02705B
:103D60004278521C427000BF032C1CD10F4840788F
:103D7000C01EC1B20D48801CFDF70DF900236A4634
:103D80000A49891C0A48006803F02AFE009838B1E5
:103D90004FF0805007490860BFF34F8FBFF36F8F1C
:103DA0000248FDF75DFC38BD0010014066020020AE
:103DB0001C00002004ED00E01CB50020009040F243
:103DC00025514F4800F019F9002866D04C4800F002
:103DD000CDF9C0B20190012101A801F089FF9DF841
:103DE00004004849497871B9022803D10021464AA4
:103DF000117008E00D2803D10121434A117002E03F
:103E00000221414A117000BF3F480078002845D187
:103E10009DF80400022802D13A48FEF701FB9DF804
:103E200004103848FEF706FB9DF80400032866D10D
:103E300034484078C01EC1B23248801CFDF7ABF850
:103E40000446201101F004FF2E490978C91E2D4AAD
:103E5000921C515C88421DD104F00F0001F0F8FE65
:103E600028490978891E274A921C515C884211D141
:103E700000236A462349891C2448006803F0B0FDEA
:103E8000009838B14FF0805021490860BFF34F8F40
:103E9000BFF36F8F1B48FEF7C3FA30E01A48007873
:103EA00001282CD117484078012806DC9DF8040031
:103EB0000D2802D11348FEF7B3FA9DF804101148FB
:103EC000FEF7B8FA0F484078042818DD9DF8040082
:103ED0000A2814D100236A460A49891C0D48006843
:103EE00003F07EFD009838B14FF08050084908601B
:103EF000BFF34F8FBFF36F8F0248FEF791FA1CBDDF
:103F000000480040B60300202D00002024000020BF
:103F100004ED00E0280000201CB50020009040F2D5
:103F20002551264800F069F8002845D0234800F0C4
:103F30001DF9C0B201909DF804000A2800D11CBDF3
:103F40001F480078012807D19DF804000A2803D0F3
:103F5000012101A801F0CCFE1A489DF80410427816
:103F6000322A08DA0378821CD1540278521C02707B
:103F70004278521C427000BF9DF804000D281BD1EE
:103F800000236A460F49891C0F48006803F028FD8A
:103F9000009838B14FF080500C490860BFF34F8F44
:103FA000BFF36F8F074C3221A01CFCF76BFC002085
:103FB0002070607000BF00BF00BFC0E70014014068
:103FC00040000020800400203000002004ED00E0CC
:103FD00021B1828942F40052828104E082894DF647
:103FE000FF731A40828170471AB1838A0B43838220
:103FF00002E0838A8B438382704770B502460024B7
:1040000000230025002040F66A16B14200D100BF0F
:10401000C1F3421501F01F03012606FA03F3012D37
:1040200002D19689334006E0022D02D1168A334030
:1040300001E0968A33400C12012606FA04F4168831
:10404000344013B10CB1012000E0002070BDF0B588
:104050000346002400260025002040F66A17B942D6
:1040600000D100BF1846C1F3421401F01F0601271A
:1040700007FA06F5012C01D10C3004E0022C01D125
:10408000103000E014301AB107682F43076002E0D7
:104090000768AF430760F0BD2DE9FF4705460E46B0
:1040A0000024A14600BFA046B08900B100BF2C8A01
:1040B00024F44054F08804432C82AC8941F20C6013
:1040C0008443B08831890843718908430443AC8133
:1040D000AC8A24F44074B0890443AC826846FEF78D
:1040E00089FE2048854202D01F48854202D1DDF872
:1040F0000C9001E0DDF80890A88900F4004040B180
:1041000009EBC90000EB091031684900B0FBF1F779
:1041100007E009EBC90000EB091031688900B0FB2A
:10412000F1F76420B7FBF0F004012009642101FBE2
:104130001078A88900F4004040B1322000EBC8009C
:10414000B0FBF1F000F00700044308E0322000EB80
:1041500008106421B0FBF1F000F00F0004432C8143
:10416000BDE8FF8700100140001401400146888827
:10417000C0F30800704710B52DED0C8BB0EE408AEF
:10418000F0EE608AB0EE419AF0EE619AB0EE42AA8B
:10419000F0EE62AAB0EE43BAF0EE63BA53EC1A2B1B
:1041A00051EC190B03F000FF41EC1D0B53EC1B2BE2
:1041B00003F0FAFE41EC1C0B53EC182B04F0F8FA58
:1041C00041EC100BBDEC0C8B10BD10B52DED0C8B24
:1041D000B0EE408AF0EE608AB0EE419AF0EE619A5D
:1041E000B0EE42AAF0EE62AAB0EE43BAF0EE63BAC5
:1041F00053EC1A2B51EC190B03F0D6FE41EC1D0BBE
:1042000053EC1B2B04F0ACFB41EC1C0B53EC182BB8
:1042100004F0CEFA41EC100BBDEC0C8B10BD00008D
:104220001FB5012003F02CFA0B490860002232214F
:104230000A2003F049FA0949086000200223CDE969
:104240000030029003464FF4906205A103900848A5
:1042500003F06AFC1FBD0000340000203000002085
:104260005561727444656275675461736B00000038
:10427000C575000800B587B001210420FEF77AFD5E
:1042800001212020FEF7A6FD082206212F48FDF778
:1042900085FE082207212D48FDF780FE4FF480712E
:1042A0002A48FDF79EFE4FF48070059001208DF89E
:1042B000180002208DF8190000208DF81A00012046
:1042C0008DF81B0005A92148FDF720FEC0200590B0
:1042D00002208DF818008DF8190000208DF81A00C2
:1042E00001208DF81B0005A91848FDF70FFE4FF4BB
:1042F000E13001900020ADF80800ADF80A00ADF8FB
:104300000C00ADF810000C20ADF80E0001A910480B
:10431000FFF7C2FE01210E48FFF75AFE012240F2CC
:1043200025510B48FFF793FE47208DF800000E2023
:104330008DF8010000208DF8020001208DF80300A7
:104340006846FEF7A3FB07B000BD0000000802406E
:104350000014014010B5FFF78DFFFDF723F9FFF7BB
:104360005FFF10BDF0B595B0054600240BAA63A110
:104370002846FCF7D5F809A8811E08AA831FCDE9B5
:104380000132CDE9031007A8831E06AA5DA10090A3
:104390000BA8FCF7C5F8072801D015B0F0BDBDF992
:1043A00024400220FEF7C0FEA04206D00120FEF706
:1043B00077FC21460220FEF7C3FF9DF82E0001F096
:1043C00044F907469DF82D0001F03FF947EA001037
:1043D000C6B23046FCF7FCFE8DF853009DF8310064
:1043E00001F033F907469DF8300001F02EF947EA55
:1043F0000010C6B23046FCF7EBFE8DF851009DF878
:10440000340001F022F907469DF8330001F01DF950
:1044100047EA0010C6B23046FCF7DAFE8DF85200CB
:104420009DF8370001F011F907469DF8360001F0BC
:104430000CF947EA0010C6B23046FCF7C9FE8DF809
:104440004C009DF83A0001F000F907469DF839004C
:1044500001F0FBF847EA0010C6B23046FCF7B8FEA0
:104460008DF84D009DF83D0001F0EFF807469DF8EE
:104470003C0001F0EAF847EA0010C6B23046FCF70B
:10448000A7FE8DF84E000120FEF74EFE00EBC001A6
:1044900001EB00109DF8531001EB80069DF85220AF
:1044A0009DF851103046FCF7A0FE8DF850009DF8A5
:1044B0005300102800DA70E79DF8500000B96CE74F
:1044C000002340F2E24219461648006803F020F942
:1044D000012811D113A90020FEF79AFE14A900208B
:1044E000FEF732FE012002F019FF00231A4619469A
:1044F0000C48006803F0ECF900BF4EE7252A73254D
:1045000073000000222568642F2568642F256864E5
:104510002C2568643A2568643A2568642B2568640C
:10452000220000002401002000BFFEE710B52DEDA1
:10453000048BB0EE408AF0EE608A9FED130B53ECD3
:10454000102B51EC180B04F0FDF80FD89FED100B59
:1045500053EC102B51EC180B03F0DAFD41EC190B66
:1045600003F02EFF401CBDEC048B10BD9FED080B2B
:1045700053EC102B51EC180B03F0CAFD41EC190B56
:1045800003F01EFF401EEEE70000000000000000E8
:104590000000000000002E4003B401984100009884
:1045A00050EAC12018BF04204A0D18BF40F0010096
:1045B00040F2FF72B2EB515F08BF40F002000128E9
:1045C00008BF052002B0704710B5B94A2DED020BA7
:1045D0002DED0C8B82B00F9921F000409FEDB6CBF2
:1045E00090422CDBA0F140530E9AA3F17F631A4353
:1045F0000FD0B349884202DC16D10E98A0B19DEDD0
:104600000E0B02B0BDEC0C8B02B0BDE8104000F008
:10461000E7BF0029C1BF9FEDAC0B02B0BDEC0C8B16
:1046200002B0C8BF10BD16E00120FCF7E8F902B0E7
:10463000BDEC0C8B02B0BDE8104000F0DDBFA44A19
:104640009FEDA59B9FEDA6AB90425EDAA6499FED3C
:10465000A8CB814208DBB0EE4C0AF0EE6C0A02B047
:10466000BDEC0C8B02B010BD9DED0E0B53EC102B6E
:1046700051EC100B03F068FF41EC180B9E4806212B
:10468000B0EE480AF0EE680A784400F095FE53EC6C
:10469000182B51EC100B03F057FF41EC1B0B974804
:1046A000B0EE480AF0EE680A0421784400F084FE77
:1046B00053EC182B51EC100B03F046FF53EC192B65
:1046C00003F072FC41EC100B51EC1B0B53EC102B64
:1046D00003F01EFD41EC100B53EC102B9DED0E0B67
:1046E00051EC100B03F030FF53EC1A2B04F060F880
:1046F0009DED0E1B53EC112B04F05AF853EC1C2BC0
:1047000004F056F841EC100BA9E79FED7D8B9FED6F
:104710007EBB9DED0E0B002953EC192B51EC100BB9
:1047200052DA03F041FC53EC182B03F00DFF41EC7F
:10473000180B77480621B0EE480AF0EE680A784474
:1047400000F03AFE53EC182B51EC100B03F0FCFE7A
:1047500041EC1D0B6F48B0EE480AF0EE680A0421E8
:10476000784400F029FE53EC182B51EC100B03F0A9
:10477000EBFE53EC192B03F017FC41EC190B51EC39
:10478000180B02F0B3FB41EC180B53EC192B51EC56
:104790001D0B03F0BDFC53EC182B03F0D5FE53ECBE
:1047A0001A2B04F0DDF841EC100B51EC180B53EC14
:1047B000102B03F0F9FB53EC1B2B03F0C5FE53EC5D
:1047C0001C2B03F0F5FF6DE003F0F2FF53EC182B08
:1047D00003F0BAFE41EC180B02F088FB41EC1A0B17
:1047E00000208DED00AB00909DED000B51EC1A0BFD
:1047F00053EC102B03F0D8FB9DED000B41EC1C0B90
:1048000053EC102B51EC100B03F09EFE53EC182BC5
:1048100003F0CEFF53EC1C2B03F07AFC41EC1C0B95
:104820003D48B0EE480AF0EE680A0621784400F0F0
:10483000C3FD53EC182B51EC100B03F085FE41EC3B
:104840001D0B3648B0EE480AF0EE680A04217844A1
:1048500000F0B2FD53EC182B51EC100B03F074FE7A
:1048600053EC192B03F0A0FB41EC100B51EC1D0B8A
:1048700053EC102B03F04CFC53EC1A2B03F064FEAA
:1048800053EC1C2B03F090FB41EC100B53EC102B62
:104890009DED000B51EC100B03F086FB53EC1B2B32
:1048A00003F052FE41EC100BD9E6000000000000BE
:1048B0000000F03F00000000182D4454FB21094087
:1048C0000000F07F00000000000000000000000079
:1048D0000000E03F00000000000000000000F03F8A
:1048E000075C143326A6913C0000603C00000000E9
:1048F000182D4454FB21F93FEC440000FA44000019
:10490000000000000000E03F000000000000004048
:104910003644000044440000484300005643000071
:1049200070B5C1482DED020B2DED0E8B82B0119D9F
:1049300025F000449FEDBEDB9FEDBFEB84423EDBE4
:10494000A4F140511098A1F17F6108430FD0BC48F9
:10495000844202DC28D1109830B39DED100B02B0D8
:10496000BDEC0E8B02B0BDE8704000F039BE9DED8D
:10497000100B53EC1D2B51EC100B03F0E5FD9DEDDE
:10498000100B41EC180B53EC1E2B51EC100B03F0E9
:10499000DBFD53EC182B03F007FB41EC100B02B0CE
:1049A000BDEC0E8B02B070BD0120FCF728F802B000
:1049B000BDEC0E8B02B0BDE8704000F01DBEA148FA
:1049C0009FEDA18B844256DA9DED100BB4F1795F17
:1049D0000ADA51EC100BFFF7DFFD042808BF00F0E6
:1049E0001BFE9DED100BDAE753EC102B51EC100B76
:1049F00003F0AAFD41EC190B95480621B0EE490AD7
:104A0000F0EE690A784400F0D7FC53EC192B51EC16
:104A1000100B03F099FD41EC1A0B8E48B0EE490AD9
:104A2000F0EE690A0421784400F0C6FC53EC192B1F
:104A300051EC100B03F088FD53EC182B03F0B4FA83
:104A400041EC100B51EC1A0B53EC102B03F060FBF4
:104A5000CDE900019DED000B53EC102B9DED100BEB
:104A600051EC100B03F070FD9DED101B53EC112B5E
:104A700003F09AFAD2E09DED100B51EC100B00F010
:104A8000BDFF53EC182B03F093FE9FED730BCDE9A4
:104A9000000153EC102B9DED000B51EC100B03F0BB
:104AA00053FD41EC190B6E480621B0EE490AF0EEB9
:104AB000690A784400F080FC53EC192B51EC100B80
:104AC00003F042FD41EC1B0B6648B0EE490AF0EEE4
:104AD000690A0421784400F06FFC53EC192B51EC67
:104AE000100B03F031FD53EC182B03F05DFA41EC91
:104AF0001C0B51EC190B02F0F9F941EC180B5A4858
:104B00009FED5BABA04222DC53EC1C2B51EC1B0B4A
:104B100003F0FEFACDE900019DED000B51EC180BFE
:104B200053EC102B03F010FD53EC182B03F03CFA60
:104B300053EC1A2B03F008FD53EC1D2B03F010FF70
:104B400053EC1E2B03F034FE41EC100B5FE08DEDB7
:104B5000008B002000909DED000B51EC180B53ECE6
:104B6000102B03F021FA9DED000B41EC1E0B53ECD2
:104B7000102B51EC100B03F0E7FC53EC192B03F056
:104B800017FE53EC1E2B03F0C3FA41EC190B53EC48
:104B90001C2B51EC1B0B03F0BBFA41EC1B0B53EC31
:104BA0001A2B51EC190B03F0CFFC53EC1D2B03F027
:104BB000FFFD41EC190B53EC1A2B51EC180B03F0D1
:104BC000C3FC53EC1B2B03F0BFFC53EC192B03F07D
:104BD000C7FE9DED000B41EC180B53EC1A2B51EC6A
:104BE000100B03F0B1FC9FED249B53EC192B03F049
:104BF000DFFD41EC100B51EC180B53EC102B03F0C4
:104C0000AFFE53EC192B03F0D3FD41EC100B002D3C
:104C10003FF7C5AE51EC100B03F0BAF941EC100BA5
:104C2000BDE60000000000000000F03F00000000B2
:104C3000075C143326A6913C182D4454FB21F93F00
:104C40000000F07F0000E03F000000000000F03FA7
:104C5000C0410000CE410000000000000000E03F25
:104C600012410000204100003333EF3F00000000FC
:104C70000000000000000040182D4454FB21E93FD3
:104C800010B52F499FED2C1B2DED020B84B005981C
:104C900020F000408842D8BF9DED040B2DDD29494E
:104CA000884209D1049840B94FF00100FBF7A7FEF4
:104CB00000F0A2FC06B010BD05DB9DED040B00F07A
:104CC0008FFC06B010BD68469DED040B00F0A0F807
:104CD00010F0030004BF9DED021B9DED000B0CD0F6
:104CE00001280ED09DED021B9DED000B022817D070
:104CF000012000F0DDFB06B010BD00F0A5FA06B003
:104D000010BD9DED021B9DED000B012000F0D0FBBE
:104D100051EC100B03F03CF906B041EC100B10BD48
:104D200000F092FA51EC100B03F032F906B041ECAE
:104D3000100B10BD0000000000000000000000008B
:104D4000FB21E93F0000F07F10B52F499FED2C1BA0
:104D50002DED020B84B0059820F000408842DCBFA6
:104D600000209DED040B32DD2849884209D10498CA
:104D700040B94FF00100FBF742FE00F03DFC06B0E9
:104D800010BD05DB9DED040B00F02AFC06B010BD44
:104D900068469DED040B00F03BF810F0030011D0C5
:104DA000012818D09DED021B9DED000B02281AD0A2
:104DB00000F04AFA51EC100B03F0EAF806B041ECAF
:104DC000100B10BD9DED021B9DED000B012000F0AE
:104DD0006FFB06B010BD9DED021B9DED000B00F0BA
:104DE00033FA06B010BD012000F062FB51EC100B4D
:104DF00003F0CEF806B041EC100B10BD000000002F
:104E00000000000000000000FB21E93F0000F07FEF
:104E10002DE9F14F04462DED020B2DED088B8AB0E4
:104E20009FEDE70B80ED020B139EE74826F000454F
:104E300085420ADC9DED120B002084ED000B0AB0C8
:104E4000BDEC088B03B0BDE8F08FE0489FEDE0AB10
:104E50009FEDE1BBA84247DDE14F9FEDE39B9FED56
:104E6000E48B9DED120B53EC1A2B51EC100B002E22
:104E70001CDD03F075FD41EC100BBD4208D053EC76
:104E80001B2B51EC100B03F06BFDC4E900010BE090
:104E900053EC192B51EC100B03F062FD53EC182B63
:104EA00003F05EFDC4E900010120C8E703F07CF8CF
:104EB00041EC100BBD4208D053EC1B2B51EC100BF6
:104EC00003F072F8C4E900010BE053EC192B51EC2C
:104ED000100B03F069F853EC182B03F065F8C4E9E4
:104EE00000014FF0FF30AAE7C348A84279DB9DEDEF
:104EF000120B51EC100B00F081FD41EC180B9FEDF3
:104F0000C00B53EC102B03F01FFB9FEDBF1B53ECAA
:104F1000112B03F049F803F053FA074603F0ADFAFA
:104F200041EC190B53EC1A2B03F00EFB53EC182B2E
:104F300003F03EFC41EC180B53EC1B2B51EC190B0E
:104F400003F002FBDFF8C8A241EC100B4FEA155842
:104F50000125FA4453EC102B51EC180B03F000FD23
:104F6000032DC4E900013DD0C1F30A5005EB451102
:104F7000A8EB00001139814234DA0AEB051BB0EED0
:104F800048AA9BED000BF0EE68AA53EC102B51ECF5
:104F9000190B03F0D9FA41EC1B0B51EC1A0B53EC33
:104FA0001B2B03F0DDFC41EC180B51EC1A0B53ECFE
:104FB000182B03F0D5FC53EC1B2B03F0D1FC9BED1D
:104FC000020B41EC1A0B53EC102B51EC190B03F0B4
:104FD000BBFA53EC1A2B03F0C3FC41EC100B6D1C15
:104FE000B8E70EE0002EA8BF3846BFF628AF94ED14
:104FF000000B51EC100B02F0CBFFC4E9000178422A
:105000001DE7C6F3130040F4801EC6F30A50A0F259
:10501000F530471100F01F05C5F12000DDF848B05C
:1050200008900020069007900520EC467949002D55
:1050300007EB0002794408BF51F8221009D051F85B
:10504000223001EB8201AB404A68089922FA01F153
:105050001943A1FB0E26A1FB0B131A449A4234BF3D
:105060000123002303EB06080CEB8003D3E901A620
:105070000E448E4234BF0121002192448A4411B172
:10508000924502D903E0924501D2012100E00021BE
:10509000C3E901A641444CF82010011EA0F1010013
:1050A000C4DC029800F10050850F0298DDE9036727
:1050B0008000DDF8148003F0E0F941EC1A0B304673
:1050C00003F0F2F99FED541B53EC112B03F03CFA63
:1050D00041EC1B0B384603F0E7F99FED511B53ECF5
:1050E000112B03F031FA41EC180B404603F0DCF9C8
:1050F0009FED4D1B53EC112B03F026FA41EC190BDD
:1051000051EC180B53EC192B02F04EFF53EC1B2BF8
:1051100002F04AFF53EC1A2B02F046FFCDE90801DA
:10512000002008909DED080B53EC1A2B51EC100B4E
:1051300003F016FC53EC1B2B03F012FC53EC182B62
:1051400003F00EFC53EC192B03F032FB9FED381BE0
:1051500053EC112B03F0F8F99FED370B41EC180BD2
:1051600053EC102B9DED080B51EC100B03F0ECF9F8
:1051700053EC182B02F018FF9FED310B41EC180B8C
:1051800053EC102B9DED080B51EC100B03F0DCF9E8
:1051900053EC182B02F008FF41EC100B139810F0A1
:1051A000004F06D06D4251EC100B02F0F1FE41ECC5
:1051B000100B284684ED000B41E6000000000000C3
:1051C0000000000000000000FB21E93F7CD9024004
:1051D00000004054FB21F93F3163621A61B4D03DB5
:1051E000FB21F93F000000000000601A61B4D03DCF
:1051F0007370032E8A19A33BFB2139410000000084
:1052000083C8C96D305FE43F000000000000E03F4C
:10521000F23C0000403C0000000000000000103E96
:10522000000000000000103C000000000000103AE8
:10523000182D4454FB21F93D3326A611460B113C91
:1052400000000054FB21F93D10B52DED040B2DEDB0
:10525000088B82B0B0EE419AF0EE619A0B9820F084
:1052600000449FED4BABB4F1795F11DA9DED0A0B71
:1052700051EC100B03F0A4F8002801BFB0EE4A0A6D
:10528000F0EE6A0A02B0BDEC088B04BF04B010BD9A
:105290009DED0A0B53EC102B51EC100B03F054F95D
:1052A00041EC180B3C480621B0EE480AF0EE680AC3
:1052B000784400F081F853EC182B51EC100B03F0FC
:1052C00043F99DED0A0B41EC1B0B53EC192B51ECF0
:1052D000100B03F039F941EC190B53EC1B2B51EC7B
:1052E000180B03F031F953EC192B03F039FB9FED48
:1052F0002C0B41EC190B53EC102B51EC180B03F059
:1053000023F941EC100B2848844210DA53EC192B96
:1053100051EC100B03F024FB53EC1A2B03F048FA6A
:1053200041EC100B02B0BDEC088B04B010BD1F485F
:10533000A042BCBF9FED1E1B8DED001B06DBA4F53C
:1053400000100190002000909DED001B51EC100B0F
:1053500053EC112B03F004FB9DED000B41EC180BFB
:1053600053EC102B51EC1A0B03F0FAFA41EC1A0B28
:1053700053EC192B51EC180B03F0F2FA53EC1A2BE7
:1053800003F016FA41EC100BCCE70000000000001F
:10539000000000000000F03F643900000000000041
:1053A000000000000000E03F3333D33F0000E93F3E
:1053B000000000000000D23F70B504462DED028BC6
:1053C0004D1E00EBC500B0EE408AF0EE608A90ED15
:1053D000000B35F0060017D053EC182B51EC100BD6
:1053E00003F0B2F841EC100B6D1E04EBC50090ED1C
:1053F000001B51EC100B53EC112B02F0D5FD41ECCE
:10540000100B35F00600E7D1022D36D0042D1CD04C
:10541000062D1CBFBDEC028B70BD53EC182B51EC5C
:10542000100B03F091F894ED0A1B53EC112B02F0D2
:10543000BBFD53EC182B03F087F894ED081B53ECDD
:10544000112B02F0B1FD41EC100B53EC182B51EC79
:10545000100B03F079F894ED061B53EC112B02F0BE
:10546000A3FD53EC182B03F06FF894ED040B53ECF1
:10547000102B02F099FD41EC100B53EC182B51EC62
:10548000100B03F061F894ED021B53EC112B02F0AA
:105490008BFD53EC182B03F057F894ED001B53ECE5
:1054A000112B02F081FDBDEC028B41EC100B70BDA5
:1054B00031B504462DED040B2DED0A8BB0EE41BA4B
:1054C000F0EE61BA0B989DED0A0B20F00040B0F1B0
:1054D000795F0DDA51EC100BFFF75EF8042808BF76
:1054E00000F09AF89DED0A0BBDEC0A8B05B030BDBB
:1054F00053EC102B51EC100B03F026F841EC180B79
:105500009DED0A0B53EC182B51EC100B03F01CF81B
:1055100041EC190B2C48B0EE480AF0EE680A052160
:105520007844FFF749FF9FED2ACBB0EE40AAF0EE9A
:1055300060AA9CB353EC1C2B51EC190B03F004F83C
:1055400041EC1C0B53EC1A2B51EC190B02F0FCFF35
:105550009FED210B41EC190B53EC102B51EC1B0B65
:1055600002F0F2FF53EC192B03F0FAF953EC182B6D
:1055700002F0EAFF53EC1B2B03F0F2F953EC1C2B67
:1055800003F0EEF99DED0A1B53EC112B03F010F91B
:10559000BDEC0A8B05B041EC100B30BDFFE753ECBE
:1055A0001A2B51EC180B02F0CFFF53EC1C2B02F01E
:1055B000FBFC53EC192B02F0C7FF9DED0A1B53ECCB
:1055C000112B02F0F1FCE3E7EC37000000000000D3
:1055D000495555555555C5BF000000000000E03F36
:1055E00010B553EC102B51EC100B02F0DDFC41EC2C
:1055F000100B10BD000000009FED050B10B553EC23
:10560000102B51EC100B02F083FD41EC100B10BD80
:1056100000000000000000009FED050B10B553ECEA
:10562000102B51EC100B02F08FFF41EC100B10BD52
:10563000000000000000001030380A2801D20120CC
:1056400070470020704700BF70470146302905DBD6
:10565000392903DCA1F13000C0B27047412905DBD4
:10566000462903DCA1F13700C0B2F6E7612905DB6A
:10567000662903DCA1F15700C0B2EEE70020ECE799
:105680002DE9F04107460E46904600254FF4FA6496
:1056900009E0204600F0EDFA10B105F5B77501E01C
:1056A00005F26D15641CBC42F3DB384600F0E1FAEC
:1056B00050B1002404E00B4850F824000544641C59
:1056C000701EA042F7DC09E0002404E0064850F810
:1056D00024000544641C701EA042F7DC45442846A3
:1056E000BDE8F081A00000207000002000B52DED85
:1056F000108B8BB0B0EE40AAF0EE60AAB0EE418AFB
:10570000F0EE618AB0EE429AF0EE629A9FED620B83
:1057100053EC102B51EC190B02F016FF41EC1E0B51
:105720009FED5F0B53EC102B02F0F2FC41EC1D0BD4
:10573000B0EE4D0AF0EE6D0AFFF7A2FAB0EE40BAF5
:10574000F0EE60BA9FED540B53EC102B51EC180B9C
:1057500002F0FAFE41EC1E0B9FED510B53EC102BA7
:1057600002F0D6FC41EC1D0BB0EE4D0AF0EE6D0AD6
:10577000FFF786FAB0EE40CAF0EE60CA53EC1B2B7E
:1057800051EC1C0B02F0E0FE9FED430B53EC102B91
:10579000CDE9040151EC190B02F0D6FE41EC1F0BD0
:1057A0009FED3F0B53EC102B02F0B2FC41EC1E0BB3
:1057B000B0EE4E0AF0EE6E0AFFF7C6FAB0EE40DA2F
:1057C000F0EE60DA9FED340B53EC102B51EC180B1C
:1057D00002F0BAFE41EC1F0B9FED310B53EC102B86
:1057E00002F096FC41EC1E0BB0EE4E0AF0EE6E0A93
:1057F000FFF7AAFA8DED000B53EC1D2B9DED000B6E
:1058000051EC100B02F0A0FE41EC1B0B9FED220BA4
:1058100053EC102B51EC1A0B02F096FE41EC1E0BD0
:105820009FED1F0B53EC102B02F072FC41EC1D0B93
:10583000B0EE4D0AF0EE6D0AFFF786FAB0EE40CA00
:10584000F0EE60CA53EC1B2B51EC1C0B03F088F8F4
:10585000CDE902019DED040B53EC102B9DED020BE5
:1058600051EC100B02F054FCCDE906019DED060B46
:10587000FEF7AAFE8DED080B9FED0B0B53EC102BE2
:105880009DED080B51EC100B02F05EFE41EC100B8D
:105890000BB0BDEC108B00BD4AD8124DFB21094066
:1058A0000000000000806640AA9F9622DCA54C40C4
:1058B00010B52DED048BB0EE408AF0EE608A9FEDBE
:1058C0000A0B53EC102B51EC180B02F03DFE41EC8F
:1058D000190B9FED070B53EC102B02F069FF41EC05
:1058E000100BBDEC048B10BD39B4C876BE9F8A3F47
:1058F000FF21FDF67570374010B52DED108BB0EE21
:10590000409AF0EE609AB0EE418AF0EE618A53EC74
:10591000182B9FED300B51EC100B02F015FE41ECF3
:105920001F0B9FED2E0B53EC102B02F00DFE41ECE4
:105930001E0B9FED2C0B53EC102B02F0E9FB41ECFE
:105940001D0BB0EE4D0AF0EE6D0AFFF7FDF9B0EE5B
:1059500040CAF0EE60CA9FED250B53EC102B51ECC2
:105960001C0B02F0F1FD41EC1A0B9FED1C0B53ECEC
:10597000102B51EC180B02F0E7FD41EC1F0B9FEDD3
:10598000190B53EC102B02F0C3FB41EC1E0BB0EED5
:105990004E0AF0EE6E0AFFF7D7F9B0EE40DAF0EEFD
:1059A00060DA9FED140B53EC102B51EC1D0B02F041
:1059B000CBFD41EC1C0B53EC192B02F0F5FA41EC3A
:1059C0001B0B53EC1A2B02F0EFFA41EC100BBDEC61
:1059D000108B10BD00000000000000404AD8124D9E
:1059E000FB21094000000000008066407B14AE47A8
:1059F000E17A943FA4703D0AD7A3FE3F82B0CDE97F
:105A0000000121F0004001909DED000B02B051EC2F
:105A1000100B7047C2B2054B1A8000BF034A121F19
:105A2000128802F04002002AF8D0704704140140A6
:105A300010B52DED028B86B00A2201A944F2220096
:105A4000FDF7C2F8BDF804004FF6FF71884205D19A
:105A50009FED330B06B0BDEC028B10BD002409E0B6
:105A600001A911F81400FFF7F0FD01A921F81400B5
:105A7000601CC4B20A2CF3DBBDF806102A4A51435D
:105A8000BDF80820294B5A4301EBC212BDF80A1099
:105A900043F60953594302EB8112BDF80C1040F64E
:105AA0003543594302EB4112BDF80E1040F2712309
:105AB000594302EB0111BDF8102002EB4203C3EB86
:105AC000C21201EBC201BDF8122002EBC20303EBCC
:105AD000021201EB8201BDF8142002EB820201EBFD
