:020000040800F2
:1000000050EB0120FD02000805240008C72300086A
:1000100001240008871100088D3B00080000000043
:100020000000000000000000000000004502000881
:10003000B11400080000000099020008F147000810
:100040001703000817030008170300081703000828
:100050001703000817030008170300081703000818
:100060001703000817030008170300081703000808
:100070001703000817030008170300080D120008F3
:1000800017030008170300081703000817030008E8
:1000900017030008170300081703000817030008D8
:1000A00017030008170300081703000817030008C8
:1000B00017030008170300081703000817030008B8
:1000C00017030008170300081703000817030008A8
:1000D000170300085534000817030008E934000826
:1000E0001703000817030008170300081703000888
:1000F0001703000817030008170300081703000878
:100100001703000817030008170300081703000867
:10011000C13300081703000817030008170300087D
:100120001703000817030008170300081703000847
:100130001703000817030008170300081703000837
:100140001703000817030008170300081703000827
:10015000170300081703000835120008513600087D
:100160001703000817030008170300081703000807
:1001700017030008170300081703000817030008F7
:10018000170300081703000800F002F800F04AF80F
:100190000AA090E8000C82448344AAF10107DA45E2
:1001A00001D100F03FF8AFF2090EBAE80F0013F0EA
:1001B000010F18BFFB1A43F0010318475C50000001
:1001C0007C500000103A24BF78C878C1FAD8520792
:1001D00024BF30C830C144BF04680C6070470000C1
:1001E0000023002400250026103A28BF78C1FBD840
:1001F000520728BF30C148BF0B607047732900F019
:100200000884002070471FB504F05CFF00F08EFEEC
:1002100004000020002104F03FFF401C60601FBD6F
:1002200010B510BD00F04AFE1146FFF7ECFF03F0D9
:10023000F2FC00F071FE03B4FFF7F2FF03BC03F021
:10024000AEFC00002A4B19680868B0E8F04F80F354
:100250000988BFF36F8F4FF0000080F3118870475B
:100260000000000006480068006880F3088862B655
:1002700061B6BFF34F8FBFF36F8F00DF00BF00BFCA
:1002800008ED00E0DFF80C00016841F47001016046
:10029000704700BF88ED00E0EFF30980BFF36F8F78
:1002A000134B1A681EF0100F08BF20ED108A20E9CA
:1002B000F04F106008B44FF0BF0080F31188BFF317
:1002C0004F8FBFF36F8F04F001FA4FF0000080F3FF
:1002D000118808BC19680868B0E8F04F1EF0100FCC
:1002E00008BFB0EC108A80F30988BFF36F8F7047A6
:1002F00060000020EFF30580704700000948804748
:1003000009480047FEE7FEE7FEE7FEE7FEE7FEE7F7
:10031000FEE7FEE7FEE7FEE704480549054A064B0F
:1003200070470000F93000088901000850E50120FD
:1003300050EB012050E7012050E7012070470000FA
:100340000FB4044910B503AA029800F067FB10BC73
:100350005DF814FBA40000200FB41CB5074B06AADF
:100360007B4469460090059800F029FB002069460F
:1003700000F038FB1CBC5DF814FB00008106000097
:1003800070B50C460546012A05D02878800600D5B0
:10039000EA69002302E0012305E05B1C934202D2DC
:1003A000E05C0028F9D1A869E618C01AA861286A9B
:1003B000184428622846AFF3008004E0D5E9012103
:1003C00014F8010B9047B442F8D32846AFF30080ED
:1003D00070BD2DE9F0474FF0000A89460446C0F889
:1003E00020A02046E1688847002876D0252806D03E
:1003F000D4E901219047206A401C2062F1E7E168BE
:10040000204600258847C4F81CA006460027C4F8EB
:1004100018A02A2E09D0304603F0BAFB38B304EBFB
:100420008708303EC8F8186019E059F8041B2046C8
:1004300004EB87029161E1688847012F064618D1D5
:10044000E069002820DA25F020051DE0D8F8180022
:1004500000EB800006EB40003038C8F8180020465A
:10046000E1688847064603F093FB0028EED1012F90
:100470000AD02E2E08D12046E16888477F1C064608
:10048000022F45F02005C4DBA069002803DA4042B2
:1004900045F00105A061E80701D025F01005B6B1CF
:1004A000A6F14100192802D8203645F400654A46D5
:1004B0003146204625604D46FFF7A0FE58B1012881
:1004C00006D0ED1D25F0070000F1080989E704E0DA
:1004D00005F1040985E730468AE7206ABDE8F08720
:1004E0000FB400B58DB010A9099000910B904FF09A
:1004F000FF300A9000200C90064878440690064889
:1005000078446A4607900F9909A800F0ADFA0DB03B
:100510005DF814FB8B050000A30500002DE9FF5FCB
:100520001D464FF0FF3B91464FF000085F46D5E96E
:100530000146A96901987F1C8847296A8246884735
:100540000028F6D1BAF1FF3F0CD0002E24F4C0648D
:1005500019DD600614D5BAF12B0F09D0BAF12D0FB1
:100560000ED103E0584604B0BDE8F09F44F4806427
:10057000A96901987F1C8847761E8246002E02DDFD
:10058000BAF1300F03D0B9F1000F26D032E0A969DB
:10059000761E01987F1C44F400748847002E824622
:1005A00005DDBAF1780F06D0BAF1580F03D0B9F1D2
:1005B000000F10D01EE0B9F1000F02D0B9F1100FFA
:1005C00018D1A969761E01987F1C24F4007488470D
:1005D0008246102002E0082000E00A20814609E05F
:1005E000A96908FB0908761E01987F1C44F4007471
:1005F00088478246002E05DD4946504600F020FA25
:100600000028EDDAE96901988847A00502D46FF067
:100610000100A8E7E00725D1600613D5600502D5E3
:10062000C8F1000000E0404629680A1D2A600968F8
:10063000220501D5087015E0220701D5088011E0D8
:1006400008600FE02868011D29600068210502D5B7
:1006500080F8008006E0210702D5A0F8008001E0C4
:10066000C0F8008038467EE72DE9FF5F4FF00008B4
:100670009946144646469169D2E901A7DDF838B09B
:1006800001988847054659EA0B0005D009E0A169A1
:100690000198761C88470546216A28468847002825
:1006A000F5D1681C03D05FEACA7005D015E04FF0A1
:1006B000FF3004B0BDE8F09F2068011D2160D0F834
:1006C00000800AE05FEACA7001D108F8015BA16905
:1006D000761C01987F1E88470546002F1ADD681C8E
:1006E00018D0B9F1000F0DD0E81705EBD06042111A
:1006F00020F01F0059F822102A1A012090400142D0
:10070000E0D107E0BBF1000FDCD12846216A884721
:100710000028D7D0E16901988847BBF1000F07D1C5
:10072000002E05DD5FEACA7002D1002188F80010B2
:10073000A068B84203DDBBF1000F03D017B16FF022
:100740000100B6E73046B4E730B505460B462A4609
:1007500013F8014B12F8010B08B1A042F8D01CB1FC
:10076000002802D06D1CF1E7284630BD10B5431CAF
:1007700002E010F8011B71B18107FAD14FF001328C
:1007800002C88C1A8C4314EAC211F9D0C01A0A06A6
:1007900003D0C01E10BDC01A10BD0A0401D0801EB7
:1007A00010BD0902FCD0401E10BD032A40F230806B
:1007B00010F0030C00F0158011F8013BBCF1020FA2
:1007C000624498BF11F801CB00F8013B38BF11F823
:1007D000013BA2F1040298BF00F801CB38BF00F83A
:1007E000013B11F0030300F06F81083AC0F008806C
:1007F00051F8043B083A51F804CBA0E80810F5E79B
:10080000121D5CBF51F8043B40F8043BAFF300807D
:10081000D20724BF11F8013B11F801CB48BF11F8F2
:10082000012B24BF00F8013B00F801CB48BF00F8C2
:10083000012B704702F0FF0343EA032242EA02421F
:1008400000F002B84FF000020429C0F0128010F04E
:10085000030C00F01B80CCF1040CBCF1020F18BF9C
:1008600000F8012BA8BF20F8022BA1EB0C0100F02F
:100870000DB85FEAC17C24BF00F8012B00F8012B02
:1008800048BF00F8012B70474FF0000200B5134637
:1008900094469646203922BFA0E80C50A0E80C50A0
:1008A000B1F12001BFF4F7AF090728BFA0E80C5051
:1008B00048BF0CC05DF804EB890028BF40F8042B4A
:1008C00008BF704748BF20F8022B11F0804F18BFB7
:1008D00000F8012B704710B5044610F0030F08BF55
:1008E00011F0030F40F015804FF0013E121FC0F2CF
:1008F0000E8051F8043BA3EB0E0C2CEA030C1CEA0F
:10090000CE1C08BF40F8043BF0D0A1F1040102F175
:100910000402521E08DB11F8013B002B00F8013BDA
:10092000F7D11146FFF78EFF204610BD4FF0013C76
:1009300050F8042B51F8043B9A4221D1A2EB0C034E
:10094000934313EACC1317D150F8042B51F8043B0E
:100950009A4215D1A2EB0C03934313EACC130BD1AB
:1009600050F8042B51F8043B9A4209D1A2EB0C0336
:10097000934313EACC13DBD04FF00000704700BF65
:10098000D01A01BAB1FA81F101F0180122FA01F08E
:10099000CB40C1F12001DBB2C0B2C01A2CFA01F386
:1009A000D11A914311EAC311E6D1704770477047DD
:1009B0007047704701694A1C02610878704700B5AA
:1009C0008FB0CDE901310021059105497944CDE988
:1009D000031011466846FFF7FCFC0FB000BD000095
:1009E000E5FFFFFF0A6802F8010B0A60704710B5C7
:1009F000436913B1AFF3008001E0FFF7C1FC0120B0
:100A000010BD127800F124010A7000224A70012200
:100A1000EDE711684FF0FF32E9E70000074B70B5D2
:100A20000D467B44FFF7CBFF0446284600F042FA10
:100A300010B14FF0FF3070BD204670BDB3310000E3
:100A40003A2800D2303820F02002412A01D3A2F106
:100A50003700884201D34FF0FF30704702681144DD
:100A60001378016018467047D16005497944516197
:100A700004497944116200211161114600F060B807
:100A8000EDFFFFFFB7000000426842B1016811F8B6
:100A9000013B23B1521EC0E90012184670470121E4
:100AA000C160881E704742685AB1C368016843B983
:100AB00083688B4205D0491E521CC0E900120020F9
:100AC00070474FF0FF30704710B5203AC0F00B80F0
:100AD000B1E81850203AA0E81850B1E81850A0E842
:100AE0001850BFF4F5AF5FEA027C24BFB1E818509C
:100AF000A0E8185044BF18C918C0BDE810405FEA0C
:100B0000827C24BF51F8043B40F8043B08BF704787
:100B1000D20728BF31F8023B48BF11F8012B28BF8C
:100B200020F8023B48BF00F8012B704710B504467F
:100B300000F0EAF90068005D00F0010010BD00005F
:100B40002DE9F34F4FF0000A0C4656468DB00120B8
:100B50000C9001F10C000B9062690B9801219047F9
:100B600005002DD0252D2CD0216A8847C0B162699F
:100B70000B9801219047216A88470028F7D16269C4
:100B8000411E0B98904700E0761CA1690D9888479C
:100B9000216A88470028F7D1E1690D988847DBE78B
:100BA000A1690D988847A842074601D1761CD3E772
:100BB000E1690D9888477F1C02D1BAF1000F6FD010
:100BC0006BE162690B9800273D46394690472A2819
:100BD00004D162690B98012190470125DFF8D0828A
:100BE00062690B9801219047A0F130010A290AD2CD
:100BF0004745E5DC07EB870100EB4107303FDFD4D9
:100C000045F01005ECE7E90601D46FF000476C28C9
:100C10000AD04C2814D0682815D06A280DD0742822
:100C20001CD07A281AD01DE062690B9801219047E8
:100C30006C2802D045F0040514E045F002050DE0F3
:100C400045F020050AE062690B9801219047682869
:100C500002D045F0080505E045F4006562690B988F
:100C600001219047C4E9015765283DD019DC582877
:100C70007AD00CDC452837D004DC252826D0412842
:100C80009ED131E046282FD0472899D12CE05B280F
:100C900077D0612828D063287CD0642823D15AE0FB
:100CA000F6E06F2848D008DC66281DD067281BD0E6
:100CB000692821D06E2816D127E0702845D07328E6
:100CC00068D0752847D078280DD14DE0A1690D98DE
:100CD0008847252805463FF469AFE1690D988847A4
:100CE0006D1C3FF46AAFD8E00D9923466A466FF059
:100CF0000100AFF30080C5E045F0400023464FF00F
:100D000000026060A80736D43EE0E8077FF447AFF2
:100D10002068011D21600068290501D506701BE7C8
:100D2000290701D5068017E7A90703D5F117C0E900
:100D3000006111E706600FE745F0400023464FF0E1
:100D400008026060A80716D41EE040F60E0125EAEE
:100D50000100606016E045F0400023464FF00A02B3
:100D60006060A80707D40FE045F040006060A80766
:100D700008D5234610220D996FF00100AFF30080D3
:100D800080E007E0102223460D996FF00100FFF785
:100D9000C5FB77E04FF0000963284F46C8464B4635
:100DA000CB4602D05B2806D038E0E80601D401200B
:100DB000A060012732E06269D4F80CB00B980121E1
:100DC00090475E2807D14FF0010949466269D4F87F
:100DD0000CB00B989047216939B900210A4603AB42
:100DE00043F82120491C0829FADBD8B3216949B30B
:100DF00008F1010862690B98012190475D28F4D140
:100E0000B9F1000F09D0002003A951F82020D243E6
:100E100041F82020401C0828F7DB03AB206900289C
:100E200020794FEA40701ED05B462246CDF8008004
:100E3000CDE901970D9900286FF0010020DAAFF39A
:100E400000801FE0C11703AA00EBD1614B1121F014
:100E50001F0102EB8302411A1368012088400343FB
:100E60001360C7E719E00D99224600286FF00100D2
:100E7000009702DAAFF3008004E0FFF7F5FB01E032
:100E8000AFF3008000280ADA401C06D10C9820B18C
:100E90004FF0FF300FB0BDE8F08F5046FAE7E9079A
:100EA00001D10AF1010A064400200C9054E600002A
:100EB000CCCCCC0C007B00F080007047754600F075
:100EC00031F8AE4605006946534620F007008546D6
:100ED00018B020B5FFF720FABDE820404FF000061B
:100EE0004FF000074FF000084FF0000B21F0070112
:100EF000AC46ACE8C009ACE8C009ACE8C009ACE855
:100F0000C0098D467047000010B500F00FF8001DB5
:100F100010BD00BF854100000446AFF300802046AD
:100F2000FFF789F900487047F0E401200048704756
:100F300010E5012010B502461078002305E0541C8E
:100F40002246247860405C1CE3B24C1E9C42F6DCD6
:100F500010BD10B500F062F800F0B8F810BD000048
:100F600010B5002008490870487064210648801CAC
:100F7000FFF768FC002005490870487064210348A9
:100F8000801CFFF75FFC10BDA80000200E010020B0
:100F90001FB5FFF7DEFFFFF7E3FF0322002101206B
:100FA00003F064FC104908600846006830B1002373
:100FB0001A4619460C48006803F05CFD00226421C3
:100FC0001E2003F053FC0949086000200623CDE9E8
:100FD0000030029003464FF4906205A10390094847
:100FE00003F03EFE1FBD0000100000201400002092
:100FF00042616C6C617374436F6D6D315461736BDE
:10100000000000006942000810B504466421A01CDD
:10101000FFF718FC00202070607010BD00B587B08D
:101020000121042001F0B6FA0121C80401F0D2FA2E
:1010300008220A21234800F021FE08220B21214822
:1010400000F01CFE4FF44060059002208DF818005F
:101050008DF8190000208DF81A0001208DF81B0072
:1010600005A9184800F0C2FD4FF416400190002079
:10107000ADF80800ADF80A00ADF80C00ADF81000AE
:101080000C20ADF80E0001A90F4802F0A1FB0121D0
:101090000D4802F039FB012240F225510A4802F0C6
:1010A00072FB34208DF800000F208DF80100002025
:1010B0008DF8020001208DF80300684601F0A4F9C4
:1010C00007B000BD00080240004C004000B591B0E0
:1010D0000121480501F05EFA224800F0E7F800BF60
:1010E000204800F08FF90028FAD14FF000600290FC
:1010F0001D4803901D480490402005900020069054
:1011000007904FF480600890002009900A900B909F
:101110004FF480300C9000200D9003200E900020A2
:101120000F90109002A90F4800F094F901221021AD
:101130000C4800F071F9012280210B48001F02F0D9
:10114000EFFA0F208DF804008DF8050000208DF8CF
:10115000060001208DF8070001A801F055F911B033
:1011600000BD000070600240044C0040AA00002056
:10117000014600BF080900EB8000420001F00F00AB
:101180001044C0B2704700BFFEE7F0B503461446F6
:10119000012901D0022901D10C315B1E4D1C05EB48
:1011A0004505052695FBF6F5022606FB0146354466
:1011B0001D441846DE1703EB967605EBA60564265C
:1011C00093FBF6F6AD1B4FF4C87693FBF6F6354469
:1011D000072695FBF6F706FB1752072A13D2DFE81E
:1011E00002F00406080A0C0E10000120F0BD0220D7
:1011F000FCE70320FAE70420F8E70520F6E70620DD
:10120000F4E70720F2E70020F0E7000010B50649F8
:10121000064800F025F800231A46194604480068DD
:1012200003F028FC10BD0000200000207060024088
:101230001000002010B54FF02051074800F010F8C2
:101240000021054800F026F800231A4619460348F5
:10125000006803F00FFC10BDB864024018000020C5
:101260000246094B9A4201D2084801E0064810386C
:1012700001F000531BB1064B0B40C36002E0044B6E
:101280000B40836070470000106402400060024021
:101290007D0F7D0F21B1026842F00102026003E080
:1012A000026822F00102026070470000016821F02C
:1012B000010101600021016041608160C160016144
:1012C000212141614A49884204D13D21484A103ACE
:1012D00091608CE046491831884205D14FF4746121
:1012E000434A103A916082E041493031884205D149
:1012F0004FF474113E4A103A916078E03C4948310D
:10130000884205D14FF07461394A103A91606EE01D
:1013100037496031884204D13649354A103AD160A4
:1013200065E033497831884204D13349304A103A74
:10133000D1605CE02E499031884204D12F492C4A7B
:10134000103AD16053E02A49A831884205D14FF0C4
:101350003D51274A103AD16049E02949884204D1D9
:101360003D21274A083A116041E025491831884259
:1013700005D14FF47461224A083A116037E02049E0
:101380003031884205D14FF474111D4A083A11607A
:101390002DE01B494831884205D14FF07461184A4D
:1013A000083A116023E016496031884204D111499E
:1013B000134A121F11601AE011497831884204D192
:1013C0000D490F4A121F116011E00D4990318842FA
:1013D00004D10A490A4A121F116008E00849A831DD
:1013E000884204D14FF03D51054A121F11607047E9
:1013F000106002403D000020400F002000003D2012
:1014000010640240014600200A6802F001020AB19D
:10141000012000E00020704710B501F080034BB1BF
:1014200022B1436943F08003436103E0436923F041
:101430008003436180290BD02AB1036801F01E04A8
:101440002343036004E0036801F01E04A343036028
:1014500010BD000010B500220268134B1A40CC6882
:101460000B6823434C6923438C692343CC69234392
:101470000C6A23434C6A23438C6A23434C6B2343FB
:101480008C6B23431A430260426922F00702D1E9C0
:101490000B3423431A4342610B6943604B688360FA
:1014A0008B68C36010BD00003F801CF04160704736
:1014B0007047000010B500200449087048703221C0
:1014C0000248801CFFF7BEF910BD0000F4030020A5
:1014D00010B5002008490870487064210648801C37
:1014E000FFF7B0F9002005490870487064210348EF
:1014F000801CFFF7A7F910BDDA010020740100205D
:101500001FB500F0E9F8FFF7E3FF032200210120F7
:1015100003F0ACF9104908600846006830B10023B8
:101520001A4619460C48006803F0A4FA0022662106
:10153000082003F09BF90949086000200423CDE945
:101540000030029003464FF4906205A103900748D3
:1015500003F086FB1FBD0000180000201C000020C7
:10156000456C6563745461736B000000BD420008F4
:1015700010B504466421A01CFFF764F90020207018
:10158000607010BD00B587B00121022001F002F8A3
:101590000121102001F02EF807220621234800F037
:1015A0006DFB07221146214800F068FBC020059022
:1015B00002208DF818008DF8190000208DF81A000F
:1015C00001208DF81B0005A9184800F00FFB4FF40F
:1015D000165001900020ADF80800ADF80A00ADF8F3
:1015E0000C00ADF810000C20ADF80E0001A9104859
:1015F00002F0EEF801210E4802F086F8012240F2D6
:1016000025510B4802F0BFF825208DF800000F206F
:101610008DF8010000208DF8020001208DF80300F4
:10162000684600F0F1FE07B000BD00000004024073
:101630000010014000B591B00121880500F0AAFF1B
:101640002248FFF733FE00BF2048FFF7DBFE0028EB
:10165000FAD14FF0006002901D4803901D4804909D
:10166000402005900020069007904FF4806008907D
:10167000002009900A900B904FF480300C900020CD
:101680000D9003200E9000200F90109002A90F489B
:10169000FFF7E0FE012210210C48FFF7BDFE0122FA
:1016A00080210B48001F02F03BF846208DF8040013
:1016B0000F208DF8050000208DF8060001208DF820
:1016C000070001A800F0A0FE11B000BDB864024000
:1016D000041001407601002010B5FFF753FFFFF71B
:1016E000A9FF10BD51B18200A2F1C042126842F0C0
:1016F00001038200A2F1C042136009E08200A2F15E
:10170000C0421268034B1A408300A3F1C0431A6021
:1017100070470000FEFF0F0030B5002100220023BB
:101720000468A400A4F1C0442168444C2140D0E9DD
:1017300001452C43C5682C4305692C4345692C435E
:1017400085692C43C5692C43056A2C43456A2C43A3
:10175000856A2C43C56A2C43056B2C4321430468DE
:10176000A400A4F1C04421608468082C0BD1046853
:10177000A400A4F1C044246844F040050468A40017
:10178000A4F1C04425600468641CA400A4F1C04412
:10179000226802F04042446B2468456B6D6844EA5D
:1017A0000514456BAD6844EA0524456BAD8944EAF0
:1017B0000544456B2D8A44EA0554456B2D7D44EA6A
:1017C0000564456BAD692C4322430468641CA40086
:1017D000A4F1C0442260C46AB4F5804F24D10468E7
:1017E000A400A4F1C044D4F8043103F04043846B56
:1017F0002468856B6D6844EA0514856BAD6844EA1E
:101800000524856B2D8A44EA0554856B2D7D44EAB9
:101810000564856BAD692C4323430468A400A4F1DF
:10182000C044C4F8043107E06FF070450468A400B8
:10183000A4F1C044C4F8045130BD00008000F7FF9B
:1018400010B50446AA200A49088055200949088095
:10185000802007490880AA20088055200549088073
:1018600050214FF0C8400153801100F005F810BD21
:10187000AA0A00645405006430B501460022002322
:10188000012418E0491E4FF0C8400288038802F086
:10189000400003F04005A84201D1002030BD4FF0C8
:1018A000C8400288038802F0400003F04005A842C7
:1018B00001D10020F2E709B1002CE3D101B90324E2
:1018C0002046EBE700B599B00121782000F062FED8
:1018D0000121084600F06EFE4CF2037017900220C2
:1018E0008DF8600000208DF8620003208DF8610003
:1018F00001208DF8630017A9954800F077F94FF69D
:101900008070179017A9934800F070F94FF23F00CC
:10191000179017A9904800F069F93F20179017A970
:101920008E4800F063F94FF46050179017A988486B
:1019300000F05CF93820179017A9864800F056F996
:101940003020179017A9824800F050F94FF400702A
:10195000179017A9814800F049F90C2200217C4812
:1019600000F08CF90C220121794800F087F90C2253
:101970000421774800F082F90C220521744800F018
:101980007DF90C220821724800F078F90C22092117
:101990006F4800F073F90C220A216D4800F06EF9CF
:1019A0000C220B216A4800F069F90C2211466848A4
:1019B00000F064F90C220D21654800F05FF90C225B
:1019C0000E21634800F05AF90C220F21604800F004
:1019D00055F90C2203215F4800F050F90C22042134
:1019E0005C4800F04BF90C2205215A4800F046F9FA
:1019F0000C220721574800F041F90C2208215548D4
:101A000000F03CF90C220921524800F037F90C2271
:101A10000A21504800F032F90C220B214D4800F009
:101A20002DF90C2211464B4800F028F90C220D210B
:101A3000484800F023F90C220E21464800F01EF918
:101A40000C220F21434800F019F90C2200214248D2
:101A500000F014F90C2201213F4800F00FF90C228C
:101A600002213D4800F00AF90C2203213A4800F017
:101A700005F90C220421384800F000F90C22052158
:101A8000354800F0FBF80C221146334800F0F6F818
:101A90000C220D21304800F0F1F80C220E212E48C6
:101AA00000F0ECF80C220F212B4800F0E7F80C2294
:101AB00000212A4800F0E2F80C220121274800F01A
:101AC000DDF80C220221254800F0D8F80C22032171
:101AD000224800F0D3F80C220421204800F0CEF870
:101AE0000C2205211D4800F0C9F80C2209211B48D1
:101AF00000F0C4F80B200190002002901220039007
:101B000000200490059006904FF08050079002202E
:101B100008900020099008200A9010200B900020C7
:101B20000C900E900F9010904FF480501190002068
:101B300012901390149001A81590169008A8FFF722
:101B4000EBFD01210220FFF7CDFD19B000BD000023
:101B5000000C024000100240001402400018024035
:101B600010B5AA23094C23805523094C2380F02467
:101B70004FF0C8435C5206E04FF0C8435B5A20F870
:101B8000023B891C521E002AF6D110BDAAAA00648D
:101B900054550064F0B504460D461646012700BFB3
:101BA00034F8021B284600F009F80746AD1C761EE3
:101BB0000FB9002EF4D13846F0BD000030B505460F
:101BC0000C46AA2007490880552007490880A02014
:101BD000044908804FF0C84044534014FFF74CFEBE
:101BE00030BD0000AA0A006454050064F0B50A463E
:101BF00000210023002400BF3DE0012505FA01F388
:101C0000156805EA03049C4234D105684F00032699
:101C1000BE40B543056015794E00B54006683543B2
:101C200005601579012D02D01579022D16D1856830
:101C30004F000326BE40B543856055794E00B54040
:101C4000866835438560456801268E40B54345600A
:101C5000456896798E40B6B235434560C5684F00F9
:101C60000326BE40B543C560D5794E00B540C66871
:101C70003543C560491C1029BFD3F0BDF0B5002322
:101C800000244D07ED0E02FA05F3CE1000F12005F9
:101C900055F826504E07F70E0F26BE40B543CF101D
:101CA00000F1200646F82750CE1000F1200555F827
:101CB000265045EA0304CE1000F1200545F82640E1
:101CC000F0BD418370470183704700001FB500F0ED
:101CD0002FF800F0E7F9012002F0A4FD0E4908609A
:101CE0000022C8210A2002F0C1FD0C490860002230
:101CF000C821012002F0BAFD09490860002008232C
:101D0000CDE90030029003464FF4086205A103902C
:101D1000064802F0A5FF1FBD20000020240000207F
:101D20002800002047534D5461736B001143000895
:101D300010B500F0A7F800F003F800F065F810BD4A
:101D40001CB501210A48FFF7BCFF012000908DF867
:101D5000040002208DF8050000208DF80600012007
:101D60008DF8070069460248FFF740FF1CBD0000E0
:101D70000008024010B532E001211A48FFF7A1FF28
:101D800040F2771002F09AFB01211648FFF79BFF03
:101D900040F6C41214A1002000F02AFF00B91EE092
:101DA000FA2002F08BFB01210E48FFF78AFFFA2090
:101DB00002F084FB01210B48FFF785FF40F277100A
:101DC00002F07CFB01210748FFF77BFF41F64C52F4
:101DD0000AA1002000F00CFF00B101E000BFCBE73A
:101DE00000BF10BD000802404E4F524D414C2050E4
:101DF0004F57455220444F574E000000534D53203B
:101E0000526561647900000000B58FB0012148057A
:101E100000F0C0FB1848FFF749FA00BF1648FFF76B
:101E2000F1FA0028FAD14FF00060009013480190B9
:101E300013480290402003900020049005904FF436
:101E40008060069000200790089009904FF4803041
:101E50000A9000200B9003200C9000200D900E9013
:101E600069460548FFF7F6FA012280210348001F62
:101E700001F056FC0FB000BD58600240044800401D
:101E80006202002000B587B00121022000F082FB31
:101E90000121880400F09EFB07220A212348FFF756
:101EA000EDFE07220B212148FFF7E8FE4FF44060CA
:101EB000059002208DF818008DF8190000208DF88B
:101EC0001A0001208DF81B0005A91848FFF78EFEA7
:101ED0004FF4614001900020ADF80800ADF80A0011
:101EE000ADF80C00ADF810000C20ADF80E0001A903
:101EF0000F4801F06DFC01210D4801F005FC0122A5
:101F000040F225510A4801F03EFC27208DF80000E0
:101F10000F208DF8010000208DF8020001208DF8BF
:101F20000300684600F070FA07B000BD00040240EC
:101F3000004800408EB02AE015A001F0C1FE1A480A
:101F400001F0BEFE194801F0BBFE194801F0B8FED1
:101F500018A001F0B5FE00235A1E01A91F48006811
:101F600002F0A8FC012812D11DA101A8FEF7DEFC99
:101F700010B900F0DDFF0AE01AA101A8FEF7D6FCB7
:101F800010B900F08BFE02E017A001F099FED3E734
:101F90000D0A0D0AC7EBD1A1D4F1C9E8D6C3B2CE60
:101FA000CAFDA3BA00000000B8510008F8500008AC
:101FB000585100080D0A2020202020205220CDF862
:101FC000B9D8B8B4CEBBD0C5CFA2202020204520A0
:101FD000CDCBB3F60D0A3E200000000030000020FB
:101FE000320D0000340D00000D0A20CAE4C8EBB821
:101FF000F1CABDB2BBD5FDC8B7A3ACC7EBD6D8D02C
:10200000C2CAE4C8EBA3A10D0A00000030B5B3B00A
:1020100005460C464FF0C0511348FFF721F9224600
:1020200029461248FEF7C1FB1048801E447000216B
:102030000D48FFF72FF900BF0B48FFF7E3F9002821
:10204000FAD10A48801E41780748FFF72FFA00238B
:102050001A4601A90648006802F02CFC012102483A
:10206000FFF718F933B030BD58600240620200201B
:102070002800002010B50446002020706070C821A0
:10208000A01CFEF7DFFB10BD4278C82A08DA0378EF
:10209000821CD1540278521C02704278521C427049
:1020A0007047000010B50020084908704870C8212A
:1020B0000648801CFEF7C6FB0020054908704870E2
:1020C000C8210348801CFEF7BDFB10BD2A03002079
:1020D0006002002000B58DB0FFF74CFEFA224AA145
:1020E0004AA000F085FD28B94AA001F0E9FD0020D2
:1020F0000DB000BDFA2244A14DA000F079FD20B939
:102100004FA001F0DDFD0020F2E7FA223EA153A02E
:1021100000F06EFD20B953A001F0D2FD0020E7E7EA
:10212000FA2239A155A000F063FD20B957A001F0B3
:10213000C7FD0020DCE7FA2233A15BA000F058FDC8
:1021400020B95CA001F0BCFD0020D1E74FF47A7209
:102150005EA162A000F04CFD20B963A001F0B0FDCB
:102160000020C5E7FA2002F0A9F9FA2264A167A0CD
:1021700000F03EFD20B968A001F0A2FD0020B7E705
:102180004FF47A7220A16AA000F032FD20B96BA052
:10219000FEF7D6F80020ABE740F2E24002F08EF9FD
:1021A00040F6A66218A16AA000F022FD20B96CA03A
:1021B00001F086FD00209BE70B226F494FF4005091
:1021C00000F076F96C4B10336B4A6CA16846FEF751
:1021D000C3F841F288320CA1684600F009FD20B92D
:1021E0006EA001F06DFD002082E741F64C5272A115
:1021F000002000F0FDFC20B968A001F061FD002086
:1022000076E7012074E700004F4B000041540D0AAF
:10221000000000000D0A47534DB4AEBFDACDA8D080
:10222000C5BDD3BFDAD2ECB3A3A3A10D0A00000051
:1022300041542B4950523D35373630300D0A00009D
:102240000D0A47534DCDA8D0C5B2A8CCD8C2CAC933
:10225000E8D6C3D2ECB3A3A3A10D0A004154453084
:102260000D0000000D0ABBD8CFD4C4A3CABDB9D895
:10227000B1D5D2ECB3A3A3A10D0A000041542B4366
:1022800049504D4F44453D300D0A00000D0A47535B
:102290004DB4ABCAE4C4A3CABDC5E4D6C3D2ECB343
:1022A000A3A3A10D0A00000041542B434C54533DFD
:1022B000310D0A000D0A47534DBBF1C8A1CAB1BC8C
:1022C000E4D2ECB3A3A3A10D0A0000002B435049B4
:1022D0004E3A2052454144590000000041542B43DE
:1022E00050494E3F0D0A00000D0A53494DBFA852F8
:1022F00045414459D2ECB3A3A3A10D0A000000004C
:102300002B435245473A20302C31000041542B4397
:102310005245473F0D0A00000D0ACDF8C2E7D7A28B
:10232000B2E1D0C5CFA2D2ECB3A3A3A10D0A0000A5
:1023300041542B43474154543D300D0041542B43ED
:10234000474154543D30206572726F720D00000099
:1023500041542B43474154543D310D0A00000000C5
:102360000D0A47505253B8BDD7C5D7B4CCACD2EC48
:10237000B3A3A3A10D0A00004002002041542B4347
:10238000495053544152543D22544350222C22254B
:1023900073222C222573220D0A0000000D0ACEDEC6
:1023A000B7A8C1ACBDD3B7FECEF1C6F74950B6CB86
:1023B000BFDA0D0A00000000434F4E4E4543542043
:1023C0004F4B0000704700BFFEE7000010B586B01D
:1023D00001AC052209494FF4805000F069F8022051
:1023E00020700A220549601CFEF775FA0321E1728C
:1023F0000C2101A800F004FE06B010BD560200201A
:1024000000BFFEE77047000070B5002100230F22D7
:10241000C4781CB3174C246804F4E064C4F5E06489
:10242000C4F30721C1F10404E3B20A4144789C409B
:10243000E1B28478144021430C07210E0E4C05783C
:102440006155047804F01F050124AC4005786D1136
:10245000AD0005F1E025C5F8004109E0047804F07D
:102460001F050124AC40054D0678761145F826403D
:1024700070BD00000CED00E000E400E080E100E051
:1024800002490143024A1160704700000000FA054A
:102490000CED00E010B50548006830B9FFF712FAFE
:1024A000012002F0BFF90149086010BDA000002022
:1024B00070B504460D461646002340F2E242194626
:1024C0000948006802F0F6F901280BD1324621468E
:1024D0002846FFF745FB00231A46194602480068C4
:1024E00002F0C8FA70BD0000A00000202DE9F04104
:1024F00004460D4617460126002340F2E2421946E3
:102500001048006802F0D6F9012818D12046FFF7DC
:1025100097F9064616B10CA001F0D2FB3A462146C7
:102520002846FFF737FB064616B110A001F0C8FB9E
:1025300000231A4619460348006802F09BFABDE8DA
:10254000F0810000A00000200D0A4E4F525F464C63
:10255000415348204572617365536563746F7220FF
:102560004572726F72212121000000000D0A4E4F4A
:10257000525F464C4153482057726974652045723A
:10258000726F72212121000001490862704700002A
:1025900000000E4229B1064A12680243044B1A6039
:1025A00004E0034A12688243014B1A60704700003E
:1025B0003038024029B1064A12680243044B1A60BF
:1025C00004E0034A12688243014B1A60704700001E
:1025D0003838024029B1064A12680243044B1A6097
:1025E00004E0034A12688243014B1A6070470000FE
:1025F0004038024029B1064A12680243044B1A606F
:1026000004E0034A12688243014B1A6070470000DD
:1026100044380240F0B500210022002402250026A3
:102620000223324F3F6807F00C0121B1042905D085
:10263000082937D105E02E4F076036E02D4F07609F
:1026400033E02A4F3F1F3F68C7F38056274F3F1F95
:102650003F6807F03F036EB1264FB7FBF3F7DFF893
:102660008CC0ACF1040CDCF800C0CCF3881C07FB78
:102670000CF40CE01E4FB7FBF3F7DFF870C0ACF1C1
:10268000040CDCF800C0CCF3881C07FB0CF4174FDB
:102690003F1F3F68C7F301477F1C7D00B4FBF5F780
:1026A000076002E0124F076000BF00BF0F4F3F6896
:1026B00007F0F0010909104F7A5C0768D7404760BE
:1026C0000A4F3F6807F4E051890A0B4F7A5C47686C
:1026D000D7408760054F3F6807F46041490B064FBC
:1026E0007A5C4768D740C760F0BD000008380240F8
:1026F0000024F400001BB7000000002010B50146C4
:102700000022002300204A11012A02D10A4C23682A
:1027100008E0022A03D1084C7034236802E0064C1A
:102720007434236801F01F02012494401C400CB152
:10273000012000E0002010BD003802400021094ABD
:1027400011701170012802D0042808D103E0012182
:10275000044A117004E00521024A117000E000BF34
:1027600000BF7047703802400149086070470000A0
:102770003C0E4742002100F44072B2F5407F08D180
:10278000094A116821F4F811084A02401143064A27
:102790001160054A68321268C0F30B031A43024BFA
:1027A00068331A607047000008380240FFFCFF0FD2
:1027B000014600BF080900EB8000420001F00F0055
:1027C0001044C0B270470146002204E0501CC2B25F
:1027D000A1F10A00C1B20A29F8DA100741EA106033
:1027E0007047000008B50022009200200021104A26
:1027F000126802F04002CAB9421E0D4B1A6000BFB7
:102800000B4A126802F04001009A521C0092009A92
:10281000B2F5803F01D00029F2D0054A126802F0DB
:1028200040020AB1012002E0002000E0012008BDC2
:102830000C2800400348006820F08000014908602F
:10284000704700000C28004030B504460025CA201F
:102850001549086053200860FFF7C4FF00B91DE068
:1028600011481C38006820F040000F491C390860EE
:1028700008460068216808430B491C3908600A496A
:102880001439A068086008460068A18840EA014041
:10289000054914390860FFF7CDFF0125FF200249E3
:1028A0000860284630BD00002428004008B50146D5
:1028B0000020009004480090009800EB81000090F8
:1028C0000098006808BD0000502800402DE9F04144
:1028D00005460C46002600274DB9607800F0100030
:1028E000102804D1607820F010000A30607005B91B
:1028F00008E06078FFF75CFF0646A078FFF758FF16
:10290000064600BF55B1E0780004617840EA012036
:10291000A1780843217840EA413611E0E078FFF7DA
:1029200052FF4FEA00486078FFF74DFF48EA002861
:10293000A078FFF748FF48EA0008207848EA4036C8
:10294000CA201249086053200860FFF74BFF08B9FE
:10295000002714E00E4830400C4920390860FFF78A
:1029600069FF0A481C38006800F0200030B900F008
:1029700079F808B9002702E0012700E00127FF20CD
:10298000024908603846BDE8F08100002428004074
:102990003FFFFF002DE9F04105460C4600260027C9
:1029A0004DB92E48006800F0400000B102E0002060
:1029B000E07000BF0DE02948006800F0400020B141
:1029C0002078FFF7F5FE064602E00020E07000BF29
:1029D00000BF55B120780004617840EA0120A17859
:1029E0000843E17840EA014611E02078FFF7EBFE6A
:1029F0004FEA00486078FFF7E6FE48EA0028A07832
:102A0000FFF7E1FE48EA0008E07848EA0046CA20FD
:102A100012491C31086053200860FFF7E3FE08B933
:102A2000002713E00E4830400C4908390860FFF7D2
:102A300001FF0A48006800F0200030B900F012F8E9
:102A400008B9002702E0012700E00127FF20034921
:102A50001C3108603846BDE8F081000008280040BD
:102A60007F7F7F0008B50022009200200021CA224B
:102A7000134B1A6053221A60114A183A126822F056
:102A8000A0020F4B183B1A6000BF0D4A183A12689B
:102A900002F02001009A521C0092009AB2F5003F09
:102AA00001D00029F1D0064A183A126802F020023B
:102AB0000AB1012000E00020FF22014B1A6008BD8E
:102AC0002428004008B500220092044A0092009A8F
:102AD00002EB80020092009A116008BD502800406D
:102AE00000B58DB00B2213494FF40050FFF7E0FC06
:102AF000104B10330F4A10A16846FDF72DFC40F62D
:102B0000C41215A1684600F073F828B913A001F0AB
:102B1000D7F800200DB000BD41F2883216A1002088
:102B200000F066F820B90DA001F0CAF80020F1E726
:102B30000120EFE74002002041542B4349505354F9
:102B40004152543D22544350222C222573222C22E0
:102B50002573220D0A0000004F4B00000D0ACEDE47
:102B6000B7A8C1ACBDD3B7FECEF1C6F74950B6CBBE
:102B7000BFDA0D0A00000000434F4E4E454354207B
:102B80004F4B00000EB5012001F04CFE17490860C4
:102B900001210807FFF71EFD0120FFF7F5FC0020CB
:102BA000FFF784FE4AF2A55188421DD00120FFF7AD
:102BB000C5FD00BF4120FFF7A1FD0028FAD04FF46A
:102BC0008070FFF7D7FD0120FFF7CEFD7F20019039
:102BD000FF200290002000906846FFF735FE4AF281
:102BE000A5510020FFF76EFF01200EBD98000020C8
:102BF0002DE9F043B3B006460C4615460027B8460B
:102C000002F0B8F88046002340F2E24219461F481D
:102C1000006801F04FFE012833D124E046B1304670
:102C2000FDF7A4FD00F0FF0949463046FFF7EEF935
:102C30000CB901271DE06A08002301A914480068A7
:102C400001F038FE01280ED1214601A8FDF77CFDD8
:102C500048B110A12046FDF769FE10B901A800F0A7
:102C6000C9FE012705E002F085F8A0EB0800A842A4
:102C7000D4D300BF00231A4619460448006801F067
:102C8000F9FE384633B0BDE8F08300002000002094
:102C9000280000202B43434C4B3A200000B5A3B042
:102CA000202108A8FDF7F0FD002007900590069070
:102CB000049074E03CA001F003F849A001F000F892
:102CC0004AA000F0FDFF00235A1E10A948480068E2
:102CD00001F0F0FD012862D146A110A8FDF726FE03
:102CE00000B95DE007AA04AB901E06A9CDE9023247
:102CF000CDE90010031F05AA3FA110A8FDF7F0FBC6
:102D0000062849D1BDF91400002841DBBDF91400A3
:102D1000FF283DDCBDF91600002839DBBDF916009F
:102D2000FF2835DCBDF91800002831DBBDF918009B
:102D3000FF282DDCBDF91A00002829DBBDF91A0097
:102D4000FF2825DC0498002822DB0498B0F5803F9A
:102D50001EDA9DF81C003B281AD11DAA2CA110A830
:102D6000FDF7BEFB21AA2CA110A8FDF7B9FB10228C
:102D70001DA908A8FDF7AFFD062221A90CA8FDF7A3
:102D8000AAFD0F2208A94FF40050FFF7AFFB06E0A1
:102D900025A000F095FF02E023A000F091FF89E755
:102DA00000BF23B000BD00000D0AC7EBCAE4C8EBAA
:102DB000B7FECEF1C6F74950B5D8D6B7BCB0B6CB42
:102DC000BFDABAC528C0FDC8E736312E3139302EFA
:102DD00033382E34362C33303030303B29A3BA0010
:102DE0000D0A452ECDCBB3F6000000000D0A3E00C3
:102DF00030000020450D00002568642E2568642EF3
:102E00002568642E2568642C256425630000000075
:102E1000255B5E2C5D000000252A5B5E2C5D2C2569
:102E20005B5E3B5D000000000D0AC7EBCAE4C8EB27
:102E3000BACFB7A8B5C44950B5D8D6B7BBF2B6CB50
:102E4000BFDA21000CB500200190009034480068E2
:102E500040F480303249086000BF3148006800F417
:102E6000003000900198401C0190009818B901981A
:102E7000B0F5A04FF1D12A48006800F4003010B13D
:102E80000120009001E0002000900098012846D128
:102E900023484030006840F08050214940310860AC
:102EA0002048006840F440401E4908601C48083033
:102EB00000681B49083108600846006840F400407B
:102EC00008600846006840F4A05008601648091FD2
:102ED0000860081F006840F08070091F086000BF8C
:102EE0000F48006800F000700028F9D040F205702B
:102EF0000E4908600A480830006820F003000849BD
:102F0000083108600846006840F00200086000BF11
:102F100003480830006800F00C000828F8D10CBD08
:102F200000380240007000400C544007003C024052
:102F300030B58DB03CE020A000F0C2FE23A000F030
:102F4000BFFE25A000F0BCFE00235A1E69462348A0
:102F5000006801F0AFFC01282AD121A16846FDF7E5
:102F6000E5FC00B925E06846FDF700FC0B281CD104
:102F700000240CE01DF80400302805DB1DF80400D7
:102F8000392801DC012500E00025601CC4B20A2CB0
:102F9000F0DB012D05D1052269462803FFF7A6FACB
:102FA00006E010A000F08CFE02E00EA000F088FE0B
:102FB000C1E700BF0DB030BD0D0AC7EBCAE4C8EBD6
:102FC000CDF8B9D8B5D8D6B7A3BA00000D0A452EAA
:102FD000CDCBB3F6000000000D0A3E00300000200B
:102FE000450D00000D0AC7EBCAE4C8EBBACFB7A87D
:102FF000B5C4CDF8B9D8B5D8D6B7A3A100000000A4
:10300000F0B5B3B005460C460027002659E0701C09
:10301000C6B2002340F2E24219462C48006801F093
:1030200049FC012830D10D2129A0FEF7EFFF002334
:1030300040F2E24201A92A48006801F03BFC012865
:103040001BD128A101A8FDF77FFBB0B11A2028559C
:10305000601CC1B22846FEF7D9FF002340F2E242CD
:1030600001A91F48006801F025FC012805D11EA117
:1030700001A8FDF769FB00B1012700231A46194694
:103080001248006801F0F6FCD7B9012E07D1FFF70E
:1030900027FD012800D114E0FFF71CF811E000BF64
:1030A000BFF34F8F1248006800F4E06011490843F5
:1030B000001D0F490860BFF34F8F00BF00BFFEE740
:1030C00000E0A4E700BF33B0F0BD00002000002006
:1030D00041542B43495053454E440D0A0000000013
:1030E000280000203E00000053454E44204F4B0076
:1030F0000CED00E00000FA0510B51548006840F43A
:103100007000134908601348006840F0010011493D
:10311000086000200F49083108600E4800680E4919
:1031200008400C4908600D48091D0860081F006828
:1031300020F48020091F0860002006490C31086037
:10314000FFF780FE4FF0006001498039086010BD34
:1031500088ED00E000380240FFFFF6FE103000244A
:10316000704700008EB023A000F0AAFD2DA000F053
:10317000A7FD32A000F0A4FD36A000F0A1FD3BA009
:1031800000F09EFD3FA000F09BFD44A000F098FDE4
:1031900048A000F095FD4DA000F092FD29E05AA056
:1031A00000F08EFD5DA000F08BFD63A000F088FDB7
:1031B00066A000F085FD68A000F082FD00235A1E85
:1031C00001A96648006801F075FB012811D164A1CE
:1031D00001A8FDF7ABFB08B9FEF7ACFE61A101A8A1
:1031E000FDF7A4FB10B9FFF7BBFF02E05EA000F003
:1031F00067FDD4E70D0A0D0AB5F7CAD4C4A3CABD4A
:103200000D0ABACFB7CAB4F3C3F7BDDAC4DCBFC680
:10321000BCBCB9C9B7DDD3D0CFDEB9ABCBBEA3BA86
:10322000000000000D0ACDF8B9D8C8EDBCFEB0E62C
:10323000B1BEBAC52020A3BA560000000D0ACDF8D1
:10324000B9D8B5D8D6B72020202020202020A3BA76
:10325000000000000D0ACDF8B9D8B5B1C7B0CAB1A9
:10326000BCE420202020A3BA000000000D0A475033
:10327000532DBEADB6C82020202020202020A3BA88
:10328000000000000D0A4750532DCEB3B6C82020D1
:10329000202020202020A3BA000000000D0AC4BF77
:1032A000B1EAB7FECEF1C6F74950B5D8D6B7A3BA42
:1032B000000000000D0AC4BFB1EAB7FECEF1C6F7A8
:1032C000B6CBBFDABAC5A3BA000000000D0A2A2A9D
:1032D0002A2A2A2A2A2A2A2A2A2A2A2A2A2A2A2A4E
:1032E0002A2A2A2A2A2A2A2A2A2A2A2A2A2A2A2A3E
:1032F0002A2A2A2A2A2A2A2A2A2A2A2A2A2A2A2A2E
:103300002A2A2A2A2A2A00000D0AC7EBD1A1D4F1C1
:10331000B5F7CAD4C4A3CABDA3BA00000D0A312EA2
:10332000CDF8B9D8B2CECAFDC9E8D6C3BCB0B2E9AF
:10333000BFB4C4A3CABD00000D0A322EC8CECEF160
:10334000B4F2D3A1C4A3CABD000000000D0A452EEB
:10335000CDCBB3F6000000000D0A3E003000002087
:10336000310D0000320D00000D0A20CAE4C8EBB890
:10337000F1CABDB2BBD5FDC8B7A3ACC7EBD6D8D098
:10338000C2CAE4C8EBA3A10D0A0000001FB50020CB
:103390000A23CDE90030029003464FF4086203A1EE
:1033A0000390064801F05CFC1FBD000054696D6588
:1033B000506C616E5461736B00000000654700083B
:1033C00038B50020009040F225511E4800F0B1F9B8
:1033D000002836D01B4800F065FAC4B2022C02D196
:1033E0001948FDF711FE184821464278642A08DA88
:1033F0000378821CD1540278521C02704278521C0D
:10340000427000BF032C1CD10F484078C01EC1B2CF
:103410000D48801CFDF78EFD00236A460A49891C71
:103420000A48006801F0AEFB009838B14FF08050B8
:1034300007490860BFF34F8FBFF36F8F0248FDF756
:10344000E3FD38BD004C0040A8000020140000201F
:1034500004ED00E038B50020009040F225511E48F0
:1034600000F067F9002836D01B4800F01BFAC4B200
:10347000022C02D11948FEF77BF818482146427801
:10348000642A08DA0378821CD1540278521C027034
:103490004278521C427000BF032C1CD10F48407868
:1034A000C01EC1B20D48801CFDF744FD00236A46D2
:1034B0000A49891C0A48006801F064FB009838B189
:1034C0004FF0805007490860BFF34F8FBFF36F8FF5
:1034D0000248FEF74DF838BD00100140DA01002027
:1034E0001C00002004ED00E01CB50020009040F21C
:1034F0002551514800F01DF9002866D04E4800F0D3
:10350000D1F9C0B20190012101A800F0A7FB9DF8FC
:1035100004004A49497871B9022803D10021484A78
:10352000117008E00D2803D10121454A117002E015
:103530000221434A117000BF41480078002845D15C
:103540009DF80400022802D13C48FEF793FD9DF847
:1035500004103A48FEF798FD9DF8040003286AD14C
:1035600036484078C01EC1B23448801CFDF7E2FCEA
:103570000446201100F03EFB30490978C91E2F4A4D
:10358000921C515C88421DD104F00F0000F032FB08
:103590002A490978891E294A921C515C884211D116
:1035A00000236A462549891C2648006801F0EAFA8A
:1035B000009838B14FF0805023490860BFF34F8F17
:1035C000BFF36F8F1D48FEF755FD34E01C480078AF
:1035D000012830D119484078012806DC9DF8040004
:1035E0000D2802D11548FEF745FD9DF8041013483B
:1035F000FEF74AFD11484078042803DD9DF80400D9
:103600000A2803D09DF804003E2814D100236A46FE
:103610000A49891C0D48006801F0B4FA009838B1D5
:103620004FF0805008490860BFF34F8FBFF36F8F92
:103630000248FEF71FFD1CBD004800402A03002081
:103640002D0000202400002004ED00E028000020D0
:103650001CB50020009040F22551264800F069F882
:10366000002845D0234800F01DF9C0B201909DF814
:1036700004000A2800D11CBD1F480078012807D18A
:103680009DF804000A2803D0012101A800F0E6FA01
:103690001A489DF804104278322A08DA0378821C0E
:1036A000D1540278521C02704278521C427000BF02
:1036B0009DF804000D281BD100236A460F49891C80
:1036C0000F48006801F05EFA009838B14FF0805062
:1036D0000C490860BFF34F8FBFF36F8F074C322147
:1036E000A01CFDF7AFF800202070607000BF00BF85
:1036F00000BFC0E70014014040000020F403002098
:103700003000002004ED00E021B1828942F4005233
:10371000828104E082894DF6FF731A4082817047EE
:103720001AB1838A0B43838202E0838A8B438382AC
:10373000704770B50246002400230025002040F6A3
:103740006A16B14200D100BFC1F3421501F01F0358
:10375000012606FA03F3012D02D19689334006E0D3
:10376000022D02D1168A334001E0968A33400C12B2
:10377000012606FA04F41688344013B10CB1012076
:1037800000E0002070BDF0B50346002400260025AF
:10379000002040F66A17B94200D100BF1846C1F3B5
:1037A000421401F01F06012707FA06F5012C01D18A
:1037B0000C3004E0022C01D1103000E014301AB1BA
:1037C00007682F43076002E00768AF430760F0BD5A
:1037D0002DE9FF4705460E460024A14600BFA0463E
:1037E000B08900B100BF2C8A24F44054F08804430F
:1037F0002C82AC8941F20C608443B0883189084343
:10380000718908430443AC81AC8A24F44074B089C4
:103810000443AC826846FEF7FDFE2048854202D094
:103820001F48854202D1DDF80C9001E0DDF80890D8
:10383000A88900F4004040B109EBC90000EB091071
:1038400031684900B0FBF1F707E009EBC90000EB74
:10385000091031688900B0FBF1F76420B7FBF0F084
:1038600004012009642101FB1078A88900F40040BC
:1038700040B1322000EBC800B0FBF1F000F00700CF
:10388000044308E0322000EB08106421B0FBF1F0A3
:1038900000F00F0004432C81BDE8FF8700100140B9
:1038A0000014014001468888C0F3080070470000FA
:1038B0001FB5012000F0B6FF0B490860002232213D
:1038C0000A2000F0D3FF0949086000200223CDE957
:1038D0000030029003464FF4906205A1039008481F
:1038E00001F0BEF91FBD00003400002030000020B0
:1038F0005561727444656275675461736B000000B2
:103900006947000800B587B001210420FEF742FE98
:1039100001212020FEF76EFE082206212F48FEF727
:10392000ADF9082207212D48FEF7A8F94FF4807160
:103930002A48FEF7C6F94FF48070059001208DF8F3
:10394000180002208DF8190000208DF81A000120BF
:103950008DF81B0005A92148FEF748F9C020059005
:1039600002208DF818008DF8190000208DF81A003B
:1039700001208DF81B0005A91848FEF737F94FF410
:10398000E13001900020ADF80800ADF80A00ADF874
:103990000C00ADF810000C20ADF80E0001A9104885
:1039A000FFF716FF01210E48FFF7AEFE012240F29D
:1039B00025510B48FFF7E7FE47208DF800000E2049
:1039C0008DF8010000208DF8020001208DF8030021
:1039D0006846FEF719FD07B000BD00000008024070
:1039E0000014014010B5FFF78DFFFDF763FDFFF7F1
:1039F0005FFF10BD70B594B004460CAA58A12046D4
:103A0000FCF76EFD0AA8811E09AA831FCDE90132C9
:103A1000CDE9031008A8831E07AA53A100900CA8A3
:103A2000FCF75EFD072801D014B070BD9DF8320090
:103A300000F0B7F806469DF8310000F0B2F846EA0B
:103A40000010C5B22846FDF793FB8DF81B009DF8CA
:103A5000350000F0A6F806469DF8340000F0A1F805
:103A600046EA0010C5B22846FDF782FB8DF8190022
:103A70009DF8380000F095F806469DF8370000F0F4
:103A800090F846EA0010C5B22846FDF771FB8DF8A4
:103A90001A009DF83B0000F084F806469DF83A00B5
:103AA00000F07FF846EA0010C5B22846FDF760FB3B
:103AB0008DF814009DF83E0000F073F806469DF85E
:103AC0003D0000F06EF846EA0010C5B22846FDF74A
:103AD0004FFB8DF815009DF8410000F062F8064696
:103AE0009DF8400000F05DF846EA0010C5B2284697
:103AF000FDF73EFB8DF816009DF81A209DF8191071
:103B00009DF81B3003F5FA60FDF73FFB8DF81800B8
:103B10009DF81B00102800DA86E79DF8180000B910
:103B200082E7002340F2E24219461748006800F09D
:103B3000C1FE012811D105A90020FEF72BFF06A91F
:103B40000020FEF7C3FE012000F0B8FC00231A4657
:103B500019460D48006800F08DFF00BF64E70000C3
:103B6000252A732573000000222568642F256864C8
:103B70002F2568642C2568643A2568643A256864B2
:103B80002B256864220000009800002000BFFEE79B
:103B900030380A2801D2012070470020704700BF4A
:103BA00070470146302905DB392903DCA1F13000DB
:103BB000C0B27047412905DB462903DCA1F137007B
:103BC000C0B2F6E7612905DB662903DCA1F15700E5
:103BD000C0B2EEE70020ECE7C2B2054B1A8000BF8E
:103BE000034A121F128802F04002002AF8D07047E0
:103BF000041401400146092903DC01F13000C0B280
:103C000070470A2905DB0F2903DC01F13700C0B238
:103C1000F6E73020F4E710B54FF44070FEF730FCC3
:103C2000FEF738FCFEF7AEFFFFF7DCFEFEF74EF8BE
:103C3000FDF7AEF9FDF764FCFFF7A8FB00F00CFD03
:103C4000002010BD014611B90348006800E0084695
:103C5000024602F1340070476000002070B504464F
:103C60000D46002340F2E24219461048006800F079
:103C700021FE012819D101020D48FEF724F8224641
:103C800029460CA0FCF75CFB012D02D00BA0FCF731
:103C900057FB4FF480710648FEF713F800231A46CD
:103CA00019460248006800F0E5FE70BD34000020AF
:103CB00000080240252E2A73000000000D0A0000B3
:103CC00010B50446002340F2E24219460D48006850
:103CD00000F0F0FD012813D101020B48FDF7F3FFBE
:103CE00021460AA0FCF72CFB4FF480710648FDF733
:103CF000E8FF00231A4619460248006800F0BAFEA1
:103D000010BD0000340000200008024025730000B0
:103D100010B504460E48006844600E4800688442AE
:103D200007D20B480168091D0B48006800F054FBDE
:103D30000CE007480168091D0848006800F04CFBCA
:103D400007480068844201D20548046010BD0000A5
:103D50006000002074000020680000206400002043
:103D6000900000202DE9F04105460F461FB9A8003C
:103D700000F0C0F900E03846064656B1542000F085
:103D8000B9F904460CB1266304E0304600F06CFB40
:103D900000E0002424B1A900A522206BFCF74AFD15
:103DA0002046BDE8F081000070B523E000F086FCFD
:103DB0001348006808B9012000E00020054601F022
:103DC000F7F8BDB900F02EFB0D48C068C468201D8F
:103DD00000F010FA0B480068401E0A4908600A48C3
:103DE0000068401E0849086000F02EFB204600F0E5
:103DF00062F800BF044800680028D7D170BD0000F9
:103E0000C8E40120700000206C00002070B504465A
:103E10000D46206C70B1216CE0680844E060616878
:103E2000E068884201D32068E0602846226CE1689F
:103E3000FCF7BBFC70BD2DE9F04104460E4615466B
:103E40000027206C40B9206878BB606801F02EF82C
:103E500007460020606028E07DB93146226CA068EA
:103E6000FCF7A3FC216CA0680844A060D4E9011011
:103E700088421AD32068A06017E03146226CE068BF
:103E8000FCF793FC216CE068401AE0602168E06870
:103E9000884203D2216C6068401AE060022D04D190
:103EA000A06B10B1A06B401EA063A06B401CA06370
:103EB0003846BDE8F08110B50446206B00F0D4FA16
:103EC000204600F0D1FA10BD094A22F00700094A45
:103ED00010600022074B5A60074A084B5A600022C4
:103EE0001A600146044A4A601A460A607047000098
:103EF0003004002048000020F8DF010050000020BE
:103F000000BFFFF751FF064800680128F9D94FF0BC
:103F1000805004490860BFF34F8FBFF36F8FF0E705
:103F200028E4012004ED00E02DE9F04704460F46A7
:103F300015469946DDF82080002607E0B95D04F1BA
:103F400034008155B85D00B902E0761C102EF5D31F
:103F500000BF002143200155052D00D30425E56253
:103F600065640020A064201D00F033FA04F11800FD
:103F700000F02FFA2461C5F10500A0616462002001
:103F8000E06484F85000BDE8F087000010B500241C
:103F900007E004EB84010F4A02EB810000F00CFA09
:103FA000641C052CF5D30C4800F006FA0B4800F011
:103FB00003FA0B4800F000FA0A4800F0FDF90A483D
:103FC00000F0FAF904480949086004480849086003
:103FD00010BD000028E401208CE40120A0E40120B1
:103FE000B4E40120C8E40120DCE4012064000020E6
:103FF0006800002070B5054600F014FAA86B08B9F7
:10400000012400E0002400F01FFA204670BD70B5C6
:10401000054600F007FAA86BE96B884201D101243C
:1040200000E0002400F010FA204670BD0A4909683B
:10403000096809B9012100E0002121B14FF0FF31E9
:10404000064A116006E004490968C968C868034A5D
:10405000416811607047000064000020900000205B
:1040600000BFBF2080F31188BFF34F8FBFF36F8F66
:1040700000BF00BFFEE710B5044600F0D3F911E021
:10408000606A08B9012000E0002038B904F124007A
:1040900000F04EFF18B100F043FA00E005E0A06C1C
:1040A000401EA064A06C0028EADC00BF4FF0FF3087
:1040B000A06400F0C9F900F0B5F911E0206908B971
:1040C000012000E0002050B904F1100000F030FFA2
:1040D00008B100F025FA606C401E606400E002E068
:1040E000606C0028EADC00BF4FF0FF30606400F035
:1040F000ABF910BD2DE9F04104464FF0000800F087
:10410000DDFA2548006820B9FFF7DEFE01202249CC
:10411000086044B1083404F0070020B104F007003F
:10412000C0F108000444002C31D01C4884422ED237
:104130001B4F3846056801E02F462D686868A0428D
:1041400002D228680028F7D1164885421FD0386867
:1041500000F10808286838606868001B102810D92A
:104160002E196868001B70606C6071680C4800E074
:104170000068026852688A42FAD3026832600660B8
:1041800000BF094968680968081A0749086000F013
:104190000FFF4046BDE8F0815C000020F8DF010021
:1041A0004800002050000020580000200648006809
:1041B00030B10549096801F14800896C491C01606A
:1041C000014800687047000060000020001F4FF0A9
:1041D00080730360001F0160001F054B03601438EB
:1041E0000260001F6FF00203036020387047000078
:1041F0006140000801460A69D1E901309860D1E9BF
:10420000010358605068884201D1886850600020DE
:1042100008611068401E10601068704788B000F098
:10422000A3FD0546FFF70EFD0446224604A168469D
:10423000FCF792F86846FFF743FD00BFFEE7000079
:10424000764170706C69636174696F6E53746163F9
:104250006B4F766572666C6F77486F6F6B3A20258F
:10426000730A0000704700009AB000BF0023FA22D2
:1042700001A91048006800F01DFB0128F6D19DF847
:104280000A00FFF78EFC06469DF80900FFF789FC3F
:1042900046EA0010C5B2084C07E02078A84203D1D6
:1042A00001A86168884703E0083420784028F4D1E9
:1042B00000BFDBE714000020D05000089AB000BF18
:1042C0000023192201A91048006800F0F3FA012820
:1042D000F6D19DF80A00FFF764FC06469DF8090038
:1042E000FFF75FFC46EA0010C5B2084C07E02078F3
:1042F000A84203D101A86168884703E00834207808
:104300004028F4D100BFDBE71C000020D850000893
:10431000B2B0002600BF00BFFDF7DCFE0028FBD0D6
:1043200001201D490870FA221CA11EA0FEF760FCA6
:1043300000BF00BF00BF0023FA2269461C48006886
:1043400000F0B8FA01281AD19DF80C00FFF729FCFB
:1043500007469DF80B00FFF724FC47EA0010C5B2A2
:10436000144C07E02078A84203D16846616888476A
:1043700003E0083420784028F4D100BF00BF00F0EB
:10438000F9FC801B41F64C518842D4D3FEF71EF84D
:1043900000F0F0FC0646CEE72C0000202B43434CF7
:1043A0004B3A200041542B43434C4B3F0D0A000035
:1043B00024000020E050000800F1080141604FF0A7
:1043C000FF31816000F10801C160016100210160DD
:1043D000704700210161704710B502460B685C1CF4
:1043E0000CB9106907E002F1080000E04068446879
:1043F00024689C42FAD944684C604C68A16088608B
:1044000041600A611468641C146010BD42684A600F
:1044100093688B60936859609160086103685B1CC6
:104420000360704700BFBF2080F31188BFF34F8F38
:10443000BFF36F8F00BF03480068401C014908604C
:10444000704700004400002006480068401E0549EF
:1044500008600846006820B9002080F3118800BF7A
:1044600000BF70474400002070B506463546B6B11F
:10447000083D2C4600F022F96168094800E0006818
:10448000026852688A42FAD30268226004600549D1
:104490006068096808440349086000F089FD70BD40
:1044A000480000205800002003484FF0E0214861F8
:1044B0000720086170470000FF400A0070B50446FD
:1044C0000026DCB100F0FAF811480068051911481F
:1044D0000068001DFFF78EFE50B90E48006890F886
:1044E0002C10012088400C49096881430A4801606A
:1044F0002846FFF70DFC00F05BFD06463EB94FF085
:10450000805006490860BFF34F8FBFF36F8F70BDB7
:1045100074000020600000207800002004ED00E01E
:1045200001200149086070478400002070B50646EC
:104530000C461348016818313046FFF74DFF10480C
:104540000068001DFFF756FE50B90D48006890F84E
:104550002C10012088400B490968814309480160FB
:10456000601C30B906480168091D0748FFF74EFF77
:1045700005E00648006805192846FFF7C9FB70BD2D
:104580006000002078000020DCE40120740000209E
:1045900070B505462C46002D4BD02649E06A0968C7
:1045A000C96A884245D2A06900F0004028B9214874
:1045B0000068C06AC0F10500A061E16A01EB8101F9
:1045C0001D4A02EB81016069884201D1012000E0AF
:1045D000002050B3201DFFF70DFE78B9E06A00EB14
:1045E0008000154951F8200040B994F82C100120A2
:1045F0008840124909688143104801600D480068ED
:10460000C06AE06294F82C10012088400B490968C8
:1046100008430A490860E16A01EB8101064A02EB9E
:104620008100211DFFF7F2FE03E002480068C06A26
:10463000E06270BD6000002028E4012078000020C6
:104640000349096801600349096841607047000037
:1046500088000020740000201FB500200090019009
:104660000290034680220FA10390104800F0F8FA50
:104670000446012C14D100BFBF2080F31188BFF382
:104680004F8FBFF36F8F00BF4FF0FF3008490860B6
:1046900001200849086000200749086000F084F8FC
:1046A0001FBD000049444C4500000000013F0008C8
:1046B000900000207C000020740000200248006868
:1046C000401C0149086070479400002070B52048E4
:1046D000006818B101201F49086038E000201D491A
:1046E00008601D480068046B4FF0A5352068B0F1E4
:1046F000A53F0BD16068B0F1A53F07D1A068B0F12C
:10470000A53F03D1E068B0F1A53F05D0124801688C
:1047100034310068FFF782FD10480068B0FA80F07D
:10472000C0F11F0101EB81020D4B03EB82004268D7
:104730005268426000F108024368934202D1426825
:10474000526842604268D268034B1A6000BF70BD75
:1047500094000020840000206000002078000020E9
:1047600028E4012000BFFEE78EB000BF00235A1EE0
:1047700001A90A48006800F09DF80128F6D1084810
:10478000016801A8FCF7D2F80028EFD10120054903
:104790000870FFF793FEFEF7E5FC000030000020F4
:1047A0003C0000204000002010B50E48006840F496
:1047B0007F000C4908600846006840F07F400860B0
:1047C000FFF772FE002008490860FBF75BFD074811
:1047D000006840F0404005490860FBF743FD0020B9
:1047E00010BD000020ED00E04400002034EF00E0A8
:1047F00010B500BFBF20EFF3118180F31188BFF324
:104800004F8FBFF36F8F00BF00F0BAFA18B14FF0AF
:10481000805003490860002080F3118800BF10BD5C
:1048200004ED00E070B505464C20FFF763FC04463C
:10483000D4B1002060602060A060E060A06301202F
:10484000E06300202064401E6064A06404F1100056
:10485000FFF7B2FD04F12400FFF7AEFD00231A4676
:104860001946204600F006F9204670BD2DE9F047B4
:1048700006460D4691464FF000080DB9002702E0AC
:1048800006FB05F0471C07F14C00FFF733FC04461C
:1048900064B10DB9246002E004F14C002060E663CD
:1048A00025640121204600F0A7F8A0464046BDE857
:1048B000F08700002DE9FF4383B0054688461E4679
:1048C0004FF000092C4600BFFFF7ACFDA06B00289D
:1048D0003BD0E76841462046FFF798FADEB9A06B67
:1048E000401EA063206810B9FFF760FC606020697B
:1048F00008B9012000E0002008BB04F1100000F01E
:1049000017FB01281BD100073A490860BFF34F8FFE
:10491000BFF36F8F13E0E760606A08B9012000E021
:10492000002060B904F1240000F002FB38B14FF020
:10493000805030490860BFF34F8FBFF36F8FFFF790
:1049400083FD012007B0BDE8F083059818B9FFF793
:104950007BFD0020F6E7B9F1000F04D101A8FFF7B5
:104960006FFE4FF00109FFF76FFDFFF7A7FEFFF79E
:1049700059FD606C401C08B900206064A06C401CAC
:1049800008B90020A064FFF75FFD05A901A800F0A9
:1049900039F938BB2046FFF72DFBE8B1206830B964
:1049A000FFF740FD6068FFF7F3FDFFF74DFD04F1F1
:1049B00024000599FFF7BAFD2046FFF75CFB00F0E5
:1049C000F7FA002880D14FF080500A490860BFF301
:1049D0004F8FBFF36F8F77E72046FFF74CFB00F058
:1049E000E7FA71E72046FFF746FB00F0E1FA002006
:1049F000A8E7000004ED00E070B505460E462C4621
:104A0000FFF710FDD4E90F12206801FB020060607F
:104A10000020A0632068A060E06B401E226C21682B
:104A200000FB0210E0604FF0FF306064A0649EB9AC
:104A3000206908B9012000E00020A8B904F11000A5
:104A400000F076FA01280FD1000709490860BFF38A
:104A50004F8FBFF36F8F07E004F11000FFF7ACFC3E
:104A600004F12400FFF7A8FCFFF7EEFC012070BD65
:104A700004ED00E02DE9FF4383B0074688461D465C
:104A80004FF000093C4600BFFFF7CCFCA06BE16B88
:104A9000884201D3022D28D12A4641462046FFF7FD
:104AA000CAF90646606A08B9012000E0002068B92A
:104AB00004F1240000F03CFA012810D1000730492D
:104AC0000860BFF34F8FBFF36F8F08E03EB14FF028
:104AD00080502B490860BFF34F8FBFF36F8FFFF7F4
:104AE000B3FC012007B0BDE8F083059818B9FFF7C3
:104AF000ABFC0020F6E7B9F1000F04D101A8FFF7E5
:104B00009FFD4FF00109FFF79FFCFFF7D7FDFFF76F
:104B100089FC606C401C08B900206064A06C401CDB
:104B200008B90020A064FFF78FFC05A901A800F0D8
:104B300069F8F0B92046FFF76AFAA0B104F1100055
:104B40000599FFF7F3FC2046FFF795FA00F030FADD
:104B5000002899D14FF0805009490860BFF34F8F6A
:104B6000BFF36F8F90E72046FFF785FA00F020FA39
:104B70008AE72046FFF77FFA00F01AFA0020B1E733
:104B800004ED00E02DE9F04705468A4616461F462B
:104B90002C4600BFBF21EFF3118081F31188BFF3D2
:104BA0004F8FBFF36F8F00BF8146A06BE16B8842D0
:104BB00001D3022F1CD13A4651462046FFF73BF95C
:104BC000A06C401C70B9606A08B9012000E00020A8
:104BD00058B904F1240000F0ABF930B12EB1012036
:104BE000306002E0A06C401CA0644FF0010801E0BE
:104BF0004FF0000800BF89F3118800BF4046BDE8B0
:104C0000F087000070B504460D46FFF70BFC124814
:104C100002682868401C08B9002619E00F4920687E
:104C20000968884204D06068904201D801260FE0EC
:104C30006068101A2968884209D228686168511A88
:104C4000401A28602046FFF7FBFC002600E0012602
:104C5000FFF7FAFB304670BD74000020880000208A
:104C60002DE9FF4F81B0804615469946DDE90E7A61
:104C700028461099FFF776F80446002C4FD0681E9E
:104C8000216B01EB800B2BF0070B00953A46204679
:104C9000119B0299FFF748F94A4641465846FFF7EB
:104CA00095FA2060BAF1000F01D0CAF80040FFF772
:104CB000B9FB26480068401C244908602448006865
:104CC00040B9234804600846006801280CD1FFF76A
:104CD0005DF909E01F48006830B91D480068C06AE6
:104CE000B84201D81A4804601B480068401C1A49A1
:104CF000086094F82C10012088401849096808437E
:104D000016490860E16A01EB8101154A02EB810056
:104D1000211DFFF77BFB0126FFF796FB01E04FF01B
:104D2000FF36012E0ED10B48006858B108480068C4
:104D3000C06AB84206D230070A490860BFF34F8FF5
:104D4000BFF36F8F304605B0BDE8F08F70000020D4
:104D5000600000207C0000208C00002078000020F3
:104D600028E4012004ED00E00149086870470000D4
:104D700060000020014908687047000074000020AE
:104D80002DE9F04100273E48006800286AD13D48DF
:104D90000068401C3B490860084606688EB93A48DE
:104DA000D0F8008039480068374908603748C0F8B3
:104DB000008037480068401C35490860FFF736F925
:104DC00000BF3448006886423BD300BF2E480068CD
:104DD000006808B9012000E0002020B14FF0FF304A
:104DE0002C4908602CE028480068C068C4686568E1
:104DF000AE4202D22748056022E0201DFFF7FAF9F3
:104E0000A06A18B104F11800FFF7F4F994F82C1017
:104E1000012088402049096808431F490860E16A69
:104E200001EB81011D4A02EB8100211DFFF7EEFA23
:104E30001B49E06A0968C96A8842C7D30127C5E7E8
:104E400000BF17480068C06A00EB8000134951F8A2
:104E50002000012800D901271248006848B9FFF74F
:104E600001FA06E00F480068401C0E490860FFF791
:104E7000F9F90D48006800B101273846BDE8F08116
:104E800094000020740000206400002068000020CE
:104E900088000020900000207800002028E40120F5
:104EA00060000020800000208400002070B50546CE
:104EB0002C460026ADB3A06C401EA064616CE06A75
:104EC00088422ED0A06C60BB201DFFF793F978B903
:104ED000E06A00EB8000144951F8200040B994F8D2
:104EE0002C10012088401149096881430F48016056
:104EF000606CE062E06AC0F10500A06194F82C10DB
:104F00000120884009490968084308490860E16AA6
:104F100001EB8101044A02EB8100211DFFF776FAC3
:104F20000126304670BD000028E4012078000020F2
:104F300070B50646F068C46804F11800FFF75AF926
:104F400015480068A8B9201DFFF754F994F82C10F3
:104F50000120884011490968084310490860E16A46
:104F600001EB81010E4A02EB8100211DFFF74EFA91
:104F700004E004F118010B48FFF748FA0A49E06A17
:104F80000968C96A884204D90125012007490860D7
:104F900000E00025284670BD940000207800002025
:104FA00028E40120B4E401206000002084000020F7
:104FB00070B50025FFF736FA2E480068401E2D49CF
:104FC000086008460068002850D12B480068002877
:104FD0004CD024E02948C068C46804F11800FFF7E9
:104FE00009F9201DFFF706F994F82C1001208840DC
:104FF00023490968084322490860E16A01EB8101FD
:10500000204A02EB8100211DFFF700FA1E49E06AE9
:105010000968C96A884202D301201C490860174800
:10502000006808B9012000E000200028D2D018480C
:10503000006878B10AE0FFF7A3FE10B10120134920
:10504000086013480068401E114908601048006855
:105050000028F0D10D480068012807D1012500077C
:105060000C490860BFF34F8FBFF36F8FFFF7ECF968
:10507000284670BD9400002070000020B4E4012098
:105080007800002028E40120600000208400002037
:105090008000002004ED00E010B500290AD0087857
:1050A000002807D005487844FBF740FC002801D0D1
:1050B000002010BD0248784410BD0000920100009D
:1050C0008A0100004FF04070E1EE100A70470000C6
:1050D00001000000C523000801000000C5230008EE
:1050E00001000000C5230008666974627269676880
:1050F0007420746573740D000D0A20202020202078
:105100003620C9E8D6C3CDF8B9D8CEB3B6C820206A
:1051100020203720D5F2C1F7C6F7B5F7B9E2202035
:10512000202020203820D5F2C1F7C6F7BFAAB9D871
:105130002020202020203920B6C1D5F2C1F7C6F7A3
:10514000CAFDBEDD202020204120BDD3B4A5C6F776
:10515000BFD8D6C6202000000D0A20202020202005
:105160004220D5F2C1F7C6F7B2CECAFDB2E9D1AF3F
:1051700020204320D5F2C1F7C6F7B2DFC2D4B2E98E
:10518000D1AF20204420CDF8B9D8B2CECAFDB2E9C3
:10519000D1AF202020204620BBD6B8B4B3F6B3A7A9
:1051A000C9E8D6C3202020204C20B5E7C1BFCAFDE6
:1051B000BEDDB2E9D1AF00000D0A20202020202062
:1051C0003120C9E8D6C3CDF8B9D8CAB1BCE4202093
:1051D00020203220C9E8D6C3CDF8B9D8B5D8D6B783
:1051E000202020203320C9E8D6C3444E5320495004
:1051F0002020202020203420C9E8D6C3B7FECEF1DD
:10520000C6F74950202020203520C9E8D6C3CDF864
:10521000B9D8BEADB6C80000485300080000002051
:10522000A8000000C4010008F0530008A8000020F6
:10523000A8EA0100E001000810010000430000009E
:10524000F8FFFFFF004040404040404040404141A7
:10525000414141404040404040404040404040404B
:1052600040404040400502020202020202020202E5
:1052700002020202022020202020202020202002E2
:105280000202020202029090909090901010101072
:10529000101010101010101010101010101010100E
:1052A00002020202020288888888888808080808A2
:1052B000080808080808080808080808080808086E
:1052C0000202020240000000000000000000000096
:1052D00000000000000000000000000000000000CE
:1052E00000000000000000000000000000000000BE
:1052F00000000000000000000000000000000000AE
:10530000000000000000000000000000000000009D
:10531000000000000000000000000000000000008D
:10532000000000000000000000000000000000007D
:10533000000000000000000000000000000000006D
:105340000000000000000000000000000102030453
:105350000102030406070809000000000000000025
:10536000000000000000000000000000000000003D
:10537000000000000000000000000000000000002D
:1053800000000000E850000800000000AAAAAAAA35
:10539000000000000000000000000000000000000D
:1053A000F8DF010000000000000000000000000025
:1053B00000000000000000000000000000000000ED
:1053C00000000000000000000000000000000000DD
:1053D00000000000000000000000000000000000CD
:1053E00000000000000000000000000000000000BD
:040000050800018965
:00000001FF
