:020000040800F2
:10000000189D01203D030008174C0008F14200082C
:10001000FB4B0008B3150008536C000800000000FB
:100020000000000000000000000000008502000841
:10003000091B000800000000D9020008A1B1000857
:100040005703000857030008570300085703000828
:100050005703000857030008570300085703000818
:100060005703000857030008570300085703000808
:100070005703000857030008C91700082118000893
:1000800057030008570300085703000857030008E8
:1000900057030008570300085703000857030008D8
:1000A00057030008570300085703000857030008C8
:1000B00057030008570300085703000857030008B8
:1000C00057030008570300085703000857030008A8
:1000D00057030008896200085703000831630008CD
:1000E0005703000857030008570300085703000888
:1000F0005703000857030008570300085703000878
:100100005703000857030008570300085703000867
:10011000F56100085703000857030008570300085B
:100120005703000857030008570300085703000847
:100130005703000857030008570300085703000837
:100140005703000857030008570300085703000827
:100150005703000857030008491800089164000875
:100160005703000857030008570300085703000807
:1001700057030008570300085703000857030008F7
:10018000570300085703000800F002F800F06AF86F
:100190000AA090E8000C82448344AAF10107DA45E2
:1001A00001D100F05FF8AFF2090EBAE80F0013F0CA
:1001B000010F18BFFB1A43F00103184770C8000075
:1001C00090C800000A444FF0000C10F8013B13F0F7
:1001D000070408BF10F8014B1D1108BF10F8015BA0
:1001E000641E05D010F8016B641E01F8016BF9D193
:1001F00013F0080F1EBF10F8014BAD1C0C1B09D1EA
:100200006D1E58BF01F801CBFAD505E014F8016B5B
:1002100001F8016B6D1EF9D59142D6D370470000ED
:100220000023002400250026103A28BF78C1FBD8FF
:10023000520728BF30C148BF0B607047732900F0D8
:10024000A284002070471FB50CF0BEF900F076FFC5
:100250000400002000210BF0CFFB401C60601FBD9C
:1002600010B510BD00F045FF1146FFF7ECFF08F098
:1002700097FB00F067FF03B4FFF7F2FF03BC07F042
:1002800092FE00002A4B19680868B0E8F04F80F32E
:100290000988BFF36F8F4FF0000080F3118870471B
:1002A0000000000006480068006880F3088862B615
:1002B00061B6BFF34F8FBFF36F8F00DF00BF00BF8A
:1002C00008ED00E0DFF80C00016841F47001016006
:1002D000704700BF88ED00E0EFF30980BFF36F8F38
:1002E000134B1A681EF0100F08BF20ED108A20E98A
:1002F000F04F106008B44FF0BF0080F31188BFF3D7
:100300004F8FBFF36F8F0AF0D9FD4FF0000080F3DD
:10031000118808BC19680868B0E8F04F1EF0100F8B
:1003200008BFB0EC108A80F30988BFF36F8F704765
:100330002C010020EFF3058070470000094880473A
:1003400009480047FEE7FEE7FEE7FEE7FEE7FEE7B7
:10035000FEE7FEE7FEE7FEE704480549054A064BCF
:1003600070470000695F00088901000818970120A4
:10037000189D01201899012018990120704700004C
:100380000FB4044910B503AA029800F001FC10BC98
:100390005DF814FB700100200FB41CB5074B06AAD2
:1003A0007B4469460090059800F0C3FB0020694635
:1003B00000F0D2FB1CBC5DF814FB0000B507000088
:1003C00070B50C460546012A05D02878800600D570
:1003D000EA69002302E0012305E05B1C934202D29C
:1003E000E05C0028F9D1A869E618C01AA861286A5B
:1003F000184428622846AFF3008004E0D5E90121C3
:1004000014F8010B9047B442F8D32846AFF30080AC
:1004100070BD2DE9F0474FF0000A89460446C0F848
:1004200020A02046E1688847002876D0252806D0FD
:10043000D4E901219047206A401C2062F1E7E1687D
:10044000204600258847C4F81CA006460027C4F8AB
:1004500018A02A2E09D0304607F09EFD38B304EBD1
:100460008708303EC8F8186019E059F8041B204688
:1004700004EB87029161E1688847012F064618D195
:10048000E069002820DA25F020051DE0D8F81800E2
:1004900000EB800006EB40003038C8F8180020461A
:1004A000E1688847064607F077FD0028EED1012F66
:1004B0000AD02E2E08D12046E16888477F1C0646C8
:1004C000022F45F02005C4DBA069002803DA404272
:1004D00045F00105A061E80701D025F01005B6B18F
:1004E000A6F14100192802D8203645F400654A4695
:1004F0003146204625604D46FFF7A0FE58B1012841
:1005000006D0ED1D25F0070000F1080989E704E099
:1005100005F1040985E730468AE7206ABDE8F087DF
:100520000FB400B58DB010A9099000910B904FF059
:10053000FF300A9000200C90064878440690064848
:1005400078446A4607900F9909A800F047FB0DB060
:100550005DF814FBBF060000D70600002DE9FF5F21
:100560001D464FF0FF3B91464FF000085F46D5E92E
:100570000146A96901987F1C8847296A82468847F5
:100580000028F6D1BAF1FF3F0CD0002E24F4C0644D
:1005900019DD600614D5BAF12B0F09D0BAF12D0F71
:1005A0000ED103E0584604B0BDE8F09F44F48064E7
:1005B000A96901987F1C8847761E8246002E02DDBD
:1005C000BAF1300F03D0B9F1000F26D032E0A9699B
:1005D000761E01987F1C44F400748847002E8246E2
:1005E00005DDBAF1780F06D0BAF1580F03D0B9F192
:1005F000000F10D01EE0B9F1000F02D0B9F1100FBA
:1006000018D1A969761E01987F1C24F400748847CC
:100610008246102002E0082000E00A20814609E01E
:10062000A96908FB0908761E01987F1C44F4007430
:1006300088478246002E05DD4946504600F0BAFA4A
:100640000028EDDAE96901988847A00502D46FF027
:100650000100A8E7E00725D1600613D5600502D5A3
:10066000C8F1000000E0404629680A1D2A600968B8
:10067000220501D5087015E0220701D5088011E098
:1006800008600FE02868011D29600068210502D577
:1006900080F8008006E0210702D5A0F8008001E084
:1006A000C0F8008038467EE72DE9FF5F4FF0000874
:1006B0009946144646469169D2E901A7DDF838B05B
:1006C00001988847054659EA0B0005D009E0A16961
:1006D0000198761C88470546216A284688470028E5
:1006E000F5D1681C03D05FEACA7005D015E04FF061
:1006F000FF3004B0BDE8F09F2068011D2160D0F8F4
:1007000000800AE05FEACA7001D108F8015BA169C4
:10071000761C01987F1E88470546002F1ADD681C4D
:1007200018D0B9F1000F0DD0E81705EBD0604211D9
:1007300020F01F0059F822102A1A0120904001428F
:10074000E0D107E0BBF1000FDCD12846216A8847E1
:100750000028D7D0E16901988847BBF1000F07D185
:10076000002E05DD5FEACA7002D1002188F8001072
:10077000A068B84203DDBBF1000F03D017B16FF0E2
:100780000100B6E73046B4E770B5064600F0BCF9A4
:100790000468054630460A22002100F04FFA2C601A
:1007A00070BD30B505460B462A4613F8014B12F8CA
:1007B000010B08B1A042F8D01CB1002802D06D1C7A
:1007C000F1E7284630BD10B5431C02E010F8011BCC
:1007D00071B18107FAD14FF0013202C88C1A8C43F3
:1007E00014EAC211F9D0C01A0A0603D0C01E10BD07
:1007F000C01A10BD0A0401D0801E10BD0902FCD031
:10080000401E10BD40EA010370B59B072ED14FF08A
:100810000136042A2AD308C810C99D1B9D43121F04
:1008200015EAC61517D0D8B2E1B2401A50EA0561F0
:1008300010D198B2A1B2401A50EA05410AD123F072
:100840007F4024F07F41401A50EA052102D1180E62
:10085000A0EB146070BDA342DBD018BA21BA884265
:1008600001D9012070BD4FF0FF3070BD0AB90020E2
:1008700070BD10F8013B11F8014B63B1A3420AD1DE
:10088000521E08D010F8013B11F8014B1BB1A342D6
:1008900001D1521EEDD1181B70BD032A40F23080E9
:1008A00010F0030C00F0158011F8013BBCF1020FB1
:1008B000624498BF11F801CB00F8013B38BF11F832
:1008C000013BA2F1040298BF00F801CB38BF00F849
:1008D000013B11F0030300F02580083AC0F00880C6
:1008E00051F8043B083A51F804CBA0E80810F5E7AA
:1008F000121D5CBF51F8043B40F8043BAFF300808D
:10090000D20724BF11F8013B11F801CB48BF11F801
:10091000012B24BF00F8013B00F801CB48BF00F8D1
:10092000012B704710B5203AC0F00B80B1E8185089
:10093000203AA0E81850B1E81850A0E81850BFF4C9
:10094000F5AF5FEA027C24BFB1E81850A0E8185068
:1009500044BF18C918C0BDE810405FEA827C24BFBC
:1009600051F8043B40F8043B08BF7047D20728BF4A
:1009700031F8023B48BF11F8012B28BF20F8023B99
:1009800048BF00F8012B704702F0FF0343EA03223F
:1009900042EA024200F002B84FF000020429C0F01F
:1009A000128010F0030C00F01B80CCF1040CBCF1A1
:1009B000020F18BF00F8012BA8BF20F8022BA1EBF3
:1009C0000C0100F00DB85FEAC17C24BF00F8012BD8
:1009D00000F8012B48BF00F8012B70474FF00002D0
:1009E00000B5134694469646203922BFA0E80C5025
:1009F000A0E80C50B1F12001BFF4F7AF090728BF00
:100A0000A0E80C5048BF0CC05DF804EB890028BF7B
:100A100040F8042B08BF704748BF20F8022B11F0A4
:100A2000804F18BF00F8012B704710B5044610F036
:100A3000030F08BF11F0030F40F015804FF0013E87
:100A4000121FC0F20E8051F8043BA3EB0E0C2CEAEF
:100A5000030C1CEACE1C08BF40F8043BF0D0A1F107
:100A6000040102F10402521E08DB11F8013B002BC5
:100A700000F8013BF7D11146FFF78EFF204610BD6D
:100A80004FF0013C50F8042B51F8043B9A4221D11D
:100A9000A2EB0C03934313EACC1317D150F8042BA9
:100AA00051F8043B9A4215D1A2EB0C03934313EA8D
:100AB000CC130BD150F8042B51F8043B9A4209D1C6
:100AC000A2EB0C03934313EACC13DBD04FF00000EE
:100AD000704700BFD01A01BAB1FA81F101F01801D4
:100AE00022FA01F0CB40C1F12001DBB2C0B2C01A42
:100AF0002CFA01F3D11A914311EAC311E6D17047E0
:100B0000704770477047704700487047B89601209B
:100B100010B5FFF7F9FF006810BD10B50446FFF7E8
:100B2000F3FF046010BD000001694A1C02610878EF
:100B3000704700B58FB0CDE901310021059105491D
:100B40007944CDE9031011466846FFF762FC0FB007
:100B500000BD0000E5FFFFFF0A6802F8010B0A6014
:100B6000704710B5436913B1AFF3008001E0FFF7A0
:100B700027FC012010BD127800F124010A70002228
:100B80004A700122EDE711684FF0FF32E9E70000FB
:100B9000074B70B50D467B44FFF7CBFF0446284654
:100BA00000F0A3FA10B14FF0FF3070BD204670BDC9
:100BB000777B00003A2800D2303820F02002412A0A
:100BC00001D3A2F13700884201D34FF0FF307047C4
:100BD000026811441378016018467047D1600549D6
:100BE000794451610449794411620021116111462F
:100BF00000F072B8EDFFFFFFDB000000426842B179
:100C0000016811F8013B23B1521EC0E900121846D9
:100C100070470121C160881E704742685AB1C3689D
:100C2000016843B983688B4205D0491E521CC0E954
:100C30000012002070474FF0FF3070472DE9F04759
:100C400091460F4680460446002614F8015B2DB1FC
:100C500000F030F80068405DC007F6D12B2D02D0BF
:100C60002D2D18D0641E4A463946204600F0EEF974
:100C700027B13968A14201D1C7F800804FF00204C2
:100C800071050BD54042002803DDFFF73DFF0460EE
:100C9000A007BDE8F08746F48066E4E70028F8DAAC
:100CA000FFF732FF04606FF00040F2E70048704742
:100CB000B896012010B500F041FA001D10BD00BF2C
:100CC00039AD000010B50446FFF7F4FF0068005D81
:100CD00000F0010010BD00002DE9F34F4FF0000AB5
:100CE0000C4656468DB001200C9001F10C000B9083
:100CF00062690B980121904705002DD0252D2CD03D
:100D0000216A8847C0B162690B9801219047216A26
:100D100088470028F7D16269411E0B98904700E090
:100D2000761CA1690D988847216A88470028F7D169
:100D3000E1690D988847DBE7A1690D988847A842CB
:100D4000074601D1761CD3E7E1690D9888477F1CDF
:100D500002D1BAF1000F6FD06BE162690B980027E6
:100D60003D46394690472A2804D162690B980121F3
:100D700090470125DFF8D08262690B9801219047E6
:100D8000A0F130010A290AD24745E5DC07EB8701CB
:100D900000EB4107303FDFD445F01005ECE7E906F2
:100DA00001D46FF000476C280AD04C2814D0682872
:100DB00015D06A280DD074281CD07A281AD01DE0CE
:100DC00062690B98012190476C2802D045F0040518
:100DD00014E045F002050DE045F020050AE06269E7
:100DE0000B9801219047682802D045F0080505E0DE
:100DF00045F4006562690B9801219047C4E90157E9
:100E000065283DD019DC58287AD00CDC452837D02D
:100E100004DC252826D041289ED131E046282FD059
:100E2000472899D12CE05B2877D0612828D0632807
:100E30007CD0642823D15AE0F6E06F2848D008DC43
:100E400066281DD067281BD0692821D06E2816D1AE
:100E500027E0702845D0732868D0752847D07828B7
:100E60000DD14DE0A1690D988847252805463FF42E
:100E700069AFE1690D9888476D1C3FF46AAFD8E00F
:100E80000D9923466A466FF00100AFF30080C5E07C
:100E900045F0400023464FF000026060A80736D4BA
:100EA0003EE0E8077FF447AF2068011D216000683D
:100EB000290501D506701BE7290701D5068017E72C
:100EC000A90703D5F117C0E9006111E706600FE734
:100ED00045F0400023464FF008026060A80716D492
:100EE0001EE040F60E0125EA0100606016E045F0C4
:100EF000400023464FF00A026060A80707D40FE0C5
:100F000045F040006060A80708D5234610220D99DF
:100F10006FF00100AFF3008080E007E0102223466D
:100F20000D996FF00100FFF719FB77E04FF0000912
:100F300063284F46C8464B46CB4602D05B2806D0B6
:100F400038E0E80601D40120A060012732E06269A0
:100F5000D4F80CB00B98012190475E2807D14FF0D0
:100F6000010949466269D4F80CB00B989047216991
:100F700039B900210A4603AB43F82120491C08294E
:100F8000FADBD8B3216949B308F1010862690B980B
:100F9000012190475D28F4D1B9F1000F09D000205C
:100FA00003A951F82020D24341F82020401C0828F2
:100FB000F7DB03AB2069002820794FEA40701ED090
:100FC0005B462246CDF80080CDE901970D990028B7
:100FD0006FF0010020DAAFF300801FE0C11703AA11
:100FE00000EBD1614B1121F01F0102EB8302411A8A
:100FF00013680120884003431360C7E719E00D9987
:10100000224600286FF00100009702DAAFF300805B
:1010100004E0FFF749FB01E0AFF3008000280ADAA3
:10102000401C06D10C9820B14FF0FF300FB0BDE846
:10103000F08F5046FAE7E90701D10AF1010A0644A8
:1010400000200C9054E60000CCCCCC0C2DE9F05FD5
:10105000824615468B4600270AF10104B9460078FE
:10106000302801D09DB113E014F8010B0127782836
:1010700003D0582801D045B10AE00DB1102D07D199
:10108000002714F8010B102502E0082500E00A25CE
:101090000026B0460EE005FB080005FB06F101271F
:1010A0001FFA80F801EB1046B6F5803F00D3B94631
:1010B00014F8010B2946FFF77DFD0028EBDABBF1A0
:1010C000000F05D00FB1641E00E05446CBF800407D
:1010D000B9F1000F06D0FFF717FD02210160C81E0D
:1010E000BDE8F09F48EA0640FAE7007B00F0800088
:1010F00070477546FFF7DAFDAE4605006946534670
:1011000020F00700854618B020B5FFF725F9BDE8A7
:1011100020404FF000064FF000074FF000084FF05E
:10112000000B21F00701AC46ACE8C009ACE8C009EF
:10113000ACE8C009ACE8C0098D467047004870476C
:10114000D89601200446AFF300802046FFF793F8BD
:1011500000B5A1B000200090019002903C2203A9AC
:101160004FF4004003F080FE3C2103A803F0E8FEAA
:10117000C0B94FF440505D490880488088804FF4E2
:101180008050C8800881488140008881C8810882D9
:1011900048824FF4A0408882C88208834883032095
:1011A0000877A0E06A4604210DF10E0000F08AFAEB
:1011B0006846FFF7E9FA4D4908806A4604210DF1B7
:1011C000160000F07FFA6846FFF7DEFA47494880CC
:1011D0006A4604210DF11E0000F074FA6846FFF71C
:1011E000D3FA424988806A4604210DF1260000F0B6
:1011F00069FA6846FFF7C8FA3C49C8806A46042184
:101200000DF12E0000F05EFA6846FFF7BDFA37498F
:1012100008816A4604210DF1360000F053FA684651
:10122000FFF7B2FA314948816A4604210DF13E00C8
:1012300000F048FA6846FFF7A7FA2C4988816A4609
:1012400004210DF1460000F03DFA6846FFF79CFAD4
:101250002649C8816A4604210DF14E0000F032FA99
:101260006846FFF791FA214908826A4604210DF188
:10127000560000F027FA6846FFF786FA1B494882B5
:101280006A4604210DF15E0000F01CFA6846FFF783
:101290007BFA164988826A4604210DF1660000F047
:1012A00011FA6846FFF770FA1049C8826A460421AD
:1012B0000DF16E0000F006FA6846FFF765FA0B497B
:1012C00008836A4604210DF1760000F0FBF96846B8
:1012D000FFF75AFA05494883BDF87E10C8B206F0F8
:1012E00097FF0249087721B000BD0000C00500202B
:1012F00010B508F07DFBFFF72BFF10BD10B50022E5
:1013000002214FF47A7009F089FF0F49086000222A
:1013100002214FF47A7009F081FF0C4908604CF209
:1013200050310B48FFF738FB41F270710948FFF765
:1013300033FB002008494880088003F025FA03F0B9
:1013400007FA04F041FF10BD700000207400002077
:101350000000001050C300107800002010B50246B5
:101360001078002305E0541C2246247860405C1C61
:10137000E3B24C1E9C42F6DC10BD10B500F064F8E0
:1013800000F0BAF810BD000010B500200849087040
:10139000487064210648801CFFF7FEFA00200549CA
:1013A0000870487064210348801CFFF7F5FA10BDEF
:1013B00074010020DA0100201FB5FFF7DEFFFFF700
:1013C000E3FF03220021012009F028FF10490860F3
:1013D0000846006830B100231A4619460C480068D8
:1013E0000AF002F8002264211E2009F017FF0949C3
:1013F00008600020084A0223CDE9012000930390F1
:1014000003464FF4086205A109480AF009F91FBD17
:1014100010000020140000201C00002042616C6CB1
:10142000617374436F6D6D315461736B0000000024
:1014300009A5000810B504466421A01CFFF7ACFA0A
:1014400000202070607010BD00B587B0012104201D
:1014500003F03CFE0121C80403F058FE08220A21D3
:10146000234801F02FF908220B21214801F02AF925
:101470004FF44060059002208DF818008DF8190097
:1014800000208DF81A0001208DF81B0005A91848CE
:1014900001F0D0F84FF4164001900020ADF808009C
:1014A000ADF80A00ADF80C00ADF810000C20ADF856
:1014B0000E0001A90F4805F0ABF801210D4805F019
:1014C00043F8012240F225510A4805F07CF8342007
:1014D0008DF800000F208DF8010000208DF802002B
:1014E00001208DF80300684603F096FB07B000BDAD
:1014F00000080240004C004000B591B001214805B1
:1015000003F0E4FD224800F0DBF900BF204800F0C2
:1015100083FA0028FAD14FF0006002901D48039032
:101520001D480490402005900020069007904FF43D
:1015300080600890002009900A900B904FF4803052
:101540000C9000200D9003200E9000200F90109022
:1015500002A90F4800F0AAFA012210210C4800F05D
:1015600087FA012280210B48001F04F0F9FF0F20A9
:101570008DF804008DF8050000208DF8060001208C
:101580008DF8070001A803F047FB11B000BD000073
:1015900070600240044C0040DC010020014600BFA6
:1015A000080900EB8000420001F00F001044C0B2B7
:1015B000704700BFFEE70146002204E0501CC2B2A3
:1015C000A1F10A00C1B20A29F8DA100741EA106055
:1015D000704700001FB5044604F0A2FC20B901F0DA
:1015E00013FC08B903F072FB02AB03AA12A1204658
:1015F000FEF796FF039901F00F0007F0A7F98DF8A9
:1016000000000398C0F3031007F0A0F98DF8010063
:10161000029901F00F0007F099F98DF80200029885
:10162000C0F3031007F092F98DF803000422694615
:10163000972001F0FEF81FBD2B4353513A2025643B
:101640002C256400F0B503461446012901D0022977
:1016500001D10C315B1E4D1C05EB4505052695FBA4
:10166000F6F5022606FB014635441D441846DE17F2
:1016700003EB967605EBA605642693FBF6F6AD1B09
:101680004FF4C87693FBF6F63544072695FBF6F73C
:1016900006FB1752072A13D2DFE802F00406080AF5
:1016A0000C0E10000120F0BD0220FCE70320FAE739
:1016B0000420F8E70520F6E70620F4E70720F2E724
:1016C0000020F0E710B50346002004E013F81040B6
:1016D0001454441CE0B28842F8DB10BD10B586B04B
:1016E0000446002007F032F98DF804000A2007F0C4
:1016F0002DF98DF8050030208DF8060039208DF881
:10170000070042208DF8080030208DF809008DF880
:101710000A008DF80B00200B07F018F98DF80C006B
:10172000C4F3032007F012F98DF80D00C4F3031081
:1017300007F00CF98DF80E0004F00F0007F006F921
:101740008DF80F000C2101A800F002F806B010BDC2
:1017500070B588B005460C46FF208DF800008DF866
:10176000010002208DF8020046208DF803008DF85C
:1017700004008DF805008DF80600224629460DF17B
:101780000700FFF752F9601DC1B20DF10200FFF72B
:10179000E5FD0646300907F0D9F8E11D0DF8010016
:1017A00006F00F0007F0D2F804F108010DF801006F
:1017B000032104F109000DF80010401CC1B2684675
:1017C00005F08CF808B070BD08B5002000904FF00F
:1017D000C0510F4800F02AF9012817D14FF0C0512D
:1017E0000B4800F047F809F099FF0A49086069467C
:1017F0000948006809F0AFFE009838B14FF08050FA
:1018000006490860BFF34F8FBFF36F8F08BD00001C
:1018100058600240400000203000002004ED00E04D
:1018200010B50649064800F025F800231A46194667
:101830000448006809F0D8FD10BD00002000002019
:10184000706002401000002010B54FF02051074892
:1018500000F010F80021054800F026F800231A4691
:1018600019460348006809F0BFFD10BDB864024086
:10187000200000200246094B9A4201D2084801E0AC
:101880000648103801F000531BB1064B0B40C360F3
:1018900002E0044B0B40836070470000106402407C
:1018A000006002407D0F7D0F21B1026842F001020D
:1018B000026003E0026822F001020260704700004B
:1018C000016821F001010160002101604160816037
:1018D000C1600161212141614A49884204D13D2111
:1018E000484A103A91608CE046491831884205D147
:1018F0004FF47461434A103A916082E041493031BB
:10190000884205D14FF474113E4A103A916078E054
:101910003C494831884205D14FF07461394A103A48
:1019200091606EE037496031884204D13649354ACA
:10193000103AD16065E033497831884204D13349A7
:10194000304A103AD1605CE02E499031884204D18F
:101950002F492C4A103AD16053E02A49A8318842D5
:1019600005D14FF03D51274A103AD16049E029494D
:10197000884204D13D21274A083A116041E02549B7
:101980001831884205D14FF47461224A083A116037
:1019900037E020493031884205D14FF474111D4A97
:1019A000083A11602DE01B494831884205D14FF0BB
:1019B0007461184A083A116023E016496031884280
:1019C00004D11149134A121F11601AE011497831EC
:1019D000884204D10D490F4A121F116011E00D49D0
:1019E0009031884204D10A490A4A121F116008E066
:1019F0000849A831884204D14FF03D51054A121FD1
:101A000011607047106002403D000020400F002030
:101A100000003D2010640240014600200A6802F0E8
:101A200001020AB1012000E00020704730B50346F2
:101A30000A46002000240B4DAB4201D20A4901E0C6
:101A40000849103902F000550DB14C6800E00C68EF
:101A5000064D2C4004EA02050DB1012000E00020F3
:101A600030BD000010640240006002407D0F7D0F19
:101A700010B501F080034BB122B1436943F08003FC
:101A8000436103E0436923F08003436180290BD065
:101A90002AB1036801F01E042343036004E00368D5
:101AA00001F01E04A343036010BD000010B5002226
:101AB0000268134B1A40CC680B6823434C692343DC
:101AC0008C692343CC6923430C6A23434C6A234328
:101AD0008C6A23434C6B23438C6B23431A43026071
:101AE000426922F00702D1E90B3423431A434261D1
:101AF0000B6943604B6883608B68C36010BD000056
:101B00003F801CF0416070477047000010B5002016
:101B100004490870487032210248801CFEF73CFFDF
:101B200010BD00008C05002070B505460C46002352
:101B300040F2E24219461148006809F093FB01287F
:101B40001BD1224629460E48FEF7A7FE0C48801EF0
:101B5000447000210B48FFF7A7FE00BF0948FFF7BC
:101B60005BFF0028FAD10648801E41780548FFF740
:101B7000C9FF01210348FFF797FE70BD2000002038
:101B800050020020B864024010B5002008490870D7
:101B90004870C8210648801CFEF7FEFE002005495B
:101BA00008704870C8210348801CFEF7F5FE10BD80
:101BB000180300204E020020704700002DE9F0417C
:101BC0008CB0044600200B9004F11007601C01F05B
:101BD00017F810B90CB0BDE8F0810BA9204600F051
:101BE00001FE00B9F6E7384605F052F805F010F9A5
:101BF0000646300B06F0AAFE2074C6F3032006F05A
:101C0000A5FE6074C6F3031006F0A0FEA07406F0F3
:101C10000F0006F09BFEE074062201A946F20200C6
:101C200003F022F904F18602062101A8FFF74AFD1C
:101C300019490878FFF7BFFC804617490988081240
:101C4000FFF7B9FC08EB002085B2280B06F07EFEFA
:101C500004F88C0FC5F3032006F078FE6070C5F31E
:101C6000031006F073FEA07005F00F0006F06EFE84
:101C7000E0708C3C01A803F0DFFC04F190020C2121
:101C800001A8FFF71FFD9DF82C2004F10F0188200B
:101C900000F0CFFD00BF9DE77800002038B5044676
:101CA000601C00F0ADFF00B938BD6946204600F069
:101CB00099FD00B9F8E7012204F10F01BF2000F0FF
:101CC000B8FD00BFF0E738B50446601C00F098FF8F
:101CD00000B938BD6946204600F084FD00B9F8E738
:101CE000032204F10F018E2000F0A3FD00BFF0E7F6
:101CF0001FB500F0E1F8FFF747FF012009F06AFA8D
:101D00000C4908600022C8210A2009F087FA0A4914
:101D1000086005F0DBF80020084A0323CDE9012024
:101D20000093039003464FF4906205A1074809F021
:101D300077FC1FBD20000020240000202800002088
:101D4000456C6563745461736B000000D5A700088F
:101D500010B50446C821A01CFEF71EFE002020700E
:101D6000607010BD00B587B00121022003F0AEF90C
:101D70000121102003F0DAF907220621234800F0A0
:101D8000A1FC07221146214800F09CFCC0200590D0
:101D900002208DF818008DF8190000208DF81A0027
:101DA00001208DF81B0005A9184800F043FC4FF4F2
:101DB000165001900020ADF80800ADF80A00ADF80B
:101DC0000C00ADF810000C20ADF80E0001A9104871
:101DD00004F01EFC01210E4804F0B6FB012240F283
:101DE00025510B4804F0EFFB25208DF800000F2053
:101DF0008DF8010000208DF8020001208DF803000D
:101E0000684602F009FF07B000BD00000004024070
:101E10000010014000B591B00121880503F056F98A
:101E20002248FFF74DFD00BF2048FFF7F5FD0028D1
:101E3000FAD14FF0006002901D4803901D480490B5
:101E4000402005900020069007904FF48060089095
:101E5000002009900A900B904FF480300C900020E5
:101E60000D9003200E9000200F90109002A90F48B3
:101E7000FFF71CFE012210210C48FFF7F9FD01229B
:101E800080210B48001F04F06BFB46208DF80400F6
:101E90000F208DF8050000208DF8060001208DF838
:101EA000070001A802F0B8FE11B000BDB8640240FE
:101EB000041001405002002010B5FFF753FFFFF758
:101EC000A9FF10BD51B18200A2F1C042126842F0D8
:101ED00001038200A2F1C042136009E08200A2F176
:101EE000C0421268034B1A408300A3F1C0431A603A
:101EF00070470000FEFF0F0030B5002100220023D4
:101F00000468A400A4F1C0442168444C2140D0E9F5
:101F100001452C43C5682C4305692C4345692C4376
:101F200085692C43C5692C43056A2C43456A2C43BB
:101F3000856A2C43C56A2C43056B2C4321430468F6
:101F4000A400A4F1C04421608468082C0BD104686B
:101F5000A400A4F1C044246844F040050468A4002F
:101F6000A4F1C04425600468641CA400A4F1C0442A
:101F7000226802F04042446B2468456B6D6844EA75
:101F80000514456BAD6844EA0524456BAD8944EA08
:101F90000544456B2D8A44EA0554456B2D7D44EA82
:101FA0000564456BAD692C4322430468641CA4009E
:101FB000A4F1C0442260C46AB4F5804F24D10468FF
:101FC000A400A4F1C044D4F8043103F04043846B6E
:101FD0002468856B6D6844EA0514856BAD6844EA36
:101FE0000524856B2D8A44EA0554856B2D7D44EAD2
:101FF0000564856BAD692C4323430468A400A4F1F8
:10200000C044C4F8043107E06FF070450468A400D0
:10201000A4F1C044C4F8045130BD00008000F7FFB3
:1020200010B50446AA200A490880552009490880AD
:10203000802007490880AA2008805520054908808B
:1020400030214FF0C8400153801100F021F810BD3D
:10205000AA0A00645405006410B50446AA200A497F
:102060000880552009490880802007490880AA2057
:10207000088055200549088050214FF0C840015381
:10208000801100F005F810BDAA0A00645405006430
:1020900030B5014600220023012418E0491E4FF00C
:1020A000C8400288038802F0400003F04005A842BF
:1020B00001D1002030BD4FF0C8400288038802F0F3
:1020C000400003F04005A84201D10020F2E709B129
:1020D000002CE3D101B903242046EBE700B599B009
:1020E0000121782002F0F2FF0121084602F0FEFFF4
:1020F0004CF20370179002208DF8600000208DF8DC
:10210000620003208DF8610001208DF8630017A99B
:10211000954800F08FFA4FF68070179017A99348F2
:1021200000F088FA4FF23F00179017A9904800F08E
:1021300081FA3F20179017A98E4800F07BFA4FF4E0
:102140006050179017A9884800F074FA382017904B
:1021500017A9864800F06EFA3020179017A9824818
:1021600000F068FA4FF40070179017A9814800F04A
:1021700061FA0C2200217C4800F0A4FA0C22012113
:10218000794800F09FFA0C220421774800F09AFA6F
:102190000C220521744800F095FA0C22082172489F
:1021A00000F090FA0C2209216F4800F08BFA0C2203
:1021B0000A216D4800F086FA0C220B216A4800F0D3
:1021C00081FA0C221146684800F07CFA0C220D219D
:1021D000654800F077FA0C220E21634800F072FA8D
:1021E0000C220F21604800F06DFA0C2203215F4899
:1021F00000F068FA0C2204215C4800F063FA0C221B
:1022000005215A4800F05EFA0C220721574800F0D9
:1022100059FA0C220821554800F054FA0C220921E1
:10222000524800F04FFA0C220A21504800F04AFAB6
:102230000C220B214D4800F045FA0C2211464B4868
:1022400000F040FA0C220D21484800F03BFA0C2225
:102250000E21464800F036FA0C220F21434800F0C8
:1022600031FA0C220021424800F02CFA0C22012104
:102270003F4800F027FA0C2202213D4800F022FAE4
:102280000C2203213A4800F01DFA0C2204213848A0
:1022900000F018FA0C220521354800F013FA0C2240
:1022A0001146334800F00EFA0C220D21304800F0A0
:1022B00009FA0C220E212E4800F004FA0C220F21FC
:1022C0002B4800F0FFF90C2200212A4800F0FAF90F
:1022D0000C220121274800F0F5F90C2202212548A3
:1022E00000F0F0F90C220321224800F0EBF90C2257
:1022F0000421204800F0E6F90C2205211D4800F0D9
:10230000E1F90C2209211B4800F0DCF90B200190B7
:102310000020029012200390002004900590069067
:102320004FF080500790022008900020099008206C
:102330000A9010200B9000200C900E900F9010909F
:102340004FF480501190002012901390149001A827
:102350001590169008A8FFF7CFFD01210220FFF786
:10236000B1FD19B000BD0000000C02400010024099
:10237000001402400018024010B5AA23094C238023
:102380005523094C2380F0244FF0C8435C5206E0EB
:102390004FF0C8435B5A20F8023B891C521E002AAA
:1023A000F6D110BDAAAA006454550064F0B50446E5
:1023B0000D461646012700BF34F8021B284600F0E0
:1023C00009F80746AD1C761E0FB9002EF4D1384629
:1023D000F0BD000030B505460C46AA20074908802C
:1023E000552007490880A020044908804FF0C840C4
:1023F00044534014FFF74CFE30BD0000AA0A0064AD
:102400005405006400B52DED108B8DB0B0EE40AAE0
:10241000F0EE60AAB0EE418AF0EE618AB0EE429A28
:10242000F0EE629A53EC192B9FED720B51EC100BEE
:1024300009F0D4FD41EC1E0B9FED700B53EC102BFB
:1024400009F0CCFD41EC1D0B9FED6E0B53EC102BF6
:1024500009F0A8FB41EC1C0BB0EE4C0AF0EE6C0A44
:1024600005F022F9B0EE40BAF0EE60BA9FED670BCE
:1024700053EC102B51EC1B0B09F0B0FD53EC192B56
:102480009FED640BCDE90A0151EC100B09F0A6FD9C
:1024900041EC1E0B9FED590B53EC102B09F09EFDE8
:1024A00041EC1D0B9FED570B53EC102B09F07AFB01
:1024B00041EC1C0BB0EE4C0AF0EE6C0A05F0F4F89F
:1024C000B0EE40BAF0EE60BA9FED540B53EC102B17
:1024D00051EC1B0B09F082FD53EC182B9FED4D0BBB
:1024E000CDE9060151EC100B09F078FD41EC1E0B13
:1024F0009FED420B53EC102B09F070FD41EC1D0BCE
:102500009FED400B53EC102B09F04CFB41EC1C0BE6
:10251000B0EE4C0AF0EE6C0A05F0C6F8B0EE40BA28
:10252000F0EE60BA9FED3F0B53EC102B51EC1B0B00
:1025300009F054FD9FED310B53EC102BCDE9020156
:1025400051EC180B09F04AFD41EC1F0B9FED2D0BD0
:1025500053EC102B09F026FB41EC1E0BB0EE4E0A9B
:10256000F0EE6E0A05F0A0F8B0EE40DAF0EE60DAB8
:102570009FED2E0B53EC102B51EC1D0B09F02EFD93
:1025800041EC1B0B9FED1F0B53EC102B51EC1A0B66
:1025900009F030FF41EC1C0B53EC1B2B09F02AFF18
:1025A000CDE900019DED020B53EC102B9DED000BCE
:1025B00051EC100B09F01EFFCDE904019DED060B57
:1025C00053EC102B9DED040B51EC100B09F036FA77
:1025D000CDE908019DED0A0B53EC102B9DED080B86
:1025E00051EC100B09F006FF41EC100B0DB0BDECE7
:1025F000108B00BD00000000000010404AD8124DB2
:10260000FB2109400000000000806640894160E530
:10261000D022AB3F0000000000000040EE7C3F35C0
:102620005EBA03407B14AE47E17A943FA4703D0A42
:10263000D7A3FE3FF0B50A4600210023002400BFC7
:102640003DE0012505FA01F3156805EA03049C4203
:1026500034D105684F000326BE40B54305601579A7
:102660004E00B5400668354305601579012D02D04E
:102670001579022D16D185684F000326BE40B5435B
:10268000856055794E00B54086683543856045685C
:1026900001268E40B5434560456896798E40B6B2B6
:1026A00035434560C5684F000326BE40B543C5604D
:1026B000D5794E00B540C6683543C560491C102920
:1026C000BFD3F0BDF0B5002300244D07ED0E02FA94
:1026D00005F3CE1000F1200555F826504E07F70EF1
:1026E0000F26BE40B543CF1000F1200646F8275014
:1026F000CE1000F1200555F8265045EA0304CE100F
:1027000000F1200545F82640F0BD41837047018364
:10271000704700002DE9F047C0B0074689461546CE
:10272000002441222146641C01A842543022214643
:10273000641C42542146641C42542146641C425489
:10274000002643E017F81600FEF728FF824637F808
:1027500016100812FEF722FF00EBC00101EB00107B
:102760000AEB800808F0C6F908EBC80202EB081271
:102770001B4B03EB420101AA10191422FEF755F975
:1027800008F0CAF904F11400C4B2862D15D108F07E
:10279000B1F908EBC80202EB0812114B03EB42023D
:1027A00002F1140101AA10191822FEF73EF908F0EF
:1027B000B3F904F11800C4B205E0A62D00D103E07E
:1027C00040B0BDE8F08700BF701CC6B24E45B9DB13
:1027D000E8B2224601A900F02CF800BFF0E70000A3
:1027E000000000102DE9F04704460D460027B846CA
:1027F000A07B05F00DFD8146607B05F009FD49EAEF
:1028000000102870002608E0781CC7B214F8011BDD
:10281000032900D103E0701CC6B2FF2EF4DB00BF19
:1028200028781230B84201D14FF001084046BDE887
:10283000F0872DE9F041C4B006460F461446FC214E
:1028400005A8FEF7CBF814216846FEF7C7F8052265
:1028500069464FF4405002F007FB02208DF8140047
:102860000A2269460DF11500FEF7DFF8300906F07F
:102870006DF88DF81F0006F00F0006F067F88DF870
:102880002000200906F062F88DF8210004F00F0006
:1028900006F05CF88DF822005CB157B1002506E027
:1028A000795D05AA05F10F001154681CC5B2A54257
:1028B000F6DB04F10F00C1B205A8FEF74FFD80461C
:1028C0004FEA181006F042F805AA04F10F0150541F
:1028D00008F00F0006F03AF805AA04F11001505470
:1028E000032104F111001154401CC1B205A803F0EA
:1028F000B5FA44B0BDE8F0811FB500F033F800F040
:102900006BFA012008F066FC0F4908600022C8211C
:102910000A2008F083FC0D4908600022C82101202C
:1029200008F07CFC0A49086000200A4A0323CDE92C
:1029300001200093039003464FF4086206A1084863
:1029400008F06EFE1FBD00003000002034000020A3
:10295000380000202C00002047534D5461736B0059
:1029600029A8000810B500F0CDF800F003F800F039
:1029700077F810BD1CB501211348FFF7C6FE0120F2
:1029800000908DF8040002208DF8050000208DF8DD
:10299000060001208DF8070069460B48FFF74AFE44
:1029A0000420009001208DF8040002208DF805001D
:1029B00000208DF8060001208DF8070069460248C6
:1029C000FFF738FE1CBD00000008024010B532E0E1
:1029D00001211A48FFF799FE40F2771008F0D6F867
:1029E00001211648FFF793FE40F2E24214A10020B5
:1029F00003F014F800B91EE0FA2008F0C7F801212E
:102A00000E48FFF782FEFA2008F0C0F801210B48BB
:102A1000FFF77DFE40F2771008F0B8F80121074873
:102A2000FFF773FE40F6A6620AA1002002F0F6FF4F
:102A300000B101E000BFCBE700BF10BD00080240BD
:102A40004E4F524D414C20504F57455220444F5706
:102A50004E000000534D5320526561647900000020
:102A600000B591B00121480502F030FB2248FEF785
:102A700027FF00BF2048FEF7CFFF0028FAD14FF014
:102A8000006002901D4803901D480490402005906E
:102A90000020069007904FF4806008900020099075
:102AA0000A900B904FF480300C9000200D90032082
:102AB0000E9000200F90109002A90F48FEF7F6FF2D
:102AC000012210210C48FEF7D3FF012280210B4880
:102AD000001F03F045FD0E208DF804000F208DF837
:102AE000050000208DF8060001208DF8070001A8E0
:102AF00002F092F811B000BD586002400448004056
:102B0000FA03002000B587B00121022002F0DEFAAE
:102B10000121880402F0FAFA07220A212448FFF76B
:102B2000D1FD07220B212248FFF7CCFD4FF4406076
:102B3000059002208DF818008DF8190000208DF8FE
:102B40001A0001208DF81B0005A91948FFF772FD36
:102B50004FF4614001900020ADF80800ADF80A0084
:102B6000ADF80C004FF44070ADF810000C20ADF83B
:102B70000E0001A90F4803F04BFD01210D4803F0A1
:102B8000E3FC012240F225510A4803F01CFD2720F6
:102B90008DF800000F208DF8010000208DF8020054
:102BA00001208DF80300684602F036F807B000BD3A
:102BB000000402400048004010B52DED048BB0EE3B
:102BC000408AF0EE608A9FED0A0B53EC102B51EC1B
:102BD000180B09F003FA41EC190B9FED070B53ECAE
:102BE000102B08F02BFF41EC100BBDEC048B10BD3B
:102BF0009A999999E193E1409CC420B0725876402B
:102C000010B588B00446142103A8FDF7E7FE0EA214
:102C100007CA8DE80700052203A94FF4405002F0CF
:102C200023F90A2203A92046FDF7ECFD10B9012083
:102C300008B010BD0A2269462046FDF7E3FD08B939
:102C40000120F5E70020F3E73939393939393939C5
:102C5000393900008EB02AE015A005F0CFFF1A48E0
:102C600005F0CCFF194805F0C9FF194805F0C6FF6B
:102C7000184805F0C3FF00235A1E01A91648006832
:102C800008F0F0FA012812D114A101A8FDF7F8FE0E
:102C900010B903F06FF80AE011A101A8FDF7F0FEEA
:102CA00010B902F01DFF02E00EA005F0A7FFD3E768
:102CB0000D0A0D0AC7EBD1A1D4F1C9E8D6C3B2CE33
:102CC000CAFDA3BA00000000CCC90008C8C80008AB
:102CD0006CC9000828C9000850000020320D00000F
:102CE000340D00000D0A20CAE4C8EBB8F1CABDB229
:102CF000BBD5FDC8B7A3ACC7EBD6D8D0C2CAE4C811
:102D0000EBA3A10D0A00000030B5B3B005460C4698
:102D1000002340F2E24219461E48006808F0A2FA79
:102D2000012833D102E0002007F030FF08F0F6FC64
:102D300019490968401A3228F5D94FF0C05117488F
:102D4000FEF798FD224629461548FDF7A6FD1448D2
:102D5000801E447000211148FEF7A6FD00BF0F48F9
:102D6000FEF75AFE0028FAD10D48801E41780B4824
:102D7000FEF7C8FE00231A4601A90A48006808F0B9
:102D800071FA01210548FEF78FFD01E001F08AFF8D
:102D900033B030BD300000204000002058600240B9
:102DA000FA0300203800002010B5044600202070EF
:102DB0006070C821A01CFDF7EFFD10BD4278C82A45
:102DC00008DA0378821CD1540278521C02704278CF
:102DD000521C42707047000010B50020084908706E
:102DE0004870C8210648801CFDF7D6FD0020054923
:102DF00008704870C8210348801CFDF7CDFD10BD48
:102E0000C2040020F803002000B58DB0FFF7DEFDFE
:102E1000FA224FA14FA002F001FE28B94FA005F001
:102E2000EDFE00200DB000BDFA2249A152A002F033
:102E3000F5FD20B954A005F0E1FE0020F2E7FA22EA
:102E400043A158A002F0EAFD20B958A005F0D6FE33
:102E50000020E7E7FA223EA15AA002F0DFFD20B9E8
:102E60005CA005F0CBFE0020DCE7FA225FA161A0A8
:102E700002F0D4FD20B965A005F0C0FE0020D1E726
:102E8000FA2233A168A002F0C9FD20B969A005F0BB
:102E9000B5FE0020C6E74FF4FA726CA16FA002F0F5
:102EA000BDFD20B970A005F0A9FE0020BAE7FA2008
:102EB00007F06CFEFA2272A174A002F0AFFD20B9F7
:102EC00075A005F09BFE0020ACE74FF4FA7220A13C
:102ED00077A002F0A3FD20B978A0FDF751FA0020F9
:102EE000A0E740F2EE2007F051FE40F6C41218A110
:102EF00077A002F093FD20B979A005F07FFE0020B5
:102F000090E70B227C494FF4804001F0ADFF7A4BF3
:102F10001033794A79A16846FDF73EFA40F6C412AB
:102F20000BA1684602F07AFD20B97CA005F066FE90
:102F3000002077E740F6A6627CA1002002F06EFD3B
:102F400020B97DA005F05AFE00206BE7012069E75B
:102F50004F4B000041540D0A000000000D0A47537A
:102F60004DB4AEBFDACDA8D0C5BDD3BFDAD2ECB375
:102F7000A3A3A10D0A00000041542B4950523D3536
:102F8000373630300D0A00000D0A47534DCDA8D01A
:102F9000C5B2A8CCD8C2CAC9E8D6C3D2ECB3A3A3E1
:102FA000A10D0A00415445300D0A00000D0ABBD89E
:102FB000CFD4C4A3CABDB9D8B1D5D2ECB3A3A3A111
:102FC0000D0A000041542B4349504D4F44453D31BB
:102FD0000D0A00000D0ACDB8C3F7B4ABCAE4C5E4CE
:102FE000D6C3D2ECB3A3A3A10D0A00000D0A4F4B28
:102FF0000D0A000041542B434950434346473D3599
:103000002C322C313032342C310D0A000D0A47534A
:103010004DB4ABCAE4B2CECAFDC5E4D6C3D2ECB35C
:10302000A3A3A10D0A00000041542B434C54533D6F
:10303000310D0A000D0A47534DBBF1C8A1CAB1BCFE
:10304000E4D2ECB3A3A3A10D0A0000002B43504926
:103050004E3A2052454144590000000041542B4350
:1030600050494E3F0D0A00000D0A53494DBFA8526A
:1030700045414459D2ECB3A3A3A10D0A00000000BE
:103080002B435245473A20302C31000041542B430A
:103090005245473F0D0A00000D0ACDF8C2E7D7A2FE
:1030A000B2E1D0C5CFA2D2ECB3A3A3A10D0A000018
:1030B00041542B43474154543D300D000D0A4750B5
:1030C0005253B7D6C0EBD2ECB3A30D0A00000000F8
:1030D00041542B43474154543D310D0A0000000038
:1030E0000D0A47505253B8BDD7C5D7B4CCACD2ECBB
:1030F000B3A3A3A10D0A0000E203002041542B4317
:10310000495053544152543D22544350222C2225BD
:1031100073222C222573220D0A0000000D0A54434D
:1031200050C1ACBDD3D2ECB3A30D0A000D0A434F7E
:103130004E4E4543540D0A000D0ACEDEB7A8C1AC71
:10314000BDD3B7FECEF1C6F74950B6CBBFDA0D0AF4
:1031500000000000FEB5044600200090601CFFF750
:103160004FFD00B9FEBD69462046FFF73BFB00B9A5
:10317000F8E7207C05F04CF80646E07B05F048F8BF
:1031800046EA0010C5B22846FEF708FA8DF80B0093
:10319000A07C05F03DF80646607C05F039F846EA6B
:1031A0000010C5B22846FEF7F9F98DF80900207D18
:1031B00005F02EF80646E07C05F02AF846EA0010F5
:1031C000C5B22846FEF7EAF98DF80A00A07D05F0A1
:1031D0001FF80646607D05F01BF846EA0010C5B2F0
:1031E0002846FEF7DBF98DF80400207E05F010F884
:1031F0000646E07D05F00CF846EA0010C5B2284608
:10320000FEF7CCF98DF80500A07E05F001F8064622
:10321000607E04F0FDFF46EA0010C5B22846FEF7C6
:10322000BDF98DF80600012002F02AF900EBC0017B
:1032300001EB00109DF80B1001EB80059DF80A20B2
:103240009DF809102846FEF7FDF98DF808000023C7
:1032500040F2E24219460D48006808F003F80128E0
:1032600011D101A9002002F07FF902A9002002F08B
:1032700017F9012007F08AFC00231A461946034873
:10328000006808F0B1F800BF6CE70000640100209E
:1032900038B5044600200090601CFFF7B1FC00B96F
:1032A00038BD69462046FFF79DFA00B9F8E7E07B94
:1032B000302808D104F10F050023FA2229460348DB
:1032C000006808F091F800BFEAE700007C000020E9
:1032D00038B5044600200090601CFFF791FC00B94F
:1032E00038BD69462046FFF77DFA00B9F8E79DF83A
:1032F00000001230C1B22046FEF716FC00BFEFE717
:103300003EB5044600200290601CFFF779FC00B92E
:103310003EBD02A92046FFF765FA00B9F8E704228E
:1033200004F10F016846FDF780FB042269469120F5
:10333000FFF77FFA00BFEBE738B5044600200090A6
:10334000601CFFF75DFC00B938BD69462046FFF7F9
:1033500049FA00B9F8E79DF800001230C1B22046E2
:10336000FEF7E2FB00BFEFE77047000010B58AB040
:10337000044600200990601CFFF742FC08B90AB01F
:1033800010BD09A92046FFF72DFA00B9F7E704AAF6
:1033900009A10C48FDF7C4F80DF10A00431E02AA6A
:1033A00009A1009004A8FDF7BBF8032202A98C2014
:1033B000FFF73FFA00BFE2E7252A5B5E3A5D3A2558
:1033C00073000000ACC600085625632E25632563F4
:1033D0000000000010B5E6B00446002065904FF4F0
:1033E000C87101A8FDF7FAFA601CFFF709FC08B9DB
:1033F00066B010BD65A92046FFF7F4F900B9F7E7FC
:1034000001AA9DF8941104F10F0001F0F8FBE07B94
:1034100030280AD19DF8942101A9400201F042FD13
:1034200006F0E6FA08F0E6FA1EE0E07B312807D164
:103430009DF8942101A94FF4E04001F033FD13E021
:10344000E07B322809D19DF8942101A94FF4004076
:1034500001F028FDFDF77CFE06E0012204F10F01DA
:10346000C120FFF7E6F9C3E7012204F10F01812033
:10347000FFF7DFF900BFBBE72DE9F04F8DB0044641
:1034800000200C90601CFFF7BBFB10B90DB0BDE82D
:10349000F08F0CA92046FFF7A5F900B9F6E75C48C4
:1034A000006807F0A3FCFA2007F070FB9DF83000DD
:1034B000001DC1B204F10B00FEF74AF95448006840
:1034C00007F026FC207D04F0A3FE8346E07C04F098
:1034D0009FFE4BEA0010C6B2E07B412810D1207C51
:1034E00030280DD1607C30280AD1A07C302807D14B
:1034F00004230022FF210846009606F0D3FD7AE05F
:10350000E07B392847D1207C04F082FE8046607C35
:1035100004F07EFE8246A07C04F07AFE0B90002729
:1035200036E0002514E004F115014144485D04F043
:103530006FFE834604F11501C85D04F069FE0423A3
:10354000002259460096029006F0ACFD681CC5B2F8
:103550005545E8DB002516E004F1150141445144CE
:10356000485D04F055FE40F0100B04F11501C85DF4
:1035700004F04EFE0423002259460096029006F005
:1035800091FD681CC5B20B988542E5DB781CC7B27B
:103590004745C6DB2FE0E07B42282BD1207C30283A
:1035A00028D1607C302825D1A07C302822D1607DB4
:1035B00004F02EFE4FEA0019A07D04F029FE4844D5
:1035C0004FF6FF7101EA0019E07D04F021FE484446
:1035D0004FF6FF7101EA0019207E04F019FE4844FD
:1035E0001FFA80F904234A4600210846009606F097
:1035F00059FD00E04AE7062204F10F0103A8FDF798
:1036000014FA062203A98420FFF713F900BF3DE74F
:103610001C0000202DE9F04F8DB0044600200C90D6
:10362000601CFFF7EDFA10B90DB0BDE8F08F0CA9E2
:103630002046FFF7D7F800B9F6E75848006807F0CA
:10364000D5FBFA2007F0A2FA9DF83000001DC1B2A8
:1036500004F10B00FEF77CF85048006807F058FBB7
:10366000E67CE07B412810D1207C30280DD1607CA5
:1036700030280AD1A07C302807D105230022FF2161
:103680000846009606F00EFD7AE0E07B392847D127
:10369000207C04F0BDFD8046607C04F0B9FD8246CC
:1036A000A07C04F0B5FD8346002736E0002514E039
:1036B00004F114014144485D04F0AAFD04F1140131
:1036C0000390C85D04F0A4FD05230022009602903B
:1036D000039906F0E7FC681CC5B25545E8DB0025F8
:1036E00017E004F1140141445144485D04F090FD99
:1036F00040F0100004F114010390C85D04F088FD4F
:103700000523002200960290039906F0CBFC681C6A
:10371000C5B25D45E5DB781CC7B24745C6DB2FE087
:10372000E07B42282BD1207C302828D1607C3028B7
:1037300025D1A07C302822D1207D04F069FD4FEAFC
:103740000019607D04F064FD48444FF6FF7101EA02
:103750000019A07D04F05CFD48444FF6FF7101EABA
:103760000019E07D04F054FD48441FFA80F9052358
:103770004A4600210846009606F094FC00E053E714
:10378000052204F10F0104A8FDF74FF9052204A951
:103790008520FFF74EF800BF46E700001C00002020
:1037A0002DE9F043CDB0054600204C90642133A8AC
:1037B000FDF714F9002032908146681CFFF720FACB
:1037C00010B94DB0BDE8F0834CA92846FFF70AF8C0
:1037D00000B9F6E79DF83001401E112190FBF1F28F
:1037E00001FB120038B99DF83001401E90FBF1F04A
:1037F00000F0FF0800E0E4E7E87B312866D1002410
:1038000061E004EB041105F11000405CADF8CC0060
:1038100005F11000112101FB04004078ADF8CE0045
:1038200005F1100001FB04008078ADF8D00005F12F
:10383000100001FB0400C078ADF8D200BDF8CC1038
:10384000C8B204F0E5FC0601BDF8CE10C8B204F021
:10385000DFFC30444FF6FF7101EA0016BDF8D010CE
:10386000C8B204F0D5FC30444FF6FF7101EA0016EF
:10387000BDF8D210C8B204F0CBFC304486B232A9F5
:10388000304606F0DFFB00B99BE735A801F0D4FE17
:1038900000270CE005F11400112101FB0400C15DBB
:1038A00007F1100033AA22F81010781CC7B20D2FB0
:1038B000F0DBBDF8C810574A02EB01301D2233A9D6
:1038C00001F0F0FA641C44459BDB6BE0E87B322896
:1038D00050D100244BE004EB041105F11000405CD2
:1038E000ADF8CC0005F11000112101FB0400407877
:1038F000ADF8CE0005F1100001FB04008078ADF8B2
:10390000D00005F1100001FB0400C078ADF8D20032
:10391000BDF8CC10C8B204F07BFC0601BDF8CE1097
:10392000C8B204F075FC30444FF6FF7101EA00168E
:10393000BDF8D010C8B204F06BFC30444FF6FF71F4
:1039400001EA0016BDF8D210C8B204F061FC3044A0
:1039500086B232A9304606F075FB00B931E7BDF8F2
:10396000C8102C4A02EB013001F040FA641C4445B7
:10397000B1DB17E0E87B332814D0E87B34280BD187
:10398000002406E04FF4801101EB044001F0FCF943
:10399000641C3F2CF6DB05E005226946C220FEF7D9
:1039A00048FF0EE707F0A6F800201B494880088072
:1039B00041F270711948FCF7EFFF00F0E5FE00F0EE
:1039C000C7FE02F0B1FB07F0A7F8002412E00027C1
:1039D0000DE005F11000112101FB0400C05D0DF8A0
:1039E000090009F1010000F0FF09781CC7B2042F9B
:1039F000EFDB641C4445EADBE87B0DF828004FEA66
:103A00008800401CC2B26946C220FEF712FF00BF08
:103A1000D7E60000001010007800002050C300100E
:103A200030B5E9B00446002068904FF4C87104A88E
:103A3000FCF7D4FF601CFFF7E3F808B969B030BDAC
:103A400068A92046FEF7CEFE00B9F7E7E07B4128E3
:103A500037D1207C302834D1607C302831D1A07C13
:103A600030282ED124A801F0E7FD9DF8A0010838E8
:103A700081B22AAA04F1170001F0C1F800251CE068
:103A800005EB4501154A02EB4101888803A906F0C0
:103A9000D9FABDF80C10124A02EB0130402204A9F9
:103AA00001F0E2F9BDF80C100D4A02EB0130C8221A
:103AB00004A901F0F7F9681C85B20A480088A842F9
:103AC000DEDC0A2204F10F016846FCF7AEFF0A2291
:103AD00069468320FEF7ADFE00BFAFE750C300107C
:103AE00000101000780000202DE9F04F8BB0044644
:103AF00000200A90601CFFF783F810B90BB0BDE8F6
:103B0000F08F0AA92046FEF76DFE00B9F6E7E07BCC
:103B1000412811D1207C30280ED1607C30280BD177
:103B2000A07C302808D1002006230246FF21009007
:103B3000084606F0B7FA7DE0E07B39284AD1207CC0
:103B400004F066FB0746607C04F062FB8146A07CC3
:103B500004F05EFB8246002639E0002516E004F101
:103B600013013944485D04F053FB834604F113010B
:103B7000885D04F04DFB0190002006230246594663
:103B80000090019806F08EFA681CC5B24D45E6DB40
:103B9000002518E004F1130139444944485D04F05C
:103BA00037FB40F0100B04F11301885D04F030FB8B
:103BB000019000200623024659460090019806F025
:103BC00071FA681CC5B25545E4DB701CC6B2BE4232
:103BD000C3DB2FE0E07B42282BD1207C302828D18A
:103BE000607C302825D1A07C302822D1E07C04F0F4
:103BF0000FFB4FEA0018207D04F00AFB40444FF60B
:103C0000FF7101EA0018607D04F002FB40444FF6AA
:103C1000FF7101EA0018A07D04F0FAFA40441FFA8F
:103C200080F80020062342460146009006F03AFA4A
:103C300000E063E7042204F10F0102A8FCF7F5FE9F
:103C4000042202A98620FEF7F4FD00BF56E738B52E
:103C5000044600200090601CFEF7D2FF00B938BD7A
:103C600069462046FEF7BEFD00B9F8E7FA2006F0E7
:103C70008DFFE07B312801D101F028F8E07B32286C
:103C80000CD1FFF7C1F8012806D1012204F10F0180
:103C9000BF20FEF7CEFD11E001F018F8E07B3328DD
:103CA0000CD19DF800001230C1B22046FDF73CFF58
:103CB000012204F10F01BF20FEF7BBFD00BFCEE7DC
:103CC00010B5A0B0044620210AA8FCF787FE00200A
:103CD00009900790089006900590601CFEF790FFF1
:103CE00008B920B010BD05A92046FEF77BFD00B93C
:103CF000F7E79DF8142004F10F0112A8FCF795FED8
:103D000009AA06AB901E08A9CDE90232CDE9001040
:103D1000031F07AA2BA112A8FCF702FC062846D114
:103D2000BDF91C00002841DBBDF91C00FF283DDC6B
:103D3000BDF91E00002839DBBDF91E00FF2835DC67
:103D4000BDF92000002831DBBDF92000FF282DDC63
:103D5000BDF92200002829DBBDF92200FF2825DC5F
:103D60000698002822DB0698B0F5803F1EDA9DF801
:103D700024003B281AD11AAA18A112A8FCF7D0FBDC
:103D80001EAA18A112A8FCF7CBFB10221AA90AA898
:103D9000FCF74BFE06221EA90EA8FCF746FE0F22DA
:103DA0000AA94FF4804001F07DF800E099E7002275
:103DB00011469420FEF73DFDFA2006F0E7FE00F0E4
:103DC00085FF00002568642E2568642E2568642E12
:103DD0002568642C2564256300000000255B5E2CAB
:103DE0005D000000252A5B5E2C5D2C255B5E3B5D43
:103DF0000000000038B50446601CFEF701FF00B962
:103E000038BD69462046FEF7EDFC00B9F8E702F040
:103E100053F801280BD14FF4FA7208A109A001F060
:103E2000FDFD48B9FEF7F0FF30B900F04FFFFEF797
:103E3000EBFF08B900F04AFF00BFE1E72B43535105
:103E40003A00000041542B4353510D0A000000007A
:103E500010B58CB0044600200B90282101A8FCF777
:103E6000BDFD601CFEF7CCFE08B90CB010BD0BA95F
:103E70002046FEF7B7FC00B9F7E701AA9DF82C1021
:103E800004F10F0000F0BBFE9DF82C2001A94FF4B7
:103E9000104001F007F802F047F900221146A22075
:103EA000FEF7C7FC00BFE0E70621014A117070472A
:103EB000180000202DE9F043A3B00446182110A8F3
:103EC000FCF78CFD0FA9204600F070FE10B923B05E
:103ED000BDE8F0830020E6490870607804F098F9A6
:103EE0000001ADF88000A07804F092F9BDF88010D0
:103EF00008444FF6FF7101EA0010ADF88000E07849
:103F000004F086F9BDF8801008444FF6FF7101EA0D
:103F10000010ADF88000207904F07AF9BDF8801027
:103F2000084480B2ADF88000A07A04F071F98146AF
:103F3000607A04F06DF949EA0010C0B28DF8820091
:103F4000207B04F065F98146E07A04F061F949EAE2
:103F50000010C0B28DF88300607D04F059F90001B3
:103F6000ADF88800A07D04F053F9BDF8881008442E
:103F70004FF6FF7101EA0010ADF88800E07D04F013
:103F800047F9BDF8881008444FF6FF7101EA0010A8
:103F9000ADF88800207E04F03BF9BDF88810084495
:103FA00080B2ADF88800BDF88010C8B2FDF7F6FA0F
:103FB0008146BDF880100812FDF7F0FA00EBC00151
:103FC00001EB001009EB80060320AA4901F8260046
:103FD0009DF83C00502846DC06F08CFD06EBC60040
:103FE00000EB0610A44A02EB400132226846FCF7BF
:103FF0001CFD06EBC60101EB06119F4A02EB4100D6
:104000000422611CFCF711FD06EBC60101EB061151
:10401000994A02EB4101081D222204F10901FCF733
:1040200004FD9DF83C0046280ED106EBC60101EBCD
:104030000611914A02EB410101F12600062204F12A
:104040004901FCF7F2FC0CE006EBC60101EB06119E
:10405000894A02EB410101F1260030220621FCF7DA
:1040600093FC06F059FD9DF8070004F0D1F8814655
:104070009DF8060004F0CCF849EA0010C0B28DF8B3
:1040800077009DF8100004F0C3F80001ADF87C0043
:104090009DF8110004F0BCF8BDF87C1008444FF600
:1040A000FF7101EA0010ADF87C009DF8120004F0E9
:1040B000AFF8BDF87C1008444FF6FF7101EA00101C
:1040C000ADF87C009DF8130004F0A2F8BDF87C1058
:1040D000084480B2ADF87C00BDF88810C8B2FDF786
:1040E0005DFA8146BDF888100812FDF757FA00EB1B
:1040F000C00101EB001009EB8007BDF87C10C8B2CD
:10410000FDF74CFA8146BDF87C100812FDF746FA1F
:1041100000EBC00101EB001009EB80089DF8831053
:104120009DF8772091420CD1A7EB0800002801DB15
:10413000014600E04142322903DC50490978012957
:1041400007D1002340F2E24220A94D48006807F061
:104150004BF9484B03EB86039A789DF88310BDF822
:10416000800006F04BF916A9012001F0FFFA1A9918
:10417000C1F3031004F0EAFB8DF834001A9901F042
:104180000F0004F0E3FB8DF835001999C1F303101B
:1041900004F0DCFB8DF83600199901F00F0004F0F3
:1041A000D5FB8DF837001C99C1F3031004F0CEFB4A
:1041B0008DF838001C9901F00F0004F0C7FB8DF852
:1041C000390000250BE00DA8415D04F14300405D7E
:1041D000814202D000F00AFC03E0681CC5B2062D43
:1041E000F1DB00BF274901EB063101F108000C2289
:1041F00010A900F039FE0C2110A800F0A1FE78B340
:1042000000250EE010A830F8151004F12B00405DD9
:10421000814204D0BDF8800000F03AFA57E6681CED
:10422000C5B20C2DEEDB174901EB063101F1800020
:104230000C2210A900F018FE0C2110A800F080FE3E
:1042400070B100250FE010A830F8151004F1370008
:10425000405D814205D0BDF8800000F02FFB36E6BE
:1042600003E0681CC5B20C2DEDDB00BF2FE600009B
:1042700066000020C0DA00100000001019000020C5
:10428000740000200010100010B58AB00446002011
:104290000990601CFEF7B4FC08B90AB010BD09A96A
:1042A0002046FEF79FFA00B9F7E7E07B41280CD1E2
:1042B000207C302809D1607C302806D1A07C3028B1
:1042C00003D100F045FA01F02FFF042204F10F01A1
:1042D00001A8FCF7AAFB042201A98A20FEF7A9FA8B
:1042E00000BFDAE70621014A11707047180000206C
:1042F00000BFFEE710B588B003AC052269464FF455
:10430000405000F0B1FD022020700A226946601C76
:10431000FCF78BFB0321E1720C2103A801F09EFD49
:1043200008B010BD1FB500F023F800220321084695
:1043300006F074FF084908600020084A0323CDE90D
:1043400001200093039003464FF4906204A10748B4
:1043500007F066F91FBD00007C00002080000020EF
:10436000456C6563745461736B00000015AA000806
:104370001CB5012000908DF8040002208DF8050086
:1043800000208DF8060001208DF8070069461E48C0
:10439000FEF750F942F20800009001208DF8040069
:1043A00002208DF8050000208DF8060001208DF810
:1043B000070069461548FEF73DF9042000900120EA
:1043C0008DF8040002208DF8050000208DF806000D
:1043D00001208DF8070069460D48FEF72BF94FF4D0
:1043E000F860009001208DF8040002208DF805008F
:1043F00000208DF8060001208DF807006946054869
:10440000FEF718F91CBD0000000002400008024041
:10441000001002400014024070B504460D4604210D
:104420003E48FEF774F9642004F034FB7DBB092C90
:1044300033D2DFE804F032050A0F141A20262D00CB
:1044400008213748FEF763F927E040213548FEF799
:104450005EF922E080213348FEF759F91DE04FF460
:1044600080713048FEF753F917E04FF400712D4882
:10447000FEF74DF911E04FF480612A48FEF747F945
:104480000BE04FF400512648FEF741F905E005E046
:1044900001212548FEF73BF900BF37E0012D35D15A
:1044A000092C32D2DFE804F031050A0F141A202655
:1044B0002C0008211A48FEF728F926E04021194867
:1044C000FEF723F921E080211648FEF71EF91CE0D3
:1044D0004FF480711348FEF718F916E04FF400719D
:1044E0001048FEF712F910E04FF480610D48FEF716
:1044F0000CF90AE04FF400510948FEF706F904E010
:1045000001210948FEF701F900BF00BF642004F053
:10451000C1FA04210148FEF7F8F870BD001002400E
:1045200000080240001402400000024010B50124BF
:1045300005E000212046FFF76FFF601CC4B2082C85
:10454000F7DD10BD10B52DED048BB0EE408AF0EE16
:10455000608A9FED0A0B53EC102B51EC180B07F0FF
:104560003DFD41EC190B9FED070B53EC102B07F0B1
:1045700065FA41EC100BBDEC048B10BD3D0AD7A3CE
:104580001894E1408FC2F5285C8771402DE9F04313
:104590000024002500273C4909884A1EE019002113
:1045A00003F0C8FD00BF00BF00BF2AE004EB4400D9
:1045B000364911F81080781987B2002532480088F2
:1045C000A04200DC1EE0002612E0601C84B2681CE1
:1045D00085B22D480088A04200DC0CE004EB4400CA
:1045E0002A4911F81000404500D004E0701C86B242
:1045F000B6F57A7FE9DB00BF6A1E0021384605F078
:10460000EFFBD3E700BF00240025002737E004EBD1
:1046100044001E4911F8108004EB440001EB4000F7
:1046200090F80190781987B2002517480088A042B9
:1046300000DC25E0002619E0601C84B2681C85B20D
:1046400011480088A04200DC13E004EB44000F494D
:1046500011F81000404506D104EB440001EB400086
:104660004078484500D004E0701C86B2B6F57A7FE9
:10467000E2DB00BF6A1E0021384604F011FAC6E7EB
:1046800000BFBDE8F08300007800002050C3001098
:10469000F0B5ADB00446022006F078FAE0B2FCF7BF
:1046A0007DFF07462012FCF779FF00EBC00101EB0C
:1046B000001007EB8006244A02EB063040220DA9C9
:1046C00000F0D2FB20128DF80000E0B28DF801005E
:1046D00002208DF802000DF1030204210DA8FCF761
:1046E000F1FF002004F032F98DF80700022004F0F9
:1046F0002DF98DF8080032208DF8090035208DF84D
:104700000A000DF10B0219210FA8FCF7DBFF222193
:104710000DF10200FCF722FE0546280904F016F907
:104720008DF8240005F00F0004F010F98DF8250035
:1047300003208DF8260002200449087027216846CE
:1047400002F0CCF82DB0F0BD0010100018000020D1
:10475000002013E003210B4A02F82010002102EB95
:10476000800251700221074A02EB80029170002101
:10477000044A02EB8002D170411C88B2B0F57A7F06
:10478000E8DB7047C0DA00102DE9F04391B04FF03C
:104790000009002483E0464901EB04301D2202A9F0
:1047A00000F062FBBDF808004FF6FF71884200D1AF
:1047B00073E0BDF80810C8B203F02AFD0601BDF889
:1047C0000A10C8B203F024FD30444FF6FF7101EA2D
:1047D0000016BDF80C10C8B203F01AFD30444FF6B5
:1047E000FF7101EA0016BDF80E10C8B203F010FD0B
:1047F000304486B2BDF83010C8B203F009FD074658
:10480000BDF83210C8B203F003FD0501BDF8341045
:10481000C8B203F0FDFC28444FF6FF7101EA001511
:10482000BDF83610C8B203F0F3FC28444FF6FF7110
:1048300001EA0015BDF83810C8B203F0E9FC2844BD
:1048400085B2BDF83E10C8B203F0E2FC00074FEAA3
:104850001068BDF84010C8B203F0DAFC404400F024
:10486000FF088DF800708DF80180ADF80250ADF8AA
:1048700004604846411C1FFA81F900EB40000D49D5
:1048800001EB400000990160BDF8041081800A48E6
:104890000088401C0849088000BF601C84B2B4F541
:1048A0007A7FFFF678AFFFF771FE11B0BDE8F083B5
:1048B0000010100050C30010780000202DE9F043D4
:1048C000A5B00446022006F061F9E0B2FCF766FEEE
:1048D00081462012FCF762FE00EBC00101EB0010E4
:1048E00009EB80083F4901EB083101F180002D22DE
:1048F0000EA900F0B9FA00260EE00EA830F8160056
:104900004FF6FF71884203D00EA830F8160008B9A0
:10491000354603E0701CC6B2C82EEEDB00BF201285
:104920008DF80400E0B28DF8050002208DF8060035
:10493000200B04F00BF88DF80700C4F3032004F0FB
:1049400005F88DF80800C4F3031003F0FFFF8DF89D
:10495000090004F00F0003F0F9FF8DF80A000020B1
:1049600003F0F4FF8DF80B00032003F0EFFF8DF848
:104970000C00280903F0EAFF8DF80D0005F00F0088
:1049800003F0E4FF8DF80E000DF10F0229460EA88A
:10499000FCF798FE05F10900C1B20DF10600FCF725
:1049A000DDFC0746380903F0D1FF05F10B0101AA30
:1049B000505407F00F0003F0C9FF014605F10C0049
:1049C00001AA11540321401C115403200649087008
:1049D00005F10E00C1B201A801F080FF25B0BDE8CD
:1049E000F0830000001010001800002030B595B0D2
:1049F000022006F0CBF8FF208DF804008DF80500AA
:104A000002208DF8060046208DF807008DF808007A
:104A10008DF809008DF80A00002003F097FF8DF84B
:104A20000B000B2003F092FF8DF80C0031208DF865
:104A30000D0032208DF80E000EA9012000F096FE28
:104A40001299C1F3031003F081FF8DF80F00129942
:104A500001F00F0003F07AFF8DF810001199C1F3F7
:104A6000031003F073FF8DF81100119901F00F008E
:104A700003F06CFF8DF812001499C1F3031003F0DA
:104A800065FF8DF81300149901F00F0003F05EFF2D
:104A90008DF814001099C1F3031003F057FF8DF83F
:104AA0001500109901F00F0003F050FF8DF816006B
:104AB0000F99C1F3031003F049FF8DF817000F9908
:104AC00001F00F0003F042FF8DF818003649087915
:104AD000FCF771FD0509284603F038FF8DF8190031
:104AE00031490879FCF767FD00F00F05284603F00F
:104AF0002DFF8DF81A002C494879FCF75CFD05095B
:104B0000284603F023FF8DF81B0027494879FCF75E
:104B100052FD00F00F05284603F018FF8DF81C0029
:104B20002149087BFCF747FD0509284603F00EFFE5
:104B30008DF81D001C49087BFCF73DFD00F00F05BA
:104B4000284603F003FF8DF81E001749487BFCF749
:104B500032FD0509284603F0F9FE8DF81F001249C1
:104B6000487BFCF728FD00F00F05284603F0EEFE19
:104B70008DF820001B210DF10600FCF7EFFB044629
:104B8000200903F0E3FE8DF8210004F00F0003F08C
:104B9000DDFE8DF8220003208DF82300202101A8DE
:104BA00001F09CFE15B030BDE00500202DE9F04776
:104BB00004460D460027B846207A03F029FB8146BB
:104BC000E07903F025FB49EA00102870002608E090
:104BD000781CC7B214F8011B032900D103E0701C34
:104BE000C6B2FF2EF4DB00BF28780C30B84201D1EA
:104BF0004FF001084046BDE8F08700BFFEE710B562
:104C00000346002004E01C5C22F81040441CE0B283
:104C10008842F8DB10BD704770B5002100230F22D9
:104C2000C4781CB3174C246804F4E064C4F5E06451
:104C3000C4F30721C1F10404E3B20A4144789C4063
:104C4000E1B28478144021430C07210E0E4C057804
:104C50006155047804F01F050124AC4005786D11FE
:104C6000AD0005F1E025C5F8004109E0047804F045
:104C70001F050124AC40054D0678761145F8264005
:104C800070BD00000CED00E000E400E080E100E019
:104C900002490143024A1160704700000000FA0512
:104CA0000CED00E0BFF34F8F0648006800F4E060B1
:104CB00005490843001D03490860BFF34F8F00BF3B
:104CC000FEE700000CED00E00000FA05BFF34F8F97
:104CD0000648006800F4E06005490843001D0349E8
:104CE0000860BFF34F8F00BFFEE700000CED00E04F
:104CF0000000FA05F0B591B00546002409AA19A1F3
:104D00002846FBF70DFC0DF11A0006A9021F05ABA2
:104D1000CDE90032CDE902108B1F04AA13A109A826
:104D2000FBF7FEFB06281BD19DF8250003F070FA67
:104D300007469DF8240003F06BFA47EA0010C6B25C
:104D40003046FCF72BFC0446012000F099FBA04202
:104D500006D0012000F028F92146012000F0F8FCDF
:104D600011B0F0BD252A7325730000002568642C5E
:104D70002568642C2568642C2568642C2568642CBF
:104D80002568642C0000000070B50446012500234E
:104D900040F2E24219460B48006806F063FA012827
:104DA0000ED12046FDF73CF9054615B106A003F0EB
:104DB00025FF00231A4619460248006806F014FB36
:104DC00070BD00006C0100200D0A4E4F525F464C32
:104DD00041534820457261736520426C6F636B20BC
:104DE0004572726F722121210000000070B50446E7
:104DF0000125002340F2E24219460B48006806F004
:104E000031FA01280ED12046FDF726F9054615B1E5
:104E100006A003F0F3FE00231A4619460248006874
:104E200006F0E2FA70BD00006C0100200D0A4E4F42
:104E3000525F464C4153482045726173652053656B
:104E400063746F72204572726F722121210000001D
:104E500010B5FDF743F9012006F0BCF901490860DF
:104E600010BD00006C01002070B504460D461646CA
:104E7000002340F2E24219460948006806F0F2F9C0
:104E800001280BD1324621462846FDF775FA00234A
:104E90001A4619460248006806F0A6FA70BD0000DE
:104EA0006C0100202DE9F04104460D46174601260D
:104EB000002340F2E24219461048006806F0D2F999
:104EC000012818D12046FDF7C7F8064616B10CA0F8
:104ED00003F094FE3A4621462846FDF767FA064657
:104EE00016B110A003F08AFE00231A4619460348A3
:104EF000006806F079FABDE8F08100006C0100203E
:104F00000D0A4E4F525F464C415348204572617323
:104F100065536563746F72204572726F722121212F
:104F2000000000000D0A4E4F525F464C415348208E
:104F30005772697465204572726F722121210000D9
:104F400010B502460B46002109E032F811004FF679
:104F5000FF74A04201D1002010BD481C81B29942CB
:104F6000F3DB0120F8E7000010B50A48006805F0FF
:104F70003DFF0948006805F039FF0848006805F062
:104F800035FF0748006805F031FF0648006805F066
:104F90002DFF10BD1C000020280000202C00002048
:104FA0004C0000208000002001490862704700008A
:104FB00000000E4200B585B0142237A16846FBF709
:104FC000B1FC3A4841880088401E814205DA3748E2
:104FD0004088401C3549488007E00020334948801C
:104FE00033480068401C324908603048408800EB74
:104FF0004000304901EB4000808808B905B000BD91
:105000002D48007F2D49097888420ADD274800880D
:105010002949097F884204DB28480078401C274939
:1050200008702548007F25490978884212DC20480D
:105030000068234908602348407908BB01202149C2
:105040004871002340F2E24269461F48006806F0BA
:10505000CBF915E01648006819490968401A02287A
:105060000ED31848407901280AD10020154948710B
:10507000002340F2E24269461348006806F0B4F9A2
:105080000A49498801EB41010A4A02EB410188883B
:1050900000F0BAFB00BFB1E7023939393939393983
:1050A000393939303830313033420300780000204C
:1050B0006800002050C30010C005002066000020DA
:1050C0006C000020400200203400002029B1064A74
:1050D00012680243044B1A6004E0034A12688243D8
:1050E000014B1A60704700003038024029B1064A6F
:1050F00012680243044B1A6004E0034A12688243B8
:10510000014B1A60704700003838024029B1064A46
:1051100012680243044B1A6004E0034A1268824397
:10512000014B1A60704700004038024029B1064A1E
:1051300012680243044B1A6004E0034A1268824377
:10514000014B1A607047000044380240F0B500215E
:1051500000220024022500260223324F3F6807F078
:105160000C0121B1042905D0082937D105E02E4FC3
:10517000076036E02D4F076033E02A4F3F1F3F683E
:10518000C7F38056274F3F1F3F6807F03F036EB1BC
:10519000264FB7FBF3F7DFF88CC0ACF1040CDCF85A
:1051A00000C0CCF3881C07FB0CF40CE01E4FB7FBCF
:1051B000F3F7DFF870C0ACF1040CDCF800C0CCF3FE
:1051C000881C07FB0CF4174F3F1F3F68C7F30147CC
:1051D0007F1C7D00B4FBF5F7076002E0124F07600B
:1051E00000BF00BF0F4F3F6807F0F0010909104FE3
:1051F0007A5C0768D74047600A4F3F6807F4E05180
:10520000890A0B4F7A5C4768D7408760054F3F6833
:1052100007F46041490B064F7A5C4768D740C76086
:10522000F0BD0000083802400024F400001BB70065
:105230000000002010B501460022002300204A1182
:10524000012A02D10A4C236808E0022A03D1084C43
:105250007034236802E0064C7434236801F01F02A6
:10526000012494401C400CB1012000E0002010BD3E
:10527000003802400021094A11701170012802D043
:10528000042808D103E00121044A117004E005213B
:10529000024A117000E000BF00BF70477038024042
:1052A00001490860704700003C0E4742002100F4AD
:1052B0004072B2F5407F08D1094A116821F4F81113
:1052C000084A02401143064A1160054A68321268D2
:1052D000C0F30B031A43024B68331A607047000097
:1052E00008380240FFFCFF0F014600BF080900EB31
:1052F0008000420001F00F001044C0B27047014628
:10530000002204E0501CC2B2A1F10A00C1B20A2975
:10531000F8DA100741EA10607047000008B5002273
:10532000009200200021104A126802F04002CAB91F
:10533000421E0D4B1A6000BF0B4A126802F040017A
:10534000009A521C0092009AB2F5803F01D00029C9
:10535000F2D0054A126802F040020AB1012002E0D0
:10536000002000E0012008BD0C2800400348006830
:1053700020F0800001490860704700000C280040C0
:1053800070B506460C4600250E4800680E4900EA36
:105390000105280CE070C5F30420607005F03F00A3
:1053A000A070C5F3423020705EB9E078FFF79CFF33
:1053B000E0706078FFF798FF6070A078FFF794FFC7
:1053C000A07070BD042800403FFFFF0070B5064686
:1053D0000C4600250F4800680F4900EA0105C5F397
:1053E00005402070C5F30620607005F07F00A070B6
:1053F00005F48000000CE0705EB92078FFF774FFC0
:1054000020706078FFF770FF6070A078FFF76CFF86
:10541000A07070BD002800407F7F7F0030B504463B
:105420000025CA201549086053200860FFF776FF61
:1054300000B91DE011481C38006820F040000F49F9
:105440001C39086008460068216808430B491C396C
:1054500008600A491439A068086008460068A188F5
:1054600040EA0140054914390860FFF77FFF012534
:10547000FF2002490860284630BD00002428004073
:1054800008B501460020009004480090009800EB09
:10549000810000900098006808BD0000502800407E
:1054A0002DE9F04105460C46002600274DB96078ED
:1054B00000F01000102804D1607820F010000A30AD
:1054C000607005B908E06078FFF70EFF0646A07827
:1054D000FFF70AFF064600BF55B1E0780004617887
:1054E00040EA0120A1780843217840EA413611E0E2
:1054F000E078FFF704FF4FEA00486078FFF7FFFE0F
:1055000048EA0028A078FFF7FAFE48EA0008207869
:1055100048EA4036CA201249086053200860FFF765
:10552000FDFE08B9002714E00E4830400C49203930
:105530000860FFF71BFF0A481C38006800F02000D5
:1055400030B900F0D5F808B9002702E0012700E0E3
:105550000127FF20024908603846BDE8F0810000BD
:10556000242800403FFFFF002DE9F04105460C468E
:10557000002600274DB92E48006800F0400000B119
:1055800002E00020E07000BF0DE02948006800F054
:10559000400020B12078FFF7A7FE064602E0002079
:1055A000E07000BF00BF55B120780004617840EA88
:1055B0000120A1780843E17840EA014611E0207813
:1055C000FFF79DFE4FEA00486078FFF798FE48EA33
:1055D0000028A078FFF793FE48EA0008E07848EA40
:1055E0000046CA2012491C31086053200860FFF7AA
:1055F00095FE08B9002713E00E4830400C490839E1
:105600000860FFF7B3FE0A48006800F0200030B9D8
:1056100000F06EF808B9002702E0012700E001273A
:10562000FF2003491C3108603846BDE8F0810000C6
:10563000082800407F7F7F0010B588B0044601A98C
:10564000012000F093F80699C1F3031003F07EF9EE
:1056500024F8020B069901F00F0003F077F924F803
:10566000020B0599C1F3031003F070F924F8020B43
:10567000059901F00F0003F069F924F8020B049971
:10568000C1F3031003F062F924F8020B049901F04E
:105690000F0003F05BF924F8020B0399C1F3031028
:1056A00003F054F924F8020B039901F00F0003F002
:1056B0004DF924F8020B0299C1F3031003F046F9E7
:1056C00024F8020B029901F00F0003F03FF924F8CF
:1056D000020B0199C1F3031003F038F924F8020B0F
:1056E000019901F00F0003F031F9208008B010BDDE
:1056F00008B50022009200200021CA22134B1A6034
:1057000053221A60114A183A126822F0A0020F4B75
:10571000183B1A6000BF0D4A183A126802F02001C7
:10572000009A521C0092009AB2F5003F01D0002965
:10573000F1D0064A183A126802F020020AB101209C
:1057400000E00020FF22014B1A6008BD2428004021
:1057500008B500220092044A0092009A02EB8002EF
:105760000092009A116008BD502800407CB50546A3
:105770000C46002340F2E24219462248006805F038
:1057800071FD01283CD101A92846FFF7F9FD6946C2
:105790002846FFF71BFE9DF8020020609DF80100DF
:1057A00060609DF80000A0609DF80600E0609DF834
:1057B0000500206165B90120FFF762FE00EBC00122
:1057C00001EB00109DF8071001EB800060610DE017
:1057D000012D0BD10120FFF753FEC6B23046FBF777
:1057E000EAFE9DF8071001EB002060619DF80400BF
:1057F000A06100231A4619460248006805F0F4FD2E
:105800007CBD00006401002030B58DB0044602204C
:1058100005F0BCF92448048020128DF80000E0B2A5
:105820008DF8010002208DF80200200B03F08EF8A5
:105830008DF80300C4F3032003F088F88DF804000A
:10584000C4F3031003F082F88DF8050004F00F0094
:1058500003F07CF88DF8060030208DF80700362024
:105860008DF8080030208DF809008DF80A00092114
:105870000DF10200FBF772FD0546280903F066F8FA
:105880008DF80B0005F00F0003F060F88DF80C00A8
:1058900003208DF80D000620044908700E2168468B
:1058A00001F01CF80DB030BD64000020180000208D
:1058B00070B505460C46FDB90420FFF7E1FDC0B206
:1058C00020600420FFF7DCFDC0F3072060600420A7
:1058D000FFF7D6FD000CA0600320FFF7D1FDC0B29A
:1058E000E0600320FFF7CCFDC0F307202061032018
:1058F000FFF7C6FD000C606170BD000000B58DB003
:105900000B2213494FF48040FFF7AEFA104B1033CF
:105910000F4A10A16846FAF73FFD40F2E24215A196
:10592000684600F07BF828B913A003F067F900205F
:105930000DB000BD40F6C41216A1002000F06EF8B4
:1059400020B90DA003F05AF90020F1E70120EFE79C
:10595000E203002041542B43495053544152543DDB
:1059600022544350222C222573222C222573220DEF
:105970000A0000004F4B00000D0ACEDEB7A8C1ACF4
:10598000BDD3B7FECEF1C6F74950B6CBBFDA0D0A8C
:10599000000000000D0A434F4E4E4543540D0A00CF
:1059A0000EB5012005F016FC1B490860012108070F
:1059B000FFF7ACFB0120FFF7F7FA0020FFF760FDCF
:1059C0004AF2A551884225D00120FFF753FC00BFC1
:1059D0004120FFF72FFC0028FAD04FF48070FFF72A
:1059E00065FC0120FFF75CFC7F200190FF20029006
:1059F000002000906846FFF711FD4AF2A5510020F3
:105A0000FFF7A6FE14210120FFF7A2FE20210220AD
:105A1000FFF79EFE01200EBD640100202DE9F0433A
:105A2000B3B005460C4616464FF00008002743E089
:105A3000781CC7B245B12846FAF7C5FE00F0FF0949
:105A400049462846FDF760F91CB9012033B0BDE88E
:105A5000F08305F063FE804628E00023324601A96A
:105A60001748006805F0FEFB01281FD1214601A858
:105A7000FAF797FE90B113A12046FBF701F818B989
:105A800001A800F0DFFF07E010A101A8FAF789FEE6
:105A900010B101A8FBF79EFD0120D7E70DA101A8D9
:105AA000FAF77FFE10B101A8FFF724F905F036FEE2
:105AB000A0EB0800B042D0D3032FB9DB0020C5E72C
:105AC000380000202B43434C4B3A20002B435351CA
:105AD0003A0000002A50535554545A3A200000000E
