:020000040800F2
:10000000C89C01203D030008C53E0008493900088E
:10001000A93E0008EB120008715B00080000000018
:100020000000000000000000000000008502000841
:10003000D916000800000000D902000851940008F9
:100040005703000857030008570300085703000828
:100050005703000857030008570300085703000818
:100060005703000857030008570300085703000808
:100070005703000857030008A5130008F1130008F0
:1000800057030008570300085703000857030008E8
:1000900057030008570300085703000857030008D8
:1000A00057030008570300085703000857030008C8
:1000B00057030008570300085703000857030008B8
:1000C00057030008570300085703000857030008A8
:1000D000570300085953000857030008015400084B
:1000E0005703000857030008570300085703000888
:1000F0005703000857030008570300085703000878
:100100005703000857030008570300085703000867
:10011000C55200085703000857030008570300089A
:100120005703000857030008570300085703000847
:100130005703000857030008570300085703000837
:100140005703000857030008570300085703000827
:1001500057030008570300081914000861550008E8
:100160005703000857030008570300085703000807
:1001700057030008570300085703000857030008F7
:10018000570300085703000800F002F800F06AF86F
:100190000AA090E8000C82448344AAF10107DA45E2
:1001A00001D100F05FF8AFF2090EBAE80F0013F0CA
:1001B000010F18BFFB1A43F00103184774AB00008E
:1001C00094AB00000A444FF0000C10F8013B13F010
:1001D000070408BF10F8014B1D1108BF10F8015BA0
:1001E000641E05D010F8016B641E01F8016BF9D193
:1001F00013F0080F1EBF10F8014BAD1C0C1B09D1EA
:100200006D1E58BF01F801CBFAD505E014F8016B5B
:1002100001F8016B6D1EF9D59142D6D370470000ED
:100220000023002400250026103A28BF78C1FBD8FF
:10023000520728BF30C148BF0B607047732900F0D8
:100240006084002070471FB50AF076FB00F0EAFEDC
:1002500004000020002109F087FD401C60601FBDE4
:1002600010B510BD00F0AAFE1146FFF7ECFF07F035
:1002700023F900F0D1FE03B4FFF7F2FF03BC06F050
:10028000D2FC00002A4B19680868B0E8F04F80F3F0
:100290000988BFF36F8F4FF0000080F3118870471B
:1002A0000000000006480068006880F3088862B615
:1002B00061B6BFF34F8FBFF36F8F00DF00BF00BF8A
:1002C00008ED00E0DFF80C00016841F47001016006
:1002D000704700BF88ED00E0EFF30980BFF36F8F38
:1002E000134B1A681EF0100F08BF20ED108A20E98A
:1002F000F04F106008B44FF0BF0080F31188BFF3D7
:100300004F8FBFF36F8F09F00DF84FF0000080F3AF
:10031000118808BC19680868B0E8F04F1EF0100F8B
:1003200008BFB0EC108A80F30988BFF36F8F704765
:10033000FC000020EFF3058070470000094880476B
:1003400009480047FEE7FEE7FEE7FEE7FEE7FEE7B7
:10035000FEE7FEE7FEE7FEE704480549054A064BCF
:10036000704700008D4F000889010008C8960120E1
:10037000C89C0120C8980120C8980120704700003F
:100380000FB4044910B503AA029800F0BFFB10BCDB
:100390005DF814FB400100200FB41CB5074B06AA02
:1003A0007B4469460090059800F081FB0020694677
:1003B00000F090FB1CBC5DF814FB0000310700004E
:1003C00070B50C460546012A05D02878800600D570
:1003D000EA69002302E0012305E05B1C934202D29C
:1003E000E05C0028F9D1A869E618C01AA861286A5B
:1003F000184428622846AFF3008004E0D5E90121C3
:1004000014F8010B9047B442F8D32846AFF30080AC
:1004100070BD2DE9F0474FF0000A89460446C0F848
:1004200020A02046E1688847002876D0252806D0FD
:10043000D4E901219047206A401C2062F1E7E1687D
:10044000204600258847C4F81CA006460027C4F8AB
:1004500018A02A2E09D0304606F0DEFB38B304EB94
:100460008708303EC8F8186019E059F8041B204688
:1004700004EB87029161E1688847012F064618D195
:10048000E069002820DA25F020051DE0D8F81800E2
:1004900000EB800006EB40003038C8F8180020461A
:1004A000E1688847064606F0B7FB0028EED1012F29
:1004B0000AD02E2E08D12046E16888477F1C0646C8
:1004C000022F45F02005C4DBA069002803DA404272
:1004D00045F00105A061E80701D025F01005B6B18F
:1004E000A6F14100192802D8203645F400654A4695
:1004F0003146204625604D46FFF7A0FE58B1012841
:1005000006D0ED1D25F0070000F1080989E704E099
:1005100005F1040985E730468AE7206ABDE8F087DF
:100520000FB400B58DB010A9099000910B904FF059
:10053000FF300A9000200C90064878440690064848
:1005400078446A4607900F9909A800F005FB0DB0A2
:100550005DF814FB3B060000530600002DE9FF5F29
:100560001D464FF0FF3B91464FF000085F46D5E92E
:100570000146A96901987F1C8847296A82468847F5
:100580000028F6D1BAF1FF3F0CD0002E24F4C0644D
:1005900019DD600614D5BAF12B0F09D0BAF12D0F71
:1005A0000ED103E0584604B0BDE8F09F44F48064E7
:1005B000A96901987F1C8847761E8246002E02DDBD
:1005C000BAF1300F03D0B9F1000F26D032E0A9699B
:1005D000761E01987F1C44F400748847002E8246E2
:1005E00005DDBAF1780F06D0BAF1580F03D0B9F192
:1005F000000F10D01EE0B9F1000F02D0B9F1100FBA
:1006000018D1A969761E01987F1C24F400748847CC
:100610008246102002E0082000E00A20814609E01E
:10062000A96908FB0908761E01987F1C44F4007430
:1006300088478246002E05DD4946504600F078FA8C
:100640000028EDDAE96901988847A00502D46FF027
:100650000100A8E7E00725D1600613D5600502D5A3
:10066000C8F1000000E0404629680A1D2A600968B8
:10067000220501D5087015E0220701D5088011E098
:1006800008600FE02868011D29600068210502D577
:1006900080F8008006E0210702D5A0F8008001E084
:1006A000C0F8008038467EE72DE9FF5F4FF0000874
:1006B0009946144646469169D2E901A7DDF838B05B
:1006C00001988847054659EA0B0005D009E0A16961
:1006D0000198761C88470546216A284688470028E5
:1006E000F5D1681C03D05FEACA7005D015E04FF061
:1006F000FF3004B0BDE8F09F2068011D2160D0F8F4
:1007000000800AE05FEACA7001D108F8015BA169C4
:10071000761C01987F1E88470546002F1ADD681C4D
:1007200018D0B9F1000F0DD0E81705EBD0604211D9
:1007300020F01F0059F822102A1A0120904001428F
:10074000E0D107E0BBF1000FDCD12846216A8847E1
:100750000028D7D0E16901988847BBF1000F07D185
:10076000002E05DD5FEACA7002D1002188F8001072
:10077000A068B84203DDBBF1000F03D017B16FF0E2
:100780000100B6E73046B4E730B505460B462A46C9
:1007900013F8014B12F8010B08B1A042F8D01CB1BC
:1007A000002802D06D1CF1E7284630BD10B5431C6F
:1007B00002E010F8011B71B18107FAD14FF001324C
:1007C00002C88C1A8C4314EAC211F9D0C01A0A0666
:1007D00003D0C01E10BDC01A10BD0A0401D0801E77
:1007E00010BD0902FCD0401E10BD40EA010370B5E7
:1007F0009B072ED14FF00136042A2AD308C810C90E
:100800009D1B9D43121F15EAC61517D0D8B2E1B241
:10081000401A50EA056110D198B2A1B2401A50EACC
:1008200005410AD123F07F4024F07F41401A50EA6D
:10083000052102D1180EA0EB146070BDA342DBD0DD
:1008400018BA21BA884201D9012070BD4FF0FF309B
:1008500070BD0AB9002070BD10F8013B11F8014BC2
:1008600063B1A3420AD1521E08D010F8013B11F81F
:10087000014B1BB1A34201D1521EEDD1181B70BD1B
:10088000032A40F2308010F0030C00F0158011F8BC
:10089000013BBCF1020F624498BF11F801CB00F894
:1008A000013B38BF11F8013BA2F1040298BF00F8E8
:1008B00001CB38BF00F8013B11F0030300F07C814D
:1008C000083AC0F0088051F8043B083A51F804CBCC
:1008D000A0E80810F5E7121D5CBF51F8043B40F892
:1008E000043BAFF30080D20724BF11F8013B11F89D
:1008F00001CB48BF11F8012B24BF00F8013B00F8E1
:1009000001CB48BF00F8012B704702F0FF0343EA18
:10091000032242EA024200F002B84FF0000204292A
:10092000C0F0128010F0030C00F01B80CCF1040C1E
:10093000BCF1020F18BF00F8012BA8BF20F8022B52
:10094000A1EB0C0100F00DB85FEAC17C24BF00F8F8
:10095000012B00F8012B48BF00F8012B70474FF026
:10096000000200B5134694469646203922BFA0E8FF
:100970000C50A0E80C50B1F12001BFF4F7AF09070B
:1009800028BFA0E80C5048BF0CC05DF804EB8900FC
:1009900028BF40F8042B08BF704748BF20F8022B3F
:1009A00011F0804F18BF00F8012B704710B50446B6
:1009B00010F0030F08BF11F0030F40F015804FF047
:1009C000013E121FC0F20E8051F8043BA3EB0E0C47
:1009D0002CEA030C1CEACE1C08BF40F8043BF0D004
:1009E000A1F1040102F10402521E08DB11F8013BDF
:1009F000002B00F8013BF7D11146FFF78EFF204690
:100A000010BD00004FF0013C50F8042B51F8043B9E
:100A10009A4221D1A2EB0C03934313EACC1317D1D2
:100A200050F8042B51F8043B9A4215D1A2EB0C0369
:100A3000934313EACC130BD150F8042B51F8043B29
:100A40009A4209D1A2EB0C03934313EACC13DBD0F7
:100A50004FF00000704700BFD01A01BAB1FA81F11F
:100A600001F0180122FA01F0CB40C1F12001DBB204
:100A7000C0B2C01A2CFA01F3D11A914311EAC31182
:100A8000E6D17047704770477047704710B500F067
:100A9000C5F8006810BD10B5044600F0BFF804604A
:100AA00010BD000001694A1C02610878704700B55A
:100AB0008FB0CDE901310021059105497944CDE997
:100AC000031011466846FFF7A4FC0FB000BD0000FC
:100AD000E5FFFFFF0A6802F8010B0A60704710B5D6
:100AE000436913B1AFF3008001E0FFF769FC012017
:100AF00010BD127800F124010A7000224A70012210
:100B0000EDE711684FF0FF32E9E70000074B70B5E1
:100B10000D467B44FFF7CBFF0446284600F046FA1B
:100B200010B14FF0FF3070BD204670BD136700005C
:100B30003A2800D2303820F02002412A01D3A2F115
:100B40003700884201D34FF0FF30704702681144EC
:100B50001378016018467047D160054979445161A6
:100B600004497944116200211161114600F064B812
:100B7000EDFFFFFFBF000000426842B1016811F8BD
:100B8000013B23B1521EC0E90012184670470121F3
:100B9000C160881E704742685AB1C368016843B992
:100BA00083688B4205D0491E521CC0E90012002008
:100BB00070474FF0FF30704710B5203AC0F00B80FF
:100BC000B1E81850203AA0E81850B1E81850A0E851
:100BD0001850BFF4F5AF5FEA027C24BFB1E81850AB
:100BE000A0E8185044BF18C918C0BDE810405FEA1B
:100BF000827C24BF51F8043B40F8043B08BF704797
:100C0000D20728BF31F8023B48BF11F8012B28BF9B
:100C100020F8023B48BF00F8012B7047004870479E
:100C20006496012010B5044600F0EEF90068005DFE
:100C300000F0010010BD00002DE9F34F4FF0000A55
:100C40000C4656468DB001200C9001F10C000B9023
:100C500062690B980121904705002DD0252D2CD0DD
:100C6000216A8847C0B162690B9801219047216AC7
:100C700088470028F7D16269411E0B98904700E031
:100C8000761CA1690D988847216A88470028F7D10A
:100C9000E1690D988847DBE7A1690D988847A8426C
:100CA000074601D1761CD3E7E1690D9888477F1C80
:100CB00002D1BAF1000F6FD06BE162690B98002787
:100CC0003D46394690472A2804D162690B98012194
:100CD00090470125DFF8D08262690B980121904787
:100CE000A0F130010A290AD24745E5DC07EB87016C
:100CF00000EB4107303FDFD445F01005ECE7E90693
:100D000001D46FF000476C280AD04C2814D0682812
:100D100015D06A280DD074281CD07A281AD01DE06E
:100D200062690B98012190476C2802D045F00405B8
:100D300014E045F002050DE045F020050AE0626987
:100D40000B9801219047682802D045F0080505E07E
:100D500045F4006562690B9801219047C4E9015789
:100D600065283DD019DC58287AD00CDC452837D0CE
:100D700004DC252826D041289ED131E046282FD0FA
:100D8000472899D12CE05B2877D0612828D06328A8
:100D90007CD0642823D15AE0F6E06F2848D008DCE4
:100DA00066281DD067281BD0692821D06E2816D14F
:100DB00027E0702845D0732868D0752847D0782858
:100DC0000DD14DE0A1690D988847252805463FF4CF
:100DD00069AFE1690D9888476D1C3FF46AAFD8E0B0
:100DE0000D9923466A466FF00100AFF30080C5E01D
:100DF00045F0400023464FF000026060A80736D45B
:100E00003EE0E8077FF447AF2068011D21600068DD
:100E1000290501D506701BE7290701D5068017E7CC
:100E2000A90703D5F117C0E9006111E706600FE7D4
:100E300045F0400023464FF008026060A80716D432
:100E40001EE040F60E0125EA0100606016E045F064
:100E5000400023464FF00A026060A80707D40FE065
:100E600045F040006060A80708D5234610220D9980
:100E70006FF00100AFF3008080E007E0102223460E
:100E80000D996FF00100FFF769FB77E04FF0000963
:100E900063284F46C8464B46CB4602D05B2806D057
:100EA00038E0E80601D40120A060012732E0626941
:100EB000D4F80CB00B98012190475E2807D14FF071
:100EC000010949466269D4F80CB00B989047216932
:100ED00039B900210A4603AB43F82120491C0829EF
:100EE000FADBD8B3216949B308F1010862690B98AC
:100EF000012190475D28F4D1B9F1000F09D00020FD
:100F000003A951F82020D24341F82020401C082892
:100F1000F7DB03AB2069002820794FEA40701ED030
:100F20005B462246CDF80080CDE901970D99002857
:100F30006FF0010020DAAFF300801FE0C11703AAB1
:100F400000EBD1614B1121F01F0102EB8302411A2A
:100F500013680120884003431360C7E719E00D9927
:100F6000224600286FF00100009702DAAFF30080FC
:100F700004E0FFF799FB01E0AFF3008000280ADAF4
:100F8000401C06D10C9820B14FF0FF300FB0BDE8E7
:100F9000F08F5046FAE7E90701D10AF1010A064449
:100FA00000200C9054E60000CCCCCC0C007B00F070
:100FB0008000704700487047649601207546FFF72F
:100FC000F9FFAE4605006946534620F00700854606
:100FD00018B020B5FFF7C0F9BDE820404FF000067B
:100FE0004FF000074FF000084FF0000B21F0070111
:100FF000AC46ACE8C009ACE8C009ACE8C009ACE854
:10100000C0098D467047000010B500F00BF8001DB8
:1010100010BD00BF558D00000446AFF30080204690
:10102000FFF729F9004870478496012000B587B082
:101030006946002003F048FC07F04AFA07B000BDFB
:1010400010B508F01BF84CF250310F48FFF765FC63
:1010500041F270710D48FFF760FC002202214FF44D
:101060007A7008F033FA0A490860002202214FF42E
:101070007A7008F02BFA0749086002F07BFE02F054
:101080005FFE08F00DF810BD0000001050C3001006
:10109000440000204800002010B5024610780023CC
:1010A00005E0541C2246247860405C1CE3B24C1ED0
:1010B0009C42F6DC10BD10B500F062F800F0B8F804
:1010C00010BD000010B50020084908704870642168
:1010D0000648801CFFF721FC002005490870487075
:1010E00064210348801CFFF718FC10BD4401002058
:1010F000AA0100201FB5FFF7DEFFFFF7E3FF032281
:101100000021012008F0E2F9104908600846006853
:1011100030B100231A4619460C48006808F0DAFA84
:10112000002264211E2008F0D1F90949086000203E
:101130000323CDE90030029003464FF4086205A175
:101140000390094808F0F2FB1FBD000010000020CA
:101150001400002042616C6C617374436F6D6D31DB
:101160005461736B00000000D18E000810B5044676
:101170006421A01CFFF7D1FB00202070607010BD1F
:1011800000B587B00121042003F04EF80121C80406
:1011900003F06AF808220A21234801F047F80822E0
:1011A0000B21214801F042F84FF4406005900220E5
:1011B0008DF818008DF8190000208DF81A00012014
:1011C0008DF81B0005A9184800F0E8FF4FF4164001
:1011D00001900020ADF80800ADF80A00ADF80C0051
:1011E000ADF810000C20ADF80E0001A90F4804F076
:1011F00077FA01210D4804F00FFA012240F225513F
:101200000A4804F048FA34208DF800000F208DF8C9
:10121000010000208DF8020001208DF803006846CF
:1012200002F052FE07B000BD00080240004C004032
:1012300000B591B00121480502F0F6FF224800F008
:1012400027F900BF204800F0CFF90028FAD14FF06D
:10125000006002901D4803901D48049040200590B6
:101260000020069007904FF48060089000200990BD
:101270000A900B904FF480300C9000200D900320CA
:101280000E9000200F90109002A90F4800F0F6F980
:10129000012210210C4800F0D3F9012280210B48D3
:1012A000001F04F0C5F90F208DF804008DF805002B
:1012B00000208DF8060001208DF8070001A802F03B
:1012C00003FE11B000BD000070600240044C0040FD
:1012D00046010020014600BF080900EB80004200E3
:1012E00001F00F001044C0B2704700BFFEE7014696
:1012F000002204E0501CC2B2A1F10A00C1B20A29C6
:10130000F8DA100741EA10607047F0B5034614465A
:10131000012901D0022901D10C315B1E4D1C05EBC6
:101320004505052695FBF6F5022606FB01463544E4
:101330001D441846DE1703EB967605EBA6056426DA
:1013400093FBF6F6AD1B4FF4C87693FBF6F63544E7
:10135000072695FBF6F706FB1752072A13D2DFE89C
:1013600002F00406080A0C0E10000120F0BD022055
:10137000FCE70320FAE70420F8E70520F6E706205B
:10138000F4E70720F2E70020F0E710B5034600205D
:1013900004E013F810401454441CE0B28842F8DB17
:1013A00010BD000008B5002000904FF0C0510D485E
:1013B00000F024F9012813D14FF0C051094800F082
:1013C00041F869460848006808F04BFA009838B1BF
:1013D0004FF0805005490860BFF34F8FBFF36F8F08
:1013E00008BD0000586002402000002004ED00E02D
:1013F00010B50649064800F025F800231A4619469C
:101400000448006808F066F910BD000020000020C4
:10141000706002401000002010B54FF020510748C6
:1014200000F010F80021054800F026F800231A46C5
:1014300019460348006808F04DF910BDB864024031
:10144000180000200246094B9A4201D2084801E0E8
:101450000648103801F000531BB1064B0B40C36027
:1014600002E0044B0B4083607047000010640240B0
:10147000006002407D0F7D0F21B1026842F0010241
:10148000026003E0026822F001020260704700007F
:10149000016821F00101016000210160416081606B
:1014A000C1600161212141614A49884204D13D2145
:1014B000484A103A91608CE046491831884205D17B
:1014C0004FF47461434A103A916082E041493031EF
:1014D000884205D14FF474113E4A103A916078E089
:1014E0003C494831884205D14FF07461394A103A7D
:1014F00091606EE037496031884204D13649354AFF
:10150000103AD16065E033497831884204D13349DB
:10151000304A103AD1605CE02E499031884204D1C3
:101520002F492C4A103AD16053E02A49A831884209
:1015300005D14FF03D51274A103AD16049E0294981
:10154000884204D13D21274A083A116041E02549EB
:101550001831884205D14FF47461224A083A11606B
:1015600037E020493031884205D14FF474111D4ACB
:10157000083A11602DE01B494831884205D14FF0EF
:101580007461184A083A116023E0164960318842B4
:1015900004D11149134A121F11601AE01149783120
:1015A000884204D10D490F4A121F116011E00D4904
:1015B0009031884204D10A490A4A121F116008E09A
:1015C0000849A831884204D14FF03D51054A121F05
:1015D00011607047106002403D000020400F002065
:1015E00000003D2010640240014600200A6802F01D
:1015F00001020AB1012000E00020704730B5034627
:101600000A46002000240B4DAB4201D20A4901E0FA
:101610000849103902F000550DB14C6800E00C6823
:10162000064D2C4004EA02050DB1012000E0002027
:1016300030BD000010640240006002407D0F7D0F4D
:1016400010B501F080034BB122B1436943F0800330
:10165000436103E0436923F08003436180290BD099
:101660002AB1036801F01E042343036004E0036809
:1016700001F01E04A343036010BD000010B500225A
:101680000268134B1A40CC680B6823434C69234310
:101690008C692343CC6923430C6A23434C6A23435C
:1016A0008C6A23434C6B23438C6B23431A430260A5
:1016B000426922F00702D1E90B3423431A43426105
:1016C0000B6943604B6883608B68C36010BD00008A
:1016D0003F801CF0416070477047000010B500204B
:1016E00004490870487032210248801CFFF715F940
:1016F00010BD00005805002070B505460C460023BB
:1017000040F2E24219461148006807F003FF012841
:101710001BD1224629460E48FFF7B2F80C48801E1E
:10172000447000210B48FFF7A7FE00BF0948FFF7F0
:101730005BFF0028FAD10648801E41780548FFF774
:10174000C9FF01210348FFF797FE70BD1800002074
:1017500012020020B864024010B500200849087049
:101760004870C8210648801CFFF7D7F800200549BB
:1017700008704870C8210348801CFFF7CEF810BDE0
:10178000DA020020100200207047000070B58CB013
:10179000044600200B90601C00F052FF08B90CB00A
:1017A00070BD0BA9204602F017FD00B9F7E706222D
:1017B00001A944F2020002F09DFC04F18602062118
:1017C00001A8FFF7E2FD1A490878FFF790FD0646E9
:1017D000174909880812FFF78AFD06EB002085B239
:1017E000280B05F03FFE04F88C0FC5F3032005F02D
:1017F00039FE6070C5F3031005F034FEA07005F0EB
:101800000F0005F02FFEE0708C3C01A802F0C2FF33
:1018100004F190020C2101A8FFF7B7FD9DF82C20E0
:1018200004F10F01882000F028FD00BFB7E7000099
:101830004C00002038B50446601C00F001FF00B9E0
:1018400038BD6946204602F0C7FC00B9F8E703221C
:1018500004F10F018E2000F010FD00BFF0E7000042
:101860001FB500F0DDF8FFF777FF012007F00AFE53
:101870000B4908600022C8210A2007F027FE094909
:10188000086000200223CDE90030029003464FF4A7
:10189000906205A10390074808F048F81FBD0000BA
:1018A000180000201C000020456C656374546173AF
:1018B0006B000000258F000810B50446C821A01C4D
:1018C000FFF72BF800202070607010BD00B587B0C6
:1018D0000121022002F0A8FC0121102002F0D4FC1A
:1018E00007220621234800F0A1FC072211462148C7
:1018F00000F09CFCC020059002208DF818008DF8A7
:10190000190000208DF81A0001208DF81B0005A990
:10191000184800F043FC4FF4165001900020ADF839
:101920000800ADF80A00ADF80C00ADF810000C206E
:10193000ADF80E0001A9104803F0D2FE01210E48B7
:1019400003F06AFE012240F225510B4803F0A3FE8A
:1019500025208DF800000F208DF8010000208DF863
:10196000020001208DF80300684602F0ADFA07B0CE
:1019700000BD0000000402400010014000B591B01D
:101980000121880502F050FC2248FFF781FD00BFCD
:101990002048FFF729FE0028FAD14FF0006002909E
:1019A0001D4803901D48049040200590002006909B
:1019B00007904FF480600890002009900A900B90E7
:1019C0004FF480300C9000200D9003200E900020EA
:1019D0000F90109002A90F48FFF750FE012210212E
:1019E0000C48FFF72DFE012280210B48001F03F059
:1019F0001FFE46208DF804000F208DF80500002002
:101A00008DF8060001208DF8070001A802F05CFAAD
:101A100011B000BDB8640240041001401202002061
:101A200010B5FFF753FFFFF7A9FF10BD51B18200BA
:101A3000A2F1C042126842F001038200A2F1C0424A
:101A4000136009E08200A2F1C0421268034B1A4001
:101A50008300A3F1C0431A6070470000FEFF0F002F
:101A600030B50021002200230468A400A4F1C04482
:101A70002168444C2140D0E901452C43C5682C43E2
:101A800005692C4345692C4385692C43C5692C4362
:101A9000056A2C43456A2C43856A2C43C56A2C434E
:101AA000056B2C4321430468A400A4F1C0442160C9
:101AB0008468082C0BD10468A400A4F1C0442468F5
:101AC00044F040050468A400A4F1C0442560046803
:101AD000641CA400A4F1C044226802F04042446B9C
:101AE0002468456B6D6844EA0514456BAD6844EAAB
:101AF0000524456BAD8944EA0544456B2D8A44EACB
:101B00000554456B2D7D44EA0564456BAD692C4356
:101B100022430468641CA400A4F1C0442260C46A87
:101B2000B4F5804F24D10468A400A4F1C044D4F8D3
:101B3000043103F04043846B2468856B6D6844EA8C
:101B40000514856BAD6844EA0524856B2D8A44EA4B
:101B50000554856B2D7D44EA0564856BAD692C4386
:101B600023430468A400A4F1C044C4F8043107E08E
:101B70006FF070450468A400A4F1C044C4F8045197
:101B800030BD00008000F7FF10B50446AA200A49C6
:101B90000880552009490880802007490880AA202C
:101BA000088055200549088030214FF0C840015376
:101BB000801100F021F810BDAA0A006454050064E9
:101BC00010B50446AA200A49088055200949088012
:101BD000802007490880AA200880552005490880F0
:101BE00050214FF0C8400153801100F005F810BD9E
:101BF000AA0A00645405006430B50146002200239F
:101C0000012418E0491E4FF0C8400288038802F002
:101C1000400003F04005A84201D1002030BD4FF044
:101C2000C8400288038802F0400003F04005A84243
:101C300001D10020F2E709B1002CE3D101B903245E
:101C40002046EBE700B599B00121782002F0ECFACC
:101C50000121084602F0F8FA4CF2037017900220B6
:101C60008DF8600000208DF8620003208DF861007F
:101C700001208DF8630017A9954800F08FFA4FF600
:101C80008070179017A9934800F088FA4FF23F0030
:101C9000179017A9904800F081FA3F20179017A9D4
:101CA0008E4800F07BFA4FF46050179017A98848CF
:101CB00000F074FA3820179017A9864800F06EFAE1
:101CC0003020179017A9824800F068FA4FF400708E
:101CD000179017A9814800F061FA0C2200217C4876
:101CE00000F0A4FA0C220121794800F09FFA0C229E
:101CF0000421774800F09AFA0C220521744800F07C
:101D000095FA0C220821724800F090FA0C22092161
:101D10006F4800F08BFA0C220A216D4800F086FA19
:101D20000C220B216A4800F081FA0C221146684807
:101D300000F07CFA0C220D21654800F077FA0C22A5
:101D40000E21634800F072FA0C220F21604800F067
:101D50006DFA0C2203215F4800F068FA0C2204217E
:101D60005C4800F063FA0C2205215A4800F05EFA44
:101D70000C220721574800F059FA0C220821554837
:101D800000F054FA0C220921524800F04FFA0C22BC
:101D90000A21504800F04AFA0C220B214D4800F06D
:101DA00045FA0C2211464B4800F040FA0C220D2156
:101DB000484800F03BFA0C220E21464800F036FA63
:101DC0000C220F21434800F031FA0C220021424836
:101DD00000F02CFA0C2201213F4800F027FA0C22D7
:101DE00002213D4800F022FA0C2203213A4800F07B
:101DF0001DFA0C220421384800F018FA0C220521A3
:101E0000354800F013FA0C221146334800F00EFA60
:101E10000C220D21304800F009FA0C220E212E4828
:101E200000F004FA0C220F212B4800F0FFF90C22DD
:101E300000212A4800F0FAF90C220121274800F07D
:101E4000F5F90C220221254800F0F0F90C220321BB
:101E5000224800F0EBF90C220421204800F0E6F9BA
:101E60000C2205211D4800F0E1F90C2209211B4834
:101E700000F0DCF90B20019000200290122003906A
:101E800000200490059006904FF0805007900220AB
:101E900008900020099008200A9010200B90002044
:101EA0000C900E900F9010904FF4805011900020E5
:101EB00012901390149001A81590169008A8FFF79F
:101EC000CFFD01210220FFF7B1FD19B000BD0000D8
:101ED000000C0240001002400014024000180240B2
:101EE00010B5AA23094C23805523094C2380F024E4
:101EF0004FF0C8435C5206E04FF0C8435B5A20F8ED
:101F0000023B891C521E002AF6D110BDAAAA006409
:101F100054550064F0B504460D461646012700BF2F
:101F200034F8021B284600F009F80746AD1C761E5F
:101F30000FB9002EF4D13846F0BD000030B505468B
:101F40000C46AA2007490880552007490880A02090
:101F5000044908804FF0C84044534014FFF74CFE3A
:101F600030BD0000AA0A00645405006400B52DEDE0
:101F7000108B8DB0B0EE40AAF0EE60AAB0EE418AB0
:101F8000F0EE618AB0EE429AF0EE629A53EC192BB1
:101F90009FED720B51EC100B08F0D8F941EC1E0BC1
:101FA0009FED700B53EC102B08F0D0F941EC1D0B9A
:101FB0009FED6E0B53EC102B07F0ACFF41EC1C0BAC
:101FC000B0EE4C0AF0EE6C0A04F0AEF9B0EE40BA96
:101FD000F0EE60BA9FED670B53EC102B51EC1B0B2E
:101FE00008F0B4F953EC192B9FED640BCDE90A010D
:101FF00051EC100B08F0AAF941EC1E0B9FED590BA8
:1020000053EC102B08F0A2F941EC1D0B9FED570B80
:1020100053EC102B07F07EFF41EC1C0BB0EE4C0A8A
:10202000F0EE6C0A04F080F9B0EE40BAF0EE60BA5F
:102030009FED540B53EC102B51EC1B0B08F086F961
:1020400053EC182B9FED4D0BCDE9060151EC100B15
:1020500008F07CF941EC1E0B9FED420B53EC102B6A
:1020600008F074F941EC1D0B9FED400B53EC102B65
:1020700007F050FF41EC1C0BB0EE4C0AF0EE6C0A7E
:1020800004F052F9B0EE40BAF0EE60BA9FED3F0BAB
:1020900053EC102B51EC1B0B08F058F99FED310B52
:1020A00053EC102BCDE9020151EC180B08F04EF95E
:1020B00041EC1F0B9FED2D0B53EC102B07F02AFF6B
:1020C00041EC1E0BB0EE4E0AF0EE6E0A04F02CF955
:1020D000B0EE40DAF0EE60DA9FED2E0B53EC102BF1
:1020E00051EC1D0B08F032F941EC1B0B9FED1F0B5F
:1020F00053EC102B51EC1A0B08F034FB41EC1C0B89
:1021000053EC1B2B08F02EFBCDE900019DED020BDB
:1021100053EC102B9DED000B51EC100B08F022FB43
:10212000CDE904019DED060B53EC102B9DED040B46
:1021300051EC100B07F03AFECDE908019DED0A0BBA
:1021400053EC102B9DED080B51EC100B08F00AFB23
:1021500041EC100B0DB0BDEC108B00BD0000000079
:10216000000010404AD8124DFB2109400000000039
:1021700000806640894160E5D022AB3F000000004E
:1021800000000040EE7C3F355EBA03407B14AE4752
:10219000E17A943FA4703D0AD7A3FE3FF0B50A460A
:1021A00000210023002400BF3DE0012505FA01F3D2
:1021B000156805EA03049C4234D105684F000326E4
:1021C000BE40B543056015794E00B54006683543FD
:1021D00005601579012D02D01579022D16D185687B
:1021E0004F000326BE40B543856055794E00B5408B
:1021F000866835438560456801268E40B543456055
:10220000456896798E40B6B235434560C5684F0043
:102210000326BE40B543C560D5794E00B540C668BB
:102220003543C560491C1029BFD3F0BDF0B500236C
:1022300000244D07ED0E02FA05F3CE1000F1200543
:1022400055F826504E07F70E0F26BE40B543CF1067
:1022500000F1200646F82750CE1000F1200555F871
:10226000265045EA0304CE1000F1200545F826402B
:10227000F0BD41837047018370472DE9F041C4B040
:1022800006460F461446FC2105A8FEF768FB1421FC
:102290006846FEF764FB0A2269464FF4805001F05D
:1022A00029FF02208DF814000A2269460DF115005D
:1022B000FEF77CFB300905F0D5F88DF81F0006F01D
:1022C0000F0005F0CFF88DF82000200905F0CAF8BE
:1022D0008DF8210004F00F0005F0C4F88DF82200FD
:1022E0005CB157B1002506E0795D05AA05F10F0044
:1022F0001154681CC5B2A542F6DB04F10F00C1B24F
:1023000005A8FEF7C9FE80464FEA181005F0AAF8A6
:1023100005AA04F10F01505408F00F0005F0A2F8CF
:1023200005AA04F110015054032104F111001154C5
:10233000401CC1B205A802F0A7FD44B0BDE8F08181
:102340001FB500F02FF800F069FA012007F09AF8A5
:102350000E4908600022C8210A2007F0B7F80C498E
:1023600008600022C821012007F0B0F80949086080
:1023700000200423CDE90030029003464FF40862A8
:1023800005A10390064807F0D1FA1FBD20000020E8
:10239000240000202800002047534D5461736B0037
:1023A000798F000810B500F0CDF800F003F800F0C8
:1023B00077F810BD1CB501211348FFF75AFF012023
:1023C00000908DF8040002208DF8050000208DF8A3
:1023D000060001208DF8070069460B48FFF7DEFE76
:1023E0000420009001208DF8040002208DF80500E3
:1023F00000208DF8060001208DF80700694602488C
:10240000FFF7CCFE1CBD00000008024010B532E012
:1024100001211A48FFF72DFF40F2771006F07AFEEF
:1024200001211648FFF727FF40F6C41214A100202F
:1024300002F028FB00B91EE0FA2006F06BFE012135
:102440000E48FFF716FFFA2006F064FE01210B4844
:10245000FFF711FF40F2771006F05CFE01210748FC
:10246000FFF707FF41F64C520AA1002002F00AFBD9
:1024700000B101E000BFCBE700BF10BD0008024083
:102480004E4F524D414C20504F57455220444F57CC
:102490004E000000534D53205265616479000000E6
:1024A00000B591B00121480501F0BEFE2248FEF7BB
:1024B000EFFF00BF2048FFF797F80028FAD14FF050
:1024C000006002901D4803901D4804904020059034
:1024D0000020069007904FF480600890002009903B
:1024E0000A900B904FF480300C9000200D90032048
:1024F0000E9000200F90109002A90F48FFF7BEF831
:10250000012210210C48FFF79BF8012280210B4883
:10251000001F03F08DF80E208DF804000F208DF8B9
:10252000050000208DF8060001208DF8070001A8A5
:1025300001F0CAFC11B000BD5860024004480040E0
:10254000C603002000B587B00121022001F06CFE17
:102550000121880401F088FE07220A212448FFF7A0
:1025600065FE07220B212248FFF760FE4FF4406012
:10257000059002208DF818008DF8190000208DF8C4
:102580001A0001208DF81B0005A91948FFF706FE67
:102590004FF4614001900020ADF80800ADF80A004A
:1025A000ADF80C004FF44070ADF810000C20ADF801
:1025B0000E0001A90F4803F093F801210D4803F024
:1025C0002BF8012240F225510A4803F064F8272035
:1025D0008DF800000F208DF8010000208DF802001A
:1025E00001208DF80300684601F06EFC07B000BDC5
:1025F000000402400048004010B52DED048BB0EE01
:10260000408AF0EE608A9FED0A0B53EC102B51ECE0
:10261000180B07F09BFE41EC190B9FED070B53ECD9
:10262000102B07F0C3FB41EC100BBDEC048B10BD6D
:102630009A999999E193E1409CC420B072587640F0
:1026400010B588B00446142103A8FEF788F90EA23D
:1026500007CA8DE807000A2203A94FF4805001F051
:1026600049FD0A2203A92046FEF7BFF810B9012050
:1026700008B010BD0A2269462046FEF7B6F808B930
:102680000120F5E70020F3E739393939393939398B
:10269000393900008EB02AE015A005F03BF81A4841
:1026A00005F038F8194805F035F8194805F032F802
:1026B00018A005F02FF800235A1E01A91F48006832
:1026C00006F028FF012812D11DA101A8FEF79AF9F2
:1026D00010B902F071FB0AE01AA101A8FEF792F905
:1026E00010B902F01FFA02E017A005F013F8D3E7C3
:1026F0000D0A0D0AC7EBD1A1D4F1C9E8D6C3B2CEF9
:10270000CAFDA3BA00000000D0AC000810AC00085D
:1027100070AC00080D0A2020202020205220CDF887
:10272000B9D8B8B4CEBBD0C5CFA220202020452038
:10273000CDCBB3F60D0A3E20000000003000002093
:10274000320D0000340D00000D0A20CAE4C8EBB8B9
:10275000F1CABDB2BBD5FDC8B7A3ACC7EBD6D8D0C4
:10276000C2CAE4C8EBA3A10D0A00000030B5B3B0A3
:1027700005460C46002340F2E2421946174800681D
:1027800006F0C8FE012827D14FF0C0511448FEF7CB
:1027900059FE224629461348FEF772F81148801E5A
:1027A000447000210E48FEF767FE00BF0C48FEF79C
:1027B0001BFF0028FAD10B48801E41780848FEF71D
:1027C00089FF00231A4601A90748006806F0A2FE07
:1027D00001210348FEF750FE33B030BD2000002039
:1027E00058600240C60300202800002010B50446AF
:1027F000002020706070C821A01CFEF78EF810BD6C
:102800004278C82A08DA0378821CD1540278521C14
:1028100002704278521C42707047000010B50020D0
:10282000084908704870C8210648801CFEF775F8F2
:102830000020054908704870C8210348801CFEF735
:102840006CF810BD8E040020C403002000B58DB0CC
:10285000FFF7DCFDFA2258A158A002F013F928B9BD
:1028600058A004F057FF00200DB000BDFA2252A17D
:102870005BA002F007F920B95DA004F04BFF002037
:10288000F2E7FA224CA161A002F0FCF820B961A0A5
:1028900004F040FF0020E7E7FA2247A163A002F01E
:1028A000F1F820B965A004F035FF0020DCE7FA223A
:1028B00068A16AA002F0E6F820B96EA004F02AFF31
:1028C0000020D1E7FA223CA171A002F0DBF820B988
:1028D00072A004F01FFF0020C6E74FF47A7275A1C2
:1028E00078A002F0CFF820B979A004F013FF0020FF
:1028F000BAE7FA2006F00EFCFA227BA17DA002F0D6
:10290000C1F820B97EA004F005FF0020ACE74FF429
:102910007A7229A180A002F0B5F820B981A0FDF754
:102920002FFD0020A0E740F2E24006F0F3FB40F666
:10293000A66221A180A002F0A5F820B982A004F02F
:10294000E9FE002090E70B2285494FF4005001F08A
:10295000D1FB834B1033824A82A16846FDF71CFDF0
:1029600041F2883214A1684602F08CF820B985A0A3
:1029700004F0D0FE002077E741F64C5286A10020FB
:1029800002F080F820B987A004F0C4FE00206BE7B5
:10299000FA2006F0BFFB02F0B3FAFA2288A18AA05F
:1029A00002F070F820B98BA0FDF7EAFC00205BE78D
:1029B00002F0CAFA012057E74F4B000041540D0ABC
:1029C000000000000D0A47534DB4AEBFDACDA8D0C9
:1029D000C5BDD3BFDAD2ECB3A3A3A10D0A0000009A
:1029E00041542B4950523D35373630300D0A0000E6
:1029F0000D0A47534DCDA8D0C5B2A8CCD8C2CAC97C
:102A0000E8D6C3D2ECB3A3A3A10D0A0041544530CC
:102A10000D0A00000D0ABBD8CFD4C4A3CABDB9D8D3
:102A2000B1D5D2ECB3A3A3A10D0A000041542B43AE
:102A300049504D4F44453D310D0A00000D0ACDB8B7
:102A4000C3F7B4ABCAE4C5E4D6C3D2ECB3A3A3A125
:102A50000D0A00000D0A4F4B0D0A000041542B4394
:102A60004950434346473D352C322C313032342CCB
:102A7000310D0A000D0A47534DB4ABCAE4B2CECAB9
:102A8000FDC5E4D6C3D2ECB3A3A3A10D0A00000098
:102A900041542B434C54533D310D0A000D0A47530A
:102AA0004DBBF1C8A1CAB1BCE4D2ECB3A3A3A10D44
:102AB0000A0000002B4350494E3A205245414459E8
:102AC0000000000041542B4350494E3F0D0A0000C6
:102AD0000D0A53494DBFA85245414459D2ECB3A306
:102AE000A3A10D0A000000002B435245473A2030B5
:102AF0002C31000041542B435245473F0D0A000042
:102B00000D0ACDF8C2E7D7A2B2E1D0C5CFA2D2EC70
:102B1000B3A3A3A10D0A000041542B4347415454D1
:102B20003D300D000D0A47505253B7D6C0EBD2ECE2
:102B3000B3A30D0A0000000041542B4347415454F5
:102B40003D310D0A000000000D0A47505253B8BD38
:102B5000D7C5D7B4CCACD2ECB3A3A3A10D0A000067
:102B6000A403002041542B43495053544152543D37
:102B700022544350222C222573222C222573220D0D
:102B80000A0000000D0A544350B8F1CABDB2BBD5CB
:102B9000FDC8B70D0A0000000D0A434F4E4E4543D5
:102BA000540D0A000D0ACEDEB7A8C1ACBDD3B7FEE6
:102BB000CEF1C6F74950B6CBBFDA0D0A00000000CF
:102BC0002B43434C4B3A200041542B43434C4B3F47
:102BD0000D0A0000BBF1C8A1CDF8C2E7CAB1BCE440
:102BE000CAA7B0DC0D0A0000FEB504460020009024
:102BF000601CFFF725FD00B9FEBD6946204601F0C7
:102C0000EBFA00B9F8E7207C04F028F90646E07BEF
:102C100004F024F946EA0010C5B22846FEF75AFB34
:102C20008DF80B00A07C04F019F90646607C04F0D6
:102C300015F946EA0010C5B22846FEF74BFB8DF8A1
:102C40000900207D04F00AF90646E07C04F006F94C
:102C500046EA0010C5B22846FEF73CFB8DF80A0094
:102C6000A07D04F0FBF80646607D04F0F7F846EA24
:102C70000010C5B22846FEF72DFB8DF80400207E1B
:102C800004F0ECF80646E07D04F0E8F846EA0010AF
:102C9000C5B22846FEF71EFB8DF80500A07E04F0A5
:102CA000DDF80646607E04F0D9F846EA0010C5B2A9
:102CB0002846FEF70FFB8DF80600012001F08EFC80
:102CC00000EBC00101EB00109DF80B1001EB80053B
:102CD0009DF80A209DF809102846FEF716FB8DF88E
:102CE0000800002340F2E24219460D48006806F051
:102CF00011FC012811D101A9002001F0E3FC02A977
:102D0000002001F07BFC012006F004FA00231A46A3
:102D100019460348006806F0DDFC00BF6CE70000C0
:102D20003401002038B5044600200090601CFFF7F5
:102D300087FC00B938BD6946204601F04DFA00B95C
:102D4000F8E7E07B302808D104F10F050023FA22D0
:102D500029460348006806F0BDFC00BFEAE7000012
:102D60005000002038B5044600200090601CFFF79A
:102D700067FC00B938BD6946204601F02DFA00B95C
:102D8000F8E79DF800001230C1B22046FEF7B4FC0F
:102D900000BFEFE73EB5044600200290601CFFF73D
:102DA0004FFC00B93EBD02A9204601F015FA00B95A
:102DB000F8E7042204F10F016846FDF7F7FD04224D
:102DC00069469120FFF759FA00BFEBE738B5044692
:102DD00000200090601CFFF733FC00B938BD694645
:102DE000204601F0F9F900B9F8E79DF8000012302B
:102DF000C1B22046FEF780FC00BFEFE7704700003D
:102E000010B58AB0044600200990601CFFF718FC3A
:102E100008B90AB010BD09A9204601F0DDF900B9D2
:102E2000F7E704AA09A10C48FDF77AFB0DF10A00A7
:102E3000431E02AA09A1009004A8FDF771FB03221A
:102E400002A98C20FFF719FA00BFE2E7252A5B5E92
:102E50003A5D3A2573000000FCA900085625632E50
:102E6000256325630000000010B5E6B0044600208D
:102E700065904FF4C87101A8FDF771FD601CFFF764
:102E8000DFFB08B966B010BD65A9204601F0A4F9C2
:102E900000B9F7E701AA9DF8941104F10F0001F0C1
:102EA00005F8E07B30280BD19DF8942101A94FF45F
:102EB000804001F03DF905F00BFB06F053FF1CE0EC
:102EC000E07B312807D19DF8942101A94FF4A0405F
:102ED00001F02EF911E0E07B322807D19DF8942112
:102EE00001A94FF4C04001F023F906E0012204F1EA
:102EF0000F01C120FFF7C1F9C4E7012204F10F015E
:102F00008120FFF7BAF900BFBCE72DE9F04F8DB083
:102F1000044600200C90601CFFF792FB10B90DB026
:102F2000BDE8F08F0CA9204601F056F900B9F6E78C
:102F3000207D03F093FF8346E07C03F08FFF4BEA94
:102F40000010C6B2E07B412810D1207C30280DD182
:102F5000607C30280AD1A07C302807D104230022CD
:102F6000FF210846009605F00DFE7AE0E07B392847
:102F700047D1207C03F072FF8046607C03F06EFF37
:102F80008246A07C03F06AFF0B90002736E0002504
:102F900014E004F115014144485D03F05FFF8346EE
:102FA00004F11501C85D03F059FF042300225946BE
:102FB0000096029005F0E6FD681CC5B25545E8DBB9
:102FC000002516E004F1150141445144485D03F029
:102FD00045FF40F0100B04F11501C85D03F03EFF02
:102FE0000423002259460096029005F0CBFD681C90
:102FF000C5B20B988542E5DB781CC7B24745C6DBF6
:103000002FE0E07B42282BD1207C302828D1607C27
:10301000302825D1A07C302822D1607D03F01EFF0E
:103020004FEA0019A07D03F019FF48444FF6FF71E5
:1030300001EA0019E07D03F011FF48444FF6FF71EB
:1030400001EA0019207E03F009FF48441FFA80F9C5
:1030500004234A4600210846009605F093FD00E04F
:103060005DE7062204F10F0103A8FDF79FFC06228D
:1030700003A98420FFF701F900BF50E72DE9F04FC5
:103080008DB0044600200C90601CFFF7D9FA10B9EF
:103090000DB0BDE8F08F0CA9204601F09DF800B9F5
:1030A000F6E7E67CE07B412810D1207C30280DD16A
:1030B000607C30280AD1A07C302807D1052300226B
:1030C000FF210846009605F05DFD7AE0E07B392897
:1030D00047D1207C03F0C2FE8046607C03F0BEFE38
:1030E0008246A07C03F0BAFE8346002736E0002526
:1030F00014E004F114014144485D03F0AFFE04F113
:1031000014010390C85D03F0A9FE05230022009678
:103110000290039905F036FD681CC5B25545E8DB01
:10312000002517E004F1140141445144485D03F0C7
:1031300095FE40F0100004F114010390C85D03F007
:103140008DFE0523002200960290039905F01AFDDA
:10315000681CC5B25D45E5DB781CC7B24745C6DBD8
:103160002FE0E07B42282BD1207C302828D1607CC6
:10317000302825D1A07C302822D1207D03F06EFE9E
:103180004FEA0019607D03F069FE48444FF6FF7175
:1031900001EA0019A07D03F061FE48444FF6FF717B
:1031A00001EA0019E07D03F059FE48441FFA80F956
:1031B00005234A4600210846009605F0E3FC00E09E
:1031C00066E7052204F10F0104A8FDF7EFFB0522D5
:1031D00004A98520FFF751F800BF59E72DE9F04316
:1031E000CDB0054600204C90642133A8FDF7B7FB15
:1031F000002032908146681CFFF722FA10B94DB0CA
:10320000BDE8F0834CA9284600F0E6FF00B9F6E7D8
:103210009DF83001401E112190FBF1F201FB1200DC
:1032200038B99DF83001401E90FBF1F000F0FF0826
:1032300000E0E4E7E87B31286CD1002467E004EB90
:10324000041105F11000405CADF8CC0005F1100050
:10325000112101FB04004078ADF8CE0005F110000B
:1032600001FB04008078ADF8D00005F1100001FBEF
:103270000400C078ADF8D200BDF8CC10C8B203F09D
:10328000EDFD0601BDF8CE10C8B203F0E7FD3044F5
:103290004FF6FF7101EA0016BDF8D010C8B203F076
:1032A000DDFD30444FF6FF7101EA0016BDF8D21083
:1032B000C8B203F0D3FD304486B232A9304605F0DF
:1032C00031FC00B99BE7BDF8C800B0F57A7F00DD9E
:1032D00095E735A801F05EFA00270CE005F114002F
:1032E000112101FB0400C15D07F1100033AA22F88F
:1032F0001010781CC7B20D2FF0DBBDF8C810504A73
:1033000002EB01301D2233A900F012FF641C44457A
:1033100095DB71E0E87B322856D1002451E004EBC4
:10332000041105F11000405CADF8CC0005F110006F
:10333000112101FB04004078ADF8CE0005F110002A
:1033400001FB04008078ADF8D00005F1100001FB0E
:103350000400C078ADF8D200BDF8CC10C8B203F0BC
:103360007DFD0601BDF8CE10C8B203F077FD3044F4
:103370004FF6FF7101EA0016BDF8D010C8B203F095
:103380006DFD30444FF6FF7101EA0016BDF8D21012
:10339000C8B203F063FD304486B232A9304605F06E
:1033A000C1FB00B92BE7BDF8C800B0F57A7F00DD9E
:1033B00025E7BDF8C810224A02EB013000F05AFEA2
:1033C000641C4445ABDB17E0E87B332814D0E87B72
:1033D00034280BD1002406E04FF4801101EB0440A7
:1033E00000F016FE641C3F2CF6DB05E00522694662
:1033F000C220FEF742FF02E7002412E000270DE0A2
:1034000005F11000112101FB0400C05D0DF8090059
:1034100009F1010000F0FF09781CC7B2042FEFDBAF
:10342000641C4445EADBE87B0DF828004FEA88007D
:10343000401CC2B26946C220FEF71FFF00BFDEE695
:103440000010100030B5E9B00446002068904FF439
:10345000C87104A8FDF783FA601CFFF7F1F808B9FA
:1034600069B030BD68A9204600F0B6FE00B9F7E7A4
:10347000E07B41283CD1207C302839D1607C302849
:1034800036D1A07C302833D10DF14A0001F082F909
:103490009DF8A001083881B20DF1620204F1170015
:1034A00000F004FD00251FE005EB4501174A02EB83
:1034B0004101888803A905F035FBBDF80C10144ABA
:1034C00002EB01301D2204A900F014FE9DF8A011AA
:1034D00001F12102BDF80C100D4B03EB013004A9E2
:1034E00000F026FE681C85B20A4800888542DBDBB6
:1034F0000A2204F10F016846FDF758FA0A226946CC
:103500008320FEF7BAFE00BFAAE7000050C30010F8
:10351000001010004C0000202DE9F04F8BB0044645
:1035200000200A90601CFFF78BF810B90BB0BDE8C3
:10353000F08F0AA9204600F04FFE00B9F6E7E07BC5
:10354000412811D1207C30280ED1607C30280BD14D
:10355000A07C302808D1002006230246FF210090DD
:10356000084605F00FFB7DE0E07B39284AD1207C3E
:1035700003F074FC0746607C03F070FC8146A07C7D
:1035800003F06CFC8246002639E0002516E004F1C9
:1035900013013944485D03F061FC834604F11301D3
:1035A000885D03F05BFC019000200623024659462B
:1035B0000090019805F0E6FA681CC5B24D45E6DBBF
:1035C000002518E004F1130139444944485D03F033
:1035D00045FC40F0100B04F11301885D03F03EFC44
:1035E000019000200623024659460090019805F0FC
:1035F000C9FA681CC5B25545E4DB701CC6B2BE42B0
:10360000C3DB2FE0E07B42282BD1207C302828D15F
:10361000607C302825D1A07C302822D1E07C03F0CA
:103620001DFC4FEA0018207D03F018FC40444FF6C3
:10363000FF7101EA0018607D03F010FC40444FF672
:10364000FF7101EA0018A07D03F008FC40441FFA56
:1036500080F80020062342460146009005F092FAC9
:1036600000E063E7042204F10F0102A8FDF79EF9D0
:10367000042202A98620FEF700FE00BF56E738B5F7
:10368000044600200090601CFEF7DAFF00B938BD48
:103690006946204600F0A0FD00B9F8E7FA2005F0E1
:1036A00039FDE07B312801D100F054FCE07B322869
:1036B0000CD1FFF7CBF8012806D1012204F10F014C
:1036C000BF20FEF7DAFD0BE000F044FCE07B33287E
:1036D00006D19DF800001230C1B22046FEF70CF86A
:1036E00000BFD4E710B5A0B0044620210AA8FDF71A
:1036F00036F9002009900790089006900590601C0C
:10370000FEF79EFF08B920B010BD05A9204600F0C5
:1037100063FD00B9F7E79DF8142004F10F0112A82A
:10372000FDF744F909AA06AB901E08A9CDE90232BB
:10373000CDE90010031F07AA2BA112A8FCF7F0FE89
:10374000062846D1BDF91C00002841DBBDF91C004C
:10375000FF283DDCBDF91E00002839DBBDF91E0045
:10376000FF2835DCBDF92000002831DBBDF9200041
:10377000FF282DDCBDF92200002829DBBDF922003D
:10378000FF2825DC0698002822DB0698B0F5803F4C
:103790001EDA9DF824003B281AD11AAA18A112A8F3
:1037A000FCF7BEFE1EAA18A112A8FCF7B9FE102253
:1037B0001AA90AA8FDF7FAF806221EA90EA8FDF715
:1037C000F5F80F220AA94FF4005000F0B1FC00E018
:1037D00099E7002211469420FEF74FFDFA2005F0EC
:1037E00099FC00F0B7FB00002568642E2568642E64
:1037F0002568642E2568642C25642563000000007C
:10380000255B5E2C5D000000252A5B5E2C5D2C256F
:103810005B5E3B5D0000000030B5BBB0044629A2F2
:1038200007CA37AB07C3601CFEF70AFF08B93BB0F5
:1038300030BD3AA9204600F0CFFC00B9F7E701F00F
:103840005FFB37A8FCF7B2FFC5B2294637A8FEF7E1
:103850008DFF0023FA2205A91D48006805F05AFED5
:1038600001280AD11BA105A8FCF78EFF28B101ABE6
:1038700002AA1AA105A8FCF753FE01F065FB029904
:1038800001F00F0003F0EEFD8DF80C000298C0F37C
:10389000031003F0E7FD8DF80D00019901F00F0012
:1038A00003F0E0FD8DF80E000198C0F3031003F063
:1038B000D9FD8DF80F00042203A99720FEF7DDFC47
:1038C00000BFB4E741542B4353510D0A00000000E0
:1038D000280000202B4353513A0000002B43535142
:1038E0003A2025642C25640010B58CB004460020D5
:1038F0000B90282101A8FDF732F8601CFEF7A0FE0E
:1039000008B90CB010BD0BA9204600F065FC00B949
:10391000F7E701AA9DF82C1004F10F0000F0C6FA99
:1039200001A801F097FC9DF82C2001A94FF4E0407C
:1039300000F0FEFB00221146A220FEF79EFC00BF15
:10394000DFE770477047704700BFFEE710B586B0ED
:1039500001AC052209494FF4805000F0CBFB022056
:1039600020700A220549601CFDF720F80321E1724E
:103970000C2101A801F088FA06B010BDBA0300209E
:103980001FB500F01FF800220321084605F09EFD38
:103990000749086000200223CDE900300290034669
:1039A0004FF4906203A10390054805F0BFFF1FBDCF
:1039B00050000020456C6563745461736B00000017
:1039C000813B00081CB5012000908DF80400022006
:1039D0008DF8050000208DF8060001208DF8070005
:1039E00069461E48FEF7DAFB42F20800009001200B
:1039F0008DF8040002208DF8050000208DF80600E7
:103A000001208DF8070069461548FEF7C7FB042022
:103A1000009001208DF8040002208DF805000020A0
:103A20008DF8060001208DF8070069460D48FEF765
:103A3000B5FB4FF4F860009001208DF804000220DF
:103A40008DF8050000208DF8060001208DF8070094
:103A500069460548FEF7A2FB1CBD000000000240BD
:103A600000080240001002400014024070B50446F5
:103A70000D4604213E48FEF7FEFB642003F096FD50
:103A80007DBB092C33D2DFE804F032050A0F141A8B
:103A900020262D0008213748FEF7EDFB27E04021C6
:103AA0003548FEF7E8FB22E080213348FEF7E3FBD0
:103AB0001DE04FF480713048FEF7DDFB17E04FF456
:103AC00000712D48FEF7D7FB11E04FF480612A48C2
:103AD000FEF7D1FB0BE04FF400512648FEF7CBFB7D
:103AE00005E005E001212548FEF7C5FB00BF37E0F2
:103AF000012D35D1092C32D2DFE804F031050A0F4F
:103B0000141A20262C0008211A48FEF7B2FB26E0E2
:103B100040211948FEF7ADFB21E080211648FEF751
:103B2000A8FB1CE04FF480711348FEF7A2FB16E0DF
:103B30004FF400711048FEF79CFB10E04FF48061D9
:103B40000D48FEF796FB0AE04FF400510948FEF7D6
:103B500090FB04E001210948FEF78BFB00BF00BF8A
:103B6000642003F023FD04210148FEF782FB70BDB1
:103B70000010024000080240001402400000024011
:103B800008B500BF0023192269461948006805F0EE
:103B9000C1FC0128F6D19DF80000302826D19DF8FF
:103BA000020003F05BF906469DF8010003F056F9A8
:103BB00006EB0010C5B2002410E005F0010028B1AA
:103BC000611CC8B20021FFF751FF04E0611CC8B2BC
:103BD0000121FFF74BFF6D10601CC4B2082CECDB19
:103BE000032269468720FEF748FBCBE7CAE70000BF
:103BF0005000002010B52DED048BB0EE408AF0EEA1
:103C0000608A9FED0A0B53EC102B51EC180B06F059
:103C10009DFB41EC190B9FED070B53EC102B06F0AD
:103C2000C5F841EC100BBDEC048B10BD3D0AD7A3C9
:103C30001894E1408FC2F5285C8771402DE9F0436C
:103C40000024002500273C4909884A1EE01900216C
:103C500003F096F800BF00BF00BF2AE004EB440069
:103C6000364911F81080781987B20025324800884B
:103C7000844200DB1EE0002612E0601C84B2681C57
:103C800085B22D480088844200DB0CE004EB440040
:103C90002A4911F81000404500D004E0701C86B29B
:103CA000B6F57A7FE9DB00BF6A1E0021384604F0D2
:103CB00007FED3E700BF00240025002737E004EB10
:103CC00044001E4911F8108004EB440001EB400051
:103CD00090F80190781987B200251748008884422F
:103CE00000DB25E0002619E0601C84B2681C85B268
:103CF00011480088844200DB13E004EB44000F49C4
:103D000011F81000404506D104EB440001EB4000DF
:103D10004078484500D004E0701C86B2B6F57A7F42
:103D2000E2DB00BF6A1E0021384603F045FCC6E70F
:103D300000BFBDE8F08300004C00002050C300101D
:103D4000002011E001210A4A02F8201002EB800253
:103D500051700021064A02EB80029170044A02EB86
:103D60008002D170411C88B2B0F57A7FEADB7047DF
:103D7000C0DA00102DE9F04391B04FF000090024A3
:103D800083E0464901EB04301D2202A900F0B2F99C
:103D9000BDF808004FF6FF71884200D173E0BDF80E
:103DA0000810C8B203F05AF80601BDF80A10C8B2EC
:103DB00003F054F830444FF6FF7101EA0016BDF8E5
:103DC0000C10C8B203F04AF830444FF6FF7101EA14
:103DD0000016BDF80E10C8B203F040F8304486B2A9
:103DE000BDF83010C8B203F039F80746BDF83210FC
:103DF000C8B203F033F80501BDF83410C8B203F0BF
:103E00002DF828444FF6FF7101EA0015BDF8361071
:103E1000C8B203F023F828444FF6FF7101EA0015F9
:103E2000BDF83810C8B203F019F8284485B2BDF8BF
:103E30003E10C8B203F012F800074FEA1068BDF850
:103E40004010C8B203F00AF8404400F0FF088DF8B3
:103E500000708DF80180ADF80250ADF8046048465E
:103E6000411C1FFA81F900EB40000D4901EB4000B5
:103E700000990160BDF8041081800A480088401C48
:103E80000849088000BF601C84B2B4F57A7FFFF651
:103E900078AFFFF7D3FE11B0BDE8F083001010003B
:103EA00050C300104C00002000BFFEE710B50346D1
:103EB000002004E01C5C22F81040441CE0B2884260
:103EC000F8DB10BD7047000070B5002100230F2201
:103ED000C4781CB3174C246804F4E064C4F5E064AF
:103EE000C4F30721C1F10404E3B20A4144789C40C1
:103EF000E1B28478144021430C07210E0E4C057862
:103F00006155047804F01F050124AC4005786D115B
:103F1000AD0005F1E025C5F8004109E0047804F0A2
:103F20001F050124AC40054D0678761145F8264062
:103F300070BD00000CED00E000E400E080E100E076
:103F400002490143024A1160704700000000FA056F
:103F50000CED00E0BFF34F8F0648006800F4E0600E
:103F600005490843001D03490860BFF34F8F00BF98
:103F7000FEE700000CED00E00000FA05F0B591B09E
:103F80000546002409AA19A12846FCF7C9FA0DF133
:103F90001A0006A9021F05ABCDE90032CDE90210D7
:103FA0008B1F04AA13A109A8FCF7BAFA06281BD193
:103FB0009DF8250002F052FF07469DF8240002F00C
:103FC0004DFF47EA0010C6B23046FDF783F90446BC
:103FD000012000F003FBA04206D0012000F0F6F81B
:103FE0002146012000F062FC11B0F0BD252A7325A6
:103FF000730000002568642C2568642C2568642CF7
:104000002568642C2568642C2568642C0000000059
:1040100070B504460125002340F2E24219460B48E0
:10402000006805F077FA01280ED12046FDF7ACFDB7
:10403000054615B106A003F06DFB00231A4619468C
:104040000248006805F046FB70BD00003C010020FE
:104050000D0A4E4F525F464C4153482045726173E2
:104060006520426C6F636B204572726F7221212153
:104070000000000070B504460125002340F2E24232
:1040800019460B48006805F045FA01280ED1204674
:10409000FDF796FD054615B106A003F03BFB002396
:1040A0001A4619460248006805F014FB70BD00006E
:1040B0003C0100200D0A4E4F525F464C41534820B0
:1040C000457261736520536563746F722045727227
:1040D0006F7221212100000010B50548006830B939
:1040E000FDF7B0FD012005F0CDF90149086010BDD4
:1040F0003C01002070B504460D461646002340F2F0
:10410000E24219460948006805F004FA01280BD17B
:10411000324621462846FDF7E3FE00231A4619469B
:104120000248006805F0D6FA70BD00003C0100208E
:104130002DE9F04104460D4617460126002340F2C2
:10414000E24219461048006805F0E4F9012818D148
:104150002046FDF735FD064616B10CA003F0DAFA4D
:104160003A4621462846FDF7D5FE064616B110A070
:1041700003F0D0FA00231A4619460348006805F0F8
:10418000A9FABDE8F08100003C0100200D0A4E4F65
:10419000525F464C415348204572617365536563D5
:1041A000746F72204572726F72212121000000002D
:1041B0000D0A4E4F525F464C415348205772697466
:1041C00065204572726F7221212100000149086249
:1041D0007047000000000E422DE9F04704460D46EE
:1041E0000027B846A07B02F039FE8146607B02F0D2
:1041F00035FE49EA00102870002608E0781CC7B296
:1042000014F8011B032900D103E0701CC6B2FF2E75
:10421000F4DB00BF28781230B84201D14FF001081A
:104220004046BDE8F087000029B1064A1268024303
:10423000044B1A6004E0034A12688243014B1A607F
:10424000704700003038024029B1064A1268024324
:10425000044B1A6004E0034A12688243014B1A605F
:10426000704700003838024029B1064A12680243FC
:10427000044B1A6004E0034A12688243014B1A603F
:10428000704700004038024029B1064A12680243D4
:10429000044B1A6004E0034A12688243014B1A601F
:1042A0007047000044380240F0B50021002200248D
:1042B000022500260223324F3F6807F00C0121B18E
:1042C000042905D0082937D105E02E4F076036E0D4
:1042D0002D4F076033E02A4F3F1F3F68C7F38056DA
:1042E000274F3F1F3F6807F03F036EB1264FB7FBD4
:1042F000F3F7DFF88CC0ACF1040CDCF800C0CCF3B1
:10430000881C07FB0CF40CE01E4FB7FBF3F7DFF83B
:1043100070C0ACF1040CDCF800C0CCF3881C07FBC7
:104320000CF4174F3F1F3F68C7F301477F1C7D0008
:10433000B4FBF5F7076002E0124F076000BF00BF53
:104340000F4F3F6807F0F0010909104F7A5C0768CA
:10435000D74047600A4F3F6807F4E051890A0B4F86
:104360007A5C4768D7408760054F3F6807F4604133
:10437000490B064F7A5C4768D740C760F0BD000024
:10438000083802400024F400001BB70000000020A1
:1043900010B501460022002300204A11012A02D153
:1043A0000A4C236808E0022A03D1084C70342368C1
:1043B00002E0064C7434236801F01F02012494408B
:1043C0001C400CB1012000E0002010BD003802406C
:1043D0000021094A11701170012802D0042808D167
:1043E00003E00121044A117004E00521024A117022
:1043F00000E000BF00BF704770380240014908600C
:10440000704700003C0E4742002100F44072B2F5B4
:10441000407F08D1094A116821F4F811084A024086
:104420001143064A1160054A68321268C0F30B0353
:104430001A43024B68331A60704700000838024084
:10444000FFFCFF0F014600BF080900EB800042009F
:1044500001F00F001044C0B270470146002204E092
:10446000501CC2B2A1F10A00C1B20A29F8DA100741
:1044700041EA10607047000008B500220092002059
:104480000021104A126802F04002CAB9421E0D4BC8
:104490001A6000BF0B4A126802F04001009A521CD9
:1044A0000092009AB2F5803F01D00029F2D0054A6F
:1044B000126802F040020AB1012002E0002000E090
:1044C000012008BD0C2800400348006820F080004F
:1044D00001490860704700000C28004070B506468E
:1044E0000C4600250E4800680E4900EA0105280C1C
:1044F000E070C5F30420607005F03F00A070C5F3C4
:10450000423020705EB9E078FFF79CFFE070607881
:10451000FFF798FF6070A078FFF794FFA07070BD60
:10452000042800403FFFFF0070B506460C460025FA
:104530000F4800680F4900EA0105C5F305402070E7
:10454000C5F30620607005F07F00A07005F48000C0
:10455000000CE0705EB92078FFF774FF207060787F
:10456000FFF770FF6070A078FFF76CFFA07070BD60
:10457000002800407F7F7F0030B504460025CA2018
:104580001549086053200860FFF776FF00B91DE069
:1045900011481C38006820F040000F491C390860A1
:1045A00008460068216808430B491C3908600A491D
:1045B0001439A068086008460068A18840EA0140F4
:1045C000054914390860FFF77FFF0125FF200249E4
:1045D0000860284630BD00002428004008B5014688
:1045E0000020009004480090009800EB81000090AB
:1045F0000098006808BD0000502800402DE9F041F7
:1046000005460C46002600274DB9607800F01000E2
:10461000102804D1607820F010000A30607005B9CD
:1046200008E06078FFF70EFF0646A078FFF70AFF64
:10463000064600BF55B1E0780004617840EA0120E9
:10464000A1780843217840EA413611E0E078FFF78D
:1046500004FF4FEA00486078FFF7FFFE48EA0028B1
:10466000A078FFF7FAFE48EA0008207848EA4036CA
:10467000CA201249086053200860FFF7FDFE08B900
:10468000002714E00E4830400C4920390860FFF73D
:104690001BFF0A481C38006800F0200030B900F009
:1046A000D5F808B9002702E0012700E00127FF2024
:1046B000024908603846BDE8F08100002428004027
:1046C0003FFFFF002DE9F04105460C46002600277C
:1046D0004DB92E48006800F0400000B102E0002013
:1046E000E07000BF0DE02948006800F0400020B1F4
:1046F0002078FFF7A7FE064602E00020E07000BF2A
:1047000000BF55B120780004617840EA0120A1780B
:104710000843E17840EA014611E02078FFF79DFE6A
:104720004FEA00486078FFF798FE48EA0028A07832
:10473000FFF793FE48EA0008E07848EA0046CA20FE
:1047400012491C31086053200860FFF795FE08B934
:10475000002713E00E4830400C4908390860FFF785
:10476000B3FE0A48006800F0200030B900F06EF88F
:1047700008B9002702E0012700E00127FF200349D4
:104780001C3108603846BDE8F08100000828004070
:104790007F7F7F0010B588B0044601A9012000F09A
:1047A00093F80699C1F3031002F05CFE24F8020BA3
:1047B000069901F00F0002F055FE24F8020B05994E
:1047C000C1F3031002F04EFE24F8020B059901F02C
:1047D0000F0002F047FE24F8020B0499C1F3031006
:1047E00002F040FE24F8020B049901F00F0002F0E1
:1047F00039FE24F8020B0399C1F3031002F032FED4
:1048000024F8020B039901F00F0002F02BFE24F8AC
:10481000020B0299C1F3031002F024FE24F8020BEC
:10482000029901F00F0002F01DFE24F8020B01991D
:10483000C1F3031002F016FE24F8020B019901F0F7
:104840000F0002F00FFE208008B010BD08B5002256
:10485000009200200021CA22134B1A6053221A60D2
:10486000114A183A126822F0A0020F4B183B1A6046
:1048700000BF0D4A183A126802F02001009A521C3B
:104880000092009AB2F5003F01D00029F1D0064A0B
:10489000183A126802F020020AB1012000E000205C
:1048A000FF22014B1A6008BD2428004008B50022F1
:1048B0000092044A0092009A02EB80020092009A51
:1048C000116008BD502800407CB505460C46002309
:1048D00040F2E24219462248006804F01BFE01281B
:1048E0003CD101A92846FFF7F9FD69462846FFF7A4
:1048F0001BFE9DF8020020609DF8010060609DF89D
:104900000000A0609DF80600E0609DF805002061B1
:1049100065B90120FFF762FE00EBC00101EB00105A
:104920009DF8071001EB800060610DE0012D0BD1B7
:104930000120FFF753FEC6B23046FCF7D8FC9DF8C5
:10494000071001EB002060619DF80400A0610023C6
:104950001A4619460248006804F0BCFE7CBD0000FF
:104960003401002000B58DB00B2213494FF40050E4
:10497000FFF7C0FB104B10330F4A10A16846FBF73E
:104980000BFD40F6C41215A1684600F07BF828B96B
:1049900013A002F0BFFE00200DB000BD41F288322E
:1049A00016A1002000F06EF820B90DA002F0B2FEB2
:1049B0000020F1E70120EFE7A403002041542B433E
:1049C000495053544152543D22544350222C2225E5
:1049D00073222C222573220D0A0000004F4B000089
:1049E0000D0ACEDEB7A8C1ACBDD3B7FECEF1C6F777
:1049F0004950B6CBBFDA0D0A000000000D0A434F44
:104A00004E4E4543540D0A000EB5012004F03AFD08
:104A10001B49086001210807FFF726FC0120FFF76A
:104A2000D5FB0020FFF7DAFD4AF2A551884225D0D8
:104A30000120FFF7CDFC00BF4120FFF7A9FC0028B3
:104A4000FAD04FF48070FFF7DFFC0120FFF7D6FCAF
:104A50007F200190FF200290002000906846FFF721
:104A60008BFD4AF2A5510020FFF720FF1421012001
:104A7000FFF71CFF20210220FFF718FF01200EBDC9
:104A8000340100202DE9F043B3B006460C4615462C
:104A90000027B84604F0D4FF80462CE046B13046EB
:104AA000FBF784FE00F0FF0949463046FDF75EFE45
:104AB0000CB9012725E06A08002301A91348006802
:104AC00004F028FD012816D1214601A8FBF75CFE61
:104AD00048B10FA12046FBF795FF10B901A800F0DF
:104AE00065FF01270DE00CA101A8FBF74DFE10B1F9
:104AF00001A8FFF743FA04F0A3FFA0EB0800A842C7
:104B0000CCD300BF384633B0BDE8F0832800002086
:104B10002B43434C4B3A20002A50535554545A3A95
:104B20002000000000B5A3B0202108A8FBF717FF64
:104B30000020079005900690049074E03CA002F0DD
:104B4000E9FD49A002F0E6FD4AA002F0E3FD0023E2
:104B50005A1E10A94848006804F0DCFC012862D104
:104B600046A110A8FBF74EFF00B95DE007AA04AB11
:104B7000901E06A9CDE90232CDE90010031F05AA57
:104B80003FA110A8FBF7CCFC062849D1BDF91400C1
:104B9000002841DBBDF91400FF283DDCBDF91600FB
:104BA000002839DBBDF91600FF2835DCBDF91800F7
:104BB000002831DBBDF91800FF282DDCBDF91A00F3
:104BC000002829DBBDF91A00FF2825DC04980028FD
:104BD00022DB0498B0F5803F1EDA9DF81C003B28CC
:104BE0001AD11DAA2CA110A8FBF79AFC21AA2CA16E
:104BF00010A8FBF795FC10221DA908A8FBF7D6FE0C
:104C0000062221A90CA8FBF7D1FE0F2208A94FF418
:104C10000050FFF78DFA06E025A002F07BFD02E0D0
:104C200023A002F077FD89E700BF23B000BD00009C
:104C30000D0AC7EBCAE4C8EBB7FECEF1C6F7495080
:104C4000B5D8D6B7BCB0B6CBBFDABAC528C0FDC898
:104C5000E736312E3139302E33382E34362C33307E
:104C60003030303B29A3BA000D0A452ECDCBB3F628
:104C7000000000000D0A3E0030000020450D00003D
:104C80002568642E2568642E2568642E2568642CAA
:104C90002564256300000000255B5E2C5D0000009C
:104CA000252A5B5E2C5D2C255B5E3B5D00000000D1
:104CB0000D0AC7EBCAE4C8EBBACFB7A8B5C44950D0
:104CC000B5D8D6B7BBF2B6CBBFDA21000CB5002001
:104CD000019000903448006840F480303249086008
:104CE00000BF3148006800F4003000900198401C7B
:104CF0000190009818B90198B0F5A04FF1D12A4859
:104D0000006800F4003010B10120009001E00020A4
:104D100000900098012846D123484030006840F0B8
:104D200080502149403108602048006840F44040EC
:104D30001E4908601C48083000681B49083108609B
:104D40000846006840F4004008600846006840F4E7
:104D5000A05008601648091F0860081F006840F04E
:104D60008070091F086000BF0F48006800F00070E5
:104D70000028F9D040F205700E4908600A48083052
:104D8000006820F003000849083108600846006800
:104D900040F00200086000BF03480830006800F0DF
:104DA0000C000828F8D10CBD00380240007000400B
:104DB0000C544007003C024030B58DB03CE020A0D0
:104DC00002F0A8FC23A002F0A5FC25A002F0A2FCA2
:104DD00000235A1E69462348006804F09BFB012803
:104DE0002AD121A16846FBF70DFE00B925E06846EF
:104DF000FBF7DCFC0B281CD100240CE01DF80400A0
:104E0000302805DB1DF80400392801DC012500E00D
:104E10000025601CC4B20A2CF0DB012D05D105224F
:104E200069462803FFF784F906E010A002F072FC3F
:104E300002E00EA002F06EFCC1E700BF0DB030BD75
:104E40000D0AC7EBCAE4C8EBCDF8B9D8B5D8D6B7C8
:104E5000A3BA00000D0A452ECDCBB3F6000000002A
:104E60000D0A3E0030000020450D00000D0AC7EB82
:104E7000CAE4C8EBBACFB7A8B5C4CDF8B9D8B5D88D
:104E8000D6B7A3A10000000030B5B3B004460D466C
:104E900000231A4601A91448006804F03BFB0128CE
:104EA0001BD112A101A8FBF7ADFDB0B9FFF75AFD68
:104EB00098B9FDF7CBFC80B900BFBFF34F8F0E4808
:104EC000006800F4E0600D490843001D0A490860CD
:104ED000BFF34F8F00BF00BFFEE729462046FDF716
:104EE00045FC33B030BD0000280000200D0A434CC3
:104EF0004F5345440D0A00000CED00E00000FA0598
:104F000010B5FA2004F006F94FF4FA6207A108A0E0
:104F1000FFF7B8FD20B907A002F0FCFB002010BD90
:104F2000FA2004F0F7F80120F9E700004F4B0000E9
:104F30002B2B2B00C3FCC1EEC4A3CABDC7D0BBBB87
:104F4000CAA7B0DC0D00000010B540F2E24206A195
:104F500007A0FFF797FD20B907A002F0DBFB0020B8
:104F600010BD0120FCE70000434F4E4E4543540066
:104F700041544F0D0A000000CAFDBEDDC4A3CABDE6
:104F8000C7D0BBBBCAA7B0DC0D00000010B51548E8
:104F9000006840F47000134908601348006840F04E
:104FA00001001149086000200F49083108600E48CF
:104FB00000680E4908400C4908600D48091D08604A
:104FC000081F006820F48020091F0860002006499F
:104FD0000C310860FFF77AFE4FF00060014980391C
:104FE000086010BD88ED00E000380240FFFFF6FECB
:104FF00010300024704700008EB023A002F08AFB1E
:105000002DA002F087FB32A002F084FB36A002F054
:1050100081FB3BA002F07EFB3FA002F07BFB44A0A3
:1050200002F078FB48A002F075FB4DA002F072FB85
:1050300029E05AA002F06EFB5DA002F06BFB63A0BA
:1050400002F068FB66A002F065FB68A002F062FB5C
:1050500000235A1E01A96648006804F05BFA012883
:1050600011D164A101A8FBF7CDFC08B9FDF712FB33
:1050700061A101A8FBF7C6FC10B9FFF7BBFF02E076
:105080005EA002F047FBD4E70D0A0D0AB5F7CAD4BB
:10509000C4A3CABD0D0ABACFB7CAB4F3C3F7BDDA09
:1050A000C4DCBFC6BCBCB9C9B7DDD3D0CFDEB9AB99
:1050B000CBBEA3BA000000000D0ACDF8B9D8C8EDE8
:1050C000BCFEB0E6B1BEBAC52020A3BA56000000AF
:1050D0000D0ACDF8B9D8B5D8D6B720202020202089
:1050E0002020A3BA000000000D0ACDF8B9D8B5B150
:1050F000C7B0CAB1BCE420202020A3BA0000000041
:105100000D0A4750532DBEADB6C8202020202020C8
:105110002020A3BA000000000D0A4750532DCEB343
:10512000B6C82020202020202020A3BA00000000A4
:105130000D0AC4BFB1EAB7FECEF1C6F74950B5D8E3
:10514000D6B7A3BA000000000D0AC4BFB1EAB7FE8B
:10515000CEF1C6F7B6CBBFDABAC5A3BA00000000DD
:105160000D0A2A2A2A2A2A2A2A2A2A2A2A2A2A2ADC
:105170002A2A2A2A2A2A2A2A2A2A2A2A2A2A2A2A8F
:105180002A2A2A2A2A2A2A2A2A2A2A2A2A2A2A2A7F
:105190002A2A2A2A2A2A2A2A2A2A00000D0AC7EBA2
:1051A000D1A1D4F1B5F7CAD4C4A3CABDA3BA000033
:1051B0000D0A312ECDF8B9D8B2CECAFDC9E8D6C392
:1051C000BCB0B2E9BFB4C4A3CABD00000D0A322E00
:1051D000C8CECEF1B4F2D3A1C4A3CABD0000000072
:1051E0000D0A452ECDCBB3F6000000000D0A3E009F
:1051F00030000020310D0000320D00000D0A20CAE1
:10520000E4C8EBB8F1CABDB2BBD5FDC8B7A3ACC703
:10521000EBD6D8D0C2CAE4C8EBA3A10D0A000000A7
:105220001FB500200423CDE90030029003464FF45F
:10523000906203A10390064804F078FB1FBD0000B4
:1052400054696D65506C616E5461736B00000000B1
:10525000BD9300082DE9F0470446A07801F0FEFD5B
:105260008246207801F0FAFD4AEA0010C6B2002515
:1052700023E006F00100E8B1681CC7B2207B01F012
:10528000EDFD8046A07B01F0E9FD81464B4642469C
:105290000021384601F02AFD207C01F0DFFD804628
:1052A000A07C01F0DBFD81464B464246102138468A
:1052B00001F01CFD7610681CC5B2082DD9DBBDE8D5
:1052C000F087000038B50020009040F225511E48BC
:1052D00000F0B7F9002836D01B4800F06BFAC4B2D2
:1052E000022C02D11948FBF741FF184821464278A9
:1052F000642A08DA0378821CD1540278521C0270A6
:105300004278521C427000BF032C1CD10F484078D9
:10531000C01EC1B20D48801CFBF7BEFE00236A46CA
:105320000A49891C0A48006804F05CFA009838B100
:105330004FF0805007490860BFF34F8FBFF36F8F66
:105340000248FBF713FF38BD004C00404401002029
:105350001400002004ED00E01CB50020009040F295
:105360002551234800F06DF9002840D0204800F076
:1053700021FAC0B20190012101A802F08DF99DF837
:105380000400022802D11B48FCF796FA19489DF840
:1053900004104278C82A08DA0378821CD1540278B3
:1053A000521C02704278521C427000BF9DF80400EB
:1053B00003281CD10F484078C01EC1B20D48801C84
:1053C000FBF76AFE00236A460A49891C0A480068FE
:1053D00004F008FA009838B14FF08050074908608F
:1053E000BFF34F8FBFF36F8F0248FCF765FA1CBD08
:1053F00000100140DA0200201C00002004ED00E053
:105400001CB50020009040F225514F4800F019F9DA
:10541000002866D04C4800F0CDF9C0B201900121BF
:1054200001A802F039F99DF804004849497871B99A
:10543000022803D10021464A117008E00D2803D14B
:105440000121434A117002E00221414A117000BF5C
:105450003F480078002845D19DF80400022802D179
:105460003A48FDF7C3F99DF804103848FDF7C8F92C
:105470009DF80400032866D134484078C01EC1B2AC
:105480003248801CFBF708FE0446201101F0EAFFB9
:105490002E490978C91E2D4A921C515C88421DD1A3
:1054A00004F00F0001F0DEFF28490978891E274A21
:1054B000921C515C884211D100236A462349891C01
:1054C0002448006804F08EF9009838B14FF08050FD
:1054D00021490860BFF34F8FBFF36F8F1B48FDF763
:1054E00085F930E01A48007801282CD11748407817
:1054F000012806DC9DF804000D2802D11348FDF7B1
:1055000075F99DF804101148FDF77AF90F484078B5
:10551000042818DD9DF804000A2814D100236A46E7
:105520000A49891C0D48006804F05CF9009838B1FC
:105530004FF0805008490860BFF34F8FBFF36F8F63
:105540000248FDF753F91CBD004800408E040020BE
:105550002D0000202400002004ED00E028000020A1
:105560001CB50020009040F22551264800F069F853
:10557000002845D0234800F01DF9C0B201909DF8E5
:1055800004000A2800D11CBD1F480078012807D15B
:105590009DF804000A2803D0012101A802F07CF83C
:1055A0001A489DF804104278322A08DA0378821CDF
:1055B000D1540278521C02704278521C427000BFD3
:1055C0009DF804000D281BD100236A460F49891C51
:1055D0000F48006804F006F9009838B14FF0805089
:1055E0000C490860BFF34F8FBFF36F8F074C322118
:1055F000A01CFBF792F900202070607000BF00BF74
:1056000000BFC0E700140140400000205805002002
:105610003000002004ED00E021B1828942F4005204
:10562000828104E082894DF6FF731A4082817047BF
:105630001AB1838A0B43838202E0838A8B4383827D
:10564000704770B50246002400230025002040F674
:105650006A16B14200D100BFC1F3421501F01F0329
:10566000012606FA03F3012D02D19689334006E0A4
:10567000022D02D1168A334001E0968A33400C1283
:10568000012606FA04F41688344013B10CB1012047
:1056900000E0002070BDF0B5034600240026002580
:1056A000002040F66A17B94200D100BF1846C1F386
:1056B000421401F01F06012707FA06F5012C01D15B
:1056C0000C3004E0022C01D1103000E014301AB18B
:1056D00007682F43076002E00768AF430760F0BD2B
:1056E0002DE9FF4705460E460024A14600BFA0460F
:1056F000B08900B100BF2C8A24F44054F0880443E0
:105700002C82AC8941F20C608443B0883189084313
:10571000718908430443AC81AC8A24F44074B08995
:105720000443AC826846FEF7BFFD2048854202D0A4
:105730001F48854202D1DDF80C9001E0DDF80890A9
:10574000A88900F4004040B109EBC90000EB091042
:1057500031684900B0FBF1F707E009EBC90000EB45
:10576000091031688900B0FBF1F76420B7FBF0F055
:1057700004012009642101FB1078A88900F400408D
:1057800040B1322000EBC800B0FBF1F000F00700A0
:10579000044308E0322000EB08106421B0FBF1F074
:1057A00000F00F0004432C81BDE8FF87001001408A
:1057B0000014014001468888C0F30800704710B506
:1057C0002DED0C8BB0EE408AF0EE608AB0EE419A7F
:1057D000F0EE619AB0EE42AAF0EE62AAB0EE43BAE1
:1057E000F0EE63BA53EC1A2B51EC190B04F0DEFA0D
:1057F00041EC1D0B53EC1B2B04F0D8FA41EC1C0BB5
:1058000053EC182B04F0D6FE41EC100BBDEC0C8BC6
:1058100010BD10B52DED0C8BB0EE408AF0EE608A15
:10582000B0EE419AF0EE619AB0EE42AAF0EE62AAB2
:10583000B0EE43BAF0EE63BA53EC1A2B51EC190BED
:1058400004F0B4FA41EC1D0B53EC1B2B04F08AFF5F
:1058500041EC1C0B53EC182B04F0ACFE41EC100B8C
:10586000BDEC0C8B10BD00001FB5012003F00AFE3B
:105870000B490860002232210A2003F027FE094963
:10588000086000200123CDE90030029003464FF468
:10589000906205A10390084804F048F81FBD00007D
:1058A0003400002030000020556172744465627538
:1058B000675461736B000000C993000800B587B09E
:1058C00001210420FEF7B0FC01212020FEF7DCFCC2
:1058D000082206212F48FCF7A9FC082207212D48A1
:1058E000FCF7A4FC4FF480712A48FCF7C2FC4FF48B
:1058F0008070059001208DF8180002208DF81900A5
:1059000000208DF81A0001208DF81B0005A9214800
:10591000FCF744FCC020059002208DF818008DF89B
:10592000190000208DF81A0001208DF81B0005A930
:105930001848FCF733FC4FF4E13001900020ADF83B
:105940000800ADF80A00ADF80C00ADF810000C200E
:10595000ADF80E0001A91048FFF7C2FE01210E4864
:10596000FFF75AFE012240F225510B48FFF793FE44
:1059700047208DF800000E208DF8010000208DF8E2
:10598000020001208DF803006846FEF79DFA07B07B
:1059900000BD0000000802400014014010B5FFF7F0
:1059A0008DFFFBF79BFEFFF75FFF10BDF0B595B0D5
:1059B000054600240BAA63A12846FAF7B1FD09A801
:1059C000811E08AA831FCDE90132CDE9031007A883
:1059D000831E06AA5DA100900BA8FAF7A1FD072877
:1059E00001D015B0F0BDBDF924400220FEF7F6FD50
:1059F000A04206D00120FEF7E9FB21460220FEF777
:105A000055FF9DF82E0001F029FA07469DF82D005C
:105A100001F024FA47EA0010C6B23046FBF75AFC00
:105A20008DF853009DF8310001F018FA07469DF8F3
:105A3000300001F013FA47EA0010C6B23046FBF717
:105A400049FC8DF851009DF8340001F007FA074633
:105A50009DF8330001F002FA47EA0010C6B2304662
:105A6000FBF738FC8DF852009DF8370001F0F6F98D
:105A700007469DF8360001F0F1F947EA0010C6B27A
:105A80003046FBF727FC8DF84C009DF83A0001F0FA
:105A9000E5F907469DF8390001F0E0F947EA001002
:105AA000C6B23046FBF716FC8DF84D009DF83D0060
:105AB00001F0D4F907469DF83C0001F0CFF947EA20
:105AC0000010C6B23046FBF705FC8DF84E000120F1
:105AD000FEF784FD00EBC00101EB00109DF85310B0
