:020000040800F2
:10000000509B0120FD02000821230008E322000884
:100010001D23000861110008D53800080000000009
:100020000000000000000000000000004502000881
:100030000914000800000000990200086944000843
:10004000170300081703000817030008E528000835
:100050001703000817030008170300081703000818
:100060001703000817030008170300081703000808
:10007000170300081703000817030008651100089C
:1000800017030008170300081703000817030008E8
:1000900017030008170300081703000817030008D8
:1000A00017030008170300081703000817030008C8
:1000B00017030008170300081703000817030008B8
:1000C00017030008170300081703000817030008A8
:1000D000170300083533000817030008C933000868
:1000E0001703000817030008170300081703000888
:1000F0001703000817030008170300081703000878
:100100001703000817030008170300081703000867
:10011000A13200081703000817030008170300089E
:100120001703000817030008170300081703000847
:100130001703000817030008170300081703000837
:100140001703000817030008170300081703000827
:1001500017030008170300088D1100083135000847
:100160001703000817030008170300081703000807
:1001700017030008170300081703000817030008F7
:10018000170300081703000800F002F800F04AF80F
:100190000AA090E8000C82448344AAF10107DA45E2
:1001A00001D100F03FF8AFF2090EBAE80F0013F0EA
:1001B000010F18BFFB1A43F001031847684C0000F9
:1001C000884C0000103A24BF78C878C1FAD852078A
:1001D00024BF30C830C144BF04680C6070470000C1
:1001E0000023002400250026103A28BF78C1FBD840
:1001F000520728BF30C148BF0B607047732900F019
:100200000084002070471FB504F062FD00F086FEF8
:1002100004000020002104F045FD401C60601FBD6B
:1002200010B510BD00F042FE1146FFF7ECFF03F0E1
:1002300096FB00F069FE03B4FFF7F2FF03BC03F086
:1002400052FB00002A4B19680868B0E8F04F80F3B1
:100250000988BFF36F8F4FF0000080F3118870475B
:100260000000000006480068006880F3088862B655
:1002700061B6BFF34F8FBFF36F8F00DF00BF00BFCA
:1002800008ED00E0DFF80C00016841F47001016046
:10029000704700BF88ED00E0EFF30980BFF36F8F78
:1002A000134B1A681EF0100F08BF20ED108A20E9CA
:1002B000F04F106008B44FF0BF0080F31188BFF317
:1002C0004F8FBFF36F8F04F05BF84FF0000080F3A7
:1002D000118808BC19680868B0E8F04F1EF0100FCC
:1002E00008BFB0EC108A80F30988BFF36F8F7047A6
:1002F00060000020EFF30580704700000948804748
:1003000009480047FEE7FEE7FEE7FEE7FEE7FEE7F7
:10031000FEE7FEE7FEE7FEE704480549054A064B0F
:10032000704700000D300008890100085095012039
:10033000509B0120509701205097012070470000EA
:100340000FB4044910B503AA029800F05FFB10BC7B
:100350005DF814FBA40000200FB41CB5074B06AADF
:100360007B4469460090059800F021FB0020694617
:1003700000F030FB1CBC5DF814FB000071060000AF
:1003800070B50C460546012A05D02878800600D5B0
:10039000EA69002302E0012305E05B1C934202D2DC
:1003A000E05C0028F9D1A869E618C01AA861286A9B
:1003B000184428622846AFF3008004E0D5E9012103
:1003C00014F8010B9047B442F8D32846AFF30080ED
:1003D00070BD2DE9F0474FF0000A89460446C0F889
:1003E00020A02046E1688847002876D0252806D03E
:1003F000D4E901219047206A401C2062F1E7E168BE
:10040000204600258847C4F81CA006460027C4F8EB
:1004100018A02A2E09D0304603F05EFA38B304EB58
:100420008708303EC8F8186019E059F8041B2046C8
:1004300004EB87029161E1688847012F064618D1D5
:10044000E069002820DA25F020051DE0D8F8180022
:1004500000EB800006EB40003038C8F8180020465A
:10046000E1688847064603F037FA0028EED1012FED
:100470000AD02E2E08D12046E16888477F1C064608
:10048000022F45F02005C4DBA069002803DA4042B2
:1004900045F00105A061E80701D025F01005B6B1CF
:1004A000A6F14100192802D8203645F400654A46D5
:1004B0003146204625604D46FFF7A0FE58B1012881
:1004C00006D0ED1D25F0070000F1080989E704E0DA
:1004D00005F1040985E730468AE7206ABDE8F08720
:1004E0000FB400B58DB010A9099000910B904FF09A
:1004F000FF300A9000200C90064878440690064889
:1005000078446A4607900F9909A800F0A5FA0DB043
:100510005DF814FB7B050000930500002DE9FF5FEB
:100520001D464FF0FF3B91464FF000085F46D5E96E
:100530000146A96901987F1C8847296A8246884735
:100540000028F6D1BAF1FF3F0CD0002E24F4C0648D
:1005500019DD600614D5BAF12B0F09D0BAF12D0FB1
:100560000ED103E0584604B0BDE8F09F44F4806427
:10057000A96901987F1C8847761E8246002E02DDFD
:10058000BAF1300F03D0B9F1000F26D032E0A969DB
:10059000761E01987F1C44F400748847002E824622
:1005A00005DDBAF1780F06D0BAF1580F03D0B9F1D2
:1005B000000F10D01EE0B9F1000F02D0B9F1100FFA
:1005C00018D1A969761E01987F1C24F4007488470D
:1005D0008246102002E0082000E00A20814609E05F
:1005E000A96908FB0908761E01987F1C44F4007471
:1005F00088478246002E05DD4946504600F018FA2D
:100600000028EDDAE96901988847A00502D46FF067
:100610000100A8E7E00725D1600613D5600502D5E3
:10062000C8F1000000E0404629680A1D2A600968F8
:10063000220501D5087015E0220701D5088011E0D8
:1006400008600FE02868011D29600068210502D5B7
:1006500080F8008006E0210702D5A0F8008001E0C4
:10066000C0F8008038467EE72DE9FF5F4FF00008B4
:100670009946144646469169D2E901A7DDF838B09B
:1006800001988847054659EA0B0005D009E0A169A1
:100690000198761C88470546216A28468847002825
:1006A000F5D1681C03D05FEACA7005D015E04FF0A1
:1006B000FF3004B0BDE8F09F2068011D2160D0F834
:1006C00000800AE05FEACA7001D108F8015BA16905
:1006D000761C01987F1E88470546002F1ADD681C8E
:1006E00018D0B9F1000F0DD0E81705EBD06042111A
:1006F00020F01F0059F822102A1A012090400142D0
:10070000E0D107E0BBF1000FDCD12846216A884721
:100710000028D7D0E16901988847BBF1000F07D1C5
:10072000002E05DD5FEACA7002D1002188F80010B2
:10073000A068B84203DDBBF1000F03D017B16FF022
:100740000100B6E73046B4E730B505460B462A4609
:1007500013F8014B12F8010B08B1A042F8D01CB1FC
:10076000002802D06D1CF1E7284630BD10B5431CAF
:1007700002E010F8011B71B18107FAD14FF001328C
:1007800002C88C1A8C4314EAC211F9D0C01A0A06A6
:1007900003D0C01E10BDC01A10BD0A0401D0801EB7
:1007A00010BD0902FCD0401E10BD032A40F230806B
:1007B00010F0030C00F0158011F8013BBCF1020FA2
:1007C000624498BF11F801CB00F8013B38BF11F823
:1007D000013BA2F1040298BF00F801CB38BF00F83A
:1007E000013B11F0030300F06781083AC0F0088074
:1007F00051F8043B083A51F804CBA0E80810F5E79B
:10080000121D5CBF51F8043B40F8043BAFF300807D
:10081000D20724BF11F8013B11F801CB48BF11F8F2
:10082000012B24BF00F8013B00F801CB48BF00F8C2
:10083000012B70474FF000020429C0F0128010F025
:10084000030C00F01B80CCF1040CBCF1020F18BFAC
:1008500000F8012BA8BF20F8022BA1EB0C0100F03F
:100860000DB85FEAC17C24BF00F8012B00F8012B12
:1008700048BF00F8012B70474FF0000200B5134647
:1008800094469646203922BFA0E80C50A0E80C50B0
:10089000B1F12001BFF4F7AF090728BFA0E80C5061
:1008A00048BF0CC05DF804EB890028BF40F8042B5A
:1008B00008BF704748BF20F8022B11F0804F18BFC7
:1008C00000F8012B704710B5044610F0030F08BF65
:1008D00011F0030F40F015804FF0013E121FC0F2DF
:1008E0000E8051F8043BA3EB0E0C2CEA030C1CEA1F
:1008F000CE1C08BF40F8043BF0D0A1F1040102F186
:100900000402521E08DB11F8013B002B00F8013BEA
:10091000F7D11146FFF78EFF204610BD4FF0013C86
:1009200050F8042B51F8043B9A4221D1A2EB0C035E
:10093000934313EACC1317D150F8042B51F8043B1E
:100940009A4215D1A2EB0C03934313EACC130BD1BB
:1009500050F8042B51F8043B9A4209D1A2EB0C0346
:10096000934313EACC13DBD04FF00000704700BF75
:10097000D01A01BAB1FA81F101F0180122FA01F09E
:10098000CB40C1F12001DBB2C0B2C01A2CFA01F396
:10099000D11A914311EAC311E6D1704770477047ED
:1009A0007047704701694A1C02610878704700B5BA
:1009B0008FB0CDE901310021059105497944CDE998
:1009C000031011466846FFF704FD0FB000BD00009C
:1009D000E5FFFFFF0A6802F8010B0A60704710B5D7
:1009E000436913B1AFF3008001E0FFF7C9FC0120B8
:1009F00010BD127800F124010A7000224A70012211
:100A0000EDE711684FF0FF32E9E70000074B70B5E2
:100A10000D467B44FFF7CBFF0446284600F042FA20
:100A200010B14FF0FF3070BD204670BD0B2F00009D
:100A30003A2800D2303820F02002412A01D3A2F116
:100A40003700884201D34FF0FF30704702681144ED
:100A50001378016018467047D160054979445161A7
:100A600004497944116200211161114600F060B817
:100A7000EDFFFFFFB7000000426842B1016811F8C6
:100A8000013B23B1521EC0E90012184670470121F4
:100A9000C160881E704742685AB1C368016843B993
:100AA00083688B4205D0491E521CC0E90012002009
:100AB00070474FF0FF30704710B5203AC0F00B8000
:100AC000B1E81850203AA0E81850B1E81850A0E852
:100AD0001850BFF4F5AF5FEA027C24BFB1E81850AC
:100AE000A0E8185044BF18C918C0BDE810405FEA1C
:100AF000827C24BF51F8043B40F8043B08BF704798
:100B0000D20728BF31F8023B48BF11F8012B28BF9C
:100B100020F8023B48BF00F8012B704710B504468F
:100B200000F0EAF90068005D00F0010010BD00006F
:100B30002DE9F34F4FF0000A0C4656468DB00120C8
:100B40000C9001F10C000B9062690B980121904709
:100B500005002DD0252D2CD0216A8847C0B16269AF
:100B60000B9801219047216A88470028F7D16269D4
:100B7000411E0B98904700E0761CA1690D988847AC
:100B8000216A88470028F7D1E1690D988847DBE79B
:100B9000A1690D988847A842074601D1761CD3E782
:100BA000E1690D9888477F1C02D1BAF1000F6FD020
:100BB0006BE162690B9800273D46394690472A2829
:100BC00004D162690B98012190470125DFF8D0829A
:100BD00062690B9801219047A0F130010A290AD2DD
:100BE0004745E5DC07EB870100EB4107303FDFD4E9
:100BF00045F01005ECE7E90601D46FF000476C28DA
:100C00000AD04C2814D0682815D06A280DD0742832
:100C10001CD07A281AD01DE062690B9801219047F8
:100C20006C2802D045F0040514E045F002050DE003
:100C300045F020050AE062690B9801219047682879
:100C400002D045F0080505E045F4006562690B989F
:100C500001219047C4E9015765283DD019DC582887
:100C60007AD00CDC452837D004DC252826D0412852
:100C70009ED131E046282FD0472899D12CE05B281F
:100C800077D0612828D063287CD0642823D15AE00B
:100C9000F6E06F2848D008DC66281DD067281BD0F6
:100CA000692821D06E2816D127E0702845D07328F6
:100CB00068D0752847D078280DD14DE0A1690D98EE
:100CC0008847252805463FF469AFE1690D988847B4
:100CD0006D1C3FF46AAFD8E00D9923466A466FF069
:100CE0000100AFF30080C5E045F0400023464FF01F
:100CF00000026060A80736D43EE0E8077FF447AF03
:100D00002068011D21600068290501D506701BE7D8
:100D1000290701D5068017E7A90703D5F117C0E910
:100D2000006111E706600FE745F0400023464FF0F1
:100D300008026060A80716D41EE040F60E0125EAFE
:100D40000100606016E045F0400023464FF00A02C3
:100D50006060A80707D40FE045F040006060A80776
:100D600008D5234610220D996FF00100AFF30080E3
:100D700080E007E0102223460D996FF00100FFF795
:100D8000CDFB77E04FF0000963284F46C8464B463D
:100D9000CB4602D05B2806D038E0E80601D401201B
:100DA000A060012732E06269D4F80CB00B980121F1
:100DB00090475E2807D14FF0010949466269D4F88F
:100DC0000CB00B989047216939B900210A4603AB52
:100DD00043F82120491C0829FADBD8B3216949B31B
:100DE00008F1010862690B98012190475D28F4D150
:100DF000B9F1000F09D0002003A951F82020D243F7
:100E000041F82020401C0828F7DB03AB20690028AC
:100E100020794FEA40701ED05B462246CDF8008014
:100E2000CDE901970D9900286FF0010020DAAFF3AA
:100E300000801FE0C11703AA00EBD1614B1121F024
:100E40001F0102EB8302411A13680120884003430B
:100E50001360C7E719E00D99224600286FF00100E2
:100E6000009702DAAFF3008004E0FFF7FDFB01E03A
:100E7000AFF3008000280ADA401C06D10C9820B19C
:100E80004FF0FF300FB0BDE8F08F5046FAE7E907AA
:100E900001D10AF1010A064400200C9054E600003A
:100EA000CCCCCC0C007B00F080007047754600F085
:100EB00031F8AE4605006946534620F007008546E6
:100EC00018B020B5FFF728FABDE820404FF0000623
:100ED0004FF000074FF000084FF0000B21F0070122
:100EE000AC46ACE8C009ACE8C009ACE8C009ACE865
:100EF000C0098D467047000010B500F00FF8001DC6
:100F000010BD00BFA13D00000446AFF300802046A5
:100F1000FFF791F900487047F094012000487047AE
:100F20001095012010B502461078002305E0541CEE
:100F30002246247860405C1CE3B24C1E9C42F6DCE6
:100F400010BD10B500F062F800F0B8F810BD000058
:100F500010B5002008490870487064210648801CBC
:100F6000FFF768FC002005490870487064210348B9
:100F7000801CFFF75FFC10BDA80000200E010020C0
:100F80001FB5FFF7DEFFFFF7E3FF0322002101207B
:100F900003F0A8FA104908600846006830B1002341
:100FA0001A4619460C48006803F082FB00226421AF
:100FB0001E2003F097FA0949086000200623CDE9B6
:100FC0000030029003464FF4225205A103900948D5
:100FD00003F08AFC1FBD0000100000201400002058
:100FE00042616C6C617374436F6D6D315461736BEE
:100FF00000000000313F000810B504466421A01C29
:10100000FFF718FC00202070607010BD00B587B09D
:101010000121042001F04CFA0121C80401F068FA12
:1010200008220A21234800F0D5FD08220B2121487F
:1010300000F0D0FD4FF44060059002208DF81800BC
:101040008DF8190000208DF81A0001208DF81B0082
:1010500005A9184800F076FD4FF4164001900020D5
:10106000ADF80800ADF80A00ADF80C00ADF81000BE
:101070000C20ADF80E0001A90F4802F019FB012168
:101080000D4802F0B1FA012240F225510A4802F05F
:10109000EAFA34208DF800000F208DF801000020BE
:1010A0008DF8020001208DF80300684601F03AF93E
:1010B00007B000BD00080240004C004000B591B0F0
:1010C0000121480501F0F4F9224800F09BF800BF27
:1010D000204800F043F90028FAD14FF00060029058
:1010E0001D4803901D480490402005900020069064
:1010F00007904FF480600890002009900A900B90B0
:101100004FF480300C9000200D9003200E900020B2
:101110000F90109002A90F4800F048F90122102109
:101120000C4800F025F9012280210B48001F02F035
:1011300067FA0F208DF804008DF8050000208DF867
:10114000060001208DF8070001A801F0EBF811B0AE
:1011500000BD000070600240044C0040AA00002066
:1011600000BFFEE710B50649064800F025F8002349
:101170001A4619460448006803F09AFA10BD0000A8
:1011800020000020706002401000002010B54FF0D9
:101190002051074800F010F80021054800F026F81B
:1011A00000231A4619460348006803F081FA10BD6F
:1011B000B8640240180000200246094B9A4201D24E
:1011C000084801E00648103801F000531BB1064BF7
:1011D0000B40C36002E0044B0B408360704700008B
:1011E00010640240006002407D0F7D0F21B1026853
:1011F00042F00102026003E0026822F00102026094
:1012000070470000016821F00101016000210160C8
:1012100041608160C1600161212141614A49884288
:1012200004D13D21484A103A91608CE0464918317A
:10123000884205D14FF47461434A103A916082E0CC
:1012400041493031884205D14FF474113E4A103A79
:10125000916078E03C494831884205D14FF0746193
:10126000394A103A91606EE037496031884204D1C2
:101270003649354A103AD16065E0334978318842C1
:1012800004D13349304A103AD1605CE02E499031A4
:10129000884204D12F492C4A103AD16053E02A49A0
:1012A000A831884205D14FF03D51274A103AD1600C
:1012B00049E02949884204D13D21274A083A116072
:1012C00041E025491831884205D14FF47461224A22
:1012D000083A116037E020493031884205D14FF497
:1012E00074111D4A083A11602DE01B4948318842AB
:1012F00005D14FF07461184A083A116023E016498D
:101300006031884204D11149134A121F11601AE05A
:1013100011497831884204D10D490F4A121F1160DA
:1013200011E00D499031884204D10A490A4A121F3E
:10133000116008E00849A831884204D14FF03D51BE
:10134000054A121F11607047106002403D000020E6
:10135000400F002000003D201064024001460020A4
:101360000A6802F001020AB1012000E00020704783
:1013700010B501F080034BB122B1436943F0800303
:10138000436103E0436923F08003436180290BD06C
:101390002AB1036801F01E042343036004E00368DC
:1013A00001F01E04A343036010BD000010B500222D
:1013B0000268134B1A40CC680B6823434C692343E3
:1013C0008C692343CC6923430C6A23434C6A23432F
:1013D0008C6A23434C6B23438C6B23431A43026078
:1013E000426922F00702D1E90B3423431A434261D8
:1013F0000B6943604B6883608B68C36010BD00005D
:101400003F801CF0416070477047000010B500201D
:1014100004490870487032210248801CFFF70AFA1C
:1014200010BD0000F403002010B50020084908702A
:10143000487064210648801CFFF7FCF9002005492C
:101440000870487064210348801CFFF7F3F910BD51
:10145000DA010020740100201FB500F0E9F8FFF761
:10146000E3FF03220021012003F03CF8104908604B
:101470000846006830B100231A4619460C48006837
:1014800003F016F900226621082003F02BF8094921
:10149000086000200423CDE90030029003464FF499
:1014A000A45205A10390074803F01EFA1FBD0000D7
:1014B000180000201C000020456C656374546173A3
:1014C0006B000000893F000810B504466421A01C91
:1014D000FFF7B0F900202070607010BD00B587B034
:1014E0000121022000F0E4FF0121102001F010F89A
:1014F00007220621234800F06DFB072211462148F0
:1015000000F068FBC020059002208DF818008DF8CF
:10151000190000208DF81A0001208DF81B0005A984
:10152000184800F00FFB4FF4165001900020ADF862
:101530000800ADF80A00ADF80C00ADF810000C2062
:10154000ADF80E0001A9104802F0B2F801210E48D2
:1015500002F04AF8012240F225510B4802F083F8CC
:1015600025208DF800000F208DF8010000208DF857
:10157000020001208DF80300684600F0D3FE07B09A
:1015800000BD0000000402400010014000B591B011
:101590000121880500F08CFF2248FFF733FE00BFD1
:1015A0002048FFF7DBFE0028FAD14FF000600290E0
:1015B0001D4803901D48049040200590002006908F
:1015C00007904FF480600890002009900A900B90DB
:1015D0004FF480300C9000200D9003200E900020DE
:1015E0000F90109002A90F48FFF7E0FE0122102192
:1015F0000C48FFF7BDFE012280210B48001F01F0BF
:10160000FFFF46208DF804000F208DF80500002014
:101610008DF8060001208DF8070001A800F082FE79
:1016200011B000BDB86402400410014076010020F2
:1016300010B5FFF753FFFFF7A9FF10BD51B18200AE
:10164000A2F1C042126842F001038200A2F1C0423E
:10165000136009E08200A2F1C0421268034B1A40F5
:101660008300A3F1C0431A6070470000FEFF0F0023
:1016700030B50021002200230468A400A4F1C04476
:101680002168444C2140D0E901452C43C5682C43D6
:1016900005692C4345692C4385692C43C5692C4356
:1016A000056A2C43456A2C43856A2C43C56A2C4342
:1016B000056B2C4321430468A400A4F1C0442160BD
:1016C0008468082C0BD10468A400A4F1C0442468E9
:1016D00044F040050468A400A4F1C04425600468F7
:1016E000641CA400A4F1C044226802F04042446B90
:1016F0002468456B6D6844EA0514456BAD6844EA9F
:101700000524456BAD8944EA0544456B2D8A44EABE
:101710000554456B2D7D44EA0564456BAD692C434A
:1017200022430468641CA400A4F1C0442260C46A7B
:10173000B4F5804F24D10468A400A4F1C044D4F8C7
:10174000043103F04043846B2468856B6D6844EA80
:101750000514856BAD6844EA0524856B2D8A44EA3F
:101760000554856B2D7D44EA0564856BAD692C437A
:1017700023430468A400A4F1C044C4F8043107E082
:101780006FF070450468A400A4F1C044C4F804518B
:1017900030BD00008000F7FF10B50446AA200A49BA
:1017A0000880552009490880802007490880AA2020
:1017B000088055200549088050214FF0C84001534A
:1017C000801100F005F810BDAA0A006454050064F9
:1017D00030B5014600220023012418E0491E4FF0D5
:1017E000C8400288038802F0400003F04005A84288
:1017F00001D1002030BD4FF0C8400288038802F0BC
:10180000400003F04005A84201D10020F2E709B1F1
:10181000002CE3D101B903242046EBE700B599B0D1
:101820000121782000F044FE0121084600F050FE1E
:101830004CF20370179002208DF8600000208DF8A4
:10184000620003208DF8610001208DF8630017A964
:10185000954800F077F94FF68070179017A99348D4
:1018600000F070F94FF23F00179017A9904800F070
:1018700069F93F20179017A98E4800F063F94FF4DB
:101880006050179017A9884800F05CF9382017902D
:1018900017A9864800F056F93020179017A98248FA
:1018A00000F050F94FF40070179017A9814800F02C
:1018B00049F90C2200217C4800F08CF90C2201210E
:1018C000794800F087F90C220421774800F082F96A
:1018D0000C220521744800F07DF90C220821724881
:1018E00000F078F90C2209216F4800F073F90C22FE
:1018F0000A216D4800F06EF90C220B216A4800F0B5
:1019000069F90C221146684800F064F90C220D2197
:10191000654800F05FF90C220E21634800F05AF987
:101920000C220F21604800F055F90C2203215F487A
:1019300000F050F90C2204215C4800F04BF90C2215
:1019400005215A4800F046F90C220721574800F0BB
:1019500041F90C220821554800F03CF90C220921DC
:10196000524800F037F90C220A21504800F032F9B1
:101970000C220B214D4800F02DF90C2211464B484A
:1019800000F028F90C220D21484800F023F90C2220
:101990000E21464800F01EF90C220F21434800F0AA
:1019A00019F90C220021424800F014F90C220121FF
:1019B0003F4800F00FF90C2202213D4800F00AF9DF
:1019C0000C2203213A4800F005F90C220421384882
:1019D00000F000F90C220521354800F0FBF80C223C
:1019E0001146334800F0F6F80C220D21304800F083
:1019F000F1F80C220E212E4800F0ECF80C220F21F9
:101A00002B4800F0E7F80C2200212A4800F0E2F809
:101A10000C220121274800F0DDF80C220221254884
:101A200000F0D8F80C220321224800F0D3F80C2251
:101A30000421204800F0CEF80C2205211D4800F0BA
:101A4000C9F80C2209211B4800F0C4F80B200190B2
:101A50000020029012200390002004900590069030
:101A60004FF0805007900220089000200990082035
:101A70000A9010200B9000200C900E900F90109068
:101A80004FF480501190002012901390149001A8F0
:101A90001590169008A8FFF7EBFD01210220FFF733
:101AA000CDFD19B000BD0000000C02400010024046
:101AB000001402400018024010B5AA23094C2380EC
:101AC0005523094C2380F0244FF0C8435C5206E0B4
:101AD0004FF0C8435B5A20F8023B891C521E002A73
:101AE000F6D110BDAAAA006454550064F0B50446AE
:101AF0000D461646012700BF34F8021B284600F0A9
:101B000009F80746AD1C761E0FB9002EF4D13846F1
:101B1000F0BD000030B505460C46AA2007490880F4
:101B2000552007490880A020044908804FF0C8408C
:101B300044534014FFF74CFE30BD0000AA0A006475
:101B400054050064F0B50A4600210023002400BFBC
:101B50003DE0012505FA01F3156805EA03049C42FE
:101B600034D105684F000326BE40B54305601579A2
:101B70004E00B5400668354305601579012D02D049
:101B80001579022D16D185684F000326BE40B54356
:101B9000856055794E00B540866835438560456857
:101BA00001268E40B5434560456896798E40B6B2B1
:101BB00035434560C5684F000326BE40B543C56048
:101BC000D5794E00B540C6683543C560491C10291B
:101BD000BFD3F0BDF0B5002300244D07ED0E02FA8F
:101BE00005F3CE1000F1200555F826504E07F70EEC
:101BF0000F26BE40B543CF1000F1200646F827500F
:101C0000CE1000F1200555F8265045EA0304CE1009
:101C100000F1200545F82640F0BD4183704701835F
:101C2000704700001FB500F02FF800F0E7F9012021
:101C300002F034FC0E4908600022C8210A2002F09C
:101C400051FC0C4908600022C821012002F04AFC26
:101C50000949086000200823CDE9003002900346BE
:101C60004FF4225205A10390064802F03DFE1FBD2D
:101C700020000020240000202800002047534D545D
:101C800061736B00E13F000810B500F0A7F800F0A9
:101C900003F800F065F810BD1CB501210A48FFF7F4
:101CA000BCFF012000908DF8040002208DF8050093
:101CB00000208DF8060001208DF8070069460248D3
:101CC000FFF740FF1CBD00000008024010B532E0E5
:101CD00001211A48FFF7A1FF40F2771002F048FAFD
:101CE00001211648FFF79BFF40F6C41214A1002003
:101CF00000F014FF00B91EE0FA2002F039FA0121C9
:101D00000E48FFF78AFFFA2002F032FA01210B4851
:101D1000FFF785FF40F2771002F02AFA0121074809
:101D2000FFF77BFF41F64C520AA1002000F0F6FEBF
:101D300000B101E000BFCBE700BF10BD00080240CA
:101D40004E4F524D414C20504F57455220444F5713
:101D50004E000000534D532052656164790000002D
:101D600000B58FB00121480500F0A2FB1848FFF72D
:101D700049FA00BF1648FFF7F1FA0028FAD14FF0F0
:101D80000060009013480190134802904020039097
:101D90000020049005904FF480600690002007908A
:101DA000089009904FF480300A9000200B90032097
:101DB0000C9000200D900E9069460548FFF7F6FA4A
:101DC000012280210348001F01F01AFC0FB000BD62
:101DD00058600240044800406202002000B587B00D
:101DE0000121022000F064FB0121880400F080FB47
:101DF00007220A212348FFF7EDFE07220B21214885
:101E0000FFF7E8FE4FF44060059002208DF81800BF
:101E10008DF8190000208DF81A0001208DF81B00A4
:101E200005A91848FFF78EFE4FF46140019000208D
:101E3000ADF80800ADF80A00ADF80C00ADF81000E0
:101E40000C20ADF80E0001A90F4801F031FC012172
:101E50000D4801F0C9FB012240F225510A4801F06A
:101E600002FC27208DF800000F208DF801000020D3
:101E70008DF8020001208DF80300684600F052FA48
:101E800007B000BD00040240004800408EB02AE0C8
:101E900015A001F0ABFD1A4801F0A8FD194801F0AA
:101EA000A5FD194801F0A2FD18A001F09FFD002337
:101EB0005A1E01A91F48006802F038FB012812D100
:101EC0001DA101A8FEF72AFD10B900F0BBFF0AE032
:101ED0001AA101A8FEF722FD10B900F069FE02E088
:101EE00017A001F083FDD3E70D0A0D0AC7EBD1A1BE
:101EF000D4F1C9E8D6C3B2CECAFDA3BA000000002F
:101F0000C44D0008044D0008644D00080D0A20204F
:101F1000202020205220CDF8B9D8B8B4CEBBD0C5EF
:101F2000CFA2202020204520CDCBB3F60D0A3E20A5
:101F30000000000030000020320D0000340D0000D1
:101F40000D0A20CAE4C8EBB8F1CABDB2BBD5FDC8C2
:101F5000B7A3ACC7EBD6D8D0C2CAE4C8EBA3A10DD7
:101F60000A00000030B5B3B005460C464FF0C05132
:101F70001348FFF721F9224629461248FEF715FCBF
:101F80001048801E447000210D48FFF72FF900BF54
:101F90000B48FFF7E3F90028FAD10A48801E417880
:101FA0000748FFF72FFA00231A4601A906480068E0
:101FB00002F0BCFA01210248FFF718F933B030BD36
:101FC00058600240620200202800002010B504463C
:101FD000002020706070C821A01CFEF72BFC10BDF3
:101FE0004278C82A08DA0378821CD1540278521C3D
:101FF00002704278521C42707047000010B50020F9
:10200000084908704870C8210648801CFEF712FC79
:102010000020054908704870C8210348801CFEF75D
:1020200009FC10BD2A0300206002002000B58DB01D
:10203000FFF74CFEFA2244A144A000F06FFD28B93E
:1020400044A001F0D3FC00200DB000BDFA223EA157
:1020500047A000F063FD20B949A001F0C7FC0020B3
:10206000F2E7FA2238A14DA000F058FD20B94DA0AA
:1020700001F0BCFC0020E7E7FA2233A14FA000F0FA
:102080004DFD20B951A001F0B1FC0020DCE74FF478
:102090007A7255A158A000F041FD20B959A001F075
:1020A000A5FC0020D0E7FA2002F062F8FA225BA13A
:1020B0005DA000F033FD20B95EA001F097FC002088
:1020C000C2E74FF47A7220A160A000F027FD20B98A
:1020D00061A0FEF735F90020B6E740F2E24002F0D9
:1020E00047F840F6A66218A160A000F017FD20B9DD
:1020F00062A001F07BFC0020A6E70B2265494FF4AB
:10210000005000F063F9634B1033624A62A16846E5
:10211000FEF722F941F288320BA1684600F0FEFC7E
:1021200020B965A001F062FC00208DE741F64C5219
:1021300068A1002000F0F2FC20B95FA001F056FC7D
:10214000002081E701207FE74F4B000041540D0A3A
:10215000000000000D0A47534DB4AEBFDACDA8D041
:10216000C5BDD3BFDAD2ECB3A3A3A10D0A00000012
:1021700041542B4950523D35373630300D0A00005E
:102180000D0A47534DCDA8D0C5B2A8CCD8C2CAC9F4
:10219000E8D6C3D2ECB3A3A3A10D0A004154453045
:1021A0000D0000000D0ABBD8CFD4C4A3CABDB9D856
:1021B000B1D5D2ECB3A3A3A10D0A000041542B4327
:1021C00049504D4F44453D300D0A00000D0A47531C
:1021D0004DB4ABCAE4C4A3CABDC5E4D6C3D2ECB304
:1021E000A3A3A10D0A0000002B4350494E3A2052F0
:1021F000454144590000000041542B4350494E3F93
:102200000D0A00000D0A53494DBFA85245414459DB
:10221000D2ECB3A3A3A10D0A000000002B4352454A
:10222000473A20302C31000041542B435245473F60
:102230000D0A00000D0ACDF8C2E7D7A2B2E1D0C561
:10224000CFA2D2ECB3A3A3A10D0A000041542B43AB
:10225000474154543D300D0041542B4347415454A1
:102260003D30206572726F720D00000041542B43A7
:10227000474154543D310D0A000000000D0A4750FB
:102280005253B8BDD7C5D7B4CCACD2ECB3A3A3A13D
:102290000D0A00004002002041542B434950535482
:1022A0004152543D22544350222C222573222C2289
:1022B0002573220D0A0000000D0ACEDEB7A8C1ACBE
:1022C000BDD3B7FECEF1C6F74950B6CBBFDA0D0A83
:1022D00000000000434F4E4E454354204F4B00003A
:1022E000704700BFFEE7000010B586B001AC0522C4
:1022F00009494FF4805000F069F8022020700A224A
:102300000549601CFEF7DFFA0321E1720C2101A8E8
:1023100000F000FE06B010BD5602002000BFFEE730
:102320007047000070B5002100230F22C4781CB351
:10233000174C246804F4E064C4F5E064C4F3072196
:10234000C1F10404E3B20A4144789C40E1B28478CC
:10235000144021430C07210E0E4C0578615504787A
:1023600004F01F050124AC4005786D11AD0005F1A6
:10237000E025C5F8004109E0047804F01F050124B8
:10238000AC40054D0678761145F8264070BD00003A
:102390000CED00E000E400E080E100E002490143D0
:1023A000024A1160704700000000FA050CED00E0E1
:1023B00010B50548006830B9FFF730FA012002F087
:1023C0006DF80149086010BDA000002070B50446FA
:1023D0000D461646002340F2E242194609480068BD
:1023E00002F0A4F8012804D1324621462846FFF71E
:1023F00063FB00231A4619460248006802F058F9A8
:1024000070BD0000A00000202DE9F04104460D46FB
:1024100017460126002340F2E242194610480068A0
:1024200002F084F8012811D12046FFF7B5F90646DD
:1024300016B10CA001F0DAFA3A4621462846FFF719
:1024400055FB064616B110A001F0D0FA00231A463B
:1024500019460348006802F02BF9BDE8F08100003E
:10246000A00000200D0A4E4F525F464C41534820B9
:102470004572617365536563746F72204572726F44
:1024800072212121000000000D0A4E4F525F464C80
:10249000415348205772697465204572726F7221EA
:1024A00021210000014908627047000000000E422F
:1024B00029B1064A12680243044B1A6004E0034A39
:1024C00012688243014B1A607047000030380240A6
:1024D00029B1064A12680243044B1A6004E0034A19
:1024E00012688243014B1A6070470000383802407E
:1024F00029B1064A12680243044B1A6004E0034AF9
:1025000012688243014B1A60704700004038024055
:1025100029B1064A12680243044B1A6004E0034AD8
:1025200012688243014B1A60704700004438024031
:10253000F0B5002100220024022500260223324F9C
:102540003F6807F00C0121B1042905D0082937D1D3
:1025500005E02E4F076036E02D4F076033E02A4F2D
:102560003F1F3F68C7F38056274F3F1F3F6807F064
:102570003F036EB1264FB7FBF3F7DFF88CC0ACF129
:10258000040CDCF800C0CCF3881C07FB0CF40CE056
:102590001E4FB7FBF3F7DFF870C0ACF1040CDCF8AA
:1025A00000C0CCF3881C07FB0CF4174F3F1F3F689B
:1025B000C7F301477F1C7D00B4FBF5F7076002E01D
:1025C000124F076000BF00BF0F4F3F6807F0F001D8
:1025D0000909104F7A5C0768D74047600A4F3F6887
:1025E00007F4E051890A0B4F7A5C4768D74087604F
:1025F000054F3F6807F46041490B064F7A5C476816
:10260000D740C760F0BD0000083802400024F40045
:10261000001BB7000000002010B501460022002377
:1026200000204A11012A02D10A4C236808E0022A3C
:1026300003D1084C7034236802E0064C74342368DC
:1026400001F01F02012494401C400CB1012000E065
:10265000002010BD003802400021094A117011709D
:10266000012802D0042808D103E00121044A117096
:1026700004E00521024A117000E000BF00BF70476E
:102680007038024001490860704700003C0E474224
:10269000002100F44072B2F5407F08D1094A116868
:1026A00021F4F811084A02401143064A1160054A14
:1026B00068321268C0F30B031A43024B68331A6086
:1026C0007047000008380240FFFCFF0F81B241F064
:1026D0008001044A126802F0800262EA0101014AA4
:1026E000116070470C280040002101098AB242F0B5
:1026F0008002044B1B6803F0800363EA0202014B73
:102700001A6070470C28004008B500220092002093
:102710000021104A126802F04002CAB9421E0D4B55
:102720001A6000BF0B4A126802F04001009A521C66
:102730000092009AB2F5803F01D00029F2D0054AFC
:10274000126802F040020AB1012002E0002000E01D
:10275000012008BD0C2800400348006820F08000DC
:1027600001490860704700000C28004010B5014680
:1027700000200022054B1B68054C03EA040202EA14
:1027800001030BB1012000E0002010BD0C28004027
:102790007F3F0100CA22174B1A6053221A6091B181
:1027A000144A1C3A126820F004031A43114B1C3BD4
:1027B0001A60104A1C32126800F004031A430D4BD1
:1027C0001C331A6011E00B4A1C3A126820F0040313
:1027D0009A43084B1C3B1A60064A1C32126800F0F0
:1027E00004039A43034B1C331A60FF22014B1A6007
:1027F000704700002428004030B504460025CA2058
:102800001549086053200860FFF77EFF00B91DE0FE
:1028100011481C38006820F040000F491C3908603E
:1028200008460068216808430B491C3908600A49BA
:102830001439A068086008460068A18840EA014091
:10284000054914390860FFF787FF0125FF20024979
:102850000860284630BD00002428004008B5014625
:102860000020009004480090009800EB8100009048
:102870000098006808BD000050280040CA21054AA1
:10288000116053211160034910390860FF21116064
:10289000704700002428004070B505460C46002013
:1028A00000F05AF8284600F03FF82046FFF7E6FF10
:1028B0004FF48040FFF718FF01218803FFF76AFFFC
:1028C000012000F049F803200549087002204870F3
:1028D00088700120C8700846FFF724FD70BD000015
:1028E0009C00002008B54FF48060FFF73FFF0128EF
:1028F00015D1002000904FF48060FFF7E7FE694695
:102900000748006801F08BFF009838B14FF0805005
:1029100004490860BFF34F8FBFF36F8F00BF08BD3E
:102920009800002004ED00E0CA210A4A11605321FA
:10293000116008491C39096821F00701054A1C3A51
:1029400011601146096801431160FF21014A1160BD
:10295000704700002428004018B50146002300936A
:1029600000220020CA23194C23605323236049B15D
:10297000164B1C3B1B6843F48063144C1C3C2360C7
:1029800001201FE0114B1C3B1B6823F480630F4C9C
:102990001C3C236000BF0D4B183B1B6803F0040276
:1029A000009B5B1C0093009BB3F5803F01D0002A85
:1029B000F1D0064B183B1B6803F004030BB9002051
:1029C00000E00120FF23014C236018BD24280040B3
:1029D00008B500220092044A0092009A02EB80029D
:1029E0000092009A116008BD5028004000B58DB0DB
:1029F0000B2213494FF40050FFF7E8FC104B103343
:102A00000F4A10A16846FDF7A7FC40F6C41215A1B5
:102A1000684600F083F828B913A000F0E7FF002013
:102A20000DB000BD41F2883216A1002000F076F80A
:102A300020B90DA000F0DAFF0020F1E70120EFE758
:102A40004002002041542B43495053544152543DBD
:102A500022544350222C222573222C222573220D2E
:102A60000A0000004F4B00000D0ACEDEB7A8C1AC33
:102A7000BDD3B7FECEF1C6F74950B6CBBFDA0D0ACB
:102A800000000000434F4E4E454354204F4B000082
:102A90000EB503220021012001F024FD1E4908602B
:102AA0000846006830B100231A4619461A480068E3
:102AB00001F0FEFD01210807FFF71AFD0120FFF7D5
:102AC000F1FC0020FFF7CAFE4AF2A55188421DD052
:102AD0000120FFF7C1FD00BF4120FFF79DFD002849
:102AE000FAD04FF48070FFF7D3FD0120FFF7CAFD45
:102AF0007F200190FF200290002000906846FFF7A1
:102B00007BFE4AF2A5510020FFF762FF002104205E
:102B1000FFF7C2FE01200EBD980000202DE9F04312
:102B2000B3B005460E4614460027B84601F054FFE0
:102B30008046002340F2E24219461B48006801F03B
:102B4000F5FC012824D11CE045B12846FDF70EFE16
:102B500000F0FF0949462846FFF704FA0EB901279D
:102B600015E06208002301A91048006801F0DEFCAE
:102B7000012806D1314601A8FDF7E6FD08B101277D
:102B800005E001F029FFA0EB0800A042DCD300BF64
:102B900000231A4619460448006801F089FD3846AA
:102BA00033B0BDE8F08300002000002028000020A2
:102BB00000B5A3B0202108A8FDF75EFE0020079015
:102BC00005900690049074E03CA000F00FFF49A02F
:102BD00000F00CFF4AA000F009FF00235A1E10A9C4
:102BE0004848006801F0A2FC012862D146A110A863
:102BF000FDF794FE00B95DE007AA04AB901E06A99C
:102C0000CDE90232CDE90010031F05AA3FA110A8AB
:102C1000FDF766FC062849D1BDF91400002841DB08
:102C2000BDF91400FF283DDCBDF91600002839DB92
:102C3000BDF91600FF2835DCBDF91800002831DB8E
:102C4000BDF91800FF282DDCBDF91A00002829DB8A
:102C5000BDF91A00FF2825DC0498002822DB04981F
:102C6000B0F5803F1EDA9DF81C003B281AD11DAA42
:102C70002CA110A8FDF734FC21AA2CA110A8FDF767
:102C80002FFC10221DA908A8FDF71DFE062221A970
:102C90000CA8FDF718FE0F2208A94FF40050FFF70B
:102CA000B3FB06E025A000F0A1FE02E023A000F0A7
:102CB0009DFE89E700BF23B000BD00000D0AC7EBF1
:102CC000CAE4C8EBB7FECEF1C6F74950B5D8D6B7BF
:102CD000BCB0B6CBBFDABAC528C0FDC8E736312EC6
:102CE0003139302E33382E34362C33303030303BBF
:102CF00029A3BA000D0A452ECDCBB3F60000000083
:102D00000D0A3E0030000020450D00002568642EAD
:102D10002568642E2568642E2568642C2564256347
:102D200000000000255B5E2C5D000000252A5B5E34
:102D30002C5D2C255B5E3B5D000000000D0AC7EB9F
:102D4000CAE4C8EBBACFB7A8B5C44950B5D8D6B70E
:102D5000BBF2B6CBBFDA21000CB500200190009089
:102D60003448006840F480303249086000BF314880
:102D7000006800F4003000900198401C0190009819
:102D800018B90198B0F5A04FF1D12A48006800F4B5
:102D9000003010B10120009001E000200090009868
:102DA000012846D123484030006840F08050214936
:102DB000403108602048006840F440401E490860E7
:102DC0001C48083000681B49083108600846006844
:102DD00040F4004008600846006840F4A0500860D5
:102DE0001648091F0860081F006840F08070091F1E
:102DF000086000BF0F48006800F000700028F9D09C
:102E000040F205700E4908600A480830006820F05A
:102E100003000849083108600846006840F00200D5
:102E2000086000BF03480830006800F00C00082864
:102E3000F8D10CBD00380240007000400C5440072F
:102E4000003C024030B58DB03CE020A000F0CEFD4B
:102E500023A000F0CBFD25A000F0C8FD00235A1EE2
:102E600069462348006801F061FB01282AD121A1AD
:102E70006846FDF753FD00B925E06846FDF776FC8E
:102E80000B281CD100240CE01DF80400302805DBC1
:102E90001DF80400392801DC012500E00025601C34
:102EA000C4B20A2CF0DB012D05D1052269462803A6
:102EB000FFF7AAFA06E010A000F098FD02E00EA0CD
:102EC00000F094FDC1E700BF0DB030BD0D0AC7EBA7
:102ED000CAE4C8EBCDF8B9D8B5D8D6B7A3BA0000C4
:102EE0000D0A452ECDCBB3F6000000000D0A3E00C2
:102EF00030000020450D00000D0AC7EBCAE4C8EB06
:102F0000BACFB7A8B5C4CDF8B9D8B5D8D6B7A3A1AC
:102F100000000000F0B5B3B005460C4600270026BF
:102F200059E0701CC6B2002340F2E24219462C4818
:102F3000006801F0FBFA012829D10D2129A0FFF733
:102F400011F8002340F2E24201A92A48006801F08A
:102F5000EDFA01281BD128A101A8FDF7F5FBB0B1BE
:102F60001A202855601CC1B22846FEF7FBFF00233B
:102F700040F2E24201A91F48006801F0D7FA012897
:102F800005D11EA101A8FDF7DFFB00B10127002339
:102F90001A4619461248006801F08AFBD7B9012E7B
:102FA00007D1FFF723FD012800D114E0FFF73EF819
:102FB00011E000BFBFF34F8F1248006800F4E060DB
:102FC00011490843001D0F490860BFF34F8F00BF30
:102FD00000BFFEE700E0A4E700BF33B0F0BD000093
:102FE0002000002041542B43495053454E440D0AC4
:102FF00000000000280000203E00000053454E4421
:10300000204F4B000CED00E00000FA0510B515480C
:10301000006840F47000134908601348006840F0ED
:1030200001001149086000200F49083108600E486E
:1030300000680E4908400C4908600D48091D0860E9
:10304000081F006820F48020091F0860002006493E
:103050000C310860FFF780FE4FF0006001498039B5
:10306000086010BD88ED00E000380240FFFFF6FE6A
:1030700010300024704700008EB023A000F0B6FC92
:103080002DA000F0B3FC32A000F0B0FC36A000F0A0
:10309000ADFC3BA000F0AAFC3FA000F0A7FC44A0C0
:1030A00000F0A4FC48A000F0A1FC4DA000F09EFCA4
:1030B00029E05AA000F09AFC5DA000F097FC63A004
:1030C00000F094FC66A000F091FC68A000F08EFC7B
:1030D00000235A1E01A96648006801F027FA01285A
:1030E00011D164A101A8FDF719FC08B9FEF7CEFEC5
:1030F00061A101A8FDF712FC10B9FFF7BBFF02E0C8
:103100005EA000F073FCD4E70D0A0D0AB5F7CAD42F
:10311000C4A3CABD0D0ABACFB7CAB4F3C3F7BDDAA8
:10312000C4DCBFC6BCBCB9C9B7DDD3D0CFDEB9AB38
:10313000CBBEA3BA000000000D0ACDF8B9D8C8ED87
:10314000BCFEB0E6B1BEBAC52020A3BA560000004E
:103150000D0ACDF8B9D8B5D8D6B720202020202028
:103160002020A3BA000000000D0ACDF8B9D8B5B1EF
:10317000C7B0CAB1BCE420202020A3BA00000000E0
:103180000D0A4750532DBEADB6C820202020202068
:103190002020A3BA000000000D0A4750532DCEB3E3
:1031A000B6C82020202020202020A3BA0000000044
:1031B0000D0AC4BFB1EAB7FECEF1C6F74950B5D883
:1031C000D6B7A3BA000000000D0AC4BFB1EAB7FE2B
:1031D000CEF1C6F7B6CBBFDABAC5A3BA000000007D
:1031E0000D0A2A2A2A2A2A2A2A2A2A2A2A2A2A2A7C
:1031F0002A2A2A2A2A2A2A2A2A2A2A2A2A2A2A2A2F
:103200002A2A2A2A2A2A2A2A2A2A2A2A2A2A2A2A1E
:103210002A2A2A2A2A2A2A2A2A2A00000D0AC7EB41
:10322000D1A1D4F1B5F7CAD4C4A3CABDA3BA0000D2
:103230000D0A312ECDF8B9D8B2CECAFDC9E8D6C331
:10324000BCB0B2E9BFB4C4A3CABD00000D0A322E9F
:10325000C8CECEF1B4F2D3A1C4A3CABD0000000011
:103260000D0A452ECDCBB3F6000000000D0A3E003E
:1032700030000020310D0000320D00000D0A20CA80
:10328000E4C8EBB8F1CABDB2BBD5FDC8B7A3ACC7A3
:10329000EBD6D8D0C2CAE4C8EBA3A10D0A00000047
:1032A00038B50020009040F225511E4800F0B1F9D9
:1032B000002836D01B4800F065FAC4B2022C02D1B7
:1032C0001948FDF799FE184821464278642A08DA21
:1032D0000378821CD1540278521C02704278521C2E
:1032E000427000BF032C1CD10F484078C01EC1B2F1
:1032F0000D48801CFDF716FE00236A460A49891C0A
:103300000A48006801F04CFA009838B14FF080503C
:1033100007490860BFF34F8FBFF36F8F0248FDF777
:103320006BFE38BD004C0040A800002014000020B7
:1033300004ED00E038B50020009040F225511E4811
:1033400000F067F9002836D01B4800F01BFAC4B221
:10335000022C02D11948FEF7B7F8184821464278E6
:10336000642A08DA0378821CD1540278521C027055
:103370004278521C427000BF032C1CD10F48407889
:10338000C01EC1B20D48801CFDF7CCFD00236A466B
:103390000A49891C0A48006801F002FA009838B10D
:1033A0004FF0805007490860BFF34F8FBFF36F8F16
:1033B0000248FEF789F838BD00100140DA0100200C
:1033C0001C00002004ED00E01CB50020009040F23D
:1033D0002551514800F01DF9002866D04E4800F0F4
:1033E000D1F9C0B20190012101A800F0CDFA9DF8F9
:1033F00004004A49497871B9022803D10021484A9A
:10340000117008E00D2803D10121454A117002E036
:103410000221434A117000BF41480078002845D17D
:103420009DF80400022802D13C48FEF7CFFD9DF82C
:1034300004103A48FEF7D4FD9DF8040003286AD131
:1034400036484078C01EC1B23448801CFDF76AFD82
:103450000446201100F072FA30490978C91E2F4A3B
:10346000921C515C88421DD104F00F0000F066FAF6
:103470002A490978891E294A921C515C884211D137
:1034800000236A462549891C2648006801F088F90E
:10349000009838B14FF0805023490860BFF34F8F38
:1034A000BFF36F8F1D48FEF791FD34E01C48007894
:1034B000012830D119484078012806DC9DF8040025
:1034C0000D2802D11548FEF781FD9DF80410134820
:1034D000FEF786FD11484078042803DD9DF80400BE
:1034E0000A2803D09DF804003E2814D100236A4620
:1034F0000A49891C0D48006801F052F9009838B15A
:103500004FF0805008490860BFF34F8FBFF36F8FB3
:103510000248FEF75BFD1CBD004800402A03002066
:103520002D0000202400002004ED00E028000020F1
:103530001CB50020009040F22551264800F069F8A3
:10354000002845D0234800F01DF9C0B201909DF835
:1035500004000A2800D11CBD1F480078012807D1AB
:103560009DF804000A2803D0012101A800F00CFAFC
:103570001A489DF804104278322A08DA0378821C2F
:10358000D1540278521C02704278521C427000BF23
:103590009DF804000D281BD100236A460F49891CA1
:1035A0000F48006801F0FCF8009838B14FF08050E7
:1035B0000C490860BFF34F8FBFF36F8F074C322168
:1035C000A01CFDF737F900202070607000BF00BF1D
:1035D00000BFC0E70014014040000020F4030020B9
:1035E0003000002004ED00E021B1828942F4005255
:1035F000828104E082894DF6FF731A408281704710
:103600001AB1838A0B43838202E0838A8B438382CD
:10361000704770B50246002400230025002040F6C4
:103620006A16B14200D100BFC1F3421501F01F0379
:10363000012606FA03F3012D02D19689334006E0F4
:10364000022D02D1168A334001E0968A33400C12D3
:10365000012606FA04F41688344013B10CB1012097
:1036600000E0002070BDF0B50346002400260025D0
:10367000002040F66A17B94200D100BF1846C1F3D6
:10368000421401F01F06012707FA06F5012C01D1AB
:103690000C3004E0022C01D1103000E014301AB1DB
:1036A00007682F43076002E00768AF430760F0BD7B
:1036B0002DE9FF4705460E460024A14600BFA0465F
:1036C000B08900B100BF2C8A24F44054F088044330
:1036D0002C82AC8941F20C608443B0883189084364
:1036E000718908430443AC81AC8A24F44074B089E6
:1036F0000443AC826846FEF71BFF2048854202D097
:103700001F48854202D1DDF80C9001E0DDF80890F9
:10371000A88900F4004040B109EBC90000EB091092
:1037200031684900B0FBF1F707E009EBC90000EB95
:10373000091031688900B0FBF1F76420B7FBF0F0A5
:1037400004012009642101FB1078A88900F40040DD
:1037500040B1322000EBC800B0FBF1F000F00700F0
:10376000044308E0322000EB08106421B0FBF1F0C4
:1037700000F00F0004432C81BDE8FF8700100140DA
:103780000014014001468888C0F30800704700001B
:103790001FB5012000F082FE0B4908600022322193
:1037A0000A2000F09FFE0949086000200223CDE9AD
:1037B0000030029003464FF4906205A10390084840
:1037C00001F092F81FBD00003400002030000020FE
:1037D0005561727444656275675461736B000000D3
:1037E000E143000800B587B001210420FEF760FE28
:1037F00001212020FEF78CFE082206212F48FEF72B
:10380000E9F9082207212D48FEF7E4F94FF4807109
:103810002A48FEF702FA4FF48070059001208DF8D7
:10382000180002208DF8190000208DF81A000120E0
:103830008DF81B0005A92148FEF784F9C0200590EA
:1038400002208DF818008DF8190000208DF81A005C
:1038500001208DF81B0005A91848FEF773F94FF4F5
:10386000E13001900020ADF80800ADF80A00ADF895
:103870000C00ADF810000C20ADF80E0001A91048A6
:10388000FFF716FF01210E48FFF7AEFE012240F2BE
:1038900025510B48FFF7E7FE47208DF800000E206A
:1038A0008DF8010000208DF8020001208DF8030042
:1038B0006846FEF737FD07B000BD00000008024073
:1038C0000014014010B5FFF78DFFFDF79FFDFFF7D6
:1038D0005FFF10BD00BFFEE730380A2801D201208B
:1038E00070470020704700BF70470146302905DB54
:1038F000392903DCA1F13000C0B27047412905DB52
:10390000462903DCA1F13700C0B2F6E7612905DBE7
:10391000662903DCA1F15700C0B2EEE70020ECE716
:10392000C2B2054B1A8000BF034A121F128802F070
:103930004002002AF8D070470414014001460929CA
:1039400003DC01F13000C0B270470A2905DB0F2902
:1039500003DC01F13700C0B2F6E73020F4E710B520
:103960004FF44070FEF71AFDFEF722FDFFF790F8C6
:10397000FFF7A8FFFEF756F9FDF702FBFDF76CFD18
:1039800000F0C4FC002010BD70B504460D460023B5
:1039900040F2E24219461048006800F0C7FD0128D5
:1039A00012D101020D48FEF73AF9224629460CA031
:1039B000FCF7C6FC012D02D00BA0FCF7C1FC4FF4B4
:1039C00080710648FEF729F900231A461946024875
:1039D000006800F06DFE70BD340000200008024059
:1039E000252E2A73000000000D0A000010B50446C1
:1039F000002340F2E24219460D48006800F096FDAF
:103A000001280CD101020B48FEF709F921460AA052
:103A1000FCF796FC4FF480710648FEF7FEF8002391
:103A20001A4619460248006800F042FE10BD000028
:103A300034000020000802402573000010B5044641
:103A40000E48006844600E480068844207D20B4864
:103A50000168091D0B48006800F018FB0CE00748DE
:103A60000168091D0848006800F010FB074800685D
:103A7000844201D20548046010BD000060000020AF
:103A800074000020680000206400002090000020E6
:103A90002DE9F04106460F461FB9B00000F0B4F919
:103AA00000E03846054655B1542000F0ADF9044613
:103AB0000CB1256304E0284600F030FB00E0002450
:103AC0002046BDE8F081000070B523E000F050FC16
:103AD0001348006808B9012000E00020054601F005
:103AE00079F8BDB900F0F8FA0D48C068C468201D27
:103AF00000F00AFA0B480068401E0A4908600A48AC
:103B00000068401E0849086000F0F8FA204600F0FE
:103B100062F800BF044800680028D7D170BD0000DB
:103B2000C8940120700000206C00002070B504468D
:103B30000D46206C70B1216CE0680844E06061685B
:103B4000E068884201D32068E0602846226CE16882
:103B5000FCF72BFE70BD2DE9F04104460E461546DC
:103B60000027206C40B9206878BB606800F0B0FF87
:103B700007460020606028E07DB93146226CA068CD
:103B8000FCF713FE216CA0680844A060D4E9011082
:103B900088421AD32068A06017E03146226CE068A2
:103BA000FCF703FE216CE068401AE0602168E068E1
:103BB000884203D2216C6068401AE060022D04D173
:103BC000A06B10B1A06B401EA063A06B401CA06353
:103BD0003846BDE8F08110B50446206B00F09EFA2F
:103BE000204600F09BFA10BD094A22F00700094A5E
:103BF00010600022074B5A60074A084B5A600022A7
:103C00001A600146044A4A601A460A60704700007A
:103C10003004002048000020F88F010050000020F0
:103C200000BFFFF751FF4FF0805003490860BFF31A
:103C30004F8FBFF36F8FF4E704ED00E02DE9F047FD
:103C400004460F4615469946DDF82080002607E019
:103C5000B95D04F134008155B85D00B902E0761C0D
:103C6000102EF5D300BF002143200155052D00D3B0
:103C70000425E56265640020A064201D00F003FABD
:103C800004F1180000F0FFF92461C5F10500A061FE
:103C900064620020E06484F85000BDE8F087000012
:103CA00010B5002407E004EB84010F4A02EB810009
:103CB00000F0DCF9641C052CF5D30C4800F0D6F9B3
:103CC0000B4800F0D3F90B4800F0D0F90A4800F097
:103CD000CDF90A4800F0CAF90448094908600448C7
:103CE0000849086010BD0000289401208C94012030
:103CF000A0940120B4940120C8940120DC940120F8
:103D0000640000206800002070B5054600F0E4F96A
:103D1000A86B08B9012400E0002400F0EFF9204668
:103D200070BD70B5054600F0D7F9A86BE96B884205
:103D300001D1012400E0002400F0E0F9204670BD2C
:103D40000A490968096809B9012100E0002121B187
:103D50004FF0FF31064A116006E004490968C9685E
:103D6000C868034A41681160704700006400002081
:103D70009000002000BFBF2080F31188BFF34F8F59
:103D8000BFF36F8F00BF00BFFEE710B5044600F021
:103D9000A3F911E0606A08B9012000E0002038B9F9
:103DA00004F1240000F0D6FE18B100F013FA00E090
:103DB00005E0A06C401EA064A06C0028EADC00BFF7
:103DC0004FF0FF30A06400F099F900F085F911E0A0
:103DD000206908B9012000E0002050B904F110006A
:103DE00000F0B8FE08B100F0F5F9606C401E6064A8
:103DF00000E002E0606C0028EADC00BF4FF0FF301A
:103E0000606400F07BF910BD2DE9F04104464FF0ED
:103E1000000800F0ADFA2548006820B9FFF7E4FE7D
:103E200001202249086044B1083404F0070020B1A1
:103E300004F00700C0F108000444002C31D01C48F5
:103E400084422ED21B4F3846056801E02F462D686C
:103E50006868A04202D228680028F7D11648854237
:103E60001FD0386800F10808286838606868001BAF
:103E7000102810D92E196868001B70606C6071687A
:103E80000C4800E00068026852688A42FAD302686F
:103E90003260066000BF094968680968081A074966
:103EA000086000F097FE4046BDE8F0815C0000200D
:103EB000F88F01004800002050000020580000202A
:103EC0000648006830B10549096801F14800896C6D
:103ED000491C016001480068704700006000002034
:103EE000001F4FF080730360001F0160001F054B2F
:103EF000036014380260001F6FF002030360203873
:103F000070470000753D000801460A69D1E901309B
:103F10009860D1E9010358605068884201D18868EF
:103F20005060002008611068401E106010687047E3
:103F30009AB023E00023192201A91148006800F07B
:103F4000F5FA01281AD19DF80A00FFF7CEFC0646C3
:103F50009DF80900FFF7C9FC46EA0010C5B2094CFC
:103F600007E02078A84203D101A86168884703E0F0
:103F7000083420784028F4D100BF00BFDAE7000001
:103F800014000020DC4C00089AB023E00023192222
:103F900001A91148006800F0C9FA01281AD19DF85A
:103FA0000A00FFF7A2FC06469DF80900FFF79DFCFA
:103FB00046EA0010C5B2094C07E02078A84203D1B8
:103FC00001A86168884703E0083420784028F4D1CC
:103FD00000BF00BFDAE700001C000020E44C00082E
:103FE000B2B0002600BF00BFFEF720F80028FBD0CB
:103FF00001201B49087000BF00BF00BF0023FA2248
:1040000069461848006800F091FA01281AD19DF815
:104010000C00FFF76AFC07469DF80B00FFF765FCF4
:1040200047EA0010C5B2104C07E02078A84203D13F
:1040300068466168884703E0083420784028F4D156
:1040400000BF00BF00F0C8FC801B41F64C51884205
:10405000D4D3FEF749F900F0BFFC0646CEE70000D6
:104060002C00002024000020EC4C000800F1080186
:1040700041604FF0FF31816000F10801C1600161D2
:1040800000210160704700210161704710B50246B0
:104090000B685C1C0CB9106907E002F1080000E035
:1040A0004068446824689C42FAD944684C604C6873
:1040B000A160886041600A611468641C146010BDCE
:1040C00042684A6093688B609368596091600861A8
:1040D00003685B1C0360704700BFBF2080F311883A
:1040E000BFF34F8FBFF36F8F00BF03480068401CC2
:1040F000014908607047000044000020064800683D
:10410000401E054908600846006820B9002080F379
:10411000118800BF00BF70474400002070B50646FC
:104120003546B6B1083D2C4600F022F961680948D1
:1041300000E00068026852688A42FAD3026822608E
:10414000046005496068096808440349086000F094
:1041500041FD70BD480000205800002003484FF08A
:10416000E02148610720086170470000FF400A0015
:1041700070B504460026DCB100F0FAF8114800687A
:10418000051911480068001DFFF7BEFE50B90E4822
:10419000006890F82C10012088400C490968814380
:1041A0000A4801602846FFF749FC00F013FD064667
:1041B0003EB94FF0805006490860BFF34F8FBFF300
:1041C0006F8F70BD74000020600000207800002018
:1041D00004ED00E0012001490860704784000020E0
:1041E00070B506460C461348016818313046FFF793
:1041F0004DFF10480068001DFFF786FE50B90D48BE
:10420000006890F82C10012088400B490968814310
:1042100009480160601C30B906480168091D07485B
:10422000FFF74EFF05E00648006805192846FFF72E
:1042300005FC70BD6000002078000020DC940120A7
:104240007400002070B505462C46002D4BD0264941
:10425000E06A0968C96A884245D2A06900F0004056
:1042600028B921480068C06AC0F10500A061E16A70
:1042700001EB81011D4A02EB81016069884201D195
:10428000012000E0002050B3201DFFF73DFE78B96B
:10429000E06A00EB8000154951F8200040B994F81D
:1042A0002C100120884012490968814310480160A0
:1042B0000D480068C06AE06294F82C100120884024
:1042C0000B49096808430A490860E16A01EB81016A
:1042D000064A02EB8100211DFFF7F2FE03E00248CF
:1042E0000068C06AE06270BD600000202894012070
:1042F00078000020034909680160034909684160AA
:104300007047000088000020740000201FB50020C6
:10431000009001900290034680220FA10390104864
:1043200000F0E2FA0446012C14D100BFBF2080F354
:104330001188BFF34F8FBFF36F8F00BF4FF0FF3077
:104340000849086001200849086000200749086002
:1043500000F066F81FBD000049444C450000000015
:10436000213C0008900000207C0000207400002008
:1043700002480068401C0149086070479400002012
:104380001248006818B10120114908601DE00020A2
:104390000F4908600F480068B0FA80F0C0F11F01B3
:1043A00001EB81020C4B03EB8200426852684260D1
:1043B00000F108024368934202D1426852684260A9
:1043C0004268D268054B1A6000BF70479400002015
:1043D0008400002078000020289401206000002044
:1043E0008EB015E000235A1E01A90A48006800F0AB
:1043F0009DF801280CD10848016801A8FCF78EFA45
:1044000030B9012005490870FFF7B2FEFEF734FE0F
:10441000E8E70000300000203C00002040000020C1
:1044200010B50E48006840F47F000C49086008464B
:10443000006840F07F400860FFF790FE00200849C8
:104440000860FBF71FFF0748006840F0404005493F
:104450000860FBF707FF002010BD000020ED00E022
:104460004400002034EF00E010B500BFBF20EFF3A0
:10447000118180F31188BFF34F8FBFF36F8F00BF9F
:1044800000F0B0FA18B14FF08050034908600020E6
:1044900080F3118800BF10BD04ED00E070B5054643
:1044A0004C20FFF7B1FC0446D4B1002060602060CE
:1044B000A060E060A0630120E06300202064401E53
:1044C0006064A06404F11000FFF7D0FD04F1240043
:1044D000FFF7CCFD00231A461946204600F0E8F805
:1044E000204670BD2DE9F04706460D4691464FF037
:1044F00000080DB9002702E006FB05F0471C07F194
:104500004C00FFF781FC044664B10DB9246002E061
:1045100004F14C002060E66325640121204600F090
:1045200093F8A0464046BDE8F08700002DE9FF4320
:1045300083B0054688461E464FF000092C4600BF52
:10454000FFF7CAFDA06B48B3E76841462046FFF776
:10455000EDFA96B9A06B401EA063206810B9FFF772
:10456000AFFC6060206908B9012000E0002078B944
:1045700004F1100000F0EEFA0AE0E760606A08B9A2
:10458000012000E0002018B904F1240000F0E2FA54
:10459000FFF7B4FD012007B0BDE8F083059818B916
:1045A000FFF7ACFD0020F6E7B9F1000F04D101A838
:1045B000FFF7A0FE4FF00109FFF7A0FDFFF7D8FEBF
:1045C000FFF78AFD606C401C08B900206064A06C95
:1045D000401C08B90020A064FFF790FD05A901A8C0
:1045E00000F054F938BB2046FFF78EFBE8B1206895
:1045F00030B9FFF771FD6068FFF724FEFFF77EFD1D
:1046000004F124000599FFF7EBFD2046FFF7BDFB01
:1046100000F0E0FA002893D14FF08050094908607B
:10462000BFF34F8FBFF36F8F8AE72046FFF7ADFBD5
:1046300000F0D0FA84E72046FFF7A7FB00F0CAFAA3
:104640000020A8E704ED00E070B505460E462C46B4
:10465000FFF742FDD4E90F12206801FB0200606001
:104660000020A0632068A060E06B401E226C2168DF
:1046700000FB0210E0604FF0FF306064A06456B9A8
:10468000206908B9012000E0002060B904F11000A1
:1046900000F060FA07E004F11000FFF7E7FC04F116
:1046A0002400FFF7E3FCFFF729FD012070BD0000A7
:1046B0002DE9FF4383B006460F461D464FF0000824
:1046C000344600BFFFF708FDA06BE16B884201D3C1
:1046D000022D17D12A4639462046FFF73CFA81467B
:1046E000606A08B9012000E0002020B904F124002C
:1046F00000F030FA00E000BFFFF700FD012007B036
:10470000BDE8F083059818B9FFF7F8FC0020F6E73C
:10471000B8F1000F04D101A8FFF7ECFD4FF001083C
:10472000FFF7ECFCFFF724FEFFF7D6FC606C401CA3
:1047300008B900206064A06C401C08B90020A06487
:10474000FFF7DCFC05A901A800F0A0F8F0B92046AD
:10475000FFF7E7FAA0B104F110000599FFF740FD5B
:104760002046FFF712FB00F035FA0028AAD14FF0DF
:1047700080500A490860BFF34F8FBFF36F8FA1E7E6
:104780002046FFF702FB00F025FA9BE72046FFF7E3
:10479000FCFA00F01FFA0020B1E7000004ED00E091
:1047A0002DE9F04705468A4616461F462C4600BFAF
:1047B000BF21EFF3118081F31188BFF34F8FBFF357
:1047C0006F8F00BF8146A06BE16B884201D3022F3F
:1047D0001CD13A4651462046FFF7BDF9A06C401C5B
:1047E00070B9606A08B9012000E0002058B904F1EE
:1047F000240000F0AFF930B12EB10120306002E0AA
:10480000A06C401CA0644FF0010801E04FF00008CC
:1048100000BF89F3118800BF4046BDE8F0872DE94D
:10482000F04105460E462C4600BFBF21EFF3118034
:1048300081F31188BFF34F8FBFF36F8F00BF8046A6
:10484000A06BE16B884219D2A06B401CA063A06CE6
:10485000401C70B9606A08B9012000E0002058B916
:1048600004F1240000F076F930B12EB1012030605F
:1048700002E0A06C401CA064012700E0002700BFFC
:1048800088F3118800BF3846BDE8F08170B5044652
:104890000D46FFF721FC124802682868401C08B941
:1048A000002619E00F4920680968884204D0606832
:1048B000904201D801260FE06068101A29688842EA
:1048C00009D228686168511A401A28602046FFF70B
:1048D00011FD002600E00126FFF710FC304670BDF8
:1048E00074000020880000202DE9FF4F81B00746AA
:1048F00015469846DDE90E9A28461099FFF7C8F844
:104900000446002C4FD0681E216B01EB800B2BF06E
:10491000070B00954A462046119B0299FFF78EF936
:10492000424639465846FFF7DBFA2060BAF1000FDD
:1049300001D0CAF80040FFF7CFFB21480068401CB7
:104940001F4908601F48006840B91E4804600846B7
:10495000006801280CD1FFF7A3F909E01A480068A4
:1049600030B918480068C06A484501D81548046045
:1049700016480068401C1549086094F82C10012066
:10498000884013490968084311490860E16A01EB4E
:104990008101104A02EB8100211DFFF791FB0126E6
:1049A000FFF7ACFB01E04FF0FF36012E04D10648C3
:1049B000006808B103480068304605B0BDE8F08FD4
:1049C00070000020600000207C0000208C0000208F
:1049D00078000020289401200149086870470000F1
:1049E000740000202DE9F0410027304800680028BD
:1049F00053D12F480068401C2D49086008460668BE
:104A00008EB92C48D0F800802B48006829490860EE
:104A10002948C0F8008029480068401C27490860E0
:104A2000FFF78EF900BF26480068864234D300BFE6
:104A300020480068006808B9012000E0002020B18B
:104A40004FF0FF301E49086025E01A480068C06832
:104A5000C4686568AE4202D2194805601BE0201D9B
:104A6000FFF752FAA06A18B104F11800FFF74CFAE8
:104A700094F82C1001208840124909680843114914
:104A80000860E16A01EB81010F4A02EB8100211D00
:104A9000FFF716FBCCE700BF04E00C480068401CA1
:104AA0000A4908603846BDE8F08100009400002003
:104AB00074000020640000206800002088000020AE
:104AC0009000002078000020289401208000002021
:104AD00070B505462C460026ADB3A06C401EA06400
:104AE000616CE06A88422ED0A06C60BB201DFFF78D
:104AF0000BFA78B9E06A00EB8000144951F8200005
:104B000040B994F82C10012088401149096881436C
:104B10000F480160606CE062E06AC0F10500A061CE
:104B200094F82C1001208840094909680843084975
:104B30000860E16A01EB8101044A02EB8100211D5A
:104B4000FFF7BEFA0126304670BD00002894012010
:104B50007800002070B50646F068C46804F11800BB
:104B6000FFF7D2F915480068A8B9201DFFF7CCF966
:104B700094F82C1001208840114909680843104915
:104B80000860E16A01EB81010E4A02EB8100211D00
:104B9000FFF796FA04E004F118010B48FFF790FACA
:104BA0000A49E06A0968C96A884204D901250120D6
:104BB0000749086000E00025284670BD94000020E9
:104BC0007800002028940120B49401206000002087
:104BD0008400002070B50025FFF77EFA29480068A0
:104BE000401E2849086008460068002846D126482B
:104BF0000068002842D024E02448C068C46804F15A
:104C00001800FFF781F9201DFFF77EF994F82C10AA
:104C1000012088401E49096808431D490860E16A6F
:104C200001EB81011B4A02EB8100211DFFF748FACD
:104C30001949E06A0968C96A884202D30120174904
:104C400008601248006808B9012000E00020002830
:104C5000D2D01348006878B10AE0FFF7C3FE10B164
:104C600001200E4908600E480068401E0C4908608B
:104C70000B4800680028F0D108480068FFF73EFAAA
:104C8000284670BD9400002070000020B4940120DC
:104C9000780000202894012060000020840000207B
:104CA0008000002010B500290AD00878002807D01D
:104CB00005487844FBF732FE002801D0002010BDE3
:104CC0000248784410BD0000920100008A010000F3
:104CD0004FF04070E1EE100A704700000100000044
:104CE000E122000801000000E122000801000000AC
:104CF000E1220008666974627269676874207465ED
:104D000073740D000D0A2020202020203620C9E8D1
:104D1000D6C3CDF8B9D8CEB3B6C8202020203720CE
:104D2000D5F2C1F7C6F7B5F7B9E220202020202040
:104D30003820D5F2C1F7C6F7BFAAB9D82020202065
:104D400020203920B6C1D5F2C1F7C6F7CAFDBEDDB5
:104D5000202020204120BDD3B4A5C6F7BFD8D6C699
:104D6000202000000D0A2020202020204220D5F203
:104D7000C1F7C6F7B2CECAFDB2E9D1AF20204320B9
:104D8000D5F2C1F7C6F7B2DFC2D4B2E9D1AF202065
:104D90004420CDF8B9D8B2CECAFDB2E9D1AF2020B7
:104DA00020204620BBD6B8B4B3F6B3A7C9E8D6C313
:104DB000202020204C20B5E7C1BFCAFDBEDDB2E9EE
:104DC000D1AF00000D0A2020202020203120C9E88A
:104DD000D6C3CDF8B9D8CAB1BCE4202020203220F7
:104DE000C9E8D6C3CDF8B9D8B5D8D6B72020202089
:104DF0003320C9E8D6C3444E5320495020202020F8
:104E000020203420C9E8D6C3B7FECEF1C6F74950FA
:104E1000202020203520C9E8D6C3CDF8B9D8BEADB2
:104E2000B6C80000544F000800000020A800000091
:104E3000C4010008FC4F0008A8000020A89A010047
:104E4000E00100081001000043000000F8FFFFFF30
:104E5000004040404040404040404141414141408D
:104E60004040404040404040404040404040404042
:104E700040050202020202020202020202020202D1
:104E800002202020202020202020200202020202D6
:104E9000020290909090909010101010101010102E
:104EA000101010101010101010101010020202023A
:104EB000020288888888888808080808080808087E
:104EC000080808080808080808080808020202027A
:104ED0004000000000000000000000000000000092
:104EE00000000000000000000000000000000000C2
:104EF00000000000000000000000000000000000B2
:104F000000000000000000000000000000000000A1
:104F10000000000000000000000000000000000091
:104F20000000000000000000000000000000000081
:104F30000000000000000000000000000000000071
:104F40000000000000000000000000000000000061
:104F5000000000000000000001020304010203043D
:104F60000607080900000000000000000000000023
:104F70000000000000000000000000000000000031
:104F80000000000000000000000000000000000021
:104F9000F44C000800000000AAAAAAAA0000000021
:104FA000000000000000000000000000F88F010079
:104FB00000000000000000000000000000000000F1
:104FC00000000000000000000000000000000000E1
:104FD00000000000000000000000000000000000D1
:104FE00000000000000000000000000000000000C1
:0C4FF000000000000000000000000000B5
:040000050800018965
:00000001FF
