:020000040800F2
:10000000109D01203D030008EF4B000895420008B9
:10001000D34B0008BB150008536B0008000000001C
:100020000000000000000000000000008502000841
:10003000051B000800000000D902000815AE0008EA
:100040005703000857030008570300085703000828
:100050005703000857030008570300085703000818
:100060005703000857030008570300085703000808
:100070005703000857030008D11700081D1800088F
:1000800057030008570300085703000857030008E8
:1000900057030008570300085703000857030008D8
:1000A00057030008570300085703000857030008C8
:1000B00057030008570300085703000857030008B8
:1000C00057030008570300085703000857030008A8
:1000D00057030008896100085703000831620008CF
:1000E0005703000857030008570300085703000888
:1000F0005703000857030008570300085703000878
:100100005703000857030008570300085703000867
:10011000F56000085703000857030008570300085C
:100120005703000857030008570300085703000847
:100130005703000857030008570300085703000837
:100140005703000857030008570300085703000827
:10015000570300085703000845180008916300087A
:100160005703000857030008570300085703000807
:1001700057030008570300085703000857030008F7
:10018000570300085703000800F002F800F06AF86F
:100190000AA090E8000C82448344AAF10107DA45E2
:1001A00001D100F05FF8AFF2090EBAE80F0013F0CA
:1001B000010F18BFFB1A43F001031847D8C4000011
:1001C000F8C400000A444FF0000C10F8013B13F093
:1001D000070408BF10F8014B1D1108BF10F8015BA0
:1001E000641E05D010F8016B641E01F8016BF9D193
:1001F00013F0080F1EBF10F8014BAD1C0C1B09D1EA
:100200006D1E58BF01F801CBFAD505E014F8016B5B
:1002100001F8016B6D1EF9D59142D6D370470000ED
:100220000023002400250026103A28BF78C1FBD8FF
:10023000520728BF30C148BF0B607047732900F0D8
:10024000A284002070471FB50BF0F8FF00F076FF86
:100250000400002000210BF009FA401C60601FBD63
:1002600010B510BD00F045FF1146FFF7ECFF08F098
:1002700059FA00F067FF03B4FFF7F2FF03BC07F081
:10028000E2FC00002A4B19680868B0E8F04F80F3E0
:100290000988BFF36F8F4FF0000080F3118870471B
:1002A0000000000006480068006880F3088862B615
:1002B00061B6BFF34F8FBFF36F8F00DF00BF00BF8A
:1002C00008ED00E0DFF80C00016841F47001016006
:1002D000704700BF88ED00E0EFF30980BFF36F8F38
:1002E000134B1A681EF0100F08BF20ED108A20E98A
:1002F000F04F106008B44FF0BF0080F31188BFF3D7
:100300004F8FBFF36F8F0AF013FC4FF0000080F3A4
:10031000118808BC19680868B0E8F04F1EF0100F8B
:1003200008BFB0EC108A80F30988BFF36F8F704765
:100330001C010020EFF3058070470000094880474A
:1003400009480047FEE7FEE7FEE7FEE7FEE7FEE7B7
:10035000FEE7FEE7FEE7FEE704480549054A064BCF
:1003600070470000695E00088901000810970120AD
:10037000109D012010990120109901207047000064
:100380000FB4044910B503AA029800F001FC10BC98
:100390005DF814FB600100200FB41CB5074B06AAE2
:1003A0007B4469460090059800F0C3FB0020694635
:1003B00000F0D2FB1CBC5DF814FB0000B507000088
:1003C00070B50C460546012A05D02878800600D570
:1003D000EA69002302E0012305E05B1C934202D29C
:1003E000E05C0028F9D1A869E618C01AA861286A5B
:1003F000184428622846AFF3008004E0D5E90121C3
:1004000014F8010B9047B442F8D32846AFF30080AC
:1004100070BD2DE9F0474FF0000A89460446C0F848
:1004200020A02046E1688847002876D0252806D0FD
:10043000D4E901219047206A401C2062F1E7E1687D
:10044000204600258847C4F81CA006460027C4F8AB
:1004500018A02A2E09D0304607F0EEFB38B304EB83
:100460008708303EC8F8186019E059F8041B204688
:1004700004EB87029161E1688847012F064618D195
:10048000E069002820DA25F020051DE0D8F81800E2
:1004900000EB800006EB40003038C8F8180020461A
:1004A000E1688847064607F0C7FB0028EED1012F18
:1004B0000AD02E2E08D12046E16888477F1C0646C8
:1004C000022F45F02005C4DBA069002803DA404272
:1004D00045F00105A061E80701D025F01005B6B18F
:1004E000A6F14100192802D8203645F400654A4695
:1004F0003146204625604D46FFF7A0FE58B1012841
:1005000006D0ED1D25F0070000F1080989E704E099
:1005100005F1040985E730468AE7206ABDE8F087DF
:100520000FB400B58DB010A9099000910B904FF059
:10053000FF300A9000200C90064878440690064848
:1005400078446A4607900F9909A800F047FB0DB060
:100550005DF814FBBF060000D70600002DE9FF5F21
:100560001D464FF0FF3B91464FF000085F46D5E92E
:100570000146A96901987F1C8847296A82468847F5
:100580000028F6D1BAF1FF3F0CD0002E24F4C0644D
:1005900019DD600614D5BAF12B0F09D0BAF12D0F71
:1005A0000ED103E0584604B0BDE8F09F44F48064E7
:1005B000A96901987F1C8847761E8246002E02DDBD
:1005C000BAF1300F03D0B9F1000F26D032E0A9699B
:1005D000761E01987F1C44F400748847002E8246E2
:1005E00005DDBAF1780F06D0BAF1580F03D0B9F192
:1005F000000F10D01EE0B9F1000F02D0B9F1100FBA
:1006000018D1A969761E01987F1C24F400748847CC
:100610008246102002E0082000E00A20814609E01E
:10062000A96908FB0908761E01987F1C44F4007430
:1006300088478246002E05DD4946504600F0BAFA4A
:100640000028EDDAE96901988847A00502D46FF027
:100650000100A8E7E00725D1600613D5600502D5A3
:10066000C8F1000000E0404629680A1D2A600968B8
:10067000220501D5087015E0220701D5088011E098
:1006800008600FE02868011D29600068210502D577
:1006900080F8008006E0210702D5A0F8008001E084
:1006A000C0F8008038467EE72DE9FF5F4FF0000874
:1006B0009946144646469169D2E901A7DDF838B05B
:1006C00001988847054659EA0B0005D009E0A16961
:1006D0000198761C88470546216A284688470028E5
:1006E000F5D1681C03D05FEACA7005D015E04FF061
:1006F000FF3004B0BDE8F09F2068011D2160D0F8F4
:1007000000800AE05FEACA7001D108F8015BA169C4
:10071000761C01987F1E88470546002F1ADD681C4D
:1007200018D0B9F1000F0DD0E81705EBD0604211D9
:1007300020F01F0059F822102A1A0120904001428F
:10074000E0D107E0BBF1000FDCD12846216A8847E1
:100750000028D7D0E16901988847BBF1000F07D185
:10076000002E05DD5FEACA7002D1002188F8001072
:10077000A068B84203DDBBF1000F03D017B16FF0E2
:100780000100B6E73046B4E770B5064600F0BCF9A4
:100790000468054630460A22002100F04FFA2C601A
:1007A00070BD30B505460B462A4613F8014B12F8CA
:1007B000010B08B1A042F8D01CB1002802D06D1C7A
:1007C000F1E7284630BD10B5431C02E010F8011BCC
:1007D00071B18107FAD14FF0013202C88C1A8C43F3
:1007E00014EAC211F9D0C01A0A0603D0C01E10BD07
:1007F000C01A10BD0A0401D0801E10BD0902FCD031
:10080000401E10BD40EA010370B59B072ED14FF08A
:100810000136042A2AD308C810C99D1B9D43121F04
:1008200015EAC61517D0D8B2E1B2401A50EA0561F0
:1008300010D198B2A1B2401A50EA05410AD123F072
:100840007F4024F07F41401A50EA052102D1180E62
:10085000A0EB146070BDA342DBD018BA21BA884265
:1008600001D9012070BD4FF0FF3070BD0AB90020E2
:1008700070BD10F8013B11F8014B63B1A3420AD1DE
:10088000521E08D010F8013B11F8014B1BB1A342D6
:1008900001D1521EEDD1181B70BD032A40F23080E9
:1008A00010F0030C00F0158011F8013BBCF1020FB1
:1008B000624498BF11F801CB00F8013B38BF11F832
:1008C000013BA2F1040298BF00F801CB38BF00F849
:1008D000013B11F0030300F02580083AC0F00880C6
:1008E00051F8043B083A51F804CBA0E80810F5E7AA
:1008F000121D5CBF51F8043B40F8043BAFF300808D
:10090000D20724BF11F8013B11F801CB48BF11F801
:10091000012B24BF00F8013B00F801CB48BF00F8D1
:10092000012B704710B5203AC0F00B80B1E8185089
:10093000203AA0E81850B1E81850A0E81850BFF4C9
:10094000F5AF5FEA027C24BFB1E81850A0E8185068
:1009500044BF18C918C0BDE810405FEA827C24BFBC
:1009600051F8043B40F8043B08BF7047D20728BF4A
:1009700031F8023B48BF11F8012B28BF20F8023B99
:1009800048BF00F8012B704702F0FF0343EA03223F
:1009900042EA024200F002B84FF000020429C0F01F
:1009A000128010F0030C00F01B80CCF1040CBCF1A1
:1009B000020F18BF00F8012BA8BF20F8022BA1EBF3
:1009C0000C0100F00DB85FEAC17C24BF00F8012BD8
:1009D00000F8012B48BF00F8012B70474FF00002D0
:1009E00000B5134694469646203922BFA0E80C5025
:1009F000A0E80C50B1F12001BFF4F7AF090728BF00
:100A0000A0E80C5048BF0CC05DF804EB890028BF7B
:100A100040F8042B08BF704748BF20F8022B11F0A4
:100A2000804F18BF00F8012B704710B5044610F036
:100A3000030F08BF11F0030F40F015804FF0013E87
:100A4000121FC0F20E8051F8043BA3EB0E0C2CEAEF
:100A5000030C1CEACE1C08BF40F8043BF0D0A1F107
:100A6000040102F10402521E08DB11F8013B002BC5
:100A700000F8013BF7D11146FFF78EFF204610BD6D
:100A80004FF0013C50F8042B51F8043B9A4221D11D
:100A9000A2EB0C03934313EACC1317D150F8042BA9
:100AA00051F8043B9A4215D1A2EB0C03934313EA8D
:100AB000CC130BD150F8042B51F8043B9A4209D1C6
:100AC000A2EB0C03934313EACC13DBD04FF00000EE
:100AD000704700BFD01A01BAB1FA81F101F01801D4
:100AE00022FA01F0CB40C1F12001DBB2C0B2C01A42
:100AF0002CFA01F3D11A914311EAC311E6D17047E0
:100B0000704770477047704700487047AC960120A7
:100B100010B5FFF7F9FF006810BD10B50446FFF7E8
:100B2000F3FF046010BD000001694A1C02610878EF
:100B3000704700B58FB0CDE901310021059105491D
:100B40007944CDE9031011466846FFF762FC0FB007
:100B500000BD0000E5FFFFFF0A6802F8010B0A6014
:100B6000704710B5436913B1AFF3008001E0FFF7A0
:100B700027FC012010BD127800F124010A70002228
:100B80004A700122EDE711684FF0FF32E9E70000FB
:100B9000074B70B50D467B44FFF7CBFF0446284654
:100BA00000F0A3FA10B14FF0FF3070BD204670BDC9
:100BB000FB7800003A2800D2303820F02002412A89
:100BC00001D3A2F13700884201D34FF0FF307047C4
:100BD000026811441378016018467047D1600549D6
:100BE000794451610449794411620021116111462F
:100BF00000F072B8EDFFFFFFDB000000426842B179
:100C0000016811F8013B23B1521EC0E900121846D9
:100C100070470121C160881E704742685AB1C3689D
:100C2000016843B983688B4205D0491E521CC0E954
:100C30000012002070474FF0FF3070472DE9F04759
:100C400091460F4680460446002614F8015B2DB1FC
:100C500000F030F80068405DC007F6D12B2D02D0BF
:100C60002D2D18D0641E4A463946204600F0EEF974
:100C700027B13968A14201D1C7F800804FF00204C2
:100C800071050BD54042002803DDFFF73DFF0460EE
:100C9000A007BDE8F08746F48066E4E70028F8DAAC
:100CA000FFF732FF04606FF00040F2E70048704742
:100CB000AC96012010B500F041FA001D10BD00BF38
:100CC000ADA9000010B50446FFF7F4FF0068005D11
:100CD00000F0010010BD00002DE9F34F4FF0000AB5
:100CE0000C4656468DB001200C9001F10C000B9083
:100CF00062690B980121904705002DD0252D2CD03D
:100D0000216A8847C0B162690B9801219047216A26
:100D100088470028F7D16269411E0B98904700E090
:100D2000761CA1690D988847216A88470028F7D169
:100D3000E1690D988847DBE7A1690D988847A842CB
:100D4000074601D1761CD3E7E1690D9888477F1CDF
:100D500002D1BAF1000F6FD06BE162690B980027E6
:100D60003D46394690472A2804D162690B980121F3
:100D700090470125DFF8D08262690B9801219047E6
:100D8000A0F130010A290AD24745E5DC07EB8701CB
:100D900000EB4107303FDFD445F01005ECE7E906F2
:100DA00001D46FF000476C280AD04C2814D0682872
:100DB00015D06A280DD074281CD07A281AD01DE0CE
:100DC00062690B98012190476C2802D045F0040518
:100DD00014E045F002050DE045F020050AE06269E7
:100DE0000B9801219047682802D045F0080505E0DE
:100DF00045F4006562690B9801219047C4E90157E9
:100E000065283DD019DC58287AD00CDC452837D02D
:100E100004DC252826D041289ED131E046282FD059
:100E2000472899D12CE05B2877D0612828D0632807
:100E30007CD0642823D15AE0F6E06F2848D008DC43
:100E400066281DD067281BD0692821D06E2816D1AE
:100E500027E0702845D0732868D0752847D07828B7
:100E60000DD14DE0A1690D988847252805463FF42E
:100E700069AFE1690D9888476D1C3FF46AAFD8E00F
:100E80000D9923466A466FF00100AFF30080C5E07C
:100E900045F0400023464FF000026060A80736D4BA
:100EA0003EE0E8077FF447AF2068011D216000683D
:100EB000290501D506701BE7290701D5068017E72C
:100EC000A90703D5F117C0E9006111E706600FE734
:100ED00045F0400023464FF008026060A80716D492
:100EE0001EE040F60E0125EA0100606016E045F0C4
:100EF000400023464FF00A026060A80707D40FE0C5
:100F000045F040006060A80708D5234610220D99DF
:100F10006FF00100AFF3008080E007E0102223466D
:100F20000D996FF00100FFF719FB77E04FF0000912
:100F300063284F46C8464B46CB4602D05B2806D0B6
:100F400038E0E80601D40120A060012732E06269A0
:100F5000D4F80CB00B98012190475E2807D14FF0D0
:100F6000010949466269D4F80CB00B989047216991
:100F700039B900210A4603AB43F82120491C08294E
:100F8000FADBD8B3216949B308F1010862690B980B
:100F9000012190475D28F4D1B9F1000F09D000205C
:100FA00003A951F82020D24341F82020401C0828F2
:100FB000F7DB03AB2069002820794FEA40701ED090
:100FC0005B462246CDF80080CDE901970D990028B7
:100FD0006FF0010020DAAFF300801FE0C11703AA11
:100FE00000EBD1614B1121F01F0102EB8302411A8A
:100FF00013680120884003431360C7E719E00D9987
:10100000224600286FF00100009702DAAFF300805B
:1010100004E0FFF749FB01E0AFF3008000280ADAA3
:10102000401C06D10C9820B14FF0FF300FB0BDE846
:10103000F08F5046FAE7E90701D10AF1010A0644A8
:1010400000200C9054E60000CCCCCC0C2DE9F05FD5
:10105000824615468B4600270AF10104B9460078FE
:10106000302801D09DB113E014F8010B0127782836
:1010700003D0582801D045B10AE00DB1102D07D199
:10108000002714F8010B102502E0082500E00A25CE
:101090000026B0460EE005FB080005FB06F101271F
:1010A0001FFA80F801EB1046B6F5803F00D3B94631
:1010B00014F8010B2946FFF77DFD0028EBDABBF1A0
:1010C000000F05D00FB1641E00E05446CBF800407D
:1010D000B9F1000F06D0FFF717FD02210160C81E0D
:1010E000BDE8F09F48EA0640FAE7007B00F0800088
:1010F00070477546FFF7DAFDAE4605006946534670
:1011000020F00700854618B020B5FFF725F9BDE8A7
:1011100020404FF000064FF000074FF000084FF05E
:10112000000B21F00701AC46ACE8C009ACE8C009EF
:10113000ACE8C009ACE8C0098D467047004870476C
:10114000CC9601200446AFF300802046FFF793F8C9
:1011500000B5B5B00020009001900290642203A970
:101160004FF4004003F06CFE642103A803F0D4FEAA
:10117000C0B94FF440505F490880488088804FF4E0
:101180008050C8800881488140008881C8810882D9
:1011900048824FF4A0408882C88208834883032095
:1011A0000877A4E06A4604210DF10E0000F08EFAE3
:1011B0006846FFF7E9FA4F4908806A4604210DF1B5
:1011C000160000F083FA6846FFF7DEFA49494880C6
:1011D0006A4604210DF11E0000F078FA6846FFF718
:1011E000D3FA444988806A4604210DF1260000F0B4
:1011F0006DFA6846FFF7C8FA3E49C8806A4604217E
:101200000DF12E0000F062FA6846FFF7BDFA394989
:1012100008816A4604210DF1360000F057FA68464D
:10122000FFF7B2FA334948816A4604210DF13E00C6
:1012300000F04CFA6846FFF7A7FA2E4988816A4603
:1012400004210DF1460000F041FA6846FFF79CFAD0
:101250002849C8816A4604210DF14E0000F036FA93
:101260006846FFF791FA234908826A4604210DF186
:10127000560000F02BFA6846FFF786FA1D494882AF
:101280006A4604210DF15E0000F020FA6846FFF77F
:101290007BFA184988826A4604210DF1660000F045
:1012A00015FA6846FFF770FA1249C8826A460421A7
:1012B0000DF16E0000F00AFA6846FFF765FA0D4975
:1012C00008836A4604210DF1760000F0FFF96846B4
:1012D000FFF75AFA074948836A4601210DF17E005B
:1012E00000F0F4F96846FFF74FFA0249087735B085
:1012F00000BD0000A205002010B508F017FAFFF7A6
:1013000027FF10BD10B5002202214FF47A7009F0BA
:10131000BFFD0F490860002202214FF47A7009F0E6
:10132000B7FD0C4908604CF250310B48FFF734FB15
:1013300041F270710948FFF72FFB002008494880EF
:10134000088003F011FA03F0C9F904F0BDFE10BDE6
:1013500060000020640000200000001050C3001056
:101360006800002010B502461078002305E0541CE8
:101370002246247860405C1CE3B24C1E9C42F6DCA2
:1013800010BD10B500F064F800F0BAF810BD000010
:1013900010B5002008490870487064210648801C78
:1013A000FFF7FAFA002005490870487064210348E5
:1013B000801CFFF7F1FA10BD64010020CA01002073
:1013C0001FB5FFF7DEFFFFF7E3FF03220021012037
:1013D00009F05EFD104908600846006830B100233E
:1013E0001A4619460C48006809F038FE00226421AC
:1013F0001E2009F04DFD094908600020084A03231A
:10140000CDE901200093039003464FF4086205A143
:10141000094809F03FFF1FBD100000201400002004
:101420001C00002042616C6C617374436F6D6D3100
:101430005461736B0000000051A2000810B504460F
:101440006421A01CFFF7A8FA00202070607010BD76
:1014500000B587B00121042003F0B8FD0121C804C4
:1014600003F0D4FD08220A21234801F0F7F80822EE
:101470000B21214801F0F2F84FF440600590022062
:101480008DF818008DF8190000208DF81A00012041
:101490008DF81B0005A9184801F098F84FF4164084
:1014A00001900020ADF80800ADF80A00ADF80C007E
:1014B000ADF810000C20ADF80E0001A90F4805F0A2
:1014C00027F801210D4804F0BFFF012240F2255109
:1014D0000A4804F0F8FF34208DF800000F208DF842
:1014E000010000208DF8020001208DF803006846FD
:1014F00003F07EFB07B000BD00080240004C004036
:1015000000B591B00121480503F060FD224800F0CC
:10151000D5F900BF204800F07DFA0028FAD14FF03D
:10152000006002901D4803901D48049040200590E3
:101530000020069007904FF48060089000200990EA
:101540000A900B904FF480300C9000200D900320F7
:101550000E9000200F90109002A90F4800F0A4FAFE
:10156000012210210C4800F081FA012280210B4851
:10157000001F04F075FF0F208DF804008DF80500A2
:1015800000208DF8060001208DF8070001A803F067
:101590002FFB11B000BD000070600240044C004001
:1015A000CC010020014600BF080900EB800042008A
:1015B00001F00F001044C0B2704700BFFEE70146C3
:1015C000002204E0501CC2B2A1F10A00C1B20A29F3
:1015D000F8DA100741EA1060704700001FB50446B2
:1015E00004F01EFC20B901F0CFFB08B903F05AFB50
:1015F00002AB03AA12A12046FEF792FF039901F065
:101600000F0007F065F88DF800000398C0F3031091
:1016100007F05EF88DF80100029901F00F0007F065
:1016200057F88DF802000298C0F3031007F050F845
:101630008DF8030004226946972001F0C6F81FBD0B
:101640002B4353513A2025642C256400F0B5034602
:101650001446012901D0022901D10C315B1E4D1C19
:1016600005EB4505052695FBF6F5022606FB01462A
:1016700035441D441846DE1703EB967605EBA605A8
:10168000642693FBF6F6AD1B4FF4C87693FBF6F693
:101690003544072695FBF6F706FB1752072A13D2A7
:1016A000DFE802F00406080A0C0E10000120F0BD6D
:1016B0000220FCE70320FAE70420F8E70520F6E71C
:1016C0000620F4E70720F2E70020F0E710B5034614
:1016D000002004E013F810401454441CE0B2884287
:1016E000F8DB10BD10B586B00446002006F0F0FF10
:1016F0008DF804000A2006F0EBFF8DF8050030207D
:101700008DF8060041208DF8070042208DF8080072
:1017100030208DF809008DF80A008DF80B00200BA1
:1017200006F0D6FF8DF80C00C4F3032006F0D0FFBE
:101730008DF80D00C4F3031006F0CAFF8DF80E00FB
:1017400004F00F0006F0C4FF8DF80F000C2101A873
:1017500000F002F806B010BD70B588B006460C4621
:10176000FF208DF800008DF8010002208DF80200A6
:10177000FF208DF803008DF804008DF805008DF82A
:10178000060022460DF107013046FFF74EF9601DB5
:10179000C1B20DF10200FFF7E5FD0546280906F08C
:1017A00097FFE11D0DF8010005F00F0006F090FF16
:1017B00004F108010DF80100032104F109000DF8FE
:1017C0000010401CC1B2684605F008F808B070BDB2
:1017D00008B5002000904FF0C0510D4800F024F9EA
:1017E000012813D14FF0C051094800F041F8694673
:1017F0000848006809F0E9FC009838B14FF08050C3
:1018000005490860BFF34F8FBFF36F8F08BD00001D
:10181000586002403000002004ED00E010B5064999
:10182000064800F025F800231A46194604480068C7
:1018300009F014FC10BD0000200000207060024080
:101840001000002010B54FF02051074800F010F8AC
:101850000021054800F026F800231A4619460348DF
:10186000006809F0FBFB10BDB864024020000020B6
:101870000246094B9A4201D2084801E00648103856
:1018800001F000531BB1064B0B40C36002E0044B58
:101890000B4083607047000010640240006002400B
:1018A0007D0F7D0F21B1026842F00102026003E06A
:1018B000026822F00102026070470000016821F016
:1018C000010101600021016041608160C16001612E
:1018D000212141614A49884204D13D21484A103AB8
:1018E00091608CE046491831884205D14FF474610B
:1018F000434A103A916082E041493031884205D133
:101900004FF474113E4A103A916078E03C494831F6
:10191000884205D14FF07461394A103A91606EE007
:1019200037496031884204D13649354A103AD1608E
:1019300065E033497831884204D13349304A103A5E
:10194000D1605CE02E499031884204D12F492C4A65
:10195000103AD16053E02A49A831884205D14FF0AE
:101960003D51274A103AD16049E02949884204D1C3
:101970003D21274A083A116041E025491831884243
:1019800005D14FF47461224A083A116037E02049CA
:101990003031884205D14FF474111D4A083A116064
:1019A0002DE01B494831884205D14FF07461184A37
:1019B000083A116023E016496031884204D1114988
:1019C000134A121F11601AE011497831884204D17C
:1019D0000D490F4A121F116011E00D4990318842E4
:1019E00004D10A490A4A121F116008E00849A831C7
:1019F000884204D14FF03D51054A121F11607047D3
:101A0000106002403D000020400F002000003D20FB
:101A100010640240014600200A6802F001020AB187
:101A2000012000E00020704730B503460A46002040
:101A300000240B4DAB4201D20A4901E0084910399C
:101A400002F000550DB14C6800E00C68064D2C40CA
:101A500004EA02050DB1012000E0002030BD0000C5
:101A600010640240006002407D0F7D0F10B501F050
:101A700080034BB122B1436943F08003436103E02B
:101A8000436923F08003436180290BD02AB10368A6
:101A900001F01E042343036004E0036801F01E0408
:101AA000A343036010BD000010B500220268134B71
:101AB0001A40CC680B6823434C6923438C69234349
:101AC000CC6923430C6A23434C6A23438C6A234327
:101AD0004C6B23438C6B23431A430260426922F010
:101AE0000702D1E90B3423431A4342610B69436077
:101AF0004B6883608B68C36010BD00003F801CF0A2
:101B0000416070477047000010B50020044908701C
:101B1000487032210248801CFEF73EFF10BD0000D5
:101B20006E05002070B505460C46002340F2E242E7
:101B300019461148006809F0CFF901281BD1224647
:101B400029460E48FEF7A9FE0C48801E447000216D
:101B50000B48FFF7A7FE00BF0948FFF75BFF00280F
:101B6000FAD10648801E41780548FFF7C9FF0121D8
:101B70000348FFF797FE70BD2000002032020020CE
:101B8000B864024010B50020084908704870C821A8
:101B90000648801CFEF700FF0020054908704870C9
:101BA000C8210348801CFEF7F7FE10BDFA02002092
:101BB000300200207047000070B58CB00446002051
:101BC0000B90601C00F0E8FF08B90CB070BD0BA9C9
:101BD000204600F0D3FD00B9F7E7062201A946F23E
:101BE000020003F02DF904F18602062101A8FFF797
:101BF0006DFD1A490878FFF7E2FC06461749098887
:101C00000812FFF7DCFC06EB002085B2280B06F07B
:101C10005FFD04F88C0FC5F3032006F059FD6070DA
:101C2000C5F3031006F054FDA07005F00F0006F098
:101C30004FFDE0708C3C01A803F07EFC04F19002A3
:101C40000C2101A8FFF742FD9DF82C2004F10F01A3
:101C5000882000F0BAFD00BFB7E700006800002050
:101C600038B50446601C00F097FF00B938BD6946DE
:101C7000204600F083FD00B9F8E7032204F10F01CC
:101C80008E2000F0A2FD00BFF0E700001FB500F0BD
:101C9000DFF8FFF777FF012009F0D6F80B4908605D
:101CA0000022C8210A2009F0F3F809490860002041
:101CB000084A0223CDE901200093039003464FF424
:101CC000906205A1074809F0E5FA1FBD2000002039
:101CD0002400002028000020456C65637454617363
:101CE0006B000000A1A4000810B50446C821A01C88
:101CF000FEF752FE00202070607010BD00B587B066
:101D00000121022003F062F90121102003F08EF975
:101D100007220621234800F0A1FC07221146214892
:101D200000F09CFCC020059002208DF818008DF872
:101D3000190000208DF81A0001208DF81B0005A95C
:101D4000184800F043FC4FF4165001900020ADF805
:101D50000800ADF80A00ADF80C00ADF810000C203A
:101D6000ADF80E0001A9104804F0D2FB01210E4885
:101D700004F06AFB012240F225510B4804F0A3FB5A
:101D800025208DF800000F208DF8010000208DF82F
:101D9000020001208DF80300684602F029FF07B019
:101DA00000BD0000000402400010014000B591B0E9
:101DB0000121880503F00AF92248FFF77FFD00BFE3
:101DC0002048FFF727FE0028FAD14FF0006002906C
:101DD0001D4803901D480490402005900020069067
:101DE00007904FF480600890002009900A900B90B3
:101DF0004FF480300C9000200D9003200E900020B6
:101E00000F90109002A90F48FFF74EFE01221021FB
:101E10000C48FFF72BFE012280210B48001F04F025
:101E20001FFB46208DF804000F208DF805000020D0
:101E30008DF8060001208DF8070001A802F0D8FEF9
:101E400011B000BDB864024004100140320200200D
:101E500010B5FFF753FFFFF7A9FF10BD51B1820086
:101E6000A2F1C042126842F001038200A2F1C04216
:101E7000136009E08200A2F1C0421268034B1A40CD
:101E80008300A3F1C0431A6070470000FEFF0F00FB
:101E900030B50021002200230468A400A4F1C0444E
:101EA0002168444C2140D0E901452C43C5682C43AE
:101EB00005692C4345692C4385692C43C5692C432E
:101EC000056A2C43456A2C43856A2C43C56A2C431A
:101ED000056B2C4321430468A400A4F1C044216095
:101EE0008468082C0BD10468A400A4F1C0442468C1
:101EF00044F040050468A400A4F1C04425600468CF
:101F0000641CA400A4F1C044226802F04042446B67
:101F10002468456B6D6844EA0514456BAD6844EA76
:101F20000524456BAD8944EA0544456B2D8A44EA96
:101F30000554456B2D7D44EA0564456BAD692C4322
:101F400022430468641CA400A4F1C0442260C46A53
:101F5000B4F5804F24D10468A400A4F1C044D4F89F
:101F6000043103F04043846B2468856B6D6844EA58
:101F70000514856BAD6844EA0524856B2D8A44EA17
:101F80000554856B2D7D44EA0564856BAD692C4352
:101F900023430468A400A4F1C044C4F8043107E05A
:101FA0006FF070450468A400A4F1C044C4F8045163
:101FB00030BD00008000F7FF10B50446AA200A4992
:101FC0000880552009490880802007490880AA20F8
:101FD000088055200549088030214FF0C840015342
:101FE000801100F021F810BDAA0A006454050064B5
:101FF00010B50446AA200A490880552009490880DE
:10200000802007490880AA200880552005490880BB
:1020100050214FF0C8400153801100F005F810BD69
:10202000AA0A00645405006430B50146002200236A
:10203000012418E0491E4FF0C8400288038802F0CE
:10204000400003F04005A84201D1002030BD4FF010
:10205000C8400288038802F0400003F04005A8420F
:1020600001D10020F2E709B1002CE3D101B903242A
:102070002046EBE700B599B00121782002F0A6FFD9
:102080000121084602F0B2FF4CF2037017900220C3
:102090008DF8600000208DF8620003208DF861004B
:1020A00001208DF8630017A9954800F08FFA4FF6CC
:1020B0008070179017A9934800F088FA4FF23F00FC
:1020C000179017A9904800F081FA3F20179017A9A0
:1020D0008E4800F07BFA4FF46050179017A988489B
:1020E00000F074FA3820179017A9864800F06EFAAD
:1020F0003020179017A9824800F068FA4FF400705A
:10210000179017A9814800F061FA0C2200217C4841
:1021100000F0A4FA0C220121794800F09FFA0C2269
:102120000421774800F09AFA0C220521744800F047
:1021300095FA0C220821724800F090FA0C2209212D
:102140006F4800F08BFA0C220A216D4800F086FAE5
:102150000C220B216A4800F081FA0C2211466848D3
:1021600000F07CFA0C220D21654800F077FA0C2271
:102170000E21634800F072FA0C220F21604800F033
:102180006DFA0C2203215F4800F068FA0C2204214A
:102190005C4800F063FA0C2205215A4800F05EFA10
:1021A0000C220721574800F059FA0C220821554803
:1021B00000F054FA0C220921524800F04FFA0C2288
:1021C0000A21504800F04AFA0C220B214D4800F039
:1021D00045FA0C2211464B4800F040FA0C220D2122
:1021E000484800F03BFA0C220E21464800F036FA2F
:1021F0000C220F21434800F031FA0C220021424802
:1022000000F02CFA0C2201213F4800F027FA0C22A2
:1022100002213D4800F022FA0C2203213A4800F046
:102220001DFA0C220421384800F018FA0C2205216E
:10223000354800F013FA0C221146334800F00EFA2C
:102240000C220D21304800F009FA0C220E212E48F4
:1022500000F004FA0C220F212B4800F0FFF90C22A9
:1022600000212A4800F0FAF90C220121274800F049
:10227000F5F90C220221254800F0F0F90C22032187
:10228000224800F0EBF90C220421204800F0E6F986
:102290000C2205211D4800F0E1F90C2209211B4800
:1022A00000F0DCF90B200190002002901220039036
:1022B00000200490059006904FF080500790022077
:1022C00008900020099008200A9010200B90002010
:1022D0000C900E900F9010904FF4805011900020B1
:1022E00012901390149001A81590169008A8FFF76B
:1022F000CFFD01210220FFF7B1FD19B000BD0000A4
:10230000000C02400010024000140240001802407D
:1023100010B5AA23094C23805523094C2380F024AF
:102320004FF0C8435C5206E04FF0C8435B5A20F8B8
:10233000023B891C521E002AF6D110BDAAAA0064D5
:1023400054550064F0B504460D461646012700BFFB
:1023500034F8021B284600F009F80746AD1C761E2B
:102360000FB9002EF4D13846F0BD000030B5054657
:102370000C46AA2007490880552007490880A0205C
:10238000044908804FF0C84044534014FFF74CFE06
:1023900030BD0000AA0A00645405006400B52DEDAC
:1023A000108B8DB0B0EE40AAF0EE60AAB0EE418A7C
:1023B000F0EE618AB0EE429AF0EE629A53EC192B7D
:1023C0009FED720B51EC100B09F042FC41EC1E0B1F
:1023D0009FED700B53EC102B09F03AFC41EC1D0BF8
:1023E0009FED6E0B53EC102B09F016FA41EC1C0B11
:1023F000B0EE4C0AF0EE6C0A04F0A6FFB0EE40BA64
:10240000F0EE60BA9FED670B53EC102B51EC1B0BF9
:1024100009F01EFC53EC192B9FED640BCDE90A016A
:1024200051EC100B09F014FC41EC1E0B9FED590B05
:1024300053EC102B09F00CFC41EC1D0B9FED570BDE
:1024400053EC102B09F0E8F941EC1C0BB0EE4C0AF0
:10245000F0EE6C0A04F078FFB0EE40BAF0EE60BA2D
:102460009FED540B53EC102B51EC1B0B09F0F0FBC0
:1024700053EC182B9FED4D0BCDE9060151EC100BE1
:1024800009F0E6FB41EC1E0B9FED420B53EC102BC9
:1024900009F0DEFB41EC1D0B9FED400B53EC102BC4
:1024A00009F0BAF941EC1C0BB0EE4C0AF0EE6C0AE4
:1024B00004F04AFFB0EE40BAF0EE60BA9FED3F0B79
:1024C00053EC102B51EC1B0B09F0C2FB9FED310BB1
:1024D00053EC102BCDE9020151EC180B09F0B8FBBD
:1024E00041EC1F0B9FED2D0B53EC102B09F094F9D1
:1024F00041EC1E0BB0EE4E0AF0EE6E0A04F024FF23
:10250000B0EE40DAF0EE60DA9FED2E0B53EC102BBC
:1025100051EC1D0B09F09CFB41EC1B0B9FED1F0BBD
:1025200053EC102B51EC1A0B09F09EFD41EC1C0BE7
:1025300053EC1B2B09F098FDCDE900019DED020B3A
:1025400053EC102B9DED000B51EC100B09F08CFDA2
:10255000CDE904019DED060B53EC102B9DED040B12
:1025600051EC100B09F0A4F8CDE908019DED0A0B20
:1025700053EC102B9DED080B51EC100B09F074FD82
:1025800041EC100B0DB0BDEC108B00BD0000000045
:10259000000010404AD8124DFB2109400000000005
:1025A00000806640894160E5D022AB3F000000001A
:1025B00000000040EE7C3F355EBA03407B14AE471E
:1025C000E17A943FA4703D0AD7A3FE3FF0B50A46D6
:1025D00000210023002400BF3DE0012505FA01F39E
:1025E000156805EA03049C4234D105684F000326B0
:1025F000BE40B543056015794E00B54006683543C9
:1026000005601579012D02D01579022D16D1856846
:102610004F000326BE40B543856055794E00B54056
:10262000866835438560456801268E40B543456020
:10263000456896798E40B6B235434560C5684F000F
:102640000326BE40B543C560D5794E00B540C66887
:102650003543C560491C1029BFD3F0BDF0B5002338
:1026600000244D07ED0E02FA05F3CE1000F120050F
:1026700055F826504E07F70E0F26BE40B543CF1033
:1026800000F1200646F82750CE1000F1200555F83D
:10269000265045EA0304CE1000F1200545F82640F7
:1026A000F0BD418370470183704700002DE9F0477A
:1026B000C0B0074689461546002441222146641CC5
:1026C00001A8425430222146641C42542146641C15
:1026D00042542146641C4254002643E017F8160079
:1026E000FEF760FF824637F816100812FEF75AFF11
:1026F00000EBC00101EB00100AEB800808F064F861
:1027000008EBC80202EB08121B4B03EB420101AAC3
:1027100010191422FEF789F908F068F804F1140082
:10272000C4B2862D15D108F04FF808EBC80202EBB1
:102730000812114B03EB420202F1140101AA101915
:102740001822FEF772F908F051F804F11800C4B22B
:1027500005E0A62D00D103E040B0BDE8F08700BF42
:10276000701CC6B24E45B9DBE8B2224601A900F0A2
:102770002CF800BFF0E70000000000102DE9F04742
:1027800004460D460027B846A07B05F003FC8146B1
:10279000607B05F0FFFB49EA00102870002608E086
:1027A000781CC7B214F8011B032900D103E0701C88
:1027B000C6B2FF2EF4DB00BF28781230B84201D138
:1027C0004FF001084046BDE8F0872DE9F041C4B064
:1027D00006460F461446FC2105A8FEF7FFF8142113
:1027E0006846FEF7FBF8052269464FF4405002F0B8
:1027F00027FB02208DF814000A2269460DF115000E
:10280000FEF713F9300905F063FF8DF81F0006F09D
:102810000F0005F05DFF8DF82000200905F058FF3E
:102820008DF8210004F00F0005F052FF8DF8220012
:102830005CB157B1002506E0795D05AA05F10F00EE
:102840001154681CC5B2A542F6DB04F10F00C1B2F9
:1028500005A8FEF787FD80464FEA181005F038FFFF
:1028600005AA04F10F01505408F00F0005F030FFE5
:1028700005AA04F110015054032104F11100115470
:10288000401CC1B205A803F069FA44B0BDE8F0816C
:102890001FB500F033F800F05FFA012008F0D4FA19
:1028A0000F4908600022C8210A2008F0F1FA0D49FA
:1028B00008600022C821012008F0EAFA0A490860ED
:1028C00000200A4A0423CDE9012000930390034627
:1028D0004FF4086206A1084808F0DCFC1FBD0000A8
:1028E0003000002034000020380000202C000020A0
:1028F00047534D5461736B00F5A4000810B500F008
:10290000CDF800F003F800F077F810BD1CB50121F8
:102910001348FFF7C6FE012000908DF80400022046
:102920008DF8050000208DF8060001208DF80700C5
:1029300069460B48FFF74AFE0420009001208DF8FD
:10294000040002208DF8050000208DF8060001200B
:102950008DF8070069460248FFF738FE1CBD0000ED
:102960000008024010B532E001211A48FFF799FE35
:1029700040F2771007F074FF01211648FFF793FE2D
:1029800040F2E24214A1002002F0C8FF00B91EE0AC
:10299000FA2007F065FF01210E48FFF782FEFA20BA
:1029A00007F05EFF01210B48FFF77DFE40F2771034
:1029B00007F056FF01210748FFF773FE40F6A662B5
:1029C0000AA1002002F0AAFF00B101E000BFCBE79E
:1029D00000BF10BD000802404E4F524D414C2050E8
:1029E0004F57455220444F574E000000534D53203F
:1029F000526561647900000000B591B0012148057D
:102A000002F0E4FA2248FEF759FF00BF2048FFF722
:102A100001F80028FAD14FF0006002901D480390A1
:102A20001D480490402005900020069007904FF428
:102A300080600890002009900A900B904FF480303D
:102A40000C9000200D9003200E9000200F9010900D
:102A500002A90F48FFF728F8012210210C48FFF7C0
:102A600005F8012280210B48001F03F0F9FC0E201D
:102A70008DF804000F208DF8050000208DF8060069
:102A800001208DF8070001A802F0B2F811B000BDD6
:102A90005860024004480040DC03002000B587B0C5
:102AA0000121022002F092FA0121880402F0AEFA1C
:102AB00007220A212448FFF7D1FD07220B212248D3
:102AC000FFF7CCFD4FF44060059002208DF8180010
:102AD0008DF8190000208DF81A0001208DF81B00D8
:102AE00005A91948FFF772FD4FF4614001900020DD
:102AF000ADF80800ADF80A00ADF80C004FF44070D6
:102B0000ADF810000C20ADF80E0001A90F4803F03D
:102B1000FFFC01210D4803F097FC012240F22551F2
:102B20000A4803F0D0FC27208DF800000F208DF814
:102B3000010000208DF8020001208DF80300684696
:102B400002F056F807B000BD000402400048004003
:102B500010B52DED048BB0EE408AF0EE608A9FED4B
:102B60000A0B53EC102B51EC180B09F071F841ECE7
:102B7000190B9FED070B53EC102B08F099FD41EC5E
:102B8000100BBDEC048B10BD9A999999E193E1402B
:102B90009CC420B07258764010B588B00446142109
:102BA00003A8FDF71BFF0EA207CA8DE80700052248
:102BB00003A94FF4405002F043F90A2203A920462A
:102BC000FDF720FE10B9012008B010BD0A226946A9
:102BD0002046FDF717FE08B90120F5E70020F3E7CE
:102BE0003939393939393939393900008EB02AE063
:102BF00015A005F0C3FE1A4805F0C0FE194805F0FF
:102C0000BDFE194805F0BAFE184805F0B7FE0023CE
:102C10005A1E01A91648006808F05EF9012812D171
:102C200014A101A8FDF72CFF10B903F023F80AE066
:102C300011A101A8FDF724FF10B902F0D1FE02E0B6
:102C40000EA005F09BFED3E70D0A0D0AC7EBD1A13C
:102C5000D4F1C9E8D6C3B2CECAFDA3BA00000000C1
:102C600034C6000830C50008D4C5000890C5000867
:102C70004C000020320D0000340D00000D0A20CA67
:102C8000E4C8EBB8F1CABDB2BBD5FDC8B7A3ACC7A9
:102C9000EBD6D8D0C2CAE4C8EBA3A10D0A0000004D
:102CA00030B5B3B005460C46002340F2E242194667
:102CB0001948006808F010F9012828D14FF0C051D8
:102CC0001648FEF7D5FD224629461548FDF7E5FDD5
:102CD0001348801E447000211048FEF7E3FD00BF3A
:102CE0000E48FEF797FE0028FAD10D48801E417865
:102CF0000A48FEF705FF00231A4601A909480068A3
:102D000008F0EAF801210548FEF7CCFD01E001F0EA
:102D1000B5FF33B030BD00003000002058600240E5
:102D2000DC0300203800002010B50446002020708D
:102D30006070C821A01CFDF72FFE10BD4278C82A84
:102D400008DA0378821CD1540278521C027042784F
:102D5000521C42707047000010B5002008490870EE
:102D60004870C8210648801CFDF716FE0020054962
:102D700008704870C8210348801CFDF70DFE10BD87
:102D8000A4040020DA03002000B58DB0FFF7EAFDAF
:102D9000FA224FA14FA002F0C1FD28B94FA005F0C3
:102DA000EDFD00200DB000BDFA2249A152A002F0B5
:102DB000B5FD20B954A005F0E1FD0020F2E7FA22AC
:102DC00043A158A002F0AAFD20B958A005F0D6FDF5
:102DD0000020E7E7FA223EA15AA002F09FFD20B9A9
:102DE0005CA005F0CBFD0020DCE7FA225FA161A02A
:102DF00002F094FD20B965A005F0C0FD0020D1E7E8
:102E0000FA2233A168A002F089FD20B969A005F07B
:102E1000B5FD0020C6E74FF4FA726CA16FA002F076
:102E20007DFD20B970A005F0A9FD0020BAE7FA20C9
:102E300007F016FDFA2272A174A002F06FFD20B90E
:102E400075A005F09BFD0020ACE74FF4FA7220A1BD
:102E500077A002F063FD20B978A0FDF791FA002079
:102E6000A0E740F2EE2007F0FBFC40F6C41218A1E8
:102E700077A002F053FD20B979A005F07FFD002076
:102E800090E70B227C494FF4804001F0D9FF7A4B48
:102E90001033794A79A16846FDF77EFA40F6C412EC
:102EA0000BA1684602F03AFD20B97CA005F066FD52
:102EB000002077E740F6A6627CA1002002F02EFDFC
:102EC00020B97DA005F05AFD00206BE7012069E7DD
:102ED0004F4B000041540D0A000000000D0A4753FB
:102EE0004DB4AEBFDACDA8D0C5BDD3BFDAD2ECB3F6
:102EF000A3A3A10D0A00000041542B4950523D35B7
:102F0000373630300D0A00000D0A47534DCDA8D09A
:102F1000C5B2A8CCD8C2CAC9E8D6C3D2ECB3A3A361
:102F2000A10D0A00415445300D0A00000D0ABBD81E
:102F3000CFD4C4A3CABDB9D8B1D5D2ECB3A3A3A191
:102F40000D0A000041542B4349504D4F44453D313B
:102F50000D0A00000D0ACDB8C3F7B4ABCAE4C5E44E
:102F6000D6C3D2ECB3A3A3A10D0A00000D0A4F4BA8
:102F70000D0A000041542B434950434346473D3519
:102F80002C322C313032342C310D0A000D0A4753CB
:102F90004DB4ABCAE4B2CECAFDC5E4D6C3D2ECB3DD
:102FA000A3A3A10D0A00000041542B434C54533DF0
:102FB000310D0A000D0A47534DBBF1C8A1CAB1BC7F
:102FC000E4D2ECB3A3A3A10D0A0000002B435049A7
:102FD0004E3A2052454144590000000041542B43D1
:102FE00050494E3F0D0A00000D0A53494DBFA852EB
:102FF00045414459D2ECB3A3A3A10D0A000000003F
:103000002B435245473A20302C31000041542B438A
:103010005245473F0D0A00000D0ACDF8C2E7D7A27E
:10302000B2E1D0C5CFA2D2ECB3A3A3A10D0A000098
:1030300041542B43474154543D300D000D0A475035
:103040005253B7D6C0EBD2ECB3A30D0A0000000078
:1030500041542B43474154543D310D0A00000000B8
:103060000D0A47505253B8BDD7C5D7B4CCACD2EC3B
:10307000B3A3A3A10D0A0000C403002041542B43B5
:10308000495053544152543D22544350222C22253E
:1030900073222C222573220D0A0000000D0A5443CE
:1030A00050C1ACBDD3D2ECB3A30D0A000D0A434FFF
:1030B0004E4E4543540D0A000D0ACEDEB7A8C1ACF2
:1030C000BDD3B7FECEF1C6F74950B6CBBFDA0D0A75
:1030D00000000000FEB5044600200090601CFFF7D1
:1030E0005BFD00B9FEBD69462046FFF747FB00B90E
:1030F000F8E7207C04F04EFF0646E07B04F04AFF30
:1031000046EA0010C5B22846FEF74CFA8DF80B00CF
:10311000A07C04F03FFF0646607C04F03BFF46EADB
:103120000010C5B22846FEF73DFA8DF80900207D53
:1031300004F030FF0646E07C04F02CFF46EA001065
:10314000C5B22846FEF72EFA8DF80A00A07D04F0DD
:1031500021FF0646607D04F01DFF46EA0010C5B25F
:103160002846FEF71FFA8DF80400207E04F012FFB7
:103170000646E07D04F00EFF46EA0010C5B2284680
:10318000FEF710FA8DF80500A07E04F003FF064656
:10319000607E04F0FFFE46EA0010C5B22846FEF746
:1031A00001FA8DF80600012002F0EAF800EBC001F8
:1031B00001EB00109DF80B1001EB80059DF80A2033
:1031C0009DF809102846FEF741FA8DF80800002303
:1031D00040F2E24219460D48006807F07DFE0128E2
:1031E00011D101A9002002F03FF902A9002002F04C
:1031F000D7F8012007F034FB00231A46194603488C
:10320000006807F02BFF00BF6CE7000054010020AE
:1032100038B5044600200090601CFFF7BDFC00B9E3
:1032200038BD69462046FFF7A9FA00B9F8E7E07B08
:10323000302808D104F10F050023FA22294603485B
:10324000006807F00BFF00BFEAE700006C000020F9
:1032500038B5044600200090601CFFF79DFC00B9C3
:1032600038BD69462046FFF789FA00B9F8E79DF8AE
:1032700000001230C1B22046FEF754FC00BFEFE759
:103280003EB5044600200290601CFFF785FC00B9A3
:103290003EBD02A92046FFF771FA00B9F8E7042203
:1032A00004F10F016846FDF7C0FB04226946912036
:1032B000FFF78BFA00BFEBE738B50446002000901B
:1032C000601CFFF769FC00B938BD69462046FFF76E
:1032D00055FA00B9F8E79DF800001230C1B2204657
:1032E000FEF720FC00BFEFE77047000010B58AB082
:1032F000044600200990601CFFF74EFC08B90AB094
:1033000010BD09A92046FFF739FA00B9F7E704AA6A
:1033100009A10C48FDF704F90DF10A00431E02AAA9
:1033200009A1009004A8FDF7FBF8032202A98C2054
:10333000FFF74BFA00BFE2E7252A5B5E3A5D3A25CC
:103340007300000010C300085625632E2563256313
:103350000000000010B5E6B00446002065904FF470
:10336000C87101A8FDF73AFB601CFFF715FC08B90E
:1033700066B010BD65A92046FFF700FA00B9F7E76F
:1033800001AA9DF8941104F10F0001F024FCE07BE8
:1033900030280AD19DF8942101A9400201F06EFD68
:1033A00006F0C4F908F060F91EE0E07B312807D18F
:1033B0009DF8942101A94FF4E04001F05FFD13E076
:1033C000E07B322809D19DF8942101A94FF40040F7
:1033D00001F054FDFDF7BCFE06E0012204F10F01EF
:1033E000C120FFF7F2F9C3E7012204F10F018120A8
:1033F000FFF7EBF900BFBBE72DE9F04F8DB00446B6
:1034000000200C90601CFFF7C7FB10B90DB0BDE8A1
:10341000F08F0CA92046FFF7B1F900B9F6E79DF847
:1034200030001238C1B204F10F00FEF795F9207D8B
:1034300004F0B0FD8346E07C04F0ACFD4BEA0010E4
:10344000C6B2E07B412810D1207C30280DD1607CB1
:1034500030280AD1A07C302807D104230022FF2184
:103460000846009606F0BCFC7AE0E07B392847D19C
:10347000207C04F08FFD8046607C04F08BFD82464A
:10348000A07C04F087FD0B90002736E0002514E0B7
:1034900004F115014144485D04F07CFD834604F1CC
:1034A0001501C85D04F076FD00231A4659460096C2
:1034B000029006F095FC681CC5B25545E8DB002576
:1034C00016E004F1150141445144485D04F062FDE9
:1034D00040F0100B04F11501C85D04F05BFD0423FE
:1034E000002259460096029006F07AFC681CC5B28C
:1034F0000B988542E5DB781CC7B24745C6DB2FE059
:10350000E07B42282BD1207C302828D1607C3028D9
:1035100025D1A07C302822D1607D04F03BFD4FEA0C
:103520000019A07D04F036FD48444FF6FF7101EA12
:103530000019E07D04F02EFD48444FF6FF7101EACA
:103540000019207E04F026FD48441FFA80F9042368
:103550004A4600210846009606F042FC00E055E786
:10356000062204F10F0103A8FDF75FFA062203A962
:103570008420FFF72AF900BF48E72DE9F04F8DB00E
:10358000044600200C90601CFFF706FB10B90DB03C
:10359000BDE8F08F0CA92046FFF7F0F800B9F6E778
:1035A0009DF830001238C1B204F10F00FEF7D4F8D4
:1035B000E67CE07B412810D1207C30280DD1607C56
:1035C00030280AD1A07C302807D105230022FF2112
:1035D0000846009606F004FC7AE0E07B392847D1E3
:1035E000207C04F0D7FC8046607C04F0D3FC82464B
:1035F000A07C04F0CFFC8346002736E0002514E0D1
:1036000004F114014144485D04F0C4FC04F11401C8
:103610000390C85D04F0BEFC0523002200960290D2
:10362000039906F0DDFB681CC5B25545E8DB0025B3
:1036300017E004F1140141445144485D04F0AAFC30
:1036400040F0100004F114010390C85D04F0A2FCE6
:103650000523002200960290039906F0C1FB681C26
:10366000C5B25D45E5DB781CC7B24745C6DB2FE038
:10367000E07B42282BD1207C302828D1607C302868
:1036800025D1A07C302822D1207D04F083FC4FEA94
:103690000019607D04F07EFC48444FF6FF7101EA9A
:1036A0000019A07D04F076FC48444FF6FF7101EA52
:1036B0000019E07D04F06EFC48441FFA80F90523F0
:1036C0004A4600210846009606F08AFB00E05EE7C5
:1036D000052204F10F0104A8FDF7A7F9052204A9AA
:1036E0008520FFF772F800BF51E700002DE9F04395
:1036F000CDB0054600204C90642133A8FDF76EF94B
:10370000002032908146681CFFF746FA10B94DB090
:10371000BDE8F0834CA92846FFF730F800B9F6E77A
:103720009DF83001401E112190FBF1F201FB1200C7
:1037300038B99DF83001401E90FBF1F000F0FF0811
:1037400000E0E4E7E87B312866D1002461E004EB87
:10375000041105F11000405CADF8CC0005F110003B
:10376000112101FB04004078ADF8CE0005F11000F6
:1037700001FB04008078ADF8D00005F1100001FBDA
:103780000400C078ADF8D200BDF8CC10C8B204F087
:1037900001FC0601BDF8CE10C8B204F0FBFB3044BA
:1037A0004FF6FF7101EA0016BDF8D010C8B204F060
:1037B000F1FB30444FF6FF7101EA0016BDF8D2105C
:1037C000C8B204F0E7FB304486B232A9304606F0B6
:1037D000D7FA00B99BE735A801F0AEFE00270CE050
:1037E00005F11400112101FB0400C15D07F1100077
:1037F00033AA22F81010781CC7B20D2FF0DBBDF8E9
:10380000C810574A02EB01301D2233A901F036FBE4
:10381000641C44459BDB6BE0E87B322850D10024DC
:103820004BE004EB041105F11000405CADF8CC0056
:1038300005F11000112101FB04004078ADF8CE0025
:1038400005F1100001FB04008078ADF8D00005F10F
:10385000100001FB0400C078ADF8D200BDF8CC1018
:10386000C8B204F097FB0601BDF8CE10C8B204F050
:1038700091FB30444FF6FF7101EA0016BDF8D010FD
:10388000C8B204F087FB30444FF6FF7101EA00161E
:10389000BDF8D210C8B204F07DFB304486B232A924
:1038A000304606F06DFA00B931E7BDF8C8102C4A71
:1038B00002EB013001F086FA641C4445B1DB17E0ED
:1038C000E87B332814D0E87B34280BD1002406E0B1
:1038D0004FF4801101EB044001F042FA641C3F2CCC
:1038E000F6DB05E005226946C220FEF76EFF0EE713
:1038F00006F06AFF00201B494880088041F2707181
:103900001948FDF749F800F02FFF00F0E7FE02F03C
:103910008BFB06F06BFF002412E000270DE005F1A1
:103920001000112101FB0400C05D0DF8090009F130
:10393000010000F0FF09781CC7B2042FEFDB641C04
:103940004445EADBE87B0DF828004FEA8800401C7C
:10395000C2B26946C220FEF738FF00BFD7E60000BA
:10396000001010006800002050C3001030B5E9B00E
:103970000446002068904FF4C87104A8FDF72EF8A3
:10398000601CFFF709F908B969B030BD68A9204685
:10399000FEF7F4FE00B9F7E7E07B41283CD1207C3C
:1039A000302839D1607C302836D1A07C302833D102
:1039B0000DF14A0001F0C0FD9DF8A001083881B268
:1039C0000DF1620204F1170001F005F900251FE076
:1039D00005EB4501174A02EB4101888803A906F06F
:1039E000CFF9BDF80C10144A02EB0130402204A9B3
:1039F00001F026FA9DF8A01101F14402BDF80C1067
:103A00000D4B03EB013004A901F038FA681C85B2B4
:103A10000A480088A842DBDC0A2204F10F0168464C
:103A2000FDF703F80A2269468320FEF7CEFE00BFA9
:103A3000AAE7000050C3001000101000680000202A
:103A40002DE9F04F8BB0044600200A90601CFFF770
:103A5000A3F810B90BB0BDE8F08F0AA92046FEF715
:103A60008DFE00B9F6E7E07B412811D1207C30289B
:103A70000ED1607C30280BD1A07C302808D10020EA
:103A800006230246FF210090084606F0A9F97DE0D2
:103A9000E07B39284AD1207C04F07CFA0746607C20
:103AA00004F078FA8146A07C04F074FA824600267D
:103AB00039E0002516E004F113013944485D04F0B3
:103AC00069FA834604F11301885D04F063FA0190FA
:103AD00000200623024659460090019806F080F91E
:103AE000681CC5B24D45E6DB002518E004F1130162
:103AF00039444944485D04F04DFA40F0100B04F19C
:103B00001301885D04F046FA019000200623024666
:103B100059460090019806F063F9681CC5B25545F6
:103B2000E4DB701CC6B2BE42C3DB2FE0E07B422860
:103B30002BD1207C302828D1607C302825D1A07C56
:103B4000302822D1E07C04F025FA4FEA0018207DCD
:103B500004F020FA40444FF6FF7101EA0018607D3E
:103B600004F018FA40444FF6FF7101EA0018A07DF6
:103B700004F010FA40441FFA80F800200623424661
:103B80000146009006F02CF900E063E7042204F1FE
:103B90000F0102A8FCF749FF042202A98620FEF7C4
:103BA00014FE00BF56E738B5044600200090601CA4
:103BB000FEF7F2FF00B938BD69462046FEF7DEFD8C
:103BC00000B9F8E7FA2006F04BFEE07B312801D17E
:103BD00001F068F8E07B32280CD1FFF7D5F8012816
:103BE00006D1012204F10F01BF20FEF7EEFD0BE02C
:103BF00001F058F8E07B332806D19DF80000123020
:103C0000C1B22046FDF78EFF00BFD4E710B5A0B0CB
:103C1000044620210AA8FCF7E1FE00200990079045
:103C2000089006900590601CFEF7B6FF08B920B01A
:103C300010BD05A92046FEF7A1FD00B9F7E79DF8E4
:103C4000142004F10F0112A8FCF7EFFE09AA06AB3D
:103C5000901E08A9CDE90232CDE90010031F07AA82
:103C60002BA112A8FCF75CFC062846D1BDF91C006C
:103C7000002841DBBDF91C00FF283DDCBDF91E001A
:103C8000002839DBBDF91E00FF2835DCBDF9200016
:103C9000002831DBBDF92000FF282DDCBDF9220012
:103CA000002829DBBDF92200FF2825DC0698002822
:103CB00022DB0698B0F5803F1EDA9DF824003B28F1
:103CC0001AD11AAA18A112A8FCF72AFC1EAA18A138
:103CD00012A8FCF725FC10221AA90AA8FCF7A5FED9
:103CE00006221EA90EA8FCF7A0FE0F220AA94FF477
:103CF000804001F0C3F800E099E7002211469420CB
:103D0000FEF763FDFA2006F0ABFD00F0CBFF0000EC
:103D10002568642E2568642E2568642E2568642C29
:103D20002564256300000000255B5E2C5D0000001B
:103D3000252A5B5E2C5D2C255B5E3B5D0000000050
:103D400038B50446601CFEF727FF00B938BD694648
:103D50002046FEF713FD00B9F8E702F02DF8012820
:103D60000BD14FF4FA7208A109A001F0D7FD48B9B0
:103D7000FFF70AF830B900F095FFFFF705F808B92A
:103D800000F090FF00BFE1E72B4353513A000000E1
:103D900041542B4353510D0A0000000010B58CB064
:103DA000044600200B90282101A8FCF717FE601C98
:103DB000FEF7F2FE08B90CB010BD0BA92046FEF7C5
:103DC000DDFC00B9F7E701AA9DF82C1004F10F0003
:103DD00000F001FF9DF82C2001A94FF4104001F0E4
:103DE0004DF802F021F900221146A220FEF7EDFC69
:103DF00000BFE0E770B50446607804F0CBF8050139
:103E0000A07804F0C7F828444FF6FF7101EA0015C6
:103E1000E07804F0BFF828444FF6FF7101EA00157E
:103E2000207904F0B7F8284485B2FA2006F018FD8E
:103E3000284601F069FC70BD2DE9F043A3B00446AB
:103E4000182110A8FCF7CAFD0FA9204600F09AFE21
:103E500010B923B0BDE8F083607804F09BF800014E
:103E6000ADF88000A07804F095F8BDF88010084403
:103E70004FF6FF7101EA0010ADF88000E07804F021
:103E800089F8BDF8801008444FF6FF7101EA001070
:103E9000ADF88000207904F07DF8BDF8801008446A
:103EA00080B2ADF88000A07A04F074F88146607AA0
:103EB00004F070F849EA0010C0B28DF88200207B4F
:103EC00004F068F88146E07A04F064F849EA0010EA
:103ED000C0B28DF88300607D04F05CF80001ADF89D
:103EE0008800A07D04F056F8BDF8881008444FF60D
:103EF000FF7101EA0010ADF88800E07D04F04AF897
:103F0000BDF8881008444FF6FF7101EA0010ADF8C3
:103F10008800207E04F03EF8BDF88810084480B286
:103F2000ADF88800BDF88010C8B2FDF73BFB8146B4
:103F3000BDF880100812FDF735FB00EBC00101EB66
:103F4000001009EB8006BDF88000BC490988884252
:103F500000D07EE79DF83C00502846DC06F034FC9B
:103F600006EBC60000EB0610B54A02EB4001322218
:103F70006846FCF75AFD06EBC60101EB0611B04A94
:103F800002EB41000422611CFCF74FFD06EBC60169
:103F900001EB0611AA4A02EB4101081D222204F19D
:103FA0000901FCF742FD9DF83C0046280ED106EBC6
:103FB000C60101EB0611A24A02EB410101F1260004
:103FC000062204F14901FCF730FD0CE006EBC601C6
:103FD00001EB06119A4A02EB410101F12600302261
:103FE0000621FCF7D1FC06F001FC9DF8010003F06E
:103FF000D1FF0001ADF874009DF8020003F0CAFF84
:10400000BDF87C1008444FF6FF7101EA0010ADF8CE
:1040100074009DF8030003F0BDFFBDF87C10084458
:104020004FF6FF7101EA0010ADF874009DF804002E
:1040300003F0B0FFBDF87C10084480B2ADF8740006
:104040009DF8020003F0A6FF81469DF8010003F0F1
:10405000A1FF49EA0010C0B28DF877009DF810006A
:1040600003F098FF0001ADF87C009DF8110003F00B
:1040700091FFBDF87C1008444FF6FF7101EA001073
:10408000ADF87C009DF8120003F084FFBDF87C10B1
:1040900008444FF6FF7101EA0010ADF87C009DF86E
:1040A000130003F077FFBDF87C10084480B2ADF830
:1040B0007C00BDF88810C8B2FDF774FA8146BDF8DF
:1040C00088100812FDF76EFA00EBC00101EB00103A
:1040D00009EB8007BDF87C10C8B2FDF763FA814692
:1040E000BDF87C100812FDF75DFA00EBC00101EB92
:1040F000001009EB80089DF883109DF8772091420D
:1041000008D1A7EB0800002801DB014600E041428E
:10411000052907DD002340F2E24220A94948006852
:1041200006F09CFF484B03EB86039A789DF88310BA
:10413000BDF8800006F006F816A9002001F096FAF6
:104140001A99C1F3031004F0C3FA8DF834001A99D8
:1041500001F00F0004F0BCFA8DF835001999C1F395
:10416000031004F0B5FA8DF83600199901F00F002C
:1041700004F0AEFA8DF837001C99C1F3031004F077
:10418000A7FA8DF838001C9901F00F0004F0A0FA8E
:104190008DF8390000250BE00DA8415D04F14300C6
:1041A000405D814202D000F00DFC03E0681CC5B206
:1041B000062DF1DB00BF254901EB063101F10800B6
:1041C0000C2210A900F03CFE00250EE010A830F8EB
:1041D000151004F12B00405D814204D0BDF8800031
:1041E00000F01CFA35E6681CC5B20C2DEEDB174951
:1041F00001EB063101F180000C2210A900F020FE35
:10420000002513E010A830F81500FF2800D10FE0BA
:1042100010A830F8151004F13700405D814203D03A
:10422000304600F03BFB14E6681CC5B20C2DE9DB00
:1042300000BF00F0ABFE00BF0BE600005E000020F8
:104240000000001064000020C0DA00100010100010
:1042500070B50446607803F09DFE0501A07803F078
:1042600099FE28444FF6FF7101EA0015E07803F04B
:1042700091FE28444FF6FF7101EA0015207903F002
:1042800089FE284485B2FA2006F0EAFA284601F0B1
:104290003BFA70BD00BFFEE710B588B003AC052245
:1042A00069464FF4405000F0CBFD022020700A22F6
:1042B0006946601CFCF7B9FB0321E1720C2103A8DD
:1042C00001F04CFD08B010BD1FB500F023F800222E
:1042D0000321084606F0DCFD084908600020084A72
:1042E0000223CDE901200093039003464FF490622E
:1042F00004A1074806F0CEFF1FBD00006C0000209F
:1043000070000020456C6563745461736B0000009D
:10431000DDA600081CB5012000908DF804000220E5
:104320008DF8050000208DF8060001208DF80700AB
:1043300069461E48FEF74AF942F208000090012043
:104340008DF8040002208DF8050000208DF806008D
:1043500001208DF8070069461548FEF737F904205B
:10436000009001208DF8040002208DF80500002047
:104370008DF8060001208DF8070069460D48FEF70C
:1043800025F94FF4F860009001208DF80400022018
:104390008DF8050000208DF8060001208DF807003B
:1043A00069460548FEF712F91CBD000000000240F6
:1043B00000080240001002400014024070B504469C
:1043C0000D4604213E48FEF76EF9642004F022FAFF
:1043D0007DBB092C33D2DFE804F032050A0F141A32
:1043E00020262D0008213748FEF75DF927E04021FF
:1043F0003548FEF758F922E080213348FEF753F99B
:104400001DE04FF480713048FEF74DF917E04FF48E
:1044100000712D48FEF747F911E04FF480612A48FA
:10442000FEF741F90BE04FF400512648FEF73BF947
:1044300005E005E001212548FEF735F900BF37E02A
:10444000012D35D1092C32D2DFE804F031050A0FF5
:10445000141A20262C0008211A48FEF722F926E01B
:1044600040211948FEF71DF921E080211648FEF78A
:1044700018F91CE04FF480711348FEF712F916E0AA
:104480004FF400711048FEF70CF910E04FF4806112
:104490000D48FEF706F90AE04FF400510948FEF70F
:1044A00000F904E001210948FEF7FBF800BF00BF56
:1044B000642004F0AFF904210148FEF7F2F870BD62
:1044C00000100240000802400014024000000240B8
:1044D00010B52DED048BB0EE408AF0EE608A9FEDB2
:1044E0000A0B53EC102B51EC180B07F0B1FB41EC0D
:1044F000190B9FED070B53EC102B07F0D9F841EC8B
:10450000100BBDEC048B10BD3D0AD7A31894E140FD
:104510008FC2F5285C8771402DE9F0430024002507
:1045200000273C4909884A1EE019002103F052FC8B
:1045300000BF00BF00BF2AE004EB4400364911F879
:104540001080781987B2002532480088A04200DC2C
:104550001EE0002612E0601C84B2681C85B22D4863
:104560000088A04200DC0CE004EB44002A4911F86A
:104570001000404500D004E0701C86B2B6F57A7F8A
:10458000E9DB00BF6A1E0021384605F0C7FAD3E711
:1045900000BF00240025002737E004EB44001E493B
:1045A00011F8108004EB440001EB400090F80190FA
:1045B000781987B2002517480088A04200DC25E062
:1045C000002619E0601C84B2681C85B2114800887E
:1045D000A04200DC13E004EB44000F4911F8100086
:1045E000404506D104EB440001EB400040784845CB
:1045F00000D004E0701C86B2B6F57A7FE2DB00BF23
:104600006A1E0021384604F00BF9C6E700BFBDE87A
:10461000F08300006800002050C30010F0B5ADB07A
:104620000446022006F01CF902202A490870E0B274
:10463000FCF7B8FF07462012FCF7B4FF00EBC001FF
:1046400001EB001007EB8006234A02EB0630402204
:104650000DA900F0F5FB20128DF80000E0B28DF8F6
:10466000010002208DF802000DF1030204210DA8C3
:10467000FDF72CF8002004F02BF88DF8070002203D
:1046800004F026F88DF8080032208DF80900352056
:104690008DF80A000DF10B0219210DA8FDF716F88F
:1046A00022210DF10200FCF75DFE0546280904F009
:1046B0000FF88DF81C0005F00F0004F009F88DF8D4
:1046C0001D0003208DF81E001921684602F086F8AF
:1046D0002DB0F0BD1800002000101000002013E0E5
:1046E00003210B4A02F82010002102EB80025170D6
:1046F0000221074A02EB800291700021044A02EB7A
:104700008002D170411C88B2B0F57A7FE8DB704737
:10471000C0DA00102DE9F04104460D4617461E464A
:10472000DDF8188006F050F81DB128780D4901F821
:10473000240027B138780B4901EB8401487026B179
:104740003078084901EB84018870B8F1000F05D07A
:1047500098F80000034901EB8401C87006F046F8A0
:10476000BDE8F081C0DA00102DE9F04391B04FF0C0
:104770000009002483E0464901EB04301D2202A910
:1047800000F05EFBBDF808004FF6FF71884200D1D3
:1047900073E0BDF80810C8B203F0FCFB0601BDF8D9
:1047A0000A10C8B203F0F6FB30444FF6FF7101EA7D
:1047B0000016BDF80C10C8B203F0ECFB30444FF605
:1047C000FF7101EA0016BDF80E10C8B203F0E2FB5B
:1047D000304486B2BDF83010C8B203F0DBFB0746A8
:1047E000BDF83210C8B203F0D5FB0501BDF8341096
:1047F000C8B203F0CFFB28444FF6FF7101EA001561
:10480000BDF83610C8B203F0C5FB28444FF6FF715F
:1048100001EA0015BDF83810C8B203F0BBFB28440C
:1048200085B2BDF83E10C8B203F0B4FB00074FEAF2
:104830001068BDF84010C8B203F0ACFB404400F073
:10484000FF088DF800708DF80180ADF80250ADF8CA
:1048500004604846411C1FFA81F900EB40000D49F5
:1048600001EB400000990160BDF8041081800A4806
:104870000088401C0849088000BF601C84B2B4F561
:104880007A7FFFF678AFFFF747FE11B0BDE8F083FF
:104890000010100050C30010680000202DE9F04304
:1048A000A5B00446022005F0DBFF03204349087051
:1048B000E0B2FCF777FE81462012FCF773FE00EBB6
:1048C000C00101EB001009EB80083D4901EB083104
:1048D00001F180002D220EA900F0B2FA00260CE0B2
:1048E0000EA830F81600FF2803D00EA830F81600E6
:1048F00008B9354603E0701CC6B2C82EF0DB00BF15
:1049000020128DF80400E0B28DF8050002208DF829
:104910000600200B03F0DCFE8DF80700C4F3032033
:1049200003F0D6FE8DF80800C4F3031003F0D0FEA8
:104930008DF8090004F00F0003F0CAFE8DF80A009C
:10494000002003F0C5FE8DF80B00032003F0C0FE2D
:104950008DF80C00280903F0BBFE8DF80D0005F062
:104960000F0003F0B5FE8DF80E000DF10F02294681
:104970000EA8FCF7ABFE05F10900C1B20DF106006F
:10498000FCF7F0FC0746380903F0A2FE05F10A0126
:1049900001AA505407F00F0003F09AFE014605F1FA
:1049A0000B0001AA11540321401C1154401CC1B238
:1049B00001A801F013FF25B0BDE8F0831800002026
:1049C0000010100030B595B0022005F049FFFF201F
:1049D0008DF804008DF8050002208DF806004620B1
:1049E0008DF807008DF808008DF809008DF80A0091
:1049F000002003F06DFE8DF80B000B2003F068FE25
:104A00008DF80C0031208DF80D0032208DF80E004D
:104A10000EA9002000F02AFE1299C1F3031003F042
:104A200057FE8DF80F00129901F00F0003F050FEB1
:104A30008DF810001199C1F3031003F049FE8DF8B1
:104A40001100119901F00F0003F042FE8DF81200E1
:104A50001499C1F3031003F03BFE8DF81300149971
:104A600001F00F0003F034FE8DF814001099C1F32B
:104A7000031003F02DFE8DF81500109901F00F00C2
:104A800003F026FE8DF816000F99C1F3031003F012
:104A90001FFE8DF817000F9901F00F0003F018FEAC
:104AA0008DF8180036490879FCF789FD0509284674
:104AB00003F00EFE8DF8190031490879FCF77FFDEF
:104AC00000F00F05284603F003FE8DF81A002C496C
:104AD0004879FCF774FD0509284603F0F9FD8DF8C7
:104AE0001B0027494879FCF76AFD00F00F052846AE
:104AF00003F0EEFD8DF81C002149087BFCF75FFDFB
:104B00000509284603F0E4FD8DF81D001C49087BCB
:104B1000FCF755FD00F00F05284603F0D9FD8DF890
:104B20001E001749487BFCF74AFD0509284603F09B
:104B3000CFFD8DF81F001249487BFCF740FD00F0C7
:104B40000F05284603F0C4FD8DF8200019210DF152
:104B50000600FCF707FC0446200903F0B9FD8DF8B8
:104B6000200004F00F0003F0B3FD8DF821000320B6
:104B70008DF822001F2101A801F030FE15B030BDD4
:104B8000C00500202DE9F04704460D460027B84631
:104B9000207A03F0FFF98146E07903F0FBF949EA56
:104BA00000102870002608E0781CC7B214F8011B1A
:104BB000032900D103E0701CC6B2FF2EF4DB00BF56
:104BC00028780C30B84201D14FF001084046BDE8CA
:104BD000F08700BFFEE710B50346002004E01C5C30
:104BE00022F81040441CE0B28842F8DB10BD704748
:104BF00070B5002100230F22C4781CB3174C246821
:104C000004F4E064C4F5E064C4F30721C1F10404D2
:104C1000E3B20A4144789C40E1B2847814402143D5
:104C20000C07210E0E4C05786155047804F01F0521
:104C30000124AC4005786D11AD0005F1E025C5F803
:104C4000004109E0047804F01F050124AC40054D43
:104C50000678761145F8264070BD00000CED00E0A6
:104C600000E400E080E100E002490143024A1160F3
:104C7000704700000000FA050CED00E0BFF34F8F15
:104C80000648006800F4E06005490843001D034938
:104C90000860BFF34F8F00BFFEE700000CED00E09F
:104CA0000000FA05BFF34F8F0648006800F4E0608B
:104CB00005490843001D03490860BFF34F8F00BF3B
:104CC000FEE700000CED00E00000FA05F0B591B041
:104CD0000546002409AA19A12846FBF721FC0DF17D
:104CE0001A0006A9021F05ABCDE90032CDE902107A
:104CF0008B1F04AA13A109A8FBF712FC06281BD1DD
:104D00009DF8250003F046F907469DF8240003F0BE
:104D100041F947EA0010C6B23046FCF743FC0446AE
:104D2000012000F02DFBA04206D0012000F028F960
:104D30002146012000F08CFC11B0F0BD252A73251E
:104D4000730000002568642C2568642C2568642C99
:104D50002568642C2568642C2568642C00000000FC
:104D600070B504460125002340F2E24219460B4883
:104D7000006806F0B1F801280ED12046FDF71CF9B5
:104D8000054615B106A003F0F9FD00231A461946A1
:104D90000248006806F062F970BD00005C01002066
:104DA0000D0A4E4F525F464C415348204572617385
:104DB0006520426C6F636B204572726F72212121F6
:104DC0000000000070B504460125002340F2E242D5
:104DD00019460B48006806F07FF801280ED12046DE
:104DE000FDF706F9054615B106A003F0C7FD00233F
:104DF0001A4619460248006806F030F970BD0000F6
:104E00005C0100200D0A4E4F525F464C4153482032
:104E1000457261736520536563746F7220457272C9
:104E20006F7221212100000010B5FDF723F9012048
:104E300006F00AF80149086010BD00005C0100207E
:104E400070B504460D461646002340F2E24219466C
:104E50000948006806F040F801280BD13246214687
:104E60002846FDF755FA00231A46194602480068FD
:104E700006F0F4F870BD00005C0100202DE9F0415F
:104E800004460D4617460126002340F2E242194629
:104E90001048006806F020F8012818D12046FDF7D8
:104EA000A7F8064616B10CA003F068FD3A46214665
:104EB0002846FDF747FA064616B110A003F05EFD3E
:104EC00000231A4619460348006806F0C7F8BDE8F3
:104ED000F08100005C0100200D0A4E4F525F464CED
:104EE000415348204572617365536563746F722046
:104EF0004572726F72212121000000000D0A4E4F91
:104F0000525F464C41534820577269746520457280
:104F1000726F72212121000010B502460B4600215C
:104F200009E032F811004FF6FF74A04201D00120D1
:104F300010BD481C81B29942F3DB0020F8E7000065
:104F400010B50A48006805F08BFD0948006805F0B7
:104F500087FD0848006805F083FD0748006805F0F4
:104F60007FFD0648006805F07BFD10BD1C00002099
:104F7000280000202C0000204800002070000020A5
:104F8000014908627047000000000E4210B50D484C
:104F900041880088401E814205DA0A484088401C4A
:104FA0000849488002E000200649488005494988B0
:104FB00001EB4101044A02EB4101888800F0A4FBA7
:104FC00010BD00006800002050C3001029B1064A3F
:104FD00012680243044B1A6004E0034A12688243D9
:104FE000014B1A60704700003038024029B1064A70
:104FF00012680243044B1A6004E0034A12688243B9
:10500000014B1A60704700003838024029B1064A47
:1050100012680243044B1A6004E0034A1268824398
:10502000014B1A60704700004038024029B1064A1F
:1050300012680243044B1A6004E0034A1268824378
:10504000014B1A607047000044380240F0B500215F
:1050500000220024022500260223324F3F6807F079
:105060000C0121B1042905D0082937D105E02E4FC4
:10507000076036E02D4F076033E02A4F3F1F3F683F
:10508000C7F38056274F3F1F3F6807F03F036EB1BD
:10509000264FB7FBF3F7DFF88CC0ACF1040CDCF85B
:1050A00000C0CCF3881C07FB0CF40CE01E4FB7FBD0
:1050B000F3F7DFF870C0ACF1040CDCF800C0CCF3FF
:1050C000881C07FB0CF4174F3F1F3F68C7F30147CD
:1050D0007F1C7D00B4FBF5F7076002E0124F07600C
:1050E00000BF00BF0F4F3F6807F0F0010909104FE4
:1050F0007A5C0768D74047600A4F3F6807F4E05181
:10510000890A0B4F7A5C4768D7408760054F3F6834
:1051100007F46041490B064F7A5C4768D740C76087
:10512000F0BD0000083802400024F400001BB70066
:105130000000002010B501460022002300204A1183
:10514000012A02D10A4C236808E0022A03D1084C44
:105150007034236802E0064C7434236801F01F02A7
:10516000012494401C400CB1012000E0002010BD3F
:10517000003802400021094A11701170012802D044
:10518000042808D103E00121044A117004E005213C
:10519000024A117000E000BF00BF70477038024043
:1051A00001490860704700003C0E4742002100F4AE
:1051B0004072B2F5407F08D1094A116821F4F81114
:1051C000084A02401143064A1160054A68321268D3
:1051D000C0F30B031A43024B68331A607047000098
:1051E00008380240FFFCFF0F014600BF080900EB32
:1051F0008000420001F00F001044C0B27047014629
:10520000002204E0501CC2B2A1F10A00C1B20A2976
:10521000F8DA100741EA10607047000008B5002274
:10522000009200200021104A126802F04002CAB920
:10523000421E0D4B1A6000BF0B4A126802F040017B
:10524000009A521C0092009AB2F5803F01D00029CA
:10525000F2D0054A126802F040020AB1012002E0D1
:10526000002000E0012008BD0C2800400348006831
:1052700020F0800001490860704700000C280040C1
:1052800070B506460C4600250E4800680E4900EA37
:105290000105280CE070C5F30420607005F03F00A4
:1052A000A070C5F3423020705EB9E078FFF79CFF34
:1052B000E0706078FFF798FF6070A078FFF794FFC8
:1052C000A07070BD042800403FFFFF0070B5064687
:1052D0000C4600250F4800680F4900EA0105C5F398
:1052E00005402070C5F30620607005F07F00A070B7
:1052F00005F48000000CE0705EB92078FFF774FFC1
:1053000020706078FFF770FF6070A078FFF76CFF87
:10531000A07070BD002800407F7F7F0030B504463C
:105320000025CA201549086053200860FFF776FF62
:1053300000B91DE011481C38006820F040000F49FA
:105340001C39086008460068216808430B491C396D
:1053500008600A491439A068086008460068A188F6
:1053600040EA0140054914390860FFF77FFF012535
:10537000FF2002490860284630BD00002428004074
:1053800008B501460020009004480090009800EB0A
:10539000810000900098006808BD0000502800407F
:1053A0002DE9F04105460C46002600274DB96078EE
:1053B00000F01000102804D1607820F010000A30AE
:1053C000607005B908E06078FFF70EFF0646A07828
:1053D000FFF70AFF064600BF55B1E0780004617888
:1053E00040EA0120A1780843217840EA413611E0E3
:1053F000E078FFF704FF4FEA00486078FFF7FFFE10
:1054000048EA0028A078FFF7FAFE48EA000820786A
:1054100048EA4036CA201249086053200860FFF766
:10542000FDFE08B9002714E00E4830400C49203931
:105430000860FFF71BFF0A481C38006800F02000D6
:1054400030B900F0D5F808B9002702E0012700E0E4
:105450000127FF20024908603846BDE8F0810000BE
:10546000242800403FFFFF002DE9F04105460C468F
:10547000002600274DB92E48006800F0400000B11A
:1054800002E00020E07000BF0DE02948006800F055
:10549000400020B12078FFF7A7FE064602E000207A
:1054A000E07000BF00BF55B120780004617840EA89
:1054B0000120A1780843E17840EA014611E0207814
:1054C000FFF79DFE4FEA00486078FFF798FE48EA34
:1054D0000028A078FFF793FE48EA0008E07848EA41
:1054E0000046CA2012491C31086053200860FFF7AB
:1054F00095FE08B9002713E00E4830400C490839E2
:105500000860FFF7B3FE0A48006800F0200030B9D9
:1055100000F06EF808B9002702E0012700E001273B
:10552000FF2003491C3108603846BDE8F0810000C7
:10553000082800407F7F7F0010B588B0044601A98D
:10554000012000F093F80699C1F3031003F0C0F8AE
:1055500024F8020B069901F00F0003F0B9F824F8C3
:10556000020B0599C1F3031003F0B2F824F8020B03
:10557000059901F00F0003F0ABF824F8020B049931
:10558000C1F3031003F0A4F824F8020B049901F00E
:105590000F0003F09DF824F8020B0399C1F30310E8
:1055A00003F096F824F8020B039901F00F0003F0C2
:1055B0008FF824F8020B0299C1F3031003F088F866
:1055C00024F8020B029901F00F0003F081F824F88F
:1055D000020B0199C1F3031003F07AF824F8020BCF
:1055E000019901F00F0003F073F8208008B010BD9E
:1055F00008B50022009200200021CA22134B1A6035
:1056000053221A60114A183A126822F0A0020F4B76
:10561000183B1A6000BF0D4A183A126802F02001C8
:10562000009A521C0092009AB2F5003F01D0002966
:10563000F1D0064A183A126802F020020AB101209D
:1056400000E00020FF22014B1A6008BD2428004022
:1056500008B500220092044A0092009A02EB8002F0
:105660000092009A116008BD502800407CB50546A4
:105670000C46002340F2E24219462248006805F039
:105680002BFC01283CD101A92846FFF7F9FD69460A
:105690002846FFF71BFE9DF8020020609DF80100E0
:1056A00060609DF80000A0609DF80600E0609DF835
:1056B0000500206165B90120FFF762FE00EBC00123
:1056C00001EB00109DF8071001EB800060610DE018
:1056D000012D0BD10120FFF753FEC6B23046FBF778
:1056E0006EFF9DF8071001EB002060619DF804003B
:1056F000A06100231A4619460248006805F0AEFC76
:105700007CBD00005401002030B58DB0044602205D
:1057100005F0A6F8244804800620244908702012C9
:105720008DF80000E0B28DF8010002208DF8020033
:10573000200B02F0CDFF8DF80300C4F3032002F02C
:10574000C7FF8DF80400C4F3031002F0C1FF8DF809
:10575000050004F00F0002F0BBFF8DF806003020BA
:105760008DF8070036208DF8080030208DF80900EC
:105770008DF80A0009210DF10200FBF7F3FD054643
:10578000280902F0A5FF8DF80B0005F00F0002F0CC
:105790009FFF8DF80C0003208DF80D000E21684648
:1057A00001F01CF80DB030BD5E0000201800002094
:1057B00070B505460C46FDB90420FFF7E1FDC0B207
:1057C00020600420FFF7DCFDC0F3072060600420A8
:1057D000FFF7D6FD000CA0600320FFF7D1FDC0B29B
:1057E000E0600320FFF7CCFDC0F307202061032019
:1057F000FFF7C6FD000C606170BD000000B58DB004
:105800000B2213494FF48040FFF71AFB104B103363
:105810000F4A10A16846FAF7BFFD40F2E24215A117
:10582000684600F07BF828B913A003F0A7F8002021
:105830000DB000BD40F6C41216A1002000F06EF8B5
:1058400020B90DA003F09AF80020F1E70120EFE75E
:10585000C403002041542B43495053544152543DFA
:1058600022544350222C222573222C222573220DF0
:105870000A0000004F4B00000D0ACEDEB7A8C1ACF5
:10588000BDD3B7FECEF1C6F74950B6CBBFDA0D0A8D
:10589000000000000D0A434F4E4E4543540D0A00D0
:1058A0000EB5012005F0D0FA1B4908600121080758
:1058B000FFF7ACFB0120FFF763FB0020FFF760FD63
:1058C0004AF2A551884225D00120FFF753FC00BFC2
:1058D0004120FFF72FFC0028FAD04FF48070FFF72B
:1058E00065FC0120FFF75CFC7F200190FF20029007
:1058F000002000906846FFF711FD4AF2A5510020F4
:10590000FFF7A6FE14210120FFF7A2FE20210220AE
:10591000FFF79EFE01200EBD540100202DE9F0434B
:10592000B3B005460C4616464FF00008002743E08A
:10593000781CC7B245B12846FAF745FF00F0FF09C9
:1059400049462846FDF7ACF91CB9012033B0BDE843
:10595000F08305F01DFD804628E00023324601A9B2
:105960001748006805F0B8FA01281FD1214601A8A0
:10597000FAF717FF90B113A12046FBF781F818B989
:1059800001A800F0DFFF07E010A101A8FAF709FF66
:1059900010B101A8FBF722FE0120D7E70DA101A855
:1059A000FAF7FFFE10B101A8FFF790F905F0F0FC3F
:1059B000A0EB0800B042D0D3032FB9DB0020C5E72D
:1059C000380000202B43434C4B3A20002B435351CB
:1059D0003A0000002A50535554545A3A200000000F
:1059E00000B5A3B0202108A8FAF7F8FF002007901F
:1059F00005900690049074E03CA002F0BFFF49A01F
:105A000002F0BCFF4AA002F0B9FF00235A1E10A901
:105A10004848006805F060FA012862D146A110A844
:105A2000FBF72EF800B95DE007AA04AB901E06A9AB
:105A3000CDE90232CDE90010031F05AA3FA110A84D
:105A4000FAF76EFD062849D1BDF91400002841DBA4
:105A5000BDF91400FF283DDCBDF91600002839DB34
:105A6000BDF91600FF2835DCBDF91800002831DB30
:105A7000BDF91800FF282DDCBDF91A00002829DB2C
:105A8000BDF91A00FF2825DC0498002822DB0498C1
:105A9000B0F5803F1EDA9DF81C003B281AD11DAAE4
:105AA0002CA110A8FAF73CFD21AA2CA110A8FAF706
:105AB00037FD10221DA908A8FAF7B7FF062221A971
:105AC0000CA8FAF7B2FF0F2208A94FF48040FFF7A5
:105AD000D5F906E025A002F051FF02E023A002F074
